:100000000C94F4010C9415020C9415020C94150236
:100010000C9415020C9415020C9415020C94150204
:100020000C9415020C9415020C9415020C941502F4
:100030000C9415020C9415020C9415020C941502E4
:100040000C9415020C9415020C9415020C941502D4
:100050000C94000B0C9415020C9415020C941502D0
:100060000C9415020C94B0090C94DF090C94150241
:100070000C9415020C9415020C9415020C941502A4
:100080000C9415020C9415020C9415020C94150294
:100090000C9415020C9415020C9415020C94150284
:1000A0000C9415020C9415020C9415020C94150274
:1000B0000C9415020C9415020C9415020C94150264
:1000C0000C9415020C9415020C9415020C94150254
:1000D0000C9415020C9415020C9415020C94150244
:1000E0000C9415020C9415020C9415020C947E0CC1
:1000F0000C94560C0C9415020C9415020C94580D8B
:100100000C9415020C9415020C9415020C94150213
:100110000C9415020C9415020C9415020C94150203
:100120000C9415020C9415020C9415020C941502F3
:100130000C9415020A0A5749424F20486F737420E5
:100140003C4275696C642025732025733E0A004388
:1001500048414E4E454C3D3078253032582C205089
:10016000414E49443D3078253034582C2053484F77
:1001700052545F414444523D3078253034580A008F
:100180004F4B207B2773686F72745F6164647227C2
:100190003A3078253034582C20276170706E616DAC
:1001A00065273A20272573272C2027626F61726408
:1001B0006E616D65273A272573272C202776657297
:1001C00073696F6E273A3078253032582C202763B8
:1001D0007263273A3078253034587D0A00455252F0
:1001E0002070696E672074696D656F75740A0045CB
:1001F000525220526164696F3A203078253032586B
:100200000A00417661696C61626C6520636F6D6D97
:10021000616E64733A0A00253032642025313273EE
:100220002025730A004F4B0A004552522063686133
:100230006E6E656C206F7574206F662072616E67DC
:10024000650A004F4B206D656D6F72792074617285
:100250006765742073657420746F2025630A0045F8
:100260005252206D656D6F7279207461726765748A
:1002700020756E6B6E6F776E3A2025630A004F4BC8
:100280002070616E69643D3078253034582C2073BD
:10029000686F7274616464723D3078253034582C14
:1002A000206368616E6E656C3D3078253032580A87
:1002B000004F4B2025730A004F4B203078253034F7
:1002C000580A004F4B2075706C6F61642068657828
:1002D0002D66696C65206E6F772E2E2E0A004552B2
:1002E000522070617273696E67206865786C696E00
:1002F00065004F4B20656E64206F662066696C65F3
:100300000A004552522069676E6F72696E672072EB
:10031000656320747970652025640A004552522077
:1003200070617273696E67206865786C696E650AC2
:1003300000455252205478206661696C0A0045528B
:10034000522069676E6F72696E67207265632074F0
:100350007970652025640A0045525220506172610F
:100360006D657465720A0045525220556E6B6E6F52
:10037000776E20636F6D6D616E640A0041880000C6
:100380000000000000020000010000772D686F737C
:1003900074000070696E6F6363696F000C9457049A
:1003A0000C945D030C9408040C9412030C949B04AD
:1003B0000C94AC060C946C030C94CE020C945B026F
:1003C0000C9479040C94F0020C948E030C946B0240
:1003D0000C9494030C94B2060C94B4020C94260270
:1003E0000C9440030C94BB0411241FBECFEFD1E842
:1003F000DEBFCDBF00E00CBF14E0A0E0B2E0E2E35E
:10040000F8E200E00BBF02C007900D92A237B107DF
:10041000D9F727E0A2E7B4E001C01D92A637B207E2
:10042000E1F70E942A0F0C9417140C94000080919D
:1004300001028823E1F3809100028823C1F3109226
:100440000102089585E292E00C942F08EF92FF924A
:100450000F931F93CF93DF9382E092E00E942F08C7
:10046000C4E0D2E000E010E087E1E82E82E0F82E60
:100470008E818F938D818F9389818F9388818F93C4
:100480001F930F93FF92EF920E9431080F5F1F4F4F
:1004900027968DB79EB708960FB6F8949EBF0FBEED
:1004A0008DBF0131110521F7DF91CF911F910F9180
:1004B000FF90EF900895FC0121812F9380818F930D
:1004C00081EB92E09F938F930E9431080F900F90E1
:1004D0000F900F900895CF92DF92EF92FF920F93BB
:1004E0001F93CF93DF93CDB7DEB72C970FB6F89459
:1004F000DEBF0FBECDBF8C0140E150E060E070E098
:10050000FC01808191810E94900F6B017C0140E190
:1005100050E060E070E0F801828193810E94900FCA
:100520006B8740E150E060E070E0F80184819581E4
:100530000E94900F6C872CE0AE014F5F5F4F60E32D
:10054000C6010E9430070E9422022C960FB6F89432
:10055000DEBF0FBECDBFDF91CF911F910F91FF90F6
:10056000EF90DF90CF90089540E150E060E070E0C0
:10057000FC01808191810E94900F862F8B508031E9
:1005800048F480E090E0862FBC0180E00E949C0D42
:100590000C94220289E292E00C942F08CF93DF930F
:1005A00000D01F92CDB7DEB740E150E060E070E0D0
:1005B000FC01808191810E94900F69837A838B83F3
:1005C0009C830E94170269817A81CB010E942908CD
:1005D0000F900F900F900F90DF91CF910C9422020B
:1005E000CF93DF9300D01F92CDB7DEB740E150E04C
:1005F00060E070E0FC01808191810E94900F69832E
:100600007A838B839C830E94170269817A81CB0154
:100610000E9423080F900F900F900F90DF91CF91C1
:100620000C942202CF93DF93DC01ED91FC91808149
:10063000992787FD90950E94C410682F282F255474
:10064000EC01DD27223020F08C3411F0883549F49C
:100650008FEF9FEF0E94CC07DF93CF9383E492E06C
:1006600004C0DF93CF938FE592E09F938F930E9416
:1006700031080F900F900F900F90DF91CF91089558
:100680000E94B806FC0184851F928F9381818F930D
:1006900080818F9383818F9382818F938EE792E005
:1006A0009F938F930E9431088DB79EB708960FB61F
:1006B000F8949EBF0FBE8DBF08950E9418089F93A7
:1006C0008F9388EB92E09F938F930E9431080F9055
:1006D0000F900F900F900895CF93DF9300D01F924B
:1006E000CDB7DEB740E150E060E070E0FC01808112
:1006F00091810E94900F69837A838B839C830E94EF
:10070000170269817A81CB010E941D080F900F901A
:100710000F900F90DF91CF910C9422020E9417024C
:100720000E940B080C942202CF92DF92EF92FF926C
:10073000CF93DF93EC0140E150E060E070E088810E
:1007400099810E94900F6B017C0164EC74E08A81B6
:100750009B810E94D805811103C08CE193E01DC0EC
:100760008091C704811121C00E94170210920002DB
:100770004091C40468EC74E0C6010E949707809120
:100780007204811108C0DF91CF91FF90EF90DF904C
:10079000CF900C94220281E393E0DF91CF91FF9000
:1007A000EF90DF90CF900C942F081F928F938EE3E1
:1007B00093E09F938F930E9431080F900F900F90BA
:1007C0000F90DF91CF91FF90EF90DF90CF90089541
:1007D0000E9438098F3F2FEF920709F417C020912C
:1007E0000905E22FF0E0ED58FB4F10828A309105A9
:1007F00019F08D30910521F41092090581E00895DA
:10080000203520F480832F5F2093090580E0089530
:100810001F93CF93DF9340E150E060E070E0FC0174
:10082000808191810E94900FEB0183EC92E00E9405
:100830002F080E94E8038823E1F364EC74E083E767
:1008400094E00E94D805811106C08EED92E00E94CE
:100850002F0811E001C010E00E9417028091C70428
:1008600081110CC0109200024091C40468EC74E045
:10087000CE010E9497071123E1F215C0813039F4AF
:1008800082EF92E0DF91CF911F910C942F081F927D
:100890008F9382E093E09F938F930E9431080F9093
:1008A0000F900F900F90DF91CF911F910895CF93EC
:1008B000DF9300D01F92CDB7DEB740E150E060E09B
:1008C00070E0FC01808191810E94900F69837A839E
:1008D0008B839C830E94170269817A81CB010E94DD
:1008E00005080F900F900F900F90DF91CF910C940F
:1008F0002202CF93DF9300D01F92CDB7DEB740E145
:1009000050E060E070E0FC01808191810E94900FD6
:1009100069837A838B839C830E94170269817A8121
:10092000CB010E94FF070F900F900F900F90DF9167
:10093000CF910C942202CF93DF9300D01F92CDB7BA
:10094000DEB740E150E060E070E0FC018081918121
:100950000E94900F69837A838B839C830E94170285
:1009600069817A81CB010F900F900F900F90DF91EA
:10097000CF910C94D407CF92DF92EF92FF920F9316
:100980001F93CF93DF9300D01F92CDB7DEB78C01BA
:1009900040E150E060E070E0FC01808191810E94C4
:1009A000900F6B017C0140E150E060E070E0F801E5
:1009B000828193810E94900FAB01BC0149835A83CD
:1009C0006B837C830E94170249815A816B817C81F1
:1009D000C6010E94F1070F900F900F900F90DF91CA
:1009E000CF911F910F91FF90EF90DF90CF900C94DB
:1009F0002202FC0186858F9385858F9384851F92C3
:100A00008F93CF0147969F938F93CF010F969F931C
:100A10008F9380858F9387818F9380E891E09F9358
:100A20008F930E9431088DB79EB70C960FB6F8943D
:100A30009EBF0FBE8DBF08958DED91E00C942F08E1
:100A400081E08093000208951F928F938FEE91E0D2
:100A50009F938F930E9431080F900F900F900F90EB
:100A6000089591E090930102809372040895BF92DB
:100A7000CF92DF92EF92FF920F931F93CF93DF936A
:100A8000CDB7DEB764970FB6F894DEBF0FBECDBF0B
:100A90000E94E803882309F455C015C0903219F468
:100AA000108281E00EC0882361F0AA0FBB1F81E095
:100AB00090E08C0F9D1FA80FB91FED93FC93B3948A
:100AC00080E0319604C081E0B12CE3E7F4E090814E
:100AD000911109C0C980DA8094E0E92E92E0F92EE4
:100AE00000E010E006C0AB2DB0E0AA30B105B4F2D2
:100AF000F1CFF70160817181C6010E94DE10892B60
:100B0000A9F487E0809FF001819FF00D1124EC5F34
:100B1000FD4F84818B1538F40280F381E02DCE01E6
:100B2000039619950FC088E593E00AC00F5F1F4F29
:100B3000F7E0EF0EF11C01311105D9F687E693E0DD
:100B40000E942F0864960FB6F894DEBF0FBECDBF8B
:100B5000DF91CF911F910F91FF90EF90DF90CF9099
:100B6000BF900895282F332727FD30952053310952
:100B70002A30310510F4805301C087558F700895D5
:100B80001F93CF93DF931F92CDB7DEB769830E9487
:100B9000B205182F6981862F0E94B20590E1199F36
:100BA00090011124822B0F90DF91CF911F91089516
:100BB0004F925F926F927F928F929F92AF92BF926D
:100BC000CF92DF92EF92FF920F931F93CF93DF9319
:100BD00000D01F921F92CDB7DEB77C018B0120E0C1
:100BE00091E0712C4B0144E4840E911C81C02F5F75
:100BF000933029F130F4913069F0923009F075C0EA
:100C000012C0953009F453C008F442C0963009F080
:100C10006CC05FC0213009F068C089818A3309F453
:100C20007FC090E065C0223009F060C06A81898190
:100C30000E94C005F801808320E093E059C0243071
:100C400009F054C089810E94B205482E8A810E9411
:100C5000B205582E8B810E94B205682E8C810E94AD
:100C6000B205D42CD29490EFD922C12CB52CA12C52
:100C700096012A293B29282BF0E16F9EC0011124FF
:100C8000282B392BF8013283218320E094E030C0F7
:100C9000223061F56A8189810E94C005F801838351
:100CA000808120E0882309F43FC095E021C02230F4
:100CB000E9F46A8189819D830E94C005F801E70DEE
:100CC000F11D84837394F80180819D81781658F515
:100CD00025C0213059F46A8189812D830E94C00585
:100CE000F401808397E02D8103C090E0243088F4E4
:100CF000F70181917F01E1E0F0E0EC0FFD1FE20FD1
:100D0000F11D8083882329F0992319F0973009F089
:100D10006ECF81E0973051F080E008C020E0E8CF4E
:100D200020E092E0E5CF20E096E0E2CF0F900F9038
:100D30000F900F900F90DF91CF911F910F91FF9027
:100D4000EF90DF90CF90BF90AF909F908F907F906B
:100D50006F905F904F9008950E94200560E070E0D2
:100D6000CB0108950E941C0560E070E0CB0108955E
:100D700080E195E008950C94240508950F931F9346
:100D8000CF93C82F80910B05813089F400E010E0EB
:100D9000980144E050E060E070E08CEA96E00E9448
:100DA000520B90930D0580930C0510920B058C2F20
:100DB000CF911F910F910C943105EF92FF920F93F9
:100DC0001F93CF93DF9383EF9FE10E942F139CE14A
:100DD000E92E95E0F92EF701808384EF9FE10E94D0
:100DE000371302E115E0F8019183808386EF9FE1DC
:100DF0000E943713C0E1D5E099838883E4E1F5E0F0
:100E00001082118212821382148215821682178236
:100E10006FE780E295E00E94950C60E070E0F701DA
:100E2000608180E00E949C0DF8016081718185E005
:100E30000E949C0D6881798186E00E949C0D64E08F
:100E400070E083E00E949C0D21E047E060E88CE0C8
:100E5000DF91CF911F910F91FF90EF900C94850E31
:100E60000F931F93CF93DF931F92CDB7DEB78A0105
:100E700041E458E8F8015183408332813F5F328377
:100E800040911205509113055483438396838583C3
:100E9000409110055091110550874783618783E089
:100EA00029830E94DC0C41E0B8012981822F8E5FEA
:100EB0000F90DF91CF911F910F910C94140ECF934F
:100EC000DF93EC0140E250E06CE773E08FE995E0DE
:100ED0000E94CC1020E24FE955E062E0CE01DF91A4
:100EE000CF910C943007CF93DF93EB01898582304B
:100EF00071F480910A05882381F080910E0590910C
:100F00000F050E94C50BCE010E94F90406C0813076
:100F100021F48F8198850E945F0721E047E060E817
:100F20008CE00E94850ECE01DF91CF910895CF9382
:100F3000DF93A0911E06B0911F06FB016AEA75E0DF
:100F4000EB0113C02191A2270A2EA295A07FA02514
:100F50000B2EBA2FA295AF700A26A695BA27AB27FB
:100F6000AA0FAA0FAA0FA02529932C2F261B2417FE
:100F700048F3B0931F06A0931E064093A905242FA3
:100F8000255F4FE955E060E20E94300781E08093E1
:100F90000B05DF91CF9108956093A9052BE04FE9F0
:100FA00055E064E20C9430070F931F932AE04FE959
:100FB00055E061E00E94300700E010E098014CE04D
:100FC00050E060E070E082EB96E00E94520B90935C
:100FD0000F0580930E0581E080930A051F910F9104
:100FE00008954093A9055093AA056093AB057093AB
:100FF000AC052EE04FE955E066E20C9430072AE09C
:101000004FE955E065E20C9430072AE04FE955E0DE
:1010100061E20C9430072AE04FE955E062E28FEF7D
:101020009FEF0E94300710921F0610921E0608952F
:1010300080911E0690911F0608952AE04FE955E021
:1010400063E20C9430072AE04FE955E063E00C942A
:1010500030072AE04FE955E067E20C9430070C9422
:101060001F09CF93DF93CDB7DEB7C058D1090FB6B4
:10107000F894DEBF0FBECDBFFE01EA57FF4F41918E
:1010800051919F016FE770E0CE0101960E94F1102F
:10109000CE0101960E940809C058DF4F0FB6F894A0
:1010A000DEBF0FBECDBFDF91CF9108959B01AC0194
:1010B00083E0220F331F441F551F8A95D1F760E04C
:1010C00074E284EF90E00E946E0F2150310982E0BB
:1010D0008093C0003093C5002093C40088E98093BA
:1010E000C10086E08093C20008950E945608E1EC9A
:1010F000F0E080818F7D80831092A2061092A1067D
:1011000010922407109223070895AF92BF92CF92B6
:10111000DF92EF92FF920F931F93CF93DF93EC0137
:10112000F62EAFB6F8948091A206D090A106815019
:101130008F778D1571F08D1528F44D2D41954F77D2
:10114000C82E09C0D81628F4482F4D194F77C12C46
:1011500002C0C12C40E0BC2CB40EFB1408F4BF2C20
:10116000E42EF41608F4EF2CEE20B1F00E2D10E072
:101170002D2D30E02F5D394F4E2D50E0BE01C901BD
:101180000E94D510C00FD11F8E2D8D0D8F778093AB
:10119000A106FE188FE7F822CF1408F4FC2CFF20DC
:1011A00051F021E236E04F2D50E0BE01C9010E940E
:1011B000D510F092A1068091C10080628093C10099
:1011C000AFBE8B2DDF91CF911F910F91FF90EF90CC
:1011D000DF90CF90BF90AF9008959C018091A106C1
:1011E0008F5F8F779091A206891771F0E091A10629
:1011F000F0E0EF5DF94F20838093A1068091C1005C
:1012000080628093C10002C02FEF3FEFC9010895B3
:101210000F931F93CF93DF93EC0109C0112707FDB4
:101220001095C8010E94ED0880179107D1F7099128
:101230000111F4CFDF91CF911F910F9108950F937A
:101240001F93CF93DF93EC0109C0112707FD109581
:10125000C8010E94ED0880179107D1F7FE01219681
:1012600004910111F2CFDF91CF911F910F91089559
:101270009091240780912307981771F0E09124073B
:10128000F0E0ED55F94F208130E0809124078F5F29
:101290008F778093240702C02FEF3FEFC901089595
:1012A000AF92BF92CF92DF92EF92FF920F931F9374
:1012B000CF93DF93EC01F62EAFB6F894D0902407CD
:1012C000C0902307DC1469F0CD1420F44D2D419516
:1012D0004F7709C0DC1428F44C2D4D194F77C12CE1
:1012E00002C0C12C40E0BC2CB40EFB1408F4BF2C8F
:1012F000E42EF41608F4EF2CEE20B1F00E2D10E0E1
:101300002D2D30E02D55394F4E2D50E0B901CE0135
:101310000E94D510C00FD11F8E2D8D0D8F77809319
:101320002407FE188FE7F822CF1408F4FC2CFF20C6
:1013300051F023EA36E04F2D50E0B901CE010E9472
:10134000D510F0922407AFBE8B2DDF91CF911F9166
:101350000F91FF90EF90DF90CF90BF90AF900895E6
:101360001F920F920FB60F9211240BB60F928F930C
:101370009F93EF93FF9390912307809124079813F5
:1013800005C0809120068F5F80932006E09123079F
:10139000F0E08091C600ED55F94F808380912307DE
:1013A0008F5F8F7780932307FF91EF919F918F91AC
:1013B0000F900BBE0F900FBE0F901F9018951F92AD
:1013C0000F920FB60F9211240BB60F928F939F932B
:1013D000EF93FF93E091A206F0E0EF5DF94F80817B
:1013E0008093C600E091A206F0E0EF5DF94F83E242
:1013F00080838091A2068F5F8F778093A206909161
:10140000A1068091A206981305C08091C1008F7D2E
:101410008093C100FF91EF919F918F910F900BBE30
:101420000F900FBE0F901F901895E8E3F7E020E0B3
:1014300030E0A081B181AB2B79F4AEE0A29FF00146
:10144000A39FF00D1124EE5CF84F5783468362830F
:1014500073838483958308C02F5F3F4F3E9624306B
:10146000310539F7E0E0F0E0CF0108950F931F93C5
:10147000CF93DF93DC011D961C921E921C97E09186
:101480006E07F0916F07309709F41CC012964D91CA
:101490005D916D917C911597C0E0D0E001C0FC0199
:1014A0000281138124813581401751076207730738
:1014B00070F41D96FC93EE931C97209719F0BD874E
:1014C000AC8710C0B0936F07A0936E070BC08485E4
:1014D0009585EF01009719F7109721F0309711F0DB
:1014E000B587A487DF91CF911F910F910895209127
:1014F0006E0730916F072115310521F1F901A0E048
:10150000B0E040E050E001C0FB01608171816817EC
:10151000790769F454854585109731F01C965C93E2
:101520001C971D964C9302C0252F342FAF01648564
:101530007585DF016115710539F730936F072093C9
:101540006E0702C040E050E0CA0108950F931F9358
:10155000CF93DF93C0916E07D0916F07E0E0F0E08A
:1015600047C08091700790917107A0917207B09168
:1015700073074A815B816C817D8184179507A6077B
:10158000B707C8F18C859D85309719F095878487BA
:1015900004C090936F0780936E07688579858A856C
:1015A0009B85EE81FF811995611571058105910576
:1015B000A1F000917007109171072091720730918E
:1015C0007307060F171F281F391F0A831B832C83DD
:1015D0003D83CE010E94360A06C0198218821F82FE
:1015E0001E821D861C869C858D85FE01C92FD82FE5
:1015F000209709F0B6CFDF91CF911F910F910895F9
:101600001F920F920FB60F9211240BB60F922F93C9
:101610003F934F935F936F937F938F939F93AF937A
:10162000BF93EF93FF938091700790917107A09102
:101630007207B09173070196A11DB11D80937007C9
:1016400090937107A0937207B09373070E94A60A44
:10165000FF91EF91BF91AF919F918F917F916F918A
:101660005F914F913F912F910F900BBE0F900FBE46
:101670000F901F901895E1E8F0E0808181608083F1
:10168000EFE6F0E080818160808310926F07109216
:101690006E071092700710927107109272071092E5
:1016A00073070895CF92DF92EF92FF920F931F93EB
:1016B000FC01CB01BA01680179010091700710911A
:1016C00071072091720730917307600F711F821F9D
:1016D000931FAF010E94150A0097A9F00091020222
:1016E00010910302FC011183008398012F5F3F4F8B
:1016F0003093030220930202C086D186E286F386ED
:101700000E94360A02C000E010E0C8011F910F914C
:10171000FF90EF90DF90CF9008950F931F93CF939A
:10172000DF9300D01F92CDB7DEB700917007109104
:1017300071072091720730917307400F511F621F8C
:10174000731F49835A836B837C830E94770A8C01C1
:1017500049815A816B817C81009759F0FC01428359
:101760005383648375830E94360AF8012081318196
:1017700002C020E030E0C9010F900F900F900F9051
:10178000DF91CF911F910F9108950E94770AFC017C
:10179000009739F0208131811182108217821682E0
:1017A00002C020E030E0C90108950F931F9300911B
:1017B0007007109171072091720730917307B8017B
:1017C000C9011F910F910895F8941092850010920D
:1017D0008400109270071092710710927207109295
:1017E000730760936A0770936B0780936C079093FD
:1017F0006D0778940895CF93DF931F92CDB7DEB72E
:10180000682F82E299830E946B0E9981692F83E28F
:101810000F90DF91CF910C946B0ECF93DF931F92BB
:10182000CDB7DEB7682F80E299830E946B0E998155
:10183000692F81E20F90DF91CF910C946B0E0C9485
:10184000BB060F931F93CF93DF931F921F92CDB7C9
:10185000DEB787E00E94710E282F47E060E886E03F
:101860002A830E94770E182FAE014F5F5F4F609161
:101870002E0780912C0790912D070E949F0E01E06A
:101880002A81111100E060912C0770912D07498188
:101890008F770E94730790932D0780932C070F90EA
:1018A0000F90DF91CF911F910F9108951F920F928A
:1018B0000FB60F9211240BB60F922F933F934F93B5
:1018C0005F936F937F938F939F93AF93BF93EF93A8
:1018D000FF930E94210CFF91EF91BF91AF919F91D7
:1018E0008F917F916F915F914F913F912F910F90C9
:1018F0000BBE0F900FBE0F901F9018951F920F9266
:101900000FB60F9211248F939F938091250790918A
:101910002607019690932607809325079F918F9124
:101920000F900FBE0F901F90189590932D078093E6
:101930002C0760932E0780E00E94690E8091390188
:101940008E7F80933901809139018D7F8093390199
:1019500080E28A95F1F780913901816080933901A5
:1019600060E08EE00E946B0E8FE00E94710E28E016
:1019700040E06FE182E00E94850E87EF97E00197DB
:10198000F1F700C0000040E06FE181E00E94770EB7
:10199000883019F081E00E941F0C21E045E060E2F0
:1019A00084E00E94850E68E48EE00E946B0E109227
:1019B0002A0710922B070895FF920F931F93CF933E
:1019C000DF9300D0CDB7DEB7182F823061F028F456
:1019D0008823D1F08130A9F408C0843041F048F068
:1019E000853079F408C086E010C089E00EC086E139
:1019F0000CC089E10AC088E08A8383E08B8301E020
:101A000007C084E00E941F0C88E08A838B8300E07B
:101A100080912A07853069F4011135C08091390120
:101A20008D7F809339018FEC97E00197F1F700C02B
:101A300000002B8140E06FE182E00E94850E8CE87F
:101A4000F82E40E06FE181E00E94770E89839A8151
:101A50008981981305C09A818981981308C00AC0AA
:101A60009AEA9A95F1F700C0FA9459F7F4CF81E019
:101A70000E941F0C002329F080913901826080931D
:101A8000390110932A070F900F900F90DF91CF919B
:101A90001F910F91FF900895CF93C82F23E040E04E
:101AA0006FE182E00E94850E8C2FCF910C94DC0CAC
:101AB0001F920F920FB60F9211240BB60F922F9315
:101AC0003F934F935F936F937F938F939F93AF93C6
:101AD000BF93EF93FF9380912A07813019F480E040
:101AE00090E011C08330A9F445E060EE82E00E94EE
:101AF000770E863030F4E82FF0E0E558FD4F808116
:101B000001C083E090E00E94BE0680912B070E94F6
:101B1000DC0CFF91EF91BF91AF919F918F917F91DD
:101B20006F915F914F913F912F910F900BBE0F904E
:101B30000FBE0F901F9018951F93CF93DF93162F12
:101B4000972F8430A9F150F4813009F469C088F0EE
:101B50008230E9F0833009F05DC037C0863009F487
:101B600042C0D8F1873009F444C0883009F052C02F
:101B70004BC0862F8B50803108F04CC0262F40E0A0
:101B80006FE188E00E94850E1093270749C0E62F79
:101B9000EF5EE53108F03EC060932807F0E0EF57B4
:101BA000FD4FE081F0E0249140E06FE085E008C067
:101BB000643080F560932907262F45E060E688E0D1
:101BC000DF91CF911F910C94850E60932B07862F88
:101BD000DF91CF911F910C94DC0C862FDF91CF9178
:101BE0001F910C94FB0B862FDF91CF911F910C94CA
:101BF0000D0CC62FD72F14E26991812F0E946B0E16
:101C00001F5F1C32C9F70CC0862FDF91CF911F9147
:101C10000C94630E82E0DF91CF911F910C941F0C06
:101C2000DF91CF911F9108950E94950EE9E3F1E0B5
:101C300080818260808380818D7F80830895CF93AF
:101C4000DF9382E00E94710ED82F66E082E00E944E
:101C50006B0EC2E840E06FE181E00E94770E8630B3
:101C6000D1F469E082E00E946B0E66E082E00E949F
:101C70006B0E21E047E060E888E00E94850E8FE26D
:101C800092E00197F1F700C0000081E00E94710E20
:101C900087FF10C009C0813021F39AEA9A95F1F7C5
:101CA00000C0C150B9F6DDCF86FBCC27C0F981E07A
:101CB000C82701C0C2E06D2F82E00E946B0E8C2FFE
:101CC000DF91CF910895833309F08FEF089583E377
:101CD000089508950895E82FF0E0E05CFE4F6083DA
:101CE0000895E82FF0E0E05CFE4F80810895E82F32
:101CF000F0E0E05CFE4F80816823862F90E002C018
:101D0000959587954A95E2F70895E82FF0E0E05C15
:101D1000FE4F042E01C0220F0A94EAF72623609595
:101D200080816823262B2083089587FD8FE7809389
:101D30008001482F50E081E891E00C94D510FF928B
:101D40000F931F93CF93DF93EA01F0907B01462F0F
:101D5000F61608F44F2D042F10E050E060E871E013
:101D60000E94D510F801E058FE4F808188838F2DA6
:101D7000DF91CF911F910F91FF900895FF920F93E4
:101D80001F93CF93DF938C01F62EEA01209751F039
:101D900047E060E886E00E94770E91E0813009F02C
:101DA00090E0988340E050E06F2DC801DF91CF9123
:101DB0001F910F91FF900C949F0EDF92EF92FF9274
:101DC0000F931F93CF93DF938C01D62E7A01E901F5
:101DD000209751F047E060E886E00E94770E91E09E
:101DE000813009F090E09883A7016D2DC801DF9143
:101DF000CF911F910F91FF90EF90DF900C949F0E69
:101E000080917B010895962FBA01282F30E0F901C7
:101E1000E90FF11DE038F10514F09FE7981B2058F9
:101E20003E4F492F50E0C9010C94D510A42F952F97
:101E3000282F30E0F901E60FF11DE038F10514F02C
:101E40006FE7681B20583E4F462F50E0B9018A2F9C
:101E50000C94D51084B1806784B985B1806785B949
:101E600060E072EC81E090E00E9475080E943B0BFC
:101E70000E94DD06789486E992E09F938F938FE924
:101E800092E09F938F9384E391E09F938F930E94BE
:101E900031080E94B806FC01108101810E94B80639
:101EA000FC01C281D3810E94B8060F931F93DF9378
:101EB000CF93FC0184851F928F938FE491E09F93D1
:101EC0008F930E9431088DB79EB70E960FB6F89487
:101ED0009EBF0FBE8DBF0E943705FDCFA1E21A2E17
:101EE000AA1BBB1BFD010DC0AA1FBB1FEE1FFF1FBE
:101EF000A217B307E407F50720F0A21BB30BE40B0E
:101F0000F50B661F771F881F991F1A9469F7609554
:101F10007095809590959B01AC01BD01CF0108950E
:101F20004F925F926F927F928F929F92AF92BF92E9
:101F3000CF92DF92EF92FF920F931F93CF93DF9395
:101F40005B01EA016115710519F0FB018083918342
:101F5000209739F09E01225031092332310508F0D3
:101F6000E6C07C01F70191907F018F01892D90E0FF
:101F70000E94BC10892BB1F7FDE29F1206C0F70149
:101F800091908F018824839407C0FBE29F1203C0C5
:101F9000F70191908F01812C209709F4D6C0C031B0
:101FA000D10581F4CEC0F8018081883719F08835D9
:101FB00009F0C1C0F80191800E5F1F4FF2E08F2A37
:101FC000C0E1D0E0C830D105D9F024F4C230D10549
:101FD000F9F407C0CA30D10551F0C031D105C1F4C0
:101FE00025C0C12CD12CE12C40E4F42E24C0CAE041
:101FF000D0E03CECC32EDC2CEC2C3CE0F32E1BC0E0
:10200000C8E0D0E0C12CD12CE12C20E1F22E13C08D
:102010009E01442737FD4095542F60E070E080E03A
:1020200090E80E946E0F69017A0105C0C12CD12C85
:10203000E12C98E0F92E40E060E070E0CB012E0149
:10204000662457FC6094762CE92DE053EA3060F06A
:10205000292D21542A3110F4E75006C0292D21568C
:102060002A3128F5E92DE7552E2F30E02C173D07B2
:10207000F4F447FD18C0C616D706E806F90680F046
:102080009B01AC01C301B2010E94F0136E0F711DE0
:10209000811D911D61307105810520E8920710F0C6
:1020A0004FEF01C041E0F80191908F01CDCFA11415
:1020B000B10481F0442331F001501109F50111837D
:1020C000008308C081FE1AC002501109F501118376
:1020D000008314C047FF12C080FE05C060E070E0BE
:1020E00080E090E804C06FEF7FEF8FEF9FE722E280
:1020F00030E0309375072093740716C080FE08C047
:1021000090958095709561957F4F8F4F9F4F0CC034
:1021100097FF0AC082E290E090937507809374075E
:102120006FEF7FEF8FEF9FE78B019C0112C000E004
:1021300010E098010EC080E3982E209709F460CF3C
:1021400041CFF0E39F123ECF2ECF20E392124FCF2C
:102150002ACFB801C901DF91CF911F910F91FF9054
:10216000EF90DF90CF90BF90AF909F908F907F9037
:102170006F905F904F90089591117FC2803219F057
:1021800089508550D0F708959111089581568A514C
:1021900008F4805285580895FB01DC0102C00590C7
:1021A0000D9241505040D8F70895FB01DC0102C068
:1021B00001900D9241505040D8F70895FB01DC0189
:1021C0008D9181341CF08B350CF4805E619161340B
:1021D0001CF06B350CF4605E861B611189F3990B62
:1021E00008950F931F93CF93DF93CDB7DEB72E974C
:1021F0000FB6F894DEBF0FBECDBF8C01CA014EE012
:102200004C831A83098377FF02C060E070E8615055
:1022100071097E836D83A901BC01CE0101960E94E4
:102220002A114D815E8157FD0AC02F8138854217E2
:1022300053070CF49A01F801E20FF31F10822E9657
:102240000FB6F894DEBF0FBECDBFDF91CF911F91C7
:102250000F9108952F923F924F925F926F927F92CB
:102260008F929F92AF92BF92CF92DF92EF92FF92A6
:102270000F931F93CF93DF93CDB7DEB72C970FB695
:10228000F894DEBF0FBECDBF7C016B018A01FC015B
:1022900017821682838181FFC6C188248394912C82
:1022A0008C0E9D1EF7019381F60193FD859193FF9E
:1022B00081916F01882309F4B2C1853239F493FD0D
:1022C000859193FF81916F01853229F4B70190E0E8
:1022D0000E945613E7CF512C312C20E02032A8F475
:1022E0008B3261F028F4803251F0833271F40BC0EC
:1022F0008D3239F0803349F4216028C02260246097
:1023000025C0286023C0206121C027FD27C0382FA9
:1023100030533A3078F426FF06C0FAE05F9E300D65
:102320001124532E13C08AE0389E300D1124332E11
:1023300020620CC08E3221F426FD71C1206406C0DB
:102340008C3611F4206802C0883641F4F60193FD02
:10235000859193FF81916F018111C0CF982F955482
:10236000933018F09052933028F40C5F1F4FFFE326
:10237000F9830DC0833631F0833771F0833509F06E
:102380005EC023C0F801808189830E5F1F4F442403
:102390004394512C540115C03801F2E06F0E711CAA
:1023A000F801A080B18026FF03C0652D70E002C057
:1023B0006FEF7FEFC5012C870E944B132C01830127
:1023C0002C856FE7262E222218C03801F2E06F0E0E
:1023D000711CF801A080B18026FF03C0652D70E05C
:1023E00002C06FEF7FEFC5012C870E9440132C01C4
:1023F0002C8550E8252E222A830123FC1CC006C010
:10240000B70180E290E00E9456133A94832D90E049
:1024100048165906A8F30FC0F50127FC859127FE41
:1024200081915F01B70190E00E94561331103A94F8
:10243000F1E04F1A51084114510471F7EDC0843690
:1024400011F0893641F5F80127FF07C060817181DD
:10245000828193810C5F1F4F08C060817181882742
:1024600077FD8095982F0E5F1F4F4FE6B42EB22256
:1024700097FF09C090958095709561957F4F8F4F1C
:102480009F4FF0E8BF2A2AE030E0A4010E948213A7
:10249000A82EA81843C0853731F43FEEB32EB222E0
:1024A0002AE030E024C099EFB92EB2228F36B9F07D
:1024B00020F4883509F0B3C00DC0803721F088378B
:1024C00009F0ADC002C020E1B22AB4FE0BC084E026
:1024D000B82A08C024FF09C0E6E0BE2A06C028E0EA
:1024E00030E005C020E130E002C020E132E0F80138
:1024F000B7FE07C060817181828193810C5F1F4F9D
:1025000006C06081718180E090E00E5F1F4FA401E2
:102510000E948213A82EA818FFE7BF22B6FE0BC0A8
:102520002B2D2E7FA51450F4B4FE0AC0B2FC08C0B7
:102530002B2D2E7E05C07A2C2B2D03C07A2C01C0AA
:10254000752C24FF0DC0FE01EA0DF11D8081803342
:1025500011F4297E09C022FF06C07394739404C04D
:10256000822F867809F0739423FD14C020FF0FC0DA
:102570005A2C731460F4530C5718732C08C0B7010D
:1025800080E290E02C870E94561373942C8573147C
:10259000B0F304C0731410F4371801C0312C24FFB9
:1025A00012C0B70180E390E02C870E9456132C855F
:1025B00022FF1EC021FF03C088E590E002C088E72B
:1025C00090E0B7010CC0822F867891F021FD02C007
:1025D00080E201C08BE227FD8DE2B70190E00E940E
:1025E000561306C0B70180E390E00E9456135A9438
:1025F000A514C0F3AA94F401EA0DF11DB70180817E
:1026000090E00E945613A110F5CF06C0B70180E2FA
:1026100090E00E9456133A943110F8CF43CEF70160
:102620002681378102C02FEF3FEFC9012C960FB6EC
:10263000F894DEBF0FBECDBFDF91CF911F910F91F8
:10264000FF90EF90DF90CF90BF90AF909F908F90D2
:102650007F906F905F904F903F902F900895F999E1
:10266000FECF92BD81BDF89A992780B50895A8E163
:10267000B0E042E050E00C94E213992788270895D7
:10268000FC010590615070400110D8F7809590953D
:102690008E0F9F1F0895FC01615070400190011042
:1026A000D8F7809590958E0F9F1F08950F931F93D5
:1026B000CF93DF938C01EB018B8181FD03C00FEF82
:1026C0001FEF1AC082FF0DC02E813F818C819D813A
:1026D0002817390764F4E881F9810193F983E883C5
:1026E00006C0E885F985802F1995892B41F78E81E1
:1026F0009F8101969F838E83C801DF91CF911F91A7
:102700000F910895FA01AA27283051F1203181F163
:10271000E8946F936E7F6E5F7F4F8F4F9F4FAF4FE9
:10272000B1E03ED0B4E03CD0670F781F891F9A1FFC
:10273000A11D680F791F8A1F911DA11D6A0F711DB0
:10274000811D911DA11D20D009F468943F912AE0BC
:10275000269F11243019305D3193DEF6CF010895A4
:10276000462F4770405D4193B3E00FD0C9F7F6CFD5
:10277000462F4F70405D4A3318F0495D31FD40529D
:10278000419302D0A9F7EACFB4E0A6959795879533
:1027900077956795BA95C9F7009761057105089512
:1027A0009B01AC010A2E06945795479537952795BE
:1027B000BA95C9F7620F731F841F951FA01D089556
:1027C000DC01CB01FC01F999FECF06C0F2BDE1BDF1
:1027D000F89A319600B40D9241505040B8F70895E0
:1027E000DB018F939F930E940014BF91AF91A29F32
:1027F000800D911DA39F900DB29F900D11240895FF
:102800000E940B14A59F900DB49F900DA49F800D66
:10281000911D11240895A29FB001B39FC001A39FF1
:1028200001D0B29F700D811D1124911D0895F8945F
:02283000FFCFD8
:1028320001010100AB02BB0402B002D1029B040100
:10284200D602F002790401E202F502570401FC0209
:102852001803940302200342030804014E03660393
:102862008E03006C0379036C03017E0393035D0303
:10287200009703A4035B0201A903B703400300BC52
:1028820003D503120301DC03EE03F00201F5030A90
:1028920004CE020112042E04B40201240436046B95
:1028A20002033E045E0426020060040000000103ED
:1028B200020F0F0F0F0F0E0E0E0D0D0C0C0B0A094F
:1028C20008070604020032323A30323A3238004EF9
:1028D2006F7620203420323031330061646472001C
:1028E20053657420666C61736820746172676574E5
:1028F2002061646472657373206F66206E6F646515
:102902000070696E670050696E672061206E6F64A7
:1029120065005365742061206E6F646520746F20BA
:10292200646561660066696E6973680046696E690E
:1029320073682061206E6F64652028666F7263651C
:102942002077726974652900666565646865780038
:10295200466565642061206C696E65206F6620683B
:1029620065782066696C6520746F2061206E6F64E3
:1029720065006665656468657866696C65004665CC
:102982006564206865782066696C6520746F2061D3
:10299200206E6F64650072657365740052657365BD
:1029A200742061206E6F64650065786974004578F3
:1029B2006974206E6F646520626F6F746C6F6164FE
:1029C20065720063726300476574206461746120FC
:1029D200435243006563686F004563686F2061205E
:1029E200737472696E6700696E666F00496E666F16
:1029F200726D6174696F6E2061626F7574206D799A
:102A020073656C6600746172676574005365742047
:102A1200746172676574206D656D6F7279006A62A8
:102A22006F6F746C004A756D7020696E746F2062EE
:102A32006F6F746C6F6164657200626F6F746C7536
:102A4200700055706461746520426F6F746C6F61C1
:102A52006465720053657420726164696F206368F3
:102A6200616E6E656C00786D706C6C6564004578A3
:102A7200616D706C65206F66206170706C69636156
:102A820074696F6E3A20536574204C4544003F00D0
:102A920048656C70206F6E20636F6D6D616E64733C
:022AA200000032
:00000001FF
