:1010000039C0000052C0000050C000004EC00000B7
:101010004CC000004AC0000048C0000046C00000AC
:1010200044C0000042C0000040C000000AC50000EB
:10103000AFC500003AC0000038C0000036C0000054
:1010400034C0000032C0000030C000002EC00000DC
:101050002CC000002AC0000028C0000026C00000EC
:1010600024C0000022C0000020C000001EC00000FC
:101070001CC0000011241FBECFEFD2E0DEBFCDBFE9
:1010800011E0A0E0B1E0EEE2FFE102C005900D92B8
:10109000A035B107D9F711E0A0E5B1E001C01D927C
:1010A000A137B107E1F724D140C7AACF15C090916D
:1010B000F20091110EC09091E8009B7F9093E800A0
:1010C00003C09EB3992351F09091E80092FFF9CFAD
:1010D00002C09091F10081508111E9CF08953091C3
:1010E0005E0120915D0190915C0180915B01909384
:1010F000520180935301C901909350018093510193
:101100000895CF93DF9300D000D000D0CDB7DEB7E5
:1011100080915901843009F44CC030F4813059F089
:10112000833009F0C1C01FC0853009F490C08630FB
:1011300009F0BAC0ADC080915A01823008F0B4C045
:10114000CEDF80915A0181110CC0809152019091A3
:10115000530123E0FC0120935700E89507B600FCFB
:10116000FDCF85E008C080915A01882311F08230BC
:1011700029F4B5DF89E08093000196C0813009F041
:1011800093C0E0E0F0E084918F3F69F01092540149
:10119000F0935301E09352018AE08093000185E0CF
:1011A0008093570181C03196E11520E1F20759F78C
:1011B0007BC080915A01833041F581E080935801D2
:1011C00080915F019091600120915B01892B61F01A
:1011D000213009F069C090915E0180915D0190938A
:1011E00055018093560160C021110CC02CE088E1AC
:1011F00090E00FB6F894A895809360000FBE2093FE
:10120000600052C0109201014FC081114DC0809109
:101210005B018F3F09F048C0E0E0F0E083E095E03B
:1012200080935700E89507B600FCFDCF90935700D8
:10123000E89507B600FCFDCFE058FF4FE11520E12F
:10124000F20771F781E180935700E8952DC080E2A5
:101250008C838CED8D838BEF8E838EE1898384E983
:101260008A8389E88B8380915B0190915A01911167
:1012700005C0FE01E80FF11D848107C09130A1F483
:10128000FE01BF97E80FF11D8081809364010CC0BF
:1012900080915A01833041F480915B01811104C037
:1012A00080915C018093540126960FB6F894DEBFBE
:1012B0000FBECDBFDF91CF91089584B7877F84BFE4
:1012C00088E10FB6F89480936000109260000FBE22
:1012D00081E085BF82E085BF8AB180638AB98BB126
:1012E00080638BB9A3C38CD381E085BF15BE0895FD
:1012F000E4DF789401C0F2D5809101018111FBCF28
:10130000809158018111F7CFEEDFE0915501F09106
:1013100056010995AF92BF92CF92DF92EF92FF9262
:101320000F931F93CF93DF9380916F019091700182
:101330009093600180935F0180916101882341F067
:1013400080916101815080936101811101C05D9A9A
:1013500080916201882341F08091620181508093E5
:101360006201811101C05C9A80916A01833009F4A5
:10137000A3C130F4813069F0823009F0D8C103C1D3
:10138000853009F4B7C108F4ADC1863009F0CFC18A
:10139000B9C15C9883E0809362018091E800877F07
:1013A0008093E80080915801882329F0AADE5D9A95
:1013B0005C9A1092580180915F01909160010097B2
:1013C00059F12091E80022FD04C02EB32111F9CF7C
:1013D000AEC12091F10020935901019790936001D3
:1013E00080935F01EAE5F1E012C08091F100819302
:1013F00080915F01909160010197909360018093CB
:101400005F0181E0EF35F80711F47BDE05C08091C4
:10141000F2008111EACFF9CF80910001853009F007
:10142000AEC080915F0190916001892B21F482E030
:1014300080930001A4C08AE139DE809152018F714E
:1014400035DE2091520130915301C0915001D0916D
:1014500051012196C21BD30B80915A0181118BC07F
:10146000D695C795022FF32E40915401E42ED12C2E
:10147000C90110E0CC24C39425E0B22E33E0A32EA2
:1014800045C02091F2002223E9F02197402F5F2DE3
:101490006E2D7D2DF091F100E091F1002F2F3E2F68
:1014A000FA010901C0925700E89511241F5F4E5FB1
:1014B0005F4F6F4F7F4F042FF52EE62ED72E10343F
:1014C00081F411C02091E8002B7F2093E80004C034
:1014D0002EB3222309F42BC12091E80022FFF8CF7C
:1014E000D4CF209799F4FC01B0925700E89507B645
:1014F00000FCFDCF209751F0FA01A0925700E8952B
:1015000007B600FCFDCFDB01CA0110E0209709F00F
:10151000B8CF8091500190915101909353018093E5
:10152000520181E180935700E89527C08091F20035
:10153000882391F021976091F10080915201909160
:101540005301E5D4809152019091530101969093FB
:101550005301809352010FC08091E8008B7F8093EC
:10156000E80004C08EB3882309F4E1C08091E8004C
:1015700082FFF8CFDFCF2097C9F680E197DD809119
:10158000E8008B7F96C08091E800877F8093E80019
:101590005D9883E08093610104C08EB3882309F4D1
:1015A000C6C08091E80080FFF8CF809100018930AB
:1015B00091F08A3059F480915A01813039F4909138
:1015C0005201809153019093F10002C08091640117
:1015D0008093F1006BC02091520130915301C09172
:1015E0005001D09151012196C21BD30B80915A0119
:1015F000811131C0D695C795C901A0915401B0E0C1
:101600001FC02091F200203261F0FC01259134913D
:101610002093F1003093F1000296A11DB11D219796
:101620000FC02091E8002E7F2093E80004C02EB365
:10163000222309F47CC02091E80020FFF8CFE5CFF9
:101640002097F9F6809150019091510190935301A8
:101650008093520128C0823031F523C08091F2007E
:10166000803281F021970091520110915301C801FD
:1016700046D48093F1000F5F1F4F109353010093E6
:1016800052010FC08091E8008E7F8093E80004C073
:101690008EB3882309F44BC08091E80080FFF8CF17
:1016A000E1CF2097D9F682E0809300018091E80095
:1016B0008E7F8093E80030C08091E800877F809320
:1016C000E800809157018093F1001092F100109290
:1016D000F1001092F100809100018093F1001092CE
:1016E000F100E4CF8091E800877F8093E8001092BA
:1016F000570112C08091E800877F8093E8008091B5
:10170000000166CF8091E800877F8093E8005D9AB2
:101710005C9A82E080930001DF91CF911F910F913D
:10172000FF90EF90DF90CF90BF90AF905FC0DF91C0
:10173000CF911F910F91FF90EF90DF90CF90BF90CE
:10174000AF900895292F30E033272230310559F02A
:101750002330310569F021303105C1F020E030E05F
:1017600080E090E017C02BE130E082E291E012C00F
:10177000811106C020911E0130E08EE191E00AC087
:101780002091020130E082E091E004C022E130E0EB
:101790008DE391E0FA0191838083C90108958093DC
:1017A000E900EBEEF0E0808181608083EDEEF0E017
:1017B00010826093EC0040838091EE00881F8827A0
:1017C000881F08951092F40080E08093E900109241
:1017D000F0001092E8001092ED009091EB009E7FD7
:1017E0009093EB008F5F853081F7089580916901B8
:1017F00087FD05C08091E80080FF0DC010C080917A
:10180000E80082FD04C08EB38111F9CF0895809164
:10181000E8008B7707C08EB38111ECCF08958091DB
:10182000E8008E778093E800089520916F01309151
:1018300070012617370748F06115710539F42091BA
:10184000E8002E772093E80001C0B901FC0190E088
:1018500029C08091E80083FD37C08091E80082FDB7
:101860002DC08EB3882391F18EB3853089F180919C
:10187000E80080FF17C08091F20006C0919190931C
:10188000F100615071098F5F6115710511F08830A9
:10189000A8F391E0883009F090E08091E8008E771D
:1018A0008093E80061157105A1F69111D2CF06C0B1
:1018B0008EB3882359F08EB3853051F08091E800C3
:1018C00082FFF6CF80E0089581E0089582E00895D8
:1018D00083E0089520916F0130917001261737073A
:1018E00048F06115710539F42091E8002E772093B6
:1018F000E80001C0B9019C0190E02CC08091E80093
:1019000083FD3AC08091E80082FD30C08EB3882309
:10191000A9F18EB38530A1F18091E80080FF1AC053
:101920008091F20009C0F9012F5F3F4FE491E093ED
:10193000F100615071098F5F6115710511F08830F8
:1019400090F391E0883009F090E08091E8008E7784
:101950008093E8006115710589F69111CFCF06C01B
:101960008EB3882359F08EB3853051F08091E80012
:1019700082FFF6CF80E0089581E0089582E0089527
:1019800083E0089558D05AD01EBA10926701109281
:1019900066011092650184E089BD89B5826089BDC8
:1019A00009B400FEFDCF8091D800982F9F779093C7
:1019B000D80080688093D800809163008E7F8093E8
:1019C00063008091D8008F7D8093D8008091E000E3
:1019D0008E7F8093E0008091E1008E7F8093E10014
:1019E0008091E20081608093E2008091E100877F36
:1019F0008093E1008091E20088608093E200089586
:101A0000C1DFE0EEF0E0808181608083E8EDF0E00E
:101A100080818F7780830FD011D019BCE3E6F0E08E
:101A2000808181608083109268010895ABDF81E03E
:101A30008093680108951092E20008951092E100E9
:101A400008951F920F920FB60F9211242F933F9378
:101A50004F935F936F937F938F939F93AF93BF93B6
:101A6000EF93FF938091E10080FF1BC08091E20023
:101A700080FF17C08091E1008E7F8093E10080910C
:101A8000E2008E7F8093E2008091E200806180938B
:101A9000E2008091D80080628093D80019BC1EBA01
:101AA0001CD28091E10084FF29C08091E20084FF74
:101AB00025C084E089BD89B5826089BD09B400FE76
:101AC000FDCF8091D8008F7D8093D8008091E10078
:101AD0008F7E8093E1008091E2008F7E8093E20010
:101AE0008091E20081608093E20080916701882309
:101AF00011F084E001C081E08EBBEFD18091E10064
:101B000083FF27C08091E20083FF23C08091E10022
:101B1000877F8093E10082E08EBB10926701809105
:101B2000E1008E7F8093E1008091E2008E7F8093C0
:101B3000E2008091E20080618093E20043DE42E0B7
:101B400060E080E02CDE8091F00088608093F000FF
:101B5000C4D18091E10082FF0AC08091E20082FF3F
:101B600006C08091E1008B7F8093E100B6D1FF91A8
:101B7000EF91BF91AF919F918F917F916F915F9105
:101B80004F913F912F910F900FBE0F901F9018957E
:101B90001F920F920FB60F921124EF92FF920F93A4
:101BA0001F932F933F934F935F936F937F938F93E5
:101BB0009F93AF93BF93EF93FF93CF93DF931F92C6
:101BC000CDB7DEB789EEE82EF12CF7018081877062
:101BD000108200EF10E0F8019081977F9083789455
:101BE000898322D0F894F7011082F80190819860DF
:101BF00090838981F70180830F90DF91CF91FF91CE
:101C0000EF91BF91AF919F918F917F916F915F9174
:101C10004F913F912F911F910F91FF90EF900F9057
:101C20000FBE0F901F9018950F931F93CF93DF93C4
:101C3000CDB7DEB7AC970FB6F894DEBF0FBECDBF01
:101C4000E9E6F1E08091F100819321E0E137F207CC
:101C5000C9F78091690190916A01953009F484C0B7
:101C600038F49130B1F170F0933009F029C131C0EE
:101C7000983009F4EDC0993009F4FCC0963009F0B1
:101C80001FC194C0803821F0823809F019C108C002
:101C90008091650190916601992389F082600FC05F
:101CA00080916D0190916E01877099278093E90072
:101CB0008091EB0085FB882780F91092E9009091D4
:101CC000E800977F9093E8008093F1001092F10074
:101CD000CAC0882319F0823009F0F2C08F7121F058
:101CE000823009F0DEC00BC080916B01813009F0B9
:101CF000D8C0933009F080E0809366012FC08091B6
:101D00006B0181112BC080916D0190916E018770E4
:101D10009927009709F4C5C08093E9002091EB0052
:101D200020FFBFC020916A01233021F48091EB0095
:101D3000806212C09091EB0090619093EB0021E0E3
:101D400030E001C0220F8A95EAF72093EA00109252
:101D5000EA008091EB0088608093EB001092E9002C
:101D60008091E800877F82C08111AAC000916B0139
:101D700010916C018091E800877F8093E80036DD48
:101D800004C08EB3882309F48CC08091E80080FFE2
:101D9000F8CFC8018F779927009711F023E001C091
:101DA00022E02EBB80688093E3007BC080588230A5
:101DB00008F086C080916B0190916C018C3D23E00E
:101DC000920779F583E08A838AE289833FB7F894A2
:101DD000DE01139680E09EE041E2E92FF0E04093BF
:101DE0005700E49180FF03C0E295EF709F5FEF70B2
:101DF0002E2F205D2A3308F0295F2C9311961C9218
:101E0000119712968F5F843141F73FBF8091E800B0
:101E1000877F8093E8006AE270E0CE01019605DDDD
:101E200011C0AE01455D5F4F60916D018BDC009785
:101E3000C1F12091E800277F2093E800BC018BA529
:101E40009CA548DD8091E8008B778093E80029C04D
:101E50008038B1F58091E800877F8093E800809119
:101E600067018093F1008091E8008E778093E8000D
:101E7000BDDC17C0811124C090916B01923088F4B1
:101E80008091E800877F8093E80090936701AEDC43
:101E900080916701882311F084E001C083E08EBB4C
:101EA0001CD08091E80083FF0DC08091EB00806220
:101EB0008093EB008091E800877F8093E80002C068
:101EC00029DAEFCFAC960FB6F894DEBF0FBECDBFC8
:101ED000DF91CF911F910F9108950895CF938EB305
:101EE000882359F0C091E900C7701092E9008091F1
:101EF000E80083FD99DEC093E900CF910895F99938
:101F0000FECF92BD81BDF89A992780B50895262FFE
:101F1000F999FECF1FBA92BD81BD20BD0FB6F894CE
:0E1F2000FA9AF99A0FBE01960895F894FFCF31
:101F2E0002011A03500069006E006F006300630027
:101F3E0069006F00200044004600550000000403B5
:101F4E00090409021B00010100804B090400000076
:101F5E00FE0102000921030000000C000112011015
:101F6E000100000020EB03EF2F0000000100010034
:0400000300001000E9
:00000001FF
