:1010000039C0000052C0000050C000004EC00000B7
:101010004CC000004AC0000048C0000046C00000AC
:1010200044C0000042C0000040C00000AAC400004C
:101030003CC000003AC0000038C0000036C00000CC
:1010400034C0000032C0000030C000002EC00000DC
:101050002CC000002AC0000028C0000026C00000EC
:1010600024C0000022C0000020C000001EC00000FC
:101070001CC0000011241FBECFEFD2E0DEBFCDBFE9
:1010800011E0A0E0B1E0E0E7FCE102C005900D92C4
:10109000A635B107D9F711E0A6E5B1E001C01D9270
:1010A000A537B107E1F743D1E1C5AACF9BB1982B92
:1010B0009BB9089515C09091F200992371F4909115
:1010C000E8009B7F9093E80003C09EB3992351F002
:1010D0009091E80092FFF9CF02C09091F100815009
:1010E000882349F70895309164012091630190911C
:1010F00062018091610190935B0180935C01C90161
:1011000090935D0180935E0108952F92DF93CF93BA
:1011100000D000D000D0CDB7DEB780915F01843021
:1011200009F456C0853030F4813059F0833009F02D
:10113000D9C01FC0853009F4A2C0863009F0D2C0E2
:10114000C5C080916001823008F0CCC0CCDF8091B6
:101150006001882361F480915B0190915C0123E040
:10116000FC0120935700E89507B600FCFDCF85E011
:1011700008C080916001882311F0823029F4B3DF28
:1011800089E080930101AEC0813009F0ABC080E0FE
:1011900090E0DC01FC012490F22DFF3F69F0A09368
:1011A0005A0190935C0180935B018AE08093010176
:1011B00085E08093570196C00196A11DB11D803036
:1011C00020E1920720E0A20720E0B20719F78AC0C9
:1011D00080916001833041F581E0809356018091D8
:1011E00065019091660120916101009761F02130C5
:1011F00009F078C080916401909163019093590146
:10120000809358016FC0222361F42CE088E190E0C4
:101210000FB6F894A895809360000FBE20936000ED
:1012200061C0109200015EC0882309F05BC080910C
:1012300061018F3F09F056C080E090E0DC0133E0AF
:1012400025E0FC0130935700E89507B600FCFDCF80
:1012500020935700E89507B600FCFDCF80589F4FBC
:10126000AF4FBF4F803040E1940740E0A40740E01B
:10127000B40739F781E180935700E89533C0DE0168
:101280001196E5E0F1E083E001900D928150E1F7E5
:10129000DE011496E2E0F1E083E001900D928150CE
:1012A000E1F78091610190916001992329F4FE0199
:1012B000E80FF11D818107C09130A1F4FE01BC97B8
:1012C000E80FF11D808180936A010CC0809160015C
:1012D000833041F480916101882321F4809162017F
:1012E00080935A0126960FB6F894DEBF0FBECDBF8D
:1012F000CF91DF912F90089584B7877F84BF88E1D5
:101300000FB6F89480936000109260000FBE81E0E9
:1013100085BF82E085BF8AB180638AB98BB1806363
:101320008BB924C30DD381E085BF15BE0895E4DFDA
:10133000789401C07CD4809100018823D9F78091F2
:1013400056018823B9F7EEDFE0915801F091590179
:101350000995EF92FF920F931F93CF93DF938091A4
:10136000730190917401909366018093650180915F
:101370006701882359F0809167018150809367014C
:1013800080916701882311F480E290DE80916801EA
:10139000882359F080916801815080936801809181
:1013A0006801882311F480E181DE80916E01833031
:1013B00009F48DC1843030F4813071F0823009F04D
:1013C000C0C1F7C0853009F4A0C1853008F495C1CB
:1013D000863009F0B6C1A8C15C9883E080936801AB
:1013E0008091E800877F8093E800809156018823F0
:1013F00039F08BDE80E25ADE80E158DE1092560131
:101400008091650190916601009729F429C02EB35F
:10141000222309F496C12091E80022FFF8CF209101
:10142000F10020935F01019790936601809365011D
:10143000E0E6F1E010C08091F100819380916501B8
:10144000909166010197909366018093650181E018
:10145000E536F80721F08091F200882361F755DE28
:1014600080910101853009F0A0C0809165019091C3
:101470006601009721F482E08093010196C08AE121
:1014800019DE80915B018F7115DE80915B01909177
:101490005C01C0915D01D0915E012196C81BD90B02
:1014A00020916001222309F07CC0D695C7959C014C
:1014B00040915A0150E0DA01C90160E0EE24E39462
:1014C00045E0F42E73E03AC0E091F200EE2371F4AF
:1014D000E091E800EB7FE093E80004C0EEB3EE2378
:1014E00009F42FC1E091E800E2FFF8CF2197E091E5
:1014F000F1000E2FE091F1001E2FFC010801E09297
:101500005700E89511246F5F0296A11DB11D60344C
:1015100011F0209799F4F901F0925700E89507B679
:1015200000FCFDCF209751F0FC0170935700E89527
:1015300007B600FCFDCF9C01AD0160E0209709F0EB
:10154000C3CF80915D0190915E0190935C01809387
:101550005B0181E180935700E89525C08091F200FE
:10156000882371F48091E8008B7F8093E80004C0A9
:101570008EB3882309F4E5C08091E80082FFF8CF9C
:101580006091F10080915B0190915C0161D3809149
:101590005B0190915C01019690935C0180935B01EB
:1015A00021972097D9F680E185DD8091E8008B7F37
:1015B000B8C08091E800877F8093E8005D9883E061
:1015C0008093670104C08EB3882309F4BAC0809168
:1015D000E80080FFF8CF80910101893081F08A30E6
:1015E00059F480916001813039F490915B018091D0
:1015F0005C019093F10090C080916A018DC02091B0
:101600005B0130915C01C0915D01D0915E0121963A
:10161000C21BD30B80916001882379F5D695C795BD
:10162000C901A0915A01B0E01DC02091F200203202
:1016300071F42091E8002E7F2093E80004C02EB3BF
:10164000222309F47EC02091E80020FFF8CFFC019E
:10165000259134912093F1003093F1002197029667
:10166000A11DB11D209709F780915D0190915E0148
:1016700090935C0180935B0126C0823021F521C0EC
:101680008091F200803271F48091E8008E7F809327
:10169000E80004C08EB3882309F453C08091E800A9
:1016A00080FFF8CF00915B0110915C01C801C8D2A6
:1016B0008093F1000F5F1F4F10935C0100935B015B
:1016C00021972097E9F682E08093010127C080915D
:1016D000E800877F8093E800809157018093F100B4
:1016E0001092F1001092F1001092F100809101012E
:1016F0008093F1001092F10011C08091E800877F83
:101700008093E800109257011BC08091E800877F0A
:101710008093E800809101018093F1008091E800BE
:101720008E7F8093E8000CC08091E800877F8093D3
:10173000E80080E2BBDC80E1B9DC82E0809301015B
:101740004DD0DF91CF911F910F91FF90EF900895B1
:10175000923049F0933061F09130C1F020E030E0F8
:1017600080E090E017C02BE130E08AE191E012C008
:10177000882331F42091350130E085E391E00AC0FF
:101780002091390130E089E391E004C022E130E0AA
:1017900088E091E0FA0191838083C9010895EBEE1E
:1017A000F0E0808181608083EDEEF0E01082609354
:1017B000EC0040838091EE00881F8827881F0895E1
:1017C0001092F4001092F0001092E8001092ED00D8
:1017D000EBEEF0E080818E7F8083089580916D0133
:1017E00087FF11C003C08EB38823B1F08091E80059
:1017F00082FFF9CF8091E8008B7F8093E800089505
:101800008EB3882349F08091E80080FFF9CF809162
:10181000E8008E7F8093E8000895282F392FF90182
:1018200080917301909174018617970718F4BC0199
:1018300090E032C061157105D9F78091E8008E7F84
:101840008093E800F5CF8091E80083FD37C0809158
:10185000E80082FD2DC08EB38823A1F18EB38530C0
:1018600079F18091E80080FF17C08091F20006C0F6
:1018700091919093F100615070408F5F61157105F7
:1018800011F08032A8F391E0803209F090E080916D
:10189000E8008E7F8093E80061157105A1F6992319
:1018A00091F606C08EB3882369F08EB3853061F05F
:1018B0008091E80082FFF6CF80E0089581E00895EE
:1018C00083E0089582E0089583E0089554D056D0CF
:1018D0001EBA10926B0184E089BD89B5826089BD12
:1018E00009B400FEFDCF8091D800982F9F77909388
:1018F000D80080688093D800809163008E7F8093A9
:1019000063008091D8008F7D8093D8008091E000A3
:101910008E7F8093E0008091E1008E7F8093E100D4
:101920008091E20081608093E2008091E100877FF6
:101930008093E1008091E20088608093E200089546
:10194000C5DFE0EEF0E0808181608083E8EDF0E0CB
:1019500080818F7780830FD011D019BCE3E6F0E04F
:1019600080818160808310926C010895AFDF81E0F7
:1019700080936C0108951092E20008951092E100A6
:1019800008951F920F920FB60F9211242F933F9339
:101990004F935F936F937F938F939F93AF93BF9377
:1019A000EF93FF938091E10080FF1BC08091E200E4
:1019B00080FF17C08091E1008E7F8093E1008091CD
:1019C000E2008E7F8093E2008091E200806180934C
:1019D000E2008091D80080628093D80019BC1EBAC2
:1019E00025D18091E10084FF29C08091E20084FF2D
:1019F00025C084E089BD89B5826089BD09B400FE37
:101A0000FDCF8091D8008F7D8093D8008091E10038
:101A10008F7E8093E1008091E2008F7E8093E200D0
:101A20008091E20081608093E20080916B018823C5
:101A300011F084E001C081E08EBBF8D08091E1001C
:101A400083FF22C08091E20083FF1EC08091E100ED
:101A5000877F8093E10082E08EBB10926B018091C2
:101A6000E1008E7F8093E1008091E2008E7F809381
:101A7000E2008091E20080618093E200A1DE80E0DC
:101A800060E042E28CDED2D08091E10082FF0AC0A9
:101A90008091E20082FF06C08091E1008B7F8093FD
:101AA000E100C4D0FF91EF91BF91AF919F918F91D1
:101AB0007F916F915F914F913F912F910F900FBE4A
:101AC0000F901F9018951F93DF93CF9300D0CDB741
:101AD000DEB7EDE6F1E08091F100819381E0E5373A
:101AE000F807C9F780916D0190916E01953011F161
:101AF000963040F49130B9F0913070F0933009F0A5
:101B000080C011C0983009F452C0993009F461C006
:101B1000963009F076C02CC0803809F473C0823842
:101B200009F06FC06FC0882309F46CC0823009F0DF
:101B300068C068C0882309F064C010916F0180916B
:101B4000E800877F8093E80049DE04C08EB38823D5
:101B500009F458C08091E80080FFF8CF1F7711F09A
:101B600083E001C082E08EBB10681093E3004AC09E
:101B70008058823008F045C080916F0190917001CB
:101B800060917101AE014F5F5F4FE2DDBC010097D4
:101B9000C9F18091E800877F8093E80089819A816C
:101BA0003CDE8091E8008B7F8093E8002BC080387A
:101BB00041F58091E800877F8093E80080916B0178
:101BC0008093F1008091E8008E7F8093E80006DE2C
:101BD00019C08823B1F490916F01923098F48091EC
:101BE000E800877F8093E80090936B01F7DD809198
:101BF0006B01882311F084E001C083E08EBB16D016
:101C000001C0A7DB8091E80083FF0AC08091EB0050
:101C100080628093EB008091E800877F8093E800EA
:101C20000F900F90CF91DF911F91089508958EB37B
:101C3000882329F08091E80083FF01C044CF0895F4
:101C4000F999FECF92BD81BDF89A992780B5089584
:101C5000262FF999FECF1FBA92BD81BD20BD0FB6C8
:101C6000F894FA9AF99A0FBE01960895F894FFCF66
:101C700001021E938220DCFB1201100100000020F3
:101C8000EB03F72F00000001000109021B00010116
:101C90000080320904000000FE0102000921030057
:101CA00000000C0001040309041A03500069006ECF
:101CB000006F006300630069006F0020004400466D
:061CC000005500000000C9
:0400000300001000E9
:00000001FF
