:100000008AC00000A3C00000A1C000009FC0000083
:100010009DC000009BC0000099C0000097C0000078
:1000200095C0000093C0000091C000000AC4000009
:10003000AFC400008BC0000089C0000087C0000072
:1000400085C0000083C0000081C000007FC00000A8
:100050007DC000007BC0000079C00000BEC1000070
:1000600075C0000073C0000071C000006FC00000C8
:100070006DC000001203500069006E006F00630045
:10008000630069006F0000003803500069006E00D3
:100090006F006300630069006F00200028006800A3
:1000A0007400740070003A002F002F007000690087
:1000B0006E006F00630063002E0069006F0029006E
:1000C00000000403090409023E00020100C03209D5
:1000D00004000001020201000524000110042402B2
:1000E000060524060001070582030800FF09040134
:1000F00000020A0000000705040240000107058312
:10010000024000011201100102000008501D516060
:1001100001000102DC0111241FBECFEFD2E0DEBFDF
:10012000CDBF11E0A0E0B1E0E6ECFFE002C0059039
:100130000D92A831B107D9F712E0A8E1B1E001C0F2
:100140001D92A133B107E1F728D03BC759CF84B73F
:10015000877F84BF28E10FB6F89420936000109247
:1001600060000FBE87E690E09093CD008093CC00B6
:1001700086E08093CA001092C8002093C900539A69
:100180005A9A8AB180638AB98BB180638BB94ED396
:1001900084E085BD5F9A579A0895D9DF2FB7F89408
:1001A00080EA91E0909321028093200290932302B1
:1001B000809322022FBF2FB7F8948BE191E09093A8
:1001C0009C0180939B0190939E0180939D012FBF82
:1001D0007894C0EAD1E08C0183E0E82E9FB7F894D0
:1001E000809124029FBF803811F180E091E09CD67D
:1001F00097FD1DC0E0912002F09121028083809143
:100200002002909121020196909321028093200276
:100210008052924021F4D0932102C09320029FB7D4
:10022000F894809124028F5F809324029FBF8FB740
:10023000F894F0909F018FBFA89904C080E68F15B5
:1002400008F03FC0A89A80919F01882301F15D9832
:10025000E09218011CC0E0919D01F0919E01619116
:10026000F0939E01E0939D01EB59F14021F410932E
:100270009E0100939D019FB7F89480919F0181504A
:1002800080939F019FBF80E091E0F2D5FA94F11036
:10029000E2CF80911801882341F0809118018150AC
:1002A00080931801811101C05D9A80911901882302
:1002B00041F080911901815080931901811101C091
:1002C0005C9A9FB7F894809124029FBF882309F11C
:1002D000E0912202F09123029191F0932302E093A6
:1002E0002202E052F24021F4D0932302C093220272
:1002F0002FB7F894809124028150809324022FBF5D
:100300008091C80085FFFCCF9093CE005C98E0926E
:10031000190180E091E0FAD5E1D460CF80E091E06E
:100320005AC580E091E0ECC41F93CF93DF93EC01BA
:10033000EC89E150E23028F4F0E0EA5EFE4F1081F3
:1003400001C010E08B89823009F418608D898730F4
:1003500031F0883031F0863029F4126003C0146027
:1003600001C016601092C9001092C8001092CA0015
:100370002F85388949895A89211581EE3807410529
:10038000510571F0CA01B9019695879577956795E2
:1003900060587B47814E9F4FF2D52150310902C0F2
:1003A00020E130E03093CD002093CC001093CA00C0
:1003B0008F859889A989BA898115914EA105B105C2
:1003C00011F480E001C082E08093C80088E9809346
:1003D000C900DF91CF911F9108951F920F920FB620
:1003E0000F9211242F938F939F93EF93FF938091FC
:1003F000CE009EB39430F1F4E0919B01F0919C010A
:100400008083E0919B01F0919C01CF010196909334
:100410009C0180939B018B59914021F48BE191E0E9
:10042000928381839FB7F89480919F018F5F80931F
:100430009F019FBFFF91EF919F918F912F910F90FF
:100440000FBE0F901F901895FC01858580FF02C09C
:100450005F9808955F9A0895292F33272230310538
:1004600039F02330310549F02130310521F128C020
:10047000EEE3F0E086EC90E027C09927813091050B
:1004800061F08230910581F0892BD1F4E2ECF0E04B
:10049000E491F0E082EC90E017C0E8E8F0E0E4914D
:1004A000F0E088E890E010C0E4E7F0E0E491F0E0EC
:1004B00084E790E009C0E2E1F0E084E091E004C06C
:1004C000E0E0F0E080E090E0DA018D939C93CF01D2
:1004D000089528E030E040E003C04F5F220F331F53
:1004E00028173907D0F3842F8295807F0895809351
:1004F000E900EBEEF0E0808181608083EDEEF0E0DA
:1005000010826093EC0040838091EE00881F882762
:10051000881F08951092F40080E08093E900109203
:10052000F0001092E8001092ED009091EB009E7F99
:100530009093EB008F5F853081F7089580912902B9
:1005400087FD05C08091E80080FF0DC010C080913C
:10055000E80082FD04C08EB38111F9CF0895809127
:10056000E8008B7707C08EB38111ECCF089580919E
:10057000E8008E778093E800089585E69091EC007E
:1005800090FF05C09091E80090FF05C01BC09091BE
:10059000E80092FD17C09EB39923B1F09EB3953049
:1005A000A9F09091EB0095FD13C09091E10092FFAE
:1005B000E5CF9091E1009B7F9093E1008150F1F6AF
:1005C00084E0089580E0089582E0089583E008952E
:1005D00081E0089520912F023091300226173707CD
:1005E00048F06115710539F42091E8002E772093C9
:1005F000E80001C0B901FC0190E029C08091E80049
:1006000083FD37C08091E80082FD2DC08EB3882322
:1006100091F18EB3853089F18091E80080FF17C099
:100620008091F20006C091919093F10061507109A0
:100630008F5F6115710511F08830A8F391E0883063
:1006400009F090E08091E8008E778093E8006115D2
:100650007105A1F69111D2CF06C08EB3882359F04F
:100660008EB3853051F08091E80082FFF6CF80E0B4
:10067000089581E0089582E0089583E0089520912F
:100680002F02309130022617370748F061157105A7
:1006900039F42091E8002E772093E80001C0B901D9
:1006A0009C0190E02CC08091E80083FD3AC08091CD
:1006B000E80082FD30C08EB38823A9F18EB3853067
:1006C000A1F18091E80080FF1AC08091F20009C07A
:1006D000F9012F5F3F4FE491E093F1006150710900
:1006E0008F5F6115710511F0883090F391E08830CB
:1006F00009F090E08091E8008E778093E800611522
:10070000710589F69111CFCF06C08EB3882359F0B9
:100710008EB3853051F08091E80082FFF6CF80E003
:10072000089581E0089582E0089583E008956115B9
:10073000710529F42091E8002B772093E8009C01B3
:1007400021C08091E80083FD2BC08EB3882371F116
:100750008EB3853039F18091E80082FFF2CFF90144
:1007600007C08091F10081939F016150710929F0C8
:100770009F018091F2008111F4CF8091E8008B7786
:100780008093E80061157105E1F68091E80080FD35
:100790000BC08EB3882351F08EB38530B1F702C001
:1007A00081E0089583E0089580E0089582E008954F
:1007B00042D044D01EBA1092270210922602109204
:1007C000250284E089BD89B5826089BD09B400FE37
:1007D000FDCF8091D800982F9F779093D8008068A4
:1007E0008093D800809163008E7F80936300809116
:1007F000D8008F7D8093D8008091E0008E7F809319
:10080000E0008091E1008E7F8093E1008091E20022
:1008100081608093E2008091E100877F8093E10016
:100820008091E20088608093E2000895C1DF81E05A
:100830008093280208951092E20008951092E1003A
:1008400008951F920F920FB60F9211242F933F938A
:100850004F935F936F937F938F939F93AF93BF93C8
:10086000EF93FF938091E10080FF1BC08091E20035
:1008700080FF17C08091E1008E7F8093E10080911E
:10088000E2008E7F8093E2008091E200806180939D
:10089000E2008091D80080628093D80019BC1EBA13
:1008A0001CD28091E10084FF29C08091E20084FF86
:1008B00025C084E089BD89B5826089BD09B400FE88
:1008C000FDCF8091D8008F7D8093D8008091E1008A
:1008D0008F7E8093E1008091E2008F7E8093E20022
:1008E0008091E20081608093E2008091270288235A
:1008F00011F084E001C081E08EBBEFD18091E10076
:1009000083FF27C08091E20083FF23C08091E10034
:10091000877F8093E10082E08EBB10922702809156
:10092000E1008E7F8093E1008091E2008E7F8093D2
:10093000E2008091E20080618093E200EBDD42E022
:1009400060E080E0D4DD8091F00088608093F0006A
:10095000C4D18091E10082FF0AC08091E20082FF51
:1009600006C08091E1008B7F8093E100B6D1FF91BA
:10097000EF91BF91AF919F918F917F916F915F9117
:100980004F913F912F910F900FBE0F901F90189590
:100990001F920F920FB60F921124EF92FF920F93B6
:1009A0001F932F933F934F935F936F937F938F93F7
:1009B0009F93AF93BF93EF93FF93CF93DF931F92D8
:1009C000CDB7DEB789EEE82EF12CF7018081877074
:1009D000108200EF10E0F8019081977F9083789467
:1009E000898322D0F894F7011082F80190819860F1
:1009F00090838981F70180830F90DF91CF91FF91E0
:100A0000EF91BF91AF919F918F917F916F915F9186
:100A10004F913F912F911F910F91FF90EF900F9069
:100A20000FBE0F901F9018950F931F93CF93DF93D6
:100A3000CDB7DEB7AC970FB6F894DEBF0FBECDBF13
:100A4000E9E2F2E08091F100819322E0E133F207E4
:100A5000C9F78091290290912A02953009F484C047
:100A600038F49130B1F170F0933009F029C131C000
:100A7000983009F4EDC0993009F4FCC0963009F0C3
:100A80001FC194C0803821F0823809F019C108C014
:100A90008091250290912602992389F082600FC0EF
:100AA00080912D0290912E02877099278093E90002
:100AB0008091EB0085FB882780F91092E9009091E6
:100AC000E800977F9093E8008093F1001092F10086
:100AD000CAC0882319F0823009F0F2C08F7121F06A
:100AE000823009F0DEC00BC080912B02813009F00A
:100AF000D8C0933009F080E0809326022FC0809107
:100B00002B0281112BC080912D0290912E028770B3
:100B10009927009709F4C5C08093E9002091EB0064
:100B200020FFBFC020912A02233021F48091EB00E6
:100B3000806212C09091EB0090619093EB0021E0F5
:100B400030E001C0220F8A95EAF72093EA00109264
:100B5000EA008091EB0088608093EB001092E9003E
:100B60008091E800877F82C08111AAC000912B028A
:100B700010912C028091E800877F8093E800DEDCF2
:100B800004C08EB3882309F48CC08091E80080FFF4
:100B9000F8CFC8018F779927009711F023E001C0A3
:100BA00022E02EBB80688093E3007BC080588230B7
:100BB00008F086C080912B0290912C028C3D23E09E
:100BC000920779F583E08A838AE289833FB7F894B4
:100BD000DE01139680E09EE041E2E92FF0E04093D1
:100BE0005700E49180FF03C0E295EF709F5FEF70C4
:100BF0002E2F205D2A3308F0295F2C9311961C922A
:100C0000119712968F5F843141F73FBF8091E800C2
:100C1000877F8093E8006AE270E0CE010196DADC1B
:100C200011C0AE01455D5F4F60912D0215DC00974C
:100C3000C1F12091E800277F2093E800BC018BA53B
:100C40009CA51DDD8091E8008B778093E80029C08A
:100C50008038B1F58091E800877F8093E80080912B
:100C600027028093F1008091E8008E778093E8005E
:100C700065DC17C0811124C090912B02923088F45A
:100C80008091E800877F8093E8009093270256DCEC
:100C900080912702882311F084E001C083E08EBB9D
:100CA0003DDB8091E80083FF0DC08091EB00806206
:100CB0008093EB008091E800877F8093E80002C07A
:100CC00030DBEFCFAC960FB6F894DEBF0FBECDBFD2
:100CD000DF91CF911F910F9108950895CF938EB317
:100CE000882359F0C091E900C7701092E900809103
:100CF000E80083FD99DEC093E900CF91089508953F
:100D0000CF93DF93EC018091E80083FF61C088817D
:100D100090E020912D0230912E022817390709F01A
:100D200057C080912A02813259F020F4803209F0B4
:100D30004FC019C0823269F1833209F049C038C00E
:100D400080912902813A09F043C08091E800877FB1
:100D50008093E80067E070E0CE010F963BDC809165
:100D6000E8008B7713C080912902813289F5809148
:100D7000E800877F8093E80067E070E0CE010F967F
:100D8000D6DCCE01D1DA8091E8008E778093E8003E
:100D90001FC0809129028132D9F48091E800877FB9
:100DA0008093E80080912B028D87CE014DDB0DC032
:100DB00080912902813261F48091E800877F8093DD
:100DC000E80060912B02CE019ADFDF91CF91B6CB84
:100DD000DF91CF9108950F931F93CF93DF93EC0191
:100DE0000D96FC0189E0DF011D928A95E9F72A81C1
:100DF0003B818C81882311F014E001C010E009814F
:100E0000C90167DB412F482B426061E8802F6FDB0F
:100E1000882341F12E813F818885882311F014E0D9
:100E200001C010E00D81C90154DB412F482B426005
:100E300060E8802F5CDB8823A9F02A853B858C85C0
:100E4000882311F014E001C010E0C985C90141DB1D
:100E5000412F482B426061EC8C2FDF91CF911F9185
:100E60000F9145CB80E0DF91CF911F910F910895B5
:100E7000CF93C62F2EB32430E9F4FC014785508967
:100E800061897289452B462B472BA1F08181809384
:100E9000E9008091E80085FF04C0C093F10080E084
:100EA0000AC08091E8008E778093E80066DB882393
:100EB000A1F301C082E0CF9108952EB3243021F533
:100EC000FC014785508961897289452B462B472B48
:100ED000D9F081818093E9008091F200811102C0F4
:100EE00080E008959091E8008091E8008E778093EB
:100EF000E80095FDF5CF41DB811107C09091E80036
:100F00009E779093E800089582E008952EB32430F0
:100F100051F4FC014785508961897289452B462B24
:100F2000472B09F0CACF08952EB3243019F02FEFC4
:100F30003FEF23C0FC014785508961897289452BA9
:100F4000462B472BA1F385818093E9008091E8002F
:100F500082FFEDCF8091F200882321F02091F100F3
:100F600030E002C02FEF3FEF8091F200811105C009
:100F70008091E8008B778093E800C9010895A1E291
:100F80001A2EAA1BBB1BFD010DC0AA1FBB1FEE1F03
:100F9000FF1FA217B307E407F50720F0A21BB30B4E
:100FA000E40BF50B661F771F881F991F1A9469F7CA
:100FB00060957095809590959B01AC01BD01CF0126
:060FC0000895F894FFCF34
:100FC600000340000004400000020800000000008A
:080FD6000000000000003020C3
:1010000039C0000052C0000050C000004EC00000B7
:101010004CC000004AC0000048C0000046C00000AC
:1010200044C0000042C0000040C00000A6C4000050
:101030003CC000003AC0000038C0000036C00000CC
:1010400034C0000032C0000030C000002EC00000DC
:101050002CC000002AC0000028C0000026C00000EC
:1010600024C0000022C0000020C000001EC00000FC
:101070001CC0000011241FBECFEFD2E0DEBFCDBFE9
:1010800011E0A0E0B1E0E0E7FCE102C005900D92C4
:10109000A035B107D9F711E0A0E5B1E001C01D927C
:1010A000AF36B107E1F724D1E1C5AACF15C09091C1
:1010B000F20091110EC09091E8009B7F9093E800A0
:1010C00003C09EB3992351F09091E80092FFF9CFAD
:1010D00002C09091F10081508111E9CF08953091C3
:1010E0005E0120915D0190915C0180915B01909384
:1010F000520180935301C901909350018093510193
:101100000895CF93DF9300D000D000D0CDB7DEB7E5
:1011100080915901843009F44CC030F4813059F089
:10112000833009F0C1C01FC0853009F490C08630FB
:1011300009F0BAC0ADC080915A01823008F0B4C045
:10114000CEDF80915A0181110CC0809152019091A3
:10115000530123E0FC0120935700E89507B600FCFB
:10116000FDCF85E008C080915A01882311F08230BC
:1011700029F4B5DF89E08093000196C0813009F041
:1011800093C0E0E0F0E084918F3F69F01092540149
:10119000F0935301E09352018AE08093000185E0CF
:1011A0008093570181C03196E11520E1F20759F78C
:1011B0007BC080915A01833041F581E080935801D2
:1011C00080915F019091600120915B01892B61F01A
:1011D000213009F069C090915E0180915D0190938A
:1011E00055018093560160C021110CC02CE088E1AC
:1011F00090E00FB6F894A895809360000FBE2093FE
:10120000600052C0109201014FC081114DC0809109
:101210005B018F3F09F048C0E0E0F0E083E095E03B
:1012200080935700E89507B600FCFDCF90935700D8
:10123000E89507B600FCFDCFE058FF4FE11520E12F
:10124000F20771F781E180935700E8952DC080E2A5
:101250008C838CED8D838BEF8E838EE1898383E984
:101260008A8382E88B8380915B0190915A0191116E
:1012700005C0FE01E80FF11D848107C09130A1F483
:10128000FE01BF97E80FF11D8081809364010CC0BF
:1012900080915A01833041F480915B01811104C037
:1012A00080915C018093540126960FB6F894DEBFBE
:1012B0000FBECDBFDF91CF91089584B7877F84BFE4
:1012C00088E10FB6F89480936000109260000FBE22
:1012D00081E085BF82E085BF8AB180638AB98BB126
:1012E00080638BB93FC328D381E085BF15BE0895C5
:1012F000E4DF789401C09CD4809101018111FBCF7F
:10130000809158018111F7CFEEDFE0915501F09106
:1013100056010995AF92BF92CF92DF92EF92FF9262
:101320000F931F93CF93DF9380916D0190916E0186
:101330009093600180935F0180916101882341F067
:1013400080916101815080936101811101C05D9A9A
:1013500080916201882341F08091620181508093E5
:101360006201811101C05C9A80916801833009F4A7
:10137000A3C130F4813069F0823009F0D8C103C1D3
:10138000853009F4B7C108F4ADC1863009F0CFC18A
:10139000B9C15C9883E0809362018091E800877F07
:1013A0008093E80080915801882329F0AADE5D9A95
:1013B0005C9A1092580180915F01909160010097B2
:1013C00059F12091E80022FD04C02EB32111F9CF7C
:1013D000AEC12091F10020935901019790936001D3
:1013E00080935F01EAE5F1E012C08091F100819302
:1013F00080915F01909160010197909360018093CB
:101400005F0181E0EF35F80711F47BDE05C08091C4
:10141000F2008111EACFF9CF80910001853009F007
:10142000AEC080915F0190916001892B21F482E030
:1014300080930001A4C08AE139DE809152018F714E
:1014400035DE2091520130915301C0915001D0916D
:1014500051012196C21BD30B80915A0181118BC07F
:10146000D695C795022FF32E40915401E42ED12C2E
:10147000C90110E0CC24C39425E0B22E33E0A32EA2
:1014800045C02091F2002223E9F02197402F5F2DE3
:101490006E2D7D2DF091F100E091F1002F2F3E2F68
:1014A000FA010901C0925700E89511241F5F4E5FB1
:1014B0005F4F6F4F7F4F042FF52EE62ED72E10343F
:1014C00081F411C02091E8002B7F2093E80004C034
:1014D0002EB3222309F42BC12091E80022FFF8CF7C
:1014E000D4CF209799F4FC01B0925700E89507B645
:1014F00000FCFDCF209751F0FA01A0925700E8952B
:1015000007B600FCFDCFDB01CA0110E0209709F00F
:10151000B8CF8091500190915101909353018093E5
:10152000520181E180935700E89527C08091F20035
:10153000882391F021976091F10080915201909160
:10154000530186D38091520190915301019690935B
:101550005301809352010FC08091E8008B7F8093EC
:10156000E80004C08EB3882309F4E1C08091E8004C
:1015700082FFF8CFDFCF2097C9F680E197DD809119
:10158000E8008B7F96C08091E800877F8093E80019
:101590005D9883E08093610104C08EB3882309F4D1
:1015A000C6C08091E80080FFF8CF809100018930AB
:1015B00091F08A3059F480915A01813039F4909138
:1015C0005201809153019093F10002C08091640117
:1015D0008093F1006BC02091520130915301C09172
:1015E0005001D09151012196C21BD30B80915A0119
:1015F000811131C0D695C795C901A0915401B0E0C1
:101600001FC02091F200203261F0FC01259134913D
:101610002093F1003093F1000296A11DB11D219796
:101620000FC02091E8002E7F2093E80004C02EB365
:10163000222309F47CC02091E80020FFF8CFE5CFF9
:101640002097F9F6809150019091510190935301A8
:101650008093520128C0823031F523C08091F2007E
:10166000803281F021970091520110915301C801FD
:10167000E7D28093F1000F5F1F4F10935301009347
:1016800052010FC08091E8008E7F8093E80004C073
:101690008EB3882309F44BC08091E80080FFF8CF17
:1016A000E1CF2097D9F682E0809300018091E80095
:1016B0008E7F8093E80030C08091E800877F809320
:1016C000E800809157018093F1001092F100109290
:1016D000F1001092F100809100018093F1001092CE
:1016E000F100E4CF8091E800877F8093E8001092BA
:1016F000570112C08091E800877F8093E8008091B5
:10170000000166CF8091E800877F8093E8005D9AB2
:101710005C9A82E080930001DF91CF911F910F913D
:10172000FF90EF90DF90CF90BF90AF9057C0DF91C8
:10173000CF911F910F91FF90EF90DF90CF90BF90CE
:10174000AF900895292F30E033272230310559F02A
:101750002330310569F021303105C1F020E030E05F
:1017600080E090E017C02BE130E082E291E012C00F
:10177000811106C020911E0130E08EE191E00AC087
:101780002091020130E082E091E004C022E130E0EB
:101790008DE391E0FA0191838083C9010895EBEE16
:1017A000F0E0808181608083EDEEF0E01082609354
:1017B000EC0040838091EE00881F8827881F0895E1
:1017C0001092F4001092F0001092E8001092ED00D8
:1017D000EBEEF0E080818E7F808308958091670139
:1017E00087FD05C08091E80080FF0DC010C080918A
:1017F000E80082FD04C08EB38111F9CF0895809175
:10180000E8008B7F07C08EB38111ECCF08958091E3
:10181000E8008E7F8093E800089520916D0130915B
:101820006E012617370748F06115710539F42091CC
:10183000E8002E7F2093E80001C0B901FC0190E090
:1018400029C08091E80083FD37C08091E80082FDC7
:101850002DC08EB3882391F18EB3853089F18091AC
:10186000E80080FF17C08091F20006C0919190932C
:10187000F100615071098F5F6115710511F08032BF
:10188000A8F391E0803209F090E08091E8008E7F2B
:101890008093E80061157105A1F69111D2CF06C0C1
:1018A0008EB3882359F08EB3853051F08091E800D3
:1018B00082FFF6CF80E0089581E0089582E00895E8
:1018C00083E0089554D056D01EBA1092650184E08A
:1018D00089BD89B5826089BD09B400FEFDCF8091C4
:1018E000D800982F9F779093D80080688093D80075
:1018F000809163008E7F809363008091D8008F7DFC
:101900008093D8008091E0008E7F8093E0008091EA
:10191000E1008E7F8093E1008091E20081608093FE
:10192000E2008091E100877F8093E1008091E200F6
:1019300088608093E2000895C5DFE0EEF0E08081EA
:1019400081608083E8EDF0E080818F7780830FD025
:1019500011D019BCE3E6F0E08081816080831092B1
:1019600066010895AFDF81E08093660108951092CB
:10197000E20008951092E10008951F920F920FB6B1
:101980000F9211242F933F934F935F936F937F9305
:101990008F939F93AF93BF93EF93FF938091E10059
:1019A00080FF1BC08091E20080FF17C08091E100A2
:1019B0008E7F8093E1008091E2008E7F8093E20031
:1019C0008091E20080618093E2008091D800806283
:1019D0008093D80019BC1EBA2AD18091E10084FFFF
:1019E00029C08091E20084FF25C084E089BD89B5CB
:1019F000826089BD09B400FEFDCF8091D8008F7D43
:101A00008093D8008091E1008F7E8093E1008091E7
:101A1000E2008F7E8093E2008091E20081608093FB
:101A2000E20080916501882311F084E001C081E02B
:101A30008EBBFDD08091E10083FF22C08091E20047
:101A400083FF1EC08091E100877F8093E10082E0E8
:101A50008EBB109265018091E1008E7F8093E10042
:101A60008091E2008E7F8093E2008091E2008061AD
:101A70008093E200A5DE42E260E080E090DED7D015
:101A80008091E10082FF0AC08091E20082FF06C0DF
:101A90008091E1008B7F8093E100C9D0FF91EF91AD
:101AA000BF91AF919F918F917F916F915F914F9176
:101AB0003F912F910F900FBE0F901F9018950F938D
:101AC0001F93CF93DF9300D0CDB7DEB7E7E6F1E009
:101AD0008091F100819381E0EF36F807C9F780919A
:101AE000670190916801953001F138F49130B1F0BF
:101AF00070F0933009F092C011C0983009F456C0CC
:101B0000993009F465C0963009F088C030C080383B
:101B100009F475C0823809F081C071C0882309F4C6
:101B20006EC0823009F07AC06AC0811177C000911E
:101B3000690110916A018091E800877F8093E80035
:101B40004DDE04C08EB3882309F459C08091E800AB
:101B500080FFF8CFC8018F779927009711F023E015
:101B600001C022E02EBB80688093E30048C080580B
:101B7000823008F053C0AE014F5F5F4F60916B0140
:101B80008091690190916A01DDDD0097C1F120919A
:101B9000E800277F2093E800BC0189819A813DDE1F
:101BA0008091E8008B7F8093E80029C08038B1F5F0
:101BB0008091E800877F8093E800809165018093A1
:101BC000F1008091E8008E7F8093E80007DE17C067
:101BD000811124C090916901923088F48091E800CD
:101BE000877F8093E80090936501F8DD809165011F
:101BF000882311F084E001C083E08EBB18D080916F
:101C0000E80083FF0DC08091EB0080628093EB00C1
:101C10008091E800877F8093E80002C07BDBEFCFF4
:101C20000F900F90DF91CF911F910F91089508951C
:101C30008EB3882321F08091E80083FD40CF089582
:101C4000F999FECF92BD81BDF89A992780B5089584
:101C5000262FF999FECF1FBA92BD81BD20BD0FB6C8
:101C6000F894FA9AF99A0FBE01960895F894FFCF66
:101C700002011A03500069006E006F0063006300E8
:101C800069006F0020004400460055000000040376
:101C9000090409021B000101008032090400000050
:101CA000FE0102000921030000000C0001120110D6
:101CB0000100000020EB03F72F00000001000100ED
:0400000300001000E9
:00000001FF
