:020000023000CC
:10E000000D94B4F10D94DDF10D94DDF10D94DDF17D
:10E010000D94DDF10D94DDF10D94DDF10D94DDF144
:10E020000D94DDF10D94DDF10D94DDF10D94DDF134
:10E030000D94DDF10D94DDF10D94DDF10D94DDF124
:10E040000D94DDF10D94DDF10D94DDF10D94DDF114
:10E050000D94DDF10D94DDF10D94DDF10D94DDF104
:10E060000D94DDF10D94DDF10D94DDF10D94DDF1F4
:10E070000D94DDF10D94DDF10D94DDF10D94DDF1E4
:10E080000D94DDF10D94DDF10D94DDF10D94DDF1D4
:10E090000D94DDF10D94DDF10D94DDF10D94DDF1C4
:10E0A0000D94DDF10D94DDF10D94DDF10D94DDF1B4
:10E0B0000D94DDF10D94DDF10D94DDF10D94DDF1A4
:10E0C0000D94DDF10D94DDF10D94DDF10D94DDF194
:10E0D0000D94DDF10D94DDF10D94DDF10D94DDF184
:10E0E0000D94DDF10D94DDF10D94DDF10D94DDF174
:10E0F0000D94DDF10D94DDF10D94DDF10D94DDF164
:10E100000D94DDF10D94DDF10D94DDF10D94DDF153
:10E110000D94DDF10D94DDF10D94DDF10D94DDF143
:10E120000D94DDF10D94DDF10D94DDF10D94DDF133
:10E130000D94DDF12A00593D506F727420626C69B4
:10E140006E6B00563D73686F7720696E74657272EE
:10E1500075707420566563746F727300523D447518
:10E160006D702052414D00513D51756974004C3D18
:10E170004C69737420492F4F20506F72747300489C
:10E180003D48656C7000463D44756D7020464C41BD
:10E19000534800453D44756D7020454550524F4DE4
:10E1A00000423D426C696E6B204C454400403D4549
:10E1B0004550524F4D2074657374003F3D43505598
:10E1C00020737461747300303D5A65726F2061640E
:10E1D000647200504F5254004545206572722063AE
:10E1E0006E743D0052656164696E67204545005755
:10E1F00072697474696E672045450020004D75731F
:10E20000742062652061206C657474657200506FC3
:10E210007274206E6F7420737570706F72746564A1
:10E22000005768617420706F72743A006A6D7020D4
:10E2300000726A6D702020006E6F20766563746FC7
:10E2400072005623202020414444522020206F7029
:10E2500020636F64652020202020696E73747275BE
:10E260006374696F6E2061646472202020496E744B
:10E2700065727275707400342E372E3300312E386B
:10E280002E3073766E004F6374203130203230317F
:10E2900033004C6F636B20667573652020203D2032
:10E2A000004578742066757365202020203D20008D
:10E2B0004869676820667573652020203D20004C02
:10E2C0006F772066757365202020203D2000435025
:10E2D000552049442020202020203D200047434352
:10E2E0002056657273696F6E203D200041565220A2
:10E2F0004C696243205665723D20005F5F41565273
:10E300005F415243485F5F3D2000435055205479A0
:10E310007065202020203D2000436F6D70696C6582
:10E3200064206F6E203D20004875683F00426F6F8B
:10E33000746C6F616465723E0041726475696E6FE2
:10E34000206578706C6F7265722073746B35303035
:10E350005632206279204D4C530041546D656761FF
:10E36000323536524652320011241FBECFEFD1E86B
:10E37000DEBFCDBF01E00CBF12E0A0E0B2E0EEECEA
:10E38000F7EF03E00BBF02C007900D92A430B10776
:10E39000D9F712E0A4E0B2E001C01D92A231B107AA
:10E3A000E1F70F943DF30D94E5FB01E80EBF0FEF8D
:10E3B0000DBF11241FBE0D943DF30D9400F080930A
:10E3C000C6008091C00086FFFCCF8091C0008064B1
:10E3D0008093C00008958091C000807890E00895F7
:10E3E00020E030E008C0EFECF7E03197F1F700C033
:10E3F00000002F5F3F4F28173907A9F70895CF93E3
:10E40000DF93EC01C60FD11DAE0160E070E06BBF81
:10E41000FA018791882321F021960F94DFF1F4CF40
:10E42000DF91CF9108958DE00F94DFF18AE00D9494
:10E43000DFF10F94FFF10D9413F2CF93DF93EC0112
:10E440008991882319F00F94DFF1FACFDF91CF91F2
:10E450000895CF93C82F82958F70982F905D9A332F
:10E4600008F0995F892F0F94DFF1CF708C2F805DBA
:10E470008A3308F0895FCF910D94DFF10F931F93DA
:10E48000CF93DF93EC018B01853691051CF463304B
:10E4900071054CF0CE0164E670E00F9485FB862F89
:10E4A000805D0F94DFF1CB30D1051CF402301105F3
:10E4B0006CF0CE0164E670E00F9485FB6AE070E0DA
:10E4C0000F9485FB862F805D0F94DFF1CE016AE00B
:10E4D00070E00F9485FB805DDF91CF911F910F91CC
:10E4E0000D94DFF18091C00087FFFCCF8091C600C2
:10E4F0000895CF93C82F60E083ED91EE0F94FFF164
:10E500008C2F0F94DFF1CF910D9413F24F925F9205
:10E510006F927F92AF92BF92CF92DF92EF92FF9273
:10E520000F931F93CF93DF93CDB7DEB766970FB6E8
:10E53000F894DEBF0FBECDBFC82E80E1D82EA12C2F
:10E540007E0181E1E80EF11C9EE2B92E41305105B9
:10E55000E1E06E07710558F0862F4B8B5C8B6D8B5D
:10E560007E8B0F9429F27E896D895C894B89852F7A
:10E570004B8B5C8B6D8B7E8B0F9429F24B89842F98
:10E580000F9429F280E20F94DFF18DE20F94DFF116
:10E5900080E20F94DFF119828E010F5F1F4F4B89CC
:10E5A0005C896D897E892A013B01F1E0CF1651F02B
:10E5B000CF1620F082E0C81214C011C06BBEF20169
:10E5C000A7900FC0C2014B8B5C8B6D8B7E8B0F9421
:10E5D000CFFBA82E4B895C896D897E8902C0F20130
:10E5E000A0808A2D4B8B5C8B6D8B7E8B0F9429F2D8
:10E5F00080E20F94DFF18A2D80524B895C896D890E
:10E600007E89F8018F3510F4A08201C0B082FFEF3F
:10E610004F1A5F0A6F0A7F0A0F5F1F4F0E151F0503
:10E6200009F0C3CF405F5F4F6F4F7F4F198ACE0114
:10E6300001964B8B5C8B6D8B7E8B0F941DF20F9430
:10E6400013F2DA944B895C896D897E89D1107ECF73
:10E6500066960FB6F894DEBF0FBECDBFDF91CF91A7
:10E660001F910F91FF90EF90DF90CF90BF90AF90F0
:10E670007F906F905F904F900895CF93DF93CDB7C9
:10E68000DEB7C953D1400FB6F894DEBF0FBECDBF81
:10E6900001E80EBF0FEF0DBF94B7F894A89514BE14
:10E6A000809160008861809360001092600078948F
:10E6B00093FF05C0E0910402F09105021995269A96
:10E6C0002E9A8091C00082608093C00080E1809388
:10E6D000C40088E18093C1000000C12CD12C7601D8
:10E6E00067EC862E6BE1962EA12CB12C70E4772E70
:10E6F0002CC025E02A95F1F700003FEFC31AD30A9A
:10E70000E30AF30A01E010E041E2C4164EE4D40645
:10E71000E104F10410F400E010E0C701B601A50126
:10E7200094010F9499FB672B682B692B19F485B121
:10E73000872585B90F94EBF1892B19F40115110583
:10E74000C1F2A8014F5F5F4F19F400E010E0F2CF73
:10E750004130510511F00D9466FB98C740E050E040
:10E7600041305105C1F41EC00196A11DB11D81307B
:10E7700052E195075AE7A507B10580F080E090E0E7
:10E78000DC01ABBFFC01479156914F3F5F4F19F041
:10E79000EE27FF27099480E090E0DC014091C00063
:10E7A00047FFE2CF8091C600C55DDE4FA881B981E9
:10E7B000CB52D1401196C55DDE4FB983A883CB52B1
:10E7C000D140813209F0F3C41A9708F0F0C4BFEFCA
:10E7D0006B1A7B0AE3E06E16710409F0EAC40DC0FF
:10E7E00081E20F94DFF1F1E0AF1AB108C9F70F949D
:10E7F00013F20150110919F406C005E010E059E1C7
:10E80000A52EB12CEDCF10920E0210920F02109295
:10E8100010021092110210920A0210920B02109232
:10E820000C0210920D021092060210920702109232
:10E8300008021092090260E089E393EE0F9419F246
:10E840001FEF09E060E08DE293EE0F94FFF10F946B
:10E8500072F2982F803608F09F75903280F0892FE1
:10E86000C85CDE4F9883C853D1400F94DFF180E23B
:10E870000F94DFF1C85CDE4F9881C853D1409834C3
:10E8800009F4ADC1A8F4923409F442C150F49033B4
:10E8900009F108F486C49F3399F1903409F081C4DA
:10E8A000B7C0953409F44DC1963409F07AC473C1E8
:10E8B000923509F4F9C138F49C3409F4D0C191358A
:10E8C00009F06FC4E7C1963509F412C2993509F011
:10E8D00068C4C1C362E087EC91EE0F9419F2109204
:10E8E0000A0210920B0210920C0210920D0210926A
:10E8F0000E0210920F021092100210921102FFC02D
:10E9000062E08BEB91EE0F9419F260E089E393EEF5
:10E910000F9419F260E089E193EE0F94FFF160E04B
:10E9200086E892EE0F9419F260E08AE093EE0F947D
:10E93000FFF160E08AE593EE0F9419F260E08BEF4F
:10E9400092EE0F94FFF161E070E086E090E00F94AA
:10E950003EF20F9413F260E08DED92EE0F94FFF112
:10E9600060E087E792EE0F9419F260E08CEE92EE91
:10E970000F94FFF160E08DE792EE0F9419F260E0E2
:10E980008EEC92EE0F94FFF18EE10F9429F288EA5B
:10E990000F9429F282E00F9429F20F9413F260E0B1
:10E9A0008FEB92EE0F94FFF1E0E0F0E00093570060
:10E9B00084910F9429F20F9413F260E080EB92EEB1
:10E9C0000F94FFF1E3E0F0E00093570084910F947F
:10E9D00029F20F9413F260E081EA92EE0F94FFF1B6
:10E9E000E2E0F0E00093570084910F9429F20F9435
:10E9F00013F260E082E992EE0F94FFF1E1E0F0E0C3
:10EA00000093570084910F9429F20F9413F21ACFB8
:10EA100062E08DEA91EE0F9419F260E08FEE91EED4
:10EA20000F9419F20F9413F2A12CB12C12C0692D7E
:10EA3000C5010F94D7FB911006C060E08BEF91EEFB
:10EA40000F94FFF103C0892D0F94DFF1FFEFAF1A90
:10EA5000BF0AC501875C9C41A0E0B0E0ABBFFC01F0
:10EA600097902AE2921621F0A11432E0B306F9F64B
:10EA70000F9413F20F9413F260E084EE91EE0F9472
:10EA800019F20F9413F2A12CB12C812C912C16C0E9
:10EA9000C4010F94CFFB682E811106C060E08BEF9C
:10EAA00091EE0F94FFF102C00F94DFF1671419F09B
:10EAB0004FEFA41AB40A5FEF851A950AC401875C68
:10EAC0009C41A0E0B0E0ABBFFC0177906AE2761613
:10EAD00021F0811472E09706D9F60F9413F20F9487
:10EAE00013F260E088ED91EE0F94FFF161E070E0C9
:10EAF000C5010F943EF20F9413F20F9413F210928B
:10EB000006021092070210920802109209029ACE91
:10EB100062E081EA91EE0F9419F2269A2E9A0AC0C9
:10EB20002E9884E690E00F94F0F12E9A84E690E01F
:10EB30000F94F0F10F94EBF1892B91F30F9472F293
:10EB400081CE62E083E991EE0F9419F240910602C2
:10EB500050910702609108027091090281E00F94C0
:10EB600086F28091060290910702A0910802B0916E
:10EB700009029F5FAF4FBF4F809306029093070239
:10EB8000A0930802B093090281159042A105B10536
:10EB900008F458CEB4CF62E086E891EE0F9419F2F3
:10EBA00040910A0250910B0260910C0270910D028B
:10EBB00080E00F9486F280910A0290910B02A0915E
:10EBC0000C02B0910D029F5FAF4FBF4F80930A02BE
:10EBD00090930B02A0930C02B0930D0233CE62E02F
:10EBE0008FE791EE0F9419F260E087EC91EE0F94AD
:10EBF00019F260E08BEB91EE0F9419F260E08DEA70
:10EC000091EE0F9419F260E081EA91EE0F9419F2FF
:10EC100060E083E991EE0F9419F260E086E891EEEE
:10EC20000F9419F260E08FE791EE0F9419F260E013
:10EC30008EE691EE0F9419F260E087E691EE0F9464
:10EC400019F260E08CE591EE0F9419F260E083E434
:10EC500091EE0F9419F260E086E391EEA5C262E0B6
:10EC60008EE691EE0F9419F281E40F9479F282E42A
:10EC70000F9479F283E40F9479F284E40F9479F29B
:10EC800085E40F9479F286E40F9479F287E40F9487
:10EC900079F2D8CD62E087E691EE0F9419F2612CFB
:10ECA000712C55245394C6C262E08CE591EE0F940A
:10ECB00019F240910E0250910F0260911002709172
:10ECC000110282E00F9486F280910E0290910F0261
:10ECD000A0911002B09111029F5FAF4FBF4F809380
:10ECE0000E0290930F02A0931002B0931102AACDCE
:10ECF00062E083E491EE0F9419F260E08AE593EE0E
:10ED00000F9419F260E082E492EE0F9419F2CE5D56
:10ED1000DE4F19821882C252D140812C912C5401AD
:10ED2000A50194015695479537952795C35DDE4F0C
:10ED3000288339834A835B83CD52D140CE5DDE4F39
:10ED400048815981C252D1404F5F5F4FCE5DDE4F47
:10ED500059834883C252D14062E070E0CA010F94E7
:10ED60003EF280E20F94DFF18DE20F94DFF180E25A
:10ED70000F94DFF180E00F9429F2C35DDE4F8881AC
:10ED8000CD52D1400F9429F280E20F94DFF18DE350
:10ED90000F94DFF180E20F94DFF1ABBEF401279115
:10EDA000B501A4014F5F5F4F6F4F7F4F6BBFFA01FB
:10EDB0006791D501C4010396A11DB11D32E0432E18
:10EDC000512C612C712C480C591C6A1C7B1C6BBE8D
:10EDD000F2015791C25EDE4F5883CE51D14074E0AC
:10EDE000870E911CA11CB11CABBFFC013791CF5CFD
:10EDF000DE4F3883C153D140862F90E0A0E0B0E0D1
:10EE00004424582E692E7A2E420E511C611C711C0E
:10EE1000862FC85CDE4F2883C853D140C75CDE4FC5
:10EE20006883C953D1400F9429F280E20F94DFF137
:10EE3000C85CDE4F2881C853D140822F0F9429F23D
:10EE400080E20F94DFF1CF5CDE4F8881C153D14067
:10EE50000F9429F280E20F94DFF1C25EDE4F8881C9
:10EE6000CE51D1400F9429F280E20F94DFF1C85CBB
:10EE7000DE4F2881C853D140C75CDE4F6881C9533B
:10EE8000D1404FEF441654066104710431F460E040
:10EE900088E392EE0F94FFF1D1C0D301C20188271D
:10EEA000907CAA27BB278115904CA105B10509F0DC
:10EEB00040C0A30192013F7344275527C25EDE4F35
:10EEC000288339834A835B83CE51D14029013A019B
:10EED000C35DDE4F488159816A817B81CD52D1402B
:10EEE000440E551E661E771E440C551C661C771C6E
:10EEF00060E081E392EE0F94FFF1C15EDE4F888106
:10EF0000CF51D1400F9429F2C25EDE4F8881CE519D
:10EF1000D1400F9429F280E20F94DFF18EE30F9439
:10EF2000DFF1862D0F9429F2852D0F9429F2842D7F
:10EF300083C0D301C2018E709E7FAA27BB278C306D
:10EF40009449A105B10509F079C0CF5CDE4F788105
:10EF5000C153D140872F90E0A0E0B0E04424582E68
:10EF6000692E7A2EC25EDE4F9881CE51D140490E75
:10EF7000511C611C711C822F817090E0A0E0B0E0F8
:10EF8000DC0199278827480E591E6A1E7B1E822F96
:10EF9000807F90E0A0E0B0E051E1880F991FAA1FA8
:10EFA000BB1F5A95D1F7480E591E6A1E7B1E617011
:10EFB000862F90E0A0E0B0E065E1880F991FAA1FBE
:10EFC000BB1F6A95D1F7480E591E6A1E7B1EA3010E
:10EFD0009201220F331F441F551FC25EDE4F28834C
:10EFE00039834A835B83CE51D14060E08CE292EE5C
:10EFF0000F94FFF1862D0F9429F2852D0F9429F29D
:10F00000842D0F9429F280E20F94DFF18EE30F94A8
:10F01000DFF1C05EDE4F8881C052D1400F9429F2EB
:10F02000C15EDE4F8881CF51D1400F9429F2C25E7C
:10F03000DE4F8881CE51D1400F9429F20F9413F204
:10F04000CE5DDE4F48815981C252D1404D345105C9
:10F0500009F066CEF7CB62E086E391EE0F9419F2E9
:10F0600060E081E292EE0F94FFF10F9472F2982F1C
:10F070009F75892FC85CDE4F9883C853D1400F9489
:10F08000DFF10F9413F2C85CDE4F9881C853D14072
:10F09000892F81548A3108F080C09434F1F138F41A
:10F0A0009234E9F058F5913409F073C009C09634F0
:10F0B00009F451C008F440C0973409F06AC05AC03E
:10F0C00011B907C082B1809582B988EC90E00F94A5
:10F0D000F0F10F94EBF1892BA9F312B82FCD14B9ED
:10F0E00007C085B1809585B988EC90E00F94F0F168
:10F0F0000F94EBF1892BA9F315B820CD17B907C0F0
:10F1000088B1809588B988EC90E00F94F0F10F9465
:10F11000EBF1892BA9F318B811CD1AB907C08BB13F
:10F1200080958BB988EC90E00F94F0F10F94EBF19F
:10F13000892BA9F31BB802CD1DB907C08EB18095EC
:10F140008EB988EC90E00F94F0F10F94EBF1892BDD
:10F15000A9F31EB8F3CC10BB07C081B3809581BB67
:10F1600088EC90E00F94F0F10F94EBF1892BA9F368
:10F1700011BAE4CC13BB07C084B3809584BB88EC80
:10F1800090E00F94F0F10F94EBF1892BA9F314BAEE
:10F19000D5CC60E08EE092EE07C060E08DEF91EE9E
:10F1A00003C060E088E293EE0F9419F24BCB612C20
:10F1B000712C6330E1F020F4613061F098F406C006
:10F1C000653009F1C0F0663089F52DC08B3109F04A
:10F1D000C5CA90C29826C65DDE4F8883CA52D14008
:10F1E00062E0BCCA382F20E0982663E0B7CA282B1B
:10F1F000982664E0B3CA8E3009F081C29826212C8B
:10F20000312C65E0ABCAE1E0F0E0EC0FFD1FE20D50
:10F21000F31D80835FEF251A350A982622163306E0
:10F2200009F09CCA6FC2891521F069C2673009F0E4
:10F2300095CA512C2981233109F4CDC0B8F4263068
:10F2400009F4B6C050F4223009F4C3C0233009F4E5
:10F2500063C0213009F0D0C149C0213109F46BC02D
:10F2600008F099C0203109F0C7C1B3C0283109F4B2
:10F270007CC048F4253109F4AEC008F460C12631E1
:10F2800009F0BAC15CC12B3109F458C02D3121F00D
:10F290002A3109F0B1C15DC08D81803339F49F817D
:10F2A0009923B1F09130B1F498EA17C0982F907576
:10F2B00099F0803521F499E0E0E0F0E005C0883570
:10F2C00059F4E3E0F0E099E090935700949105C081
:10F2D0009EE103C092E001C090E01A821B828C8301
:10F2E0001D829E831F8207E010E08AC11A8288E097
:10F2F0008B8381E48C8386E58D8382E58E8389E42C
:10F300008F8383E5888780E589878FE58A8782E315
:10F310008B870BE010E074C1EA81E059E33028F4F8
:10F32000F0E0E050FE4F808101C080E01A828B83C4
:10F3300003E010E065C1552453944BC08D818823B0
:10F3400021F0813021F488EA23C08EE121C082E0DF
:10F350001FC01A82E1E0F0E089E080935700E49159
:10F36000EB831C8204E010E04BC18B81803551F4AB
:10F370008C81883019F4E2E0F0E006C089E0E0E03A
:10F38000F0E003C0E3E0F0E089E08093570084916F
:10F390001A828B83E6CF80EC8A8302E010E0CA5D9C
:10F3A000DE4F188219821A821B82C652D14028C1B0
:10F3B0008A81CB80D12CE12CF12C7601DD24CC2468
:10F3C000F82A8D81C82A8C81D82ACC0CDD1CEE1C31
:10F3D000FF1C1A8213C1FA81CD5CDE4FF883C35340
:10F3E000D140CE5CDE4F1882C253D1408B81CE5CBF
:10F3F000DE4FA880B980C253D140A82A233109F03A
:10F4000069C0CA5DDE4F288139814A815B81C6525D
:10F41000D140211560EC360763E046075105E8F45A
:10F4200083E0F90140935B0080935700E89507B6AD
:10F4300000FCFDCFCA5DDE4F288139814A815B81A6
:10F44000C652D1403F5F4F4F5F4FCA5DDE4F2883AA
:10F4500039834A835B83C652D1408B85DE011D967A
:10F460009701860141E0FD0131975081CB5CDE4F71
:10F470005883C553D140CC5CDE4F1882C453D14071
:10F48000CC5CDE4F68817981C453D140682BCB01BD
:10F490000C01F80120935B0040935700E89511247C
:10F4A0000E5F1F4F2F4F3F4F72E0A71AB10819F0A0
:10F4B0008C911296D8CF85E0F601E0925B008093A4
:10F4C0005700E89507B600FCFDCF81E18093570017
:10F4D000E89531C0A7019601569547953795279530
:10F4E000CE5DDE4F288339834A835B83C252D1408D
:10F4F00000E010E04E013BE0830E911C0FC0D401F0
:10F500006D914D01CE5DDE4F88819981C252D1400F
:10F51000800F911F0F94D7FB0F5F1F4F0A151B051C
:10F5200071F720E030E0000F111F221F331F0C0D78
:10F530001D1D2E1D3F1D1A82680179015FC0BA8111
:10F54000C95CDE4FB883C753D140CA5CDE4F188216
:10F55000C653D1408B81CA5CDE4FE881F981C65326
:10F56000D140E82BCF018C010D5F1F4F1A8224314F
:10F57000C1F49E012C5F3F4FDE011396EBBEF601F6
:10F58000479156914C93F90150831296F2E0CF0EB9
:10F59000D11CE11CF11C02972E5F3F4F009771F7C1
:10F5A00029C09C01B701A601FE01339641BD852EFD
:10F5B000962EA72EBB2482BC4F5F5F4F6F4F7F4FAD
:10F5C000F89AA0B5A1932150310981F79C012150EF
:10F5D0003109A90160E070E04F5F5F4F6F4F7F4FCF
:10F5E000C40ED51EE61EF71EA3E0B0E0AC0FBD1F93
:10F5F000A80FB91F1C9204C080EC8A8302E010E0BF
:10F600008BE10F94DFF1C65DDE4F8881CA52D14095
:10F610000F94DFF1812F0F94DFF1802F0F94DFF132
:10F620008EE00F94DFF155E1952EC65DDE4F288107
:10F63000CA52D14092269026912641E050E04C0FCC
:10F640005D1F040F151F5A0107C0D5018D905D0184
:10F65000882D0F94DFF19824A016B106B1F7892DFB
:10F660000F94DFF1C65DDE4F2881CA52D1402F5F73
:10F67000C65DDE4F2883CA52D14085B190E4892708
:10F6800085B940E050E05520E1F020C0C55DDE4F77
:10F6900019821882CB52D140612C712CC65DDE4F8D
:10F6A0001882CA52D140912C212C312CCA5DDE4FD8
:10F6B000188219821A821B82C652D140C12CD12CC9
:10F6C000760120E030E060E00D94B0F326982E98AB
:10F6D00084E690E00F94F0F100008091C0008D7FEF
:10F6E0008093C00081E180935700E895EE27FF27C3
:10F6F0000994FFCF4BE1942E61E00D94AEF360E0EE
:10F700000D94AEF366E00D94AEF397FB072E16F45E
:10F71000009407D077FD09D00F94BBFB07FC05D000
:10F720003EF4909581959F4F0895709561957F4F18
:10F730000895A1E21A2EAA1BBB1BFD010DC0AA1F32
:10F74000BB1FEE1FFF1FA217B307E407F50720F04A
:10F75000A21BB30BE40BF50B661F771F881F991FC5
:10F760001A9469F760957095809590959B01AC010E
:10F77000BD01CF010895AA1BBB1B51E107C0AA1F01
:10F78000BB1FA617B70710F0A61BB70B881F991F42
:10F790005A95A9F780959095BC01CD010895F999E6
:10F7A000FECF92BD81BDF89A992780B50895262F86
:10F7B000F999FECF1FBA92BD81BD20BD0FB6F89456
:0EF7C000FA9AF99A0FBE01960895F894FFCFB9
:04F7CE000F020A001C
:040000033000E000E9
:00000001FF
