:100000000C9409020C942A020C942A020C942A02E1
:100010000C942A020C942A020C942A020C942A02B0
:100020000C942A020C942A020C942A020C942A02A0
:100030000C942A020C942A020C942A020C942A0290
:100040000C942A020C942A020C942A020C942A0280
:100050000C94840E0C942A020C942A020C942A020A
:100060000C942A020C94340D0C94630D0C942A0207
:100070000C942A020C942A020C942A020C942A0250
:100080000C942A020C942A020C942A020C942A0240
:100090000C942A020C942A020C942A020C942A0230
:1000A0000C942A020C942A020C942A020C942A0220
:1000B0000C942A020C942A020C942A020C942A0210
:1000C0000C942A020C942A020C942A020C942A0200
:1000D0000C942A020C942A020C942A020C942A02F0
:1000E0000C942A020C942A020C942A020C941109F2
:1000F0000C94E9080C942A020C942A020C94EB0943
:100100000C942A020C942A020C942A020C942A02BF
:100110000C942A020C942A020C942A020C942A02AF
:100120000C942A020C942A020C942A020C942A029F
:100130000C942A0241880000000000000002000028
:100140000100007769626F686F737400000000003F
:1001500000000070696E6F6363696F000A0A574997
:10016000424F20486F7374203C4275696C642025AF
:10017000732025733E0A004348414E4E454C3D30A6
:1001800078253032582C2050414E5F49443D30781C
:10019000253034582C2053484F52545F4144445228
:1001A0003D3078253034580A004F4B207B27736848
:1001B0006F72745F61646472273A30782530345806
:1001C0002C20276170706E616D65273A202725739A
:1001D000272C2027626F6172646E616D65273A2754
:1001E0002573272C202776657273696F6E273A3046
:1001F00078253032582C2027637263273A307825CF
:100200003034587D0A004552522070696E67207460
:10021000696D656F75740A004552522052616469B8
:100220006F3A203078253032580A00417661696C87
:1002300061626C6520636F6D6D616E64733A0A0074
:100240002530326420253132732025730A004F4B4C
:100250000A004552522073657474696E67205041DC
:100260004E5F49440A00455252206368616E6E65D4
:100270006C206F7574206F662072616E67650A006E
:100280004F4B206D656D6F72792074617267657474
:100290002073657420746F2025630A004552522034
:1002A0006D656D6F72792074617267657420756E0B
:1002B0006B6E6F776E3A2025630A004F4B204348E0
:1002C000414E4E454C3D3078253032582C2050411F
:1002D0004E5F49443D3078253034582C2053484FE8
:1002E00052545F414444523D3078253034580A001E
:1002F0004F4B2025730A004F4B203078253034585F
:100300000A004F4B2075706C6F6164206865782D12
:1003100066696C65206E6F772E2E2E0A004552524C
:100320002070617273696E67206865786C696E65AC
:10033000004F4B20656E64206F662066696C650A0D
:10034000005741524E2069676E6F72696E67207266
:10035000656320747970652025640A004552522037
:1003600070617273696E67206865786C696E650A82
:1003700000455252205478206661696C0A0057414A
:10038000524E2069676E6F72696E672072656320D6
:1003900074797065203078253032580A0045525201
:1003A00020506172616D657465720A004552522079
:1003B000556E6B6E6F776E20636F6D6D616E640A44
:1003C00000000C942C020C9418050C947F040C94DF
:1003D000EC040C94F1030C9435050C9458060C9421
:1003E000E0050C949A060C9436060C94CA040C94FE
:1003F00026040C947A060C9436040C9444050C9450
:1004000032020C94A8040C946C050C9493040C9484
:10041000660511241FBECFEFD1E8DEBFCDBF00E0DF
:100420000CBF14E0A0E0B2E0ECEDF8E200E00BBF9E
:1004300002C007900D92A039B107D9F727E0A0E9D3
:10044000B4E001C01D92A439B207E1F70E947F0F0A
:100450000C946C140C9400000E94FF0660E070E0A5
:10046000CB0108950E94FB0660E070E0CB01089587
:100470000C94030708950F931F93CF93C82F809177
:100480009104813089F400E010E0980144E050E0EC
:1004900060E070E08CE292E00E94D60E90939304AC
:1004A00080939204109291048C2FCF911F910F9101
:1004B0000C941007EF92FF920F931F93CF93DF934B
:1004C00083EF9FE10E94841392EAE92E94E0F92ED3
:1004D000F701808384EF9FE10E948C1308E914E008
:1004E000F8019183808386EF9FE10E948C13C6E917
:1004F000D4E099838883EAE9F4E0108211821282C1
:10050000138214821582168217826FE786EA94E0BE
:100510000E94280960E070E0F701608180E00E949D
:100520002D0AF8016081718185E00E942D0A6881A1
:10053000798186E00E942D0A64E070E083E00E94E9
:100540002D0A21E047E060E88CE0DF91CF911F9118
:100550000F91FF90EF900C94160B0F931F93CF9376
:10056000DF931F92CDB7DEB78A0141E458E8F80166
:100570005183408332813F5F328340919804509190
:1005800099045483438396838583409196045091C4
:10059000970450874783618783E029830E946F090E
:1005A00041E0B8012981822F8E5F0F90DF91CF91BA
:1005B0001F910F910C94A50ACF93DF93EC0148E2B1
:1005C00050E064E371E085E295E00E94211128E2A9
:1005D00045E255E062E0CE01DF91CF910C94AD028F
:1005E000CF93DF93EB018985823071F48091900481
:1005F000882349F180919404909195040E94490FB9
:10060000CE010E94D8061FC0813029F48F819885C1
:100610000E94DC0218C08330B1F480919404909160
:1006200095040E94490F80919204909193040E9436
:10063000490FF89421E047E060E88CE00E94160B37
:10064000E0E0F0EF199521E047E060E88CE00E94DF
:10065000160BCE01DF91CF910895CF93DF93A09138
:10066000A405B091A505FB0160E375E0EB0113C0A3
:100670002191A2270A2EA295A07FA0250B2EBA2F8A
:10068000A295AF700A26A695BA27AB27AA0FAA0F84
:10069000AA0FA02529932C2F261B241748F3B093CB
:1006A000A505A093A40540932F05242F255F45E2BF
:1006B00055E060E20E94AD0281E080939104DF91F9
:1006C000CF91089560932F052BE045E255E064E259
:1006D0000C94AD020F931F932AE045E255E061E0D0
:1006E0000E94AD0200E010E098014CE050E060E0B4
:1006F00070E082E392E00E94D60E9093950480937E
:10070000940481E0809390041F910F910895409389
:100710002F055093300560933105709332052EE01C
:1007200045E255E066E20C94AD022AE045E255E070
:1007300065E20C94AD022AE045E255E061E20C94DA
:10074000AD022AE045E255E062E28FEF9FEF0E94A2
:10075000AD021092A5051092A40508958091A405FC
:100760009091A50508952AE045E255E063E20C94D6
:10077000AD022AE045E255E063E00C94AD022AE0C8
:1007800045E255E067E20C94AD0286E994E00895F5
:10079000982F9B50903150F48093A20460E070E059
:1007A000682F80E00E942D0A81E0089580E008957E
:1007B000E8E9F4E080839183BC0185E00E942D0A82
:1007C00081E00895809101028823E1F38091000285
:1007D0008823C1F31092010208958EE492E00C94F4
:1007E000BB0BEF92FF920F931F93CF93DF938BE29C
:1007F00092E00E94BB0BC4E0D2E000E010E080E495
:10080000E82E82E0F82E8E818F938D818F938981DF
:100810008F9388818F931F930F93FF92EF920E9483
:10082000BD0B0F5F1F4F27968DB79EB708960FB66B
:10083000F8949EBF0FBE8DBF0231110521F7DF91E5
:10084000CF911F910F91FF90EF900895FC012181AE
:100850002F9380818F9380EF92E09F938F930E94DC
:10086000BD0B0F900F900F900F900895CF92DF92D5
:10087000EF92FF920F931F93CF93DF93CDB7DEB725
:100880002C970FB6F894DEBF0FBECDBF8C0140E1B0
:1008900050E060E070E0FC01808191810E94E50FF2
:1008A0006B017C0140E150E060E070E0F801828182
:1008B00093810E94E50F6B8740E150E060E070E0BB
:1008C000F801848195810E94E50F6C872CE0AE01D0
:1008D0004F5F5F4F60E3C6010E94AD020E94ED03CF
:1008E0002C960FB6F894DEBF0FBECDBFDF91CF912F
:1008F0001F910F91FF90EF90DF90CF90089540E10E
:1009000050E060E070E0FC01808191810E94E50F81
:10091000CB010E94D803892B11F00C94ED0382E5E2
:1009200092E00C94BB0B40E150E060E070E0FC0111
:10093000808191810E94E50F862F90E00E94C8037C
:10094000892B11F00C94ED0386E692E00C94BB0B1E
:10095000CF93DF9300D01F92CDB7DEB740E150E0D8
:1009600060E070E0FC01808191810E94E50F698365
:100970007A838B839C830E94E20369817A81CB0115
:100980000E94BF030F900F900F900F90DF91CF91B7
:100990000C94ED03CF93DF9300D01F92CDB7DEB759
:1009A00040E150E060E070E0FC01808191810E94B4
:1009B000E50F69837A838B839C830E94E2036981BC
:1009C0007A81CB010E94B9030F900F900F900F9086
:1009D000DF91CF910C94ED03CF93DF93DC01ED9188
:1009E000FC91808190E00E941911682F282F2554D6
:1009F000EC01DD27223020F08C3411F0883549F4E9
:100A00008FEF9FEF0E946203DF93CF9380E892E025
:100A100004C0DF93CF938CE992E09F938F930E9461
:100A2000BD0B0F900F900F900F90DF91CF91089515
:100A30000E94C503FC0181818F9380818F93838104
:100A40008F9382818F9384851F928F938BEB92E09B
:100A50009F938F930E94BD0B8DB79EB708960FB6DC
:100A6000F8949EBF0FBE8DBF08950E94AE039F9362
:100A70008F9387EF92E09F938F930E94BD0B0F900F
:100A80000F900F900F900895CF93DF9300D01F9297
:100A9000CDB7DEB740E150E060E070E0FC0180815E
:100AA00091810E94E50F69837A838B839C830E94E6
:100AB000E20369817A81CB010E94B3030F900F900A
:100AC0000F900F90DF91CF910C94ED030E94E20301
:100AD0000E94A1030C94ED03CF92DF92EF92FF925C
:100AE000CF93DF93EC0140E150E060E070E088815B
:100AF00099810E94E50F6B017C0168EF75E08A81A6
:100B00009B810E94B507811103C08CE593E01DC055
:100B10008091FB05811121C00E94E2031092000226
:100B20004091F8056CEF75E0C6010E942D0380919D
:100B3000A605811108C0DF91CF91FF90EF90DF9063
:100B4000CF900C94ED0381E793E0DF91CF91FF907C
:100B5000EF90DF90CF900C94BB0B1F928F938EE79A
:100B600093E09F938F930E94BD0B0F900F900F9077
:100B70000F90DF91CF91FF90EF90DF90CF9008958D
:100B80000E94BC0C8F3F2FEF920709F417C02091F1
:100B90003D06E22FF0E0E955FA4F10828A309105C8
:100BA00019F08D30910521F410923D0681E00895F1
:100BB000203520F480832F5F20933D0680E0089548
:100BC000FF920F931F93CF93DF9340E150E060E0DB
:100BD00070E0FC01808191810E94E50F8B0182E031
:100BE00093E00E94BB0BC1E4D3E00E94C0058823C0
:100BF000E1F368EF75E087EA95E00E94B50781119F
:100C000007C08DE193E00E94BB0BFF24F39401C069
:100C1000F12C0E94E2038091FB0581110AC0109221
:100C200000024091F8056CEF75E0C8010E942D03A9
:100C300015C0813049F481E393E0DF91CF911F919A
:100C40000F91FF900C94BB0B1F928F93DF93CF9368
:100C50000E94BD0B0F900F900F900F90FF2029F274
:100C6000DF91CF911F910F91FF900895CF93DF9364
:100C700000D01F92CDB7DEB740E150E060E070E0F9
:100C8000FC01808191810E94E50F69837A838B83C7
:100C90009C830E94E20369817A81CB010E949B03BD
:100CA0000F900F900F900F90DF91CF910C94ED0368
:100CB000CF93DF9300D01F92CDB7DEB740E150E075
:100CC00060E070E0FC01808191810E94E50F698302
:100CD0007A838B839C830E94E20369817A81CB01B2
:100CE0000E9495030F900F900F900F90DF91CF917E
:100CF0000C94ED03CF93DF9300D01F92CDB7DEB7F6
:100D000040E150E060E070E0FC01808191810E9450
:100D1000E50F69837A838B839C830E94E203698158
:100D20007A81CB010F900F900F900F90DF91CF91B0
:100D30000C946A03CF92DF92EF92FF920F931F936E
:100D4000CF93DF9300D01F92CDB7DEB78C0140E187
:100D500050E060E070E0FC01808191810E94E50F2D
:100D60006B017C0140E150E060E070E0F8018281BD
:100D700093810E94E50FAB01BC0149835A836B83C9
:100D80007C830E94E20349815A816B817C81C60188
:100D90000E9487030F900F900F900F90DF91CF91DB
:100DA0001F910F91FF90EF90DF90CF900C94ED0387
:100DB000FC0186858F9385858F9384851F928F9301
:100DC000CF014F969F938F93CF010F969F938F9351
:100DD00080858F9387818F9389EA91E09F938F938A
:100DE0000E94BD0B8DB79EB70C960FB6F8949EBFB0
:100DF0000FBE8DBF089586E092E00C94BB0B81E09E
:100E00008093000208951F928F9388E192E09F9350
:100E10008F930E94BD0B0F900F900F900F9008952D
:100E200091E0909301028093A6050895BF92CF921E
:100E3000DF92EF92FF920F931F93CF93DF93CDB783
:100E4000DEB764970FB6F894DEBF0FBECDBF0E9429
:100E5000C005882309F455C015C0903219F41082DA
:100E600081E00EC0882361F0AA0FBB1F81E090E0F3
:100E70008C0F9D1FA80FB91FED93FC93B39480E0D6
:100E8000319604C081E0B12CE7EAF5E09081911140
:100E900009C0C980DA8094E0E92E92E0F92E00E0E2
:100EA00010E006C0AB2DB0E0AA30B105B4F2F1CF2E
:100EB000F70160817181C6010E943311892BA9F469
:100EC00087E0809FF001819FF00D1124EC5FFD4FC2
:100ED00084818B1538F40280F381E02DCE010396D6
:100EE00019950FC08DE993E00AC00F5F1F4FF7E01F
:100EF000EF0EF11C02311105D9F68CEA93E00E9445
:100F0000BB0B64960FB6F894DEBF0FBECDBFDF916A
:100F1000CF911F910F91FF90EF90DF90CF90BF90F6
:100F20000895282F30E0205331092A30310510F47C
:100F3000805301C087558F7008951F93CF93DF931F
:100F40001F92CDB7DEB769830E949107182F698180
:100F5000862F0E94910790E1199F90011124822B06
:100F60000F90DF91CF911F9108953F924F925F9222
:100F70006F927F928F929F92AF92BF92CF92DF92A9
:100F8000EF92FF920F931F93CF93DF9300D01F92A6
:100F90001F92CDB7DEB77C018B0120E091E0712C70
:100FA0004B0144E4840E911C84C02F5F933029F1DF
:100FB00030F4913069F0923009F078C012C0953069
:100FC00009F456C008F445C0963009F06FC062C0FD
:100FD000213009F06BC089818A3309F482C090E026
:100FE00068C0223009F063C06A8189810E949D0730
:100FF000F801808320E093E05CC0243009F057C002
:101000003C806B805A8089810E949107482E852DF3
:101010000E949107582E862D0E949107682E832DDD
:101020000E949107D42CD29490EFD922C12CB52CD8
:10103000A12C96012A293B29282BF0E16F9EC001A3
:101040001124282B392BF8013283218320E094E0EE
:1010500030C0223061F56A8189810E949D07F801C4
:101060008383808120E0882309F43FC095E021C07C
:101070002230E9F46A8189819D830E949D07F801ED
:10108000E70DF11D84837394F80180819D817816AA
:1010900058F525C0213059F46A8189812D830E9439
:1010A0009D07F401808397E02D8103C090E02430F8
:1010B00088F4F70181917F01E1E0F0E0EC0FFD1F82
:1010C000E20FF11D8083882329F0992319F09730CE
:1010D00009F06BCF81E0973051F080E008C020E04C
:1010E000E8CF20E092E0E5CF20E096E0E2CF0F905D
:1010F0000F900F900F900F90DF91CF911F910F9154
:10110000FF90EF90DF90CF90BF90AF909F908F9027
:101110007F906F905F904F903F900895CF93DF93B3
:101120001F92CDB7DEB7682F82E299830E94FC0A36
:101130009981692F83E20F90DF91CF910C94FC0A83
:10114000CF93DF931F92CDB7DEB7682F80E29983EC
:101150000E94FC0A9981692F81E20F90DF91CF9163
:101160000C94FC0A0C9438020F931F93CF93DF93D7
:101170001F921F92CDB7DEB787E00E94020B282F87
:1011800047E060E886E02A830E94080B182FAE0132
:101190004F5F5F4F609147068091450690914606EC
:1011A0000E94300B01E02A81111100E06091450698
:1011B0007091460649818F770E94F002909346060F
:1011C000809345060F900F90DF91CF911F910F9163
:1011D00008951F920F920FB60F9211240BB60F9223
:1011E0002F933F934F935F936F937F938F939F932F
:1011F000AF93BF93EF93FF930E94B408FF91EF91D9
:10120000BF91AF919F918F917F916F915F914F911E
:101210003F912F910F900BBE0F900FBE0F901F901C
:1012200018951F920F920FB60F9211248F939F93D0
:1012300080913E0690913F06019690933F068093E1
:101240003E069F918F910F900FBE0F901F901895A3
:1012500090934606809345066093470680E00E947F
:10126000FA0A809139018E7F80933901809139018A
:101270008D7F8093390180E28A95F1F78091390161
:1012800081608093390160E08EE00E94FC0A8FE06B
:101290000E94020B28E040E06FE182E00E94160B02
:1012A00087EF97E00197F1F700C0000040E06FE1A1
:1012B00081E00E94080B883019F081E00E94B2089A
:1012C00021E045E060E284E00E94160B68E48EE0D5
:1012D0000E94FC0A10924306109244060895FF9261
:1012E0000F931F93CF93DF9300D0CDB7DEB7182FA6
:1012F000823061F028F48823D1F08130A9F408C04D
:10130000843041F048F0853079F408C086E010C0A0
:1013100089E00EC086E10CC089E10AC088E08A83BA
:1013200083E08B8301E007C084E00E94B20888E07C
:101330008A838B8300E080914306853069F4011134
:1013400035C0809139018D7F809339018FEC97E012
:101350000197F1F700C000002B8140E06FE182E0CF
:101360000E94160B8CE8F82E40E06FE181E00E94AD
:10137000080B89839A818981981305C09A81898194
:10138000981308C00AC09AEA9A95F1F700C0FA9437
:1013900059F7F4CF81E00E94B208002329F0809130
:1013A0003901826080933901109343060F900F90AA
:1013B0000F90DF91CF911F910F91FF900895CF93E0
:1013C000C82F23E040E06FE182E00E94160B8C2FD3
:1013D000CF910C946F091F920F920FB60F921124A8
:1013E0000BB60F922F933F934F935F936F937F931F
:1013F0008F939F93AF93BF93EF93FF938091430697
:10140000813011F480E010C08330A1F445E060EE3B
:1014100082E00E94080B863030F4E82FF0E0EE57AF
:10142000FD4F808101C083E00E943B028091440611
:101430000E946F09FF91EF91BF91AF919F918F91A2
:101440007F916F915F914F913F912F910F900BBEC4
:101450000F900FBE0F901F9018951F93CF93DF939F
:10146000162F972F8430A9F150F4813009F469C008
:1014700088F08230E9F0833009F05DC037C08630F3
:1014800009F442C0D8F1873009F444C0883009F02B
:1014900052C04BC0862F8B50803108F04CC0262F95
:1014A00040E06FE188E00E94160B1093400649C0AF
:1014B000E62FEF5EE53108F03EC060934106F0E0B4
:1014C000E857FD4FE081F0E0249140E06FE085E0D7
:1014D00008C0643080F560934206262F45E060E640
:1014E00088E0DF91CF911F910C94160B6093440616
:1014F000862FDF91CF911F910C946F09862FDF917A
:10150000CF911F910C948E08862FDF91CF911F9160
:101510000C94A008C62FD72F14E26991812F0E9446
:10152000FC0A1F5F1C32C9F70CC0862FDF91CF91D8
:101530001F910C94F40A82E0DF91CF911F910C94DB
:10154000B208DF91CF911F9108950E94260BE9E325
:10155000F1E080818260808380818D7F8083089527
:10156000CF93DF9382E00E94020BD82F66E082E0E7
:101570000E94FC0AC2E840E06FE181E00E94080B93
:101580008630D1F469E082E00E94FC0A66E082E0E5
:101590000E94FC0A21E047E060E888E00E94160B08
:1015A0008FE292E00197F1F700C0000081E00E9415
:1015B000020B87FF10C009C0813021F39AEA9A9587
:1015C000F1F700C0C150B9F6DDCF86FBCC27C0F9DA
:1015D00081E0C82701C0C2E06D2F82E00E94FC0AB2
:1015E0008C2FDF91CF910895833309F08FEF089509
:1015F00083E3089508950895E82FF0E0E05CFE4F3E
:1016000060830895E82FF0E0E05CFE4F808108954C
:10161000E82FF0E0E05CFE4F80816823862F90E0A9
:1016200002C0959587954A95E2F70895E82FF0E076
:10163000E05CFE4F042E01C0220F0A94EAF7262335
:10164000609580816823262B2083089587FD8FE78E
:1016500080938001482F50E081E891E00C942A119A
:10166000FF920F931F93CF93DF93EA01F0907B01DA
:10167000462FF61608F44F2D042F10E050E060E8D6
:1016800071E00E942A11F801E058FE4F80818883A2
:101690008F2DDF91CF911F910F91FF900895FF92B1
:1016A0000F931F93CF93DF938C01F62EEA012097BF
:1016B00051F047E060E886E00E94080B91E081303D
:1016C00009F090E0988340E050E06F2DC801DF9171
:1016D000CF911F910F91FF900C94300BDF92EF92FE
:1016E000FF920F931F93CF93DF938C01D62E7A0135
:1016F000E901209751F047E060E886E00E94080B7E
:1017000091E0813009F090E09883A7016D2DC80128
:10171000DF91CF911F910F91FF90EF90DF900C948C
:10172000300B80917B010895962FBA01282F30E06D
:10173000F901E90FF11DE038F10514F09FE7981B5E
:1017400020583E4F492F50E0C9010C942A11A42F74
:10175000952F282F30E0F901E60FF11DE038F10553
:1017600014F06FE7681B20583E4F462F50E0B90138
:101770008A2F0C942A110C94A50CCF93DF93CDB72C
:10178000DEB7C058D1090FB6F894DEBF0FBECDBF8B
:10179000FE01EA57FF4F419151919F016FE770E0C1
:1017A000CE0101960E944611CE0101960E94900C36
:1017B000C058DF4F0FB6F894DEBF0FBECDBFDF912C
:1017C000CF9108959B01AC0183E0220F331F441F8A
:1017D000551F8A95D1F760E074E284EF90E00E9493
:1017E000C30F2150310982E08093C0003093C500BF
:1017F0002093C400E1ECF0E088E9808386E08093E8
:10180000C20080818F7D80831092CD061092CC061D
:1018100010924F0710924E070895AF92BF92CF9249
:10182000DF92EF92FF920F931F93CF93DF93EC0120
:10183000F62EAFB6F8948091CD06D090CC068150AC
:101840008F778D1571F08D1528F44D2D41954F77BB
:10185000C82E09C0D81628F4482F4D194F77C12C2F
:1018600002C0C12C40E0BC2CB40EFB1408F4BF2C09
:10187000E42EF41608F4EF2CEE20B1F00E2D10E05B
:101880002D2D30E0245B394F4E2D50E0BE01C901B3
:101890000E942A11C00FD11F8E2D8D0D8F7780933E
:1018A000CC06FE188FE7F822CF1408F4FC2CFF209A
:1018B00051F02CE436E04F2D50E0BE01C9010E94EA
:1018C0002A11F092CC068091C10080628093C10001
:1018D000AFBE8B2DDF91CF911F910F91FF90EF90B5
:1018E000DF90CF90BF90AF9008959C018091CC067F
:1018F0008F5F8F779091CD06891771F0E091CC06BC
:10190000F0E0E45BF94F20838093CC068091C10026
:1019100080628093C10002C02FEF3FEFC90108959C
:101920000F931F93CF93DF93EC0107C010E0C80122
:101930000E94750C80179107D1F709910111F6CF1C
:10194000DF91CF911F910F9108950F931F93CF9324
:10195000DF93EC0107C010E0C8010E94750C8017EE
:101960009107D1F7FE01219604910111F4CFDF9187
:10197000CF911F910F91089590914F0780914E073D
:10198000981771F0E0914F07F0E0E253F94F208192
:1019900030E080914F078F5F8F7780934F0702C0B1
:1019A0002FEF3FEFC9010895AF92BF92CF92DF9220
:1019B000EF92FF920F931F93CF93DF93EC01F62EDC
:1019C000AFB6F894D0904F07C0904E07DC1469F082
:1019D000CD1420F44D2D41954F7709C0DC1428F427
:1019E0004C2D4D194F77C12C02C0C12C40E0BC2CAE
:1019F000B40EFB1408F4BF2CE42EF41608F4EF2CFC
:101A0000EE20B1F00E2D10E02D2D30E02253394F95
:101A10004E2D50E0B901CE010E942A11C00FD11FF6
:101A20008E2D8D0D8F7780934F07FE188FE7F8224C
:101A3000CF1408F4FC2CFF2051F02EEC36E04F2D93
:101A400050E0B901CE010E942A11F0924F07AFBEBB
:101A50008B2DDF91CF911F910F91FF90EF90DF9031
:101A6000CF90BF90AF9008951F920F920FB60F9234
:101A700011240BB60F928F939F93EF93FF93909146
:101A80004E0780914F07981305C080914B068F5FDA
:101A900080934B06E0914E07F0E08091C600E25340
:101AA000F94F808380914E078F5F8F7780934E0729
:101AB000FF91EF919F918F910F900BBE0F900FBEF2
:101AC0000F901F9018951F920F920FB60F9211242E
:101AD0000BB60F928F939F93EF93FF93E091CD06F8
:101AE000F0E0E45BF94F80818093C600E091CD0681
:101AF000F0E0E45BF94F83E280838091CD068F5F55
:101B00008F778093CD069091CC068091CD06981367
:101B100005C08091C1008F7D8093C100FF91EF913E
:101B20009F918F910F900BBE0F900FBE0F901F9043
:101B30001895E6E5F7E020E030E0A081B181AB2B1D
:101B400079F4AEE0A29FF001A39FF00D1124E05BB9
:101B5000F84F57834683628373838483958308C0D9
:101B60002F5F3F4F3E962430310539F7E0E0F0E03B
:101B7000CF0108950F931F93CF93DF93DC011D9640
:101B80001C921E921C97E0918C07F0918D07309764
:101B900009F41CC012964D915D916D917C91159741
:101BA000C0E0D0E001C0FC010281138124813581B5
:101BB000401751076207730770F41D96FC93EE936C
:101BC0001C97209719F0BD87AC8710C0B0938D0784
:101BD000A0938C070BC084859585EF01009719F7BA
:101BE000109721F0309711F0B587A487DF91CF913E
:101BF0001F910F91089520918C0730918D07211529
:101C0000310521F1F901A0E0B0E040E050E001C071
:101C1000FB01608171816817790769F454854585F6
:101C2000109731F01C965C931C971D964C9302C044
:101C3000252F342FAF0164857585DF01611571058E
:101C400039F730938D0720938C0702C040E050E0B5
:101C5000CA0108950F931F93CF93DF93C0918C0710
:101C6000D0918D07E0E0F0E047C080918E07909121
:101C70008F07A0919007B09191074A815B816C8199
:101C80007D8184179507A607B707C8F18C859D85C8
:101C9000309719F09587848704C090938D078093BF
:101CA0008C07688579858A859B85EE81FF811995EA
:101CB0006115710581059105A1F000918E071091C4
:101CC0008F072091900730919107060F171F281F4B
:101CD000391F0A831B832C833D83CE010E94BA0DDA
:101CE00006C0198218821F821E821D861C869C8552
:101CF0008D85FE01C92FD82F209709F0B6CFDF912F
:101D0000CF911F910F9108951F920F920FB60F92CE
:101D100011240BB60F922F933F934F935F936F93C2
:101D20007F938F939F93AF93BF93EF93FF93809194
:101D30008E0790918F07A0919007B091910701961F
:101D4000A11DB11D80938E0790938F07A0939007DC
:101D5000B09391070E942A0EFF91EF91BF91AF912E
:101D60009F918F917F916F915F914F913F912F91B3
:101D70000F900BBE0F900FBE0F901F901895E1E8CB
:101D8000F0E0808181608083EFE6F0E08081816017
:101D9000808310928D0710928C0710928E071092FC
:101DA0008F0710929007109291070895CF92DF92BB
:101DB000EF92FF920F931F93FC01CB01BA016801D0
:101DC000790100918E0710918F0720919007309133
:101DD0009107600F711F821F931FAF010E94990D21
:101DE0000097A9F00091020210910302FC011183F7
:101DF000008398012F5F3F4F30930302209302022C
:101E0000C086D186E286F3860E94BA0D02C000E049
:101E100010E0C8011F910F91FF90EF90DF90CF90DD
:101E200008950F931F93CF93DF9300D01F92CDB7E8
:101E3000DEB700918E0710918F07209190073091A7
:101E40009107400F511F621F731F49835A836B8391
:101E50007C830E94FB0D8C0149815A816B817C81BE
:101E6000009759F0FC0142835383648375830E9479
:101E7000BA0DF8012081318102C020E030E0C901B3
:101E80000F900F900F900F90DF91CF911F910F91B6
:101E900008950E94FB0DFC01009739F020813181EB
:101EA000118210821782168202C020E030E0C90140
:101EB00008950F931F9300918E0710918F07209123
:101EC000900730919107B801C9011F910F910895B2
:101ED000F894109285001092840010928E07109250
:101EE0008F07109290071092910760938807709364
:101EF000890780938A0790938B077894089584B11B
:101F0000806784B985B1806785B960E072EC81E053
:101F100090E00E94E20B0E94BF0E0E945A02789449
:101F20008DE992E09F938F9386EA92E09F938F933F
:101F30008CE591E09F938F930E94BD0B0E94C50397
:101F4000FC01108101810E94C503FC01C281D38183
:101F50000E94C5030F931F93DF93CF93FC018485E9
:101F60001F928F9387E791E09F938F930E94BD0B01
:101F70008DB79EB70E960FB6F8949EBF0FBE8DBF5D
:101F80000E941607FDCFA1E21A2EAA1BBB1BFD0162
:101F90000DC0AA1FBB1FEE1FFF1FA217B307E40748
:101FA000F50720F0A21BB30BE40BF50B661F771FA0
:101FB000881F991F1A9469F7609570958095909580
:101FC0009B01AC01BD01CF0108954F925F926F92CA
:101FD0007F928F929F92AF92BF92CF92DF92EF92B9
:101FE000FF920F931F93CF93DF935B01EA0161157B
:101FF000710519F0FB0180839183209739F09E01D0
:10200000225031092332310508F0E6C07C01F70186
:1020100091907F018F01892D90E00E941111892BF1
:10202000B1F7FDE29F1206C0F70191908F0188245D
:10203000839407C0FBE29F1203C0F70191908F01C8
:10204000812C209709F4D6C0C031D10581F4CEC0CF
:10205000F8018081883719F0883509F0C1C0F8018E
:1020600091800E5F1F4FF2E08F2AC0E1D0E0C830B0
:10207000D105D9F024F4C230D105F9F407C0CA3033
:10208000D10551F0C031D105C1F425C0C12CD12CEE
:10209000E12C40E4F42E24C0CAE0D0E03CECC32E96
:1020A000DC2CEC2C3CE0F32E1BC0C8E0D0E0C12CB3
:1020B000D12CE12C20E1F22E13C09E01442737FDE4
:1020C0004095542F60E070E080E090E80E94C30FDC
:1020D00069017A0105C0C12CD12CE12C98E0F92EC0
:1020E00040E060E070E0CB012E01662457FC609474
:1020F000762CE92DE053EA3060F0292D21542A3165
:1021000010F4E75006C0292D21562A3128F5E92D73
:10211000E7552E2F30E02C173D07F4F447FD18C08B
:10212000C616D706E806F90680F09B01AC01C3018C
:10213000B2010E9445146E0F711D811D911D613009
:102140007105810520E8920710F04FEF01C041E0D2
:10215000F80191908F01CDCFA114B10481F04423F7
:1021600031F001501109F5011183008308C081FE8F
:102170001AC002501109F5011183008314C047FFF2
:1021800012C080FE05C060E070E080E090E804C00E
:102190006FEF7FEF8FEF9FE722E230E030939307FE
:1021A0002093920716C080FE08C090958095709588
:1021B00061957F4F8F4F9F4F0CC097FF0AC082E2FF
:1021C00090E090939307809392076FEF7FEF8FEFEC
:1021D0009FE78B019C0112C000E010E098010EC047
:1021E00080E3982E209709F460CF41CFF0E39F124F
:1021F0003ECF2ECF20E392124FCF2ACFB801C90194
:10220000DF91CF911F910F91FF90EF90DF90CF90D2
:10221000BF90AF909F908F907F906F905F904F9006
:10222000089591117FC2803219F089508550D0F7FE
:1022300008959111089581568A5108F48052855865
:102240000895FB01DC0102C005900D924150504001
:10225000D8F70895FB01DC0102C001900D924150B6
:102260005040D8F70895FB01DC018D9181341CF0BA
:102270008B350CF4805E619161341CF06B350CF48D
:10228000605E861B611189F3990B08950F931F936C
:10229000CF93DF93CDB7DEB72E970FB6F894DEBF9E
:1022A0000FBECDBF8C01CA014EE04C831A83098357
:1022B00077FF02C060E070E8615071097E836D8332
:1022C000A901BC01CE0101960E947F114D815E8162
:1022D00057FD0AC02F813885421753070CF49A0125
:1022E000F801E20FF31F10822E960FB6F894DEBFAE
:1022F0000FBECDBFDF91CF911F910F9108952F9207
:102300003F924F925F926F927F928F929F92AF9285
:10231000BF92CF92DF92EF92FF920F931F93CF93D2
:10232000DF93CDB7DEB72C970FB6F894DEBF0FBEA4
:10233000CDBF7C016B018A01FC011782168283816B
:1023400081FFC6C188248394912C8C0E9D1EF701B9
:102350009381F60193FD859193FF81916F0188230D
:1023600009F4B2C1853239F493FD859193FF8191CF
:102370006F01853229F4B70190E00E94AB13E7CFDB
:10238000512C312C20E02032A8F48B3261F028F45B
:10239000803251F0833271F40BC08D3239F08033CA
:1023A00049F4216028C02260246025C0286023C031
:1023B000206121C027FD27C0382F30533A3078F4F0
:1023C00026FF06C0FAE05F9E300D1124532E13C085
:1023D0008AE0389E300D1124332E20620CC08E32DC
:1023E00021F426FD71C1206406C08C3611F42068EA
:1023F00002C0883641F4F60193FD859193FF8191E7
:102400006F018111C0CF982F9554933018F09052DE
:10241000933028F40C5F1F4FFFE3F9830DC0833620
:1024200031F0833771F0833509F05EC023C0F801C5
:10243000808189830E5F1F4F44244394512C5401A3
:1024400015C03801F2E06F0E711CF801A080B18058
:1024500026FF03C0652D70E002C06FEF7FEFC5015E
:102460002C870E94A0132C0183012C856FE7262E58
:10247000222218C03801F2E06F0E711CF801A08012
:10248000B18026FF03C0652D70E002C06FEF7FEFC3
:10249000C5012C870E9495132C012C8550E8252E10
:1024A000222A830123FC1CC006C0B70180E290E011
:1024B0000E94AB133A94832D90E048165906A8F376
:1024C0000FC0F50127FC859127FE81915F01B701BF
:1024D00090E00E94AB1331103A94F1E04F1A51088A
:1024E0004114510471F7EDC0843611F0893641F57D
:1024F000F80127FF07C060817181828193810C5FA1
:102500001F4F08C060817181882777FD8095982FC3
:102510000E5F1F4F4FE6B42EB22297FF09C0909571
:102520008095709561957F4F8F4F9F4FF0E8BF2A40
:102530002AE030E0A4010E94D713A82EA81843C0B7
:10254000853731F43FEEB32EB2222AE030E024C0CA
:1025500099EFB92EB2228F36B9F020F4883509F000
:10256000B3C00DC0803721F0883709F0ADC002C07C
:1025700020E1B22AB4FE0BC084E0B82A08C024FFD0
:1025800009C0E6E0BE2A06C028E030E005C020E130
:1025900030E002C020E132E0F801B7FE07C0608100
:1025A0007181828193810C5F1F4F06C060817181B0
:1025B00080E090E00E5F1F4FA4010E94D713A82E69
:1025C000A818FFE7BF22B6FE0BC02B2D2E7FA51447
:1025D00050F4B4FE0AC0B2FC08C02B2D2E7E05C0FC
:1025E0007A2C2B2D03C07A2C01C0752C24FF0DC032
:1025F000FE01EA0DF11D8081803311F4297E09C0AE
:1026000022FF06C07394739404C0822F867809F069
:10261000739423FD14C020FF0FC05A2C731460F470
:10262000530C5718732C08C0B70180E290E02C8738
:102630000E94AB1373942C857314B0F304C073140D
:1026400010F4371801C0312C24FF12C0B70180E309
:1026500090E02C870E94AB132C8522FF1EC021FF27
:1026600003C088E590E002C088E790E0B7010CC0A5
:10267000822F867891F021FD02C080E201C08BE2BA
:1026800027FD8DE2B70190E00E94AB1306C0B701B1
:1026900080E390E00E94AB135A94A514C0F3AA946F
:1026A000F401EA0DF11DB701808190E00E94AB13A7
:1026B000A110F5CF06C0B70180E290E00E94AB13F5
:1026C0003A943110F8CF43CEF7012681378102C00A
:1026D0002FEF3FEFC9012C960FB6F894DEBF0FBE67
:1026E000CDBFDF91CF911F910F91FF90EF90DF90C1
:1026F000CF90BF90AF909F908F907F906F905F90A2
:102700004F903F902F900895F999FECF92BD81BDD3
:10271000F89A992780B50895A8E1B0E042E050E02A
:102720000C943714992788270895FC01059061506F
:1027300070400110D8F7809590958E0F9F1F0895D7
:10274000FC016150704001900110D8F78095909580
:102750008E0F9F1F08950F931F93CF93DF938C01CC
:10276000EB018B8181FD03C00FEF1FEF1AC082FFC9
:102770000DC02E813F818C819D812817390764F41B
:10278000E881F9810193F983E88306C0E885F9853A
:10279000802F1995892B41F78E819F8101969F8308
:1027A0008E83C801DF91CF911F910F910895FA0197
:1027B000AA27283051F1203181F1E8946F936E7F80
:1027C0006E5F7F4F8F4F9F4FAF4FB1E03ED0B4E071
:1027D0003CD0670F781F891F9A1FA11D680F791FB2
:1027E0008A1F911DA11D6A0F711D811D911DA11DC3
:1027F00020D009F468943F912AE0269F11243019D3
:10280000305D3193DEF6CF010895462F4770405D6D
:102810004193B3E00FD0C9F7F6CF462F4F70405D1C
:102820004A3318F0495D31FD4052419302D0A9F777
:10283000EACFB4E0A6959795879577956795BA9571
:10284000C9F700976105710508959B01AC010A2E37
:1028500006945795479537952795BA95C9F7620F0E
:10286000731F841F951FA01D0895DC01CB01FC017F
:10287000F999FECF06C0F2BDE1BDF89A319600B4D9
:102880000D9241505040B8F70895DB018F939F930C
:102890000E945514BF91AF91A29F800D911DA39FDF
:1028A000900DB29F900D112408950E946014A59F71
:1028B000900DB49F900DA49F800D911D112408953B
:1028C000A29FB001B39FC001A39F01D0B29F700D22
:0C28D000811D1124911D0895F894FFCF84
:1028DC0001010100B2029A0602B702D8027A06017F
:1028EC00DD02F702580601E902FC02360601030379
:1028FC001F036C050227034903E0050155036D0313
:10290C006605007303800344050185039A033505AE
:10291C00009E03AB03260401B003BE03180500C3DD
:10292C0003DC03EC0401E303F503CA0401FC03110B
:10293C0004A80401190435049304012B043D047FFD
:10294C000401430454043604035C047C04F10300C6
:10295C007E040000000103020F0F0F0F0F0E0E0E6E
:10296C000D0D0C0C0B0A0908070604020032313A53
:10297C0031353A3432004E6F7620323720323031D6
:10298C003300616464720053657420666C61736813
:10299C00207461726765742061646472657373205E
:1029AC006F66206E6F64650070696E670050696EAB
:1029BC00672061206E6F6465005365742061206E22
:1029CC006F646520746F20646561660066696E696A
:1029DC0073680046696E6973682061206E6F646568
:1029EC002028666F726365207772697465290066AA
:1029FC0065656468657800466565642061206C696E
:102A0C006E65206F66206865782066696C65207439
:102A1C006F2061206E6F646500666565646865781B
:102A2C0066696C6500466565642068657820666932
:102A3C006C6520746F2061206E6F64650072657325
:102A4C0065740052657365742061206E6F64650057
:102A5C00657869740045786974206E6F64652062CE
:102A6C006F6F746C6F6164657200637263004765AD
:102A7C0074206461746120435243006563686F0085
:102A8C004563686F206120737472696E6700696EAC
:102A9C00666F00496E666F726D6174696F6E20614E
:102AAC00626F7574206D7973656C66007461726702
:102ABC0065740053657420746172676574206D656C
:102ACC006D6F7279006A626F6F746C004A756D700D
:102ADC0020696E746F20626F6F746C6F61646572C5
:102AEC0000626F6F746C7570005570646174652052
:102AFC00426F6F746C6F6164657200536574207201
:102B0C006164696F206368616E6E656C0070616EE4
:102B1C0069640053657420726164696F2050414E82
:102B2C005F494400786D706C6C6564004578616D2C
:102B3C00706C65206F66206170706C69636174697C
:102B4C006F6E3A20536574204C4544003F00486535
:102B5C006C70206F6E20636F6D6D616E647300001E
:00000001FF
