:1030000039C0000052C0000050C000004EC0000097
:103010004CC000004AC0000048C0000046C000008C
:1030200044C0000042C0000040C00000A6C4000030
:103030003CC000003AC0000038C0000036C00000AC
:1030400034C0000032C0000030C000002EC00000BC
:103050002CC000002AC0000028C0000026C00000CC
:1030600024C0000022C0000020C000001EC00000DC
:103070001CC0000011241FBECFEFD2E0DEBFCDBFC9
:1030800011E0A0E0B1E0E0E7FCE302C005900D92A2
:10309000A035B107D9F711E0A0E5B1E001C01D925C
:1030A000AF36B107E1F724D1E1C5AACF15C09091A1
:1030B000F20091110EC09091E8009B7F9093E80080
:1030C00003C09EB3992351F09091E80092FFF9CF8D
:1030D00002C09091F10081508111E9CF08953091A3
:1030E0005E0120915D0190915C0180915B01909364
:1030F000520180935301C901909350018093510173
:103100000895CF93DF9300D000D000D0CDB7DEB7C5
:1031100080915901843009F44CC030F4813059F069
:10312000833009F0C1C01FC0853009F490C08630DB
:1031300009F0BAC0ADC080915A01823008F0B4C025
:10314000CEDF80915A0181110CC080915201909183
:10315000530123E0FC0120935700E89507B600FCDB
:10316000FDCF85E008C080915A01882311F082309C
:1031700029F4B5DF89E08093000196C0813009F021
:1031800093C0E0E0F0E084918F3F69F01092540129
:10319000F0935301E09352018AE08093000185E0AF
:1031A0008093570181C03196E11520E3F20759F76A
:1031B0007BC080915A01833041F581E080935801B2
:1031C00080915F019091600120915B01892B61F0FA
:1031D000213009F069C090915E0180915D0190936A
:1031E00055018093560160C021110CC02CE088E18C
:1031F00090E00FB6F894A895809360000FBE2093DE
:10320000600052C0109201014FC081114DC08091E9
:103210005B018F3F09F048C0E0E0F0E083E095E01B
:1032200080935700E89507B600FCFDCF90935700B8
:10323000E89507B600FCFDCFE058FF4FE11520E30D
:10324000F20771F781E180935700E8952DC080E285
:103250008C838CED8D838BEF8E838EE1898384E963
:103260008A8389E88B8380915B0190915A01911147
:1032700005C0FE01E80FF11D848107C09130A1F463
:10328000FE01BF97E80FF11D8081809364010CC09F
:1032900080915A01833041F480915B01811104C017
:1032A00080915C018093540126960FB6F894DEBF9E
:1032B0000FBECDBFDF91CF91089584B7877F84BFC4
:1032C00088E10FB6F89480936000109260000FBE02
:1032D00081E085BF82E085BF8AB180638AB98BB106
:1032E00080638BB93FC328D381E085BF15BE0895A5
:1032F000E4DF789401C09CD4809101018111FBCF5F
:10330000809158018111F7CFEEDFE0915501F091E6
:1033100056010995AF92BF92CF92DF92EF92FF9242
:103320000F931F93CF93DF9380916D0190916E0166
:103330009093600180935F0180916101882341F047
:1033400080916101815080936101811101C05D9A7A
:1033500080916201882341F08091620181508093C5
:103360006201811101C05C9A80916801833009F487
:10337000A3C130F4813069F0823009F0D8C103C1B3
:10338000853009F4B7C108F4ADC1863009F0CFC16A
:10339000B9C15C9883E0809362018091E800877FE7
:1033A0008093E80080915801882329F0AADE5D9A75
:1033B0005C9A1092580180915F0190916001009792
:1033C00059F12091E80022FD04C02EB32111F9CF5C
:1033D000AEC12091F10020935901019790936001B3
:1033E00080935F01EAE5F1E012C08091F1008193E2
:1033F00080915F01909160010197909360018093AB
:103400005F0181E0EF35F80711F47BDE05C08091A4
:10341000F2008111EACFF9CF80910001853009F0E7
:10342000AEC080915F0190916001892B21F482E010
:1034300080930001A4C08AE139DE809152018F712E
:1034400035DE2091520130915301C0915001D0914D
:1034500051012196C21BD30B80915A0181118BC05F
:10346000D695C795022FF32E40915401E42ED12C0E
:10347000C90110E0CC24C39425E0B22E33E0A32E82
:1034800045C02091F2002223E9F02197402F5F2DC3
:103490006E2D7D2DF091F100E091F1002F2F3E2F48
:1034A000FA010901C0925700E89511241F5F4E5F91
:1034B0005F4F6F4F7F4F042FF52EE62ED72E10341F
:1034C00081F411C02091E8002B7F2093E80004C014
:1034D0002EB3222309F42BC12091E80022FFF8CF5C
:1034E000D4CF209799F4FC01B0925700E89507B625
:1034F00000FCFDCF209751F0FA01A0925700E8950B
:1035000007B600FCFDCFDB01CA0110E0209709F0EF
:10351000B8CF8091500190915101909353018093C5
:10352000520181E180935700E89527C08091F20015
:10353000882391F021976091F10080915201909140
:10354000530186D38091520190915301019690933B
:103550005301809352010FC08091E8008B7F8093CC
:10356000E80004C08EB3882309F4E1C08091E8002C
:1035700082FFF8CFDFCF2097C9F680E197DD8091F9
:10358000E8008B7F96C08091E800877F8093E800F9
:103590005D9883E08093610104C08EB3882309F4B1
:1035A000C6C08091E80080FFF8CF8091000189308B
:1035B00091F08A3059F480915A01813039F4909118
:1035C0005201809153019093F10002C080916401F7
:1035D0008093F1006BC02091520130915301C09152
:1035E0005001D09151012196C21BD30B80915A01F9
:1035F000811131C0D695C795C901A0915401B0E0A1
:103600001FC02091F200203261F0FC01259134911D
:103610002093F1003093F1000296A11DB11D219776
:103620000FC02091E8002E7F2093E80004C02EB345
:10363000222309F47CC02091E80020FFF8CFE5CFD9
:103640002097F9F680915001909151019093530188
:103650008093520128C0823031F523C08091F2005E
:10366000803281F021970091520110915301C801DD
:10367000E7D28093F1000F5F1F4F10935301009327
:1036800052010FC08091E8008E7F8093E80004C053
:103690008EB3882309F44BC08091E80080FFF8CFF7
:1036A000E1CF2097D9F682E0809300018091E80075
:1036B0008E7F8093E80030C08091E800877F809300
:1036C000E800809157018093F1001092F100109270
:1036D000F1001092F100809100018093F1001092AE
:1036E000F100E4CF8091E800877F8093E80010929A
:1036F000570112C08091E800877F8093E800809195
:10370000000166CF8091E800877F8093E8005D9A92
:103710005C9A82E080930001DF91CF911F910F911D
:10372000FF90EF90DF90CF90BF90AF9057C0DF91A8
:10373000CF911F910F91FF90EF90DF90CF90BF90AE
:10374000AF900895292F30E033272230310559F00A
:103750002330310569F021303105C1F020E030E03F
:1037600080E090E017C02BE130E082E291E012C0EF
:10377000811106C020911E0130E08EE191E00AC067
:103780002091020130E082E091E004C022E130E0CB
:103790008DE391E0FA0191838083C9010895EBEEF6
:1037A000F0E0808181608083EDEEF0E01082609334
:1037B000EC0040838091EE00881F8827881F0895C1
:1037C0001092F4001092F0001092E8001092ED00B8
:1037D000EBEEF0E080818E7F808308958091670119
:1037E00087FD05C08091E80080FF0DC010C080916A
:1037F000E80082FD04C08EB38111F9CF0895809155
:10380000E8008B7F07C08EB38111ECCF08958091C3
:10381000E8008E7F8093E800089520916D0130913B
:103820006E012617370748F06115710539F42091AC
:10383000E8002E7F2093E80001C0B901FC0190E070
:1038400029C08091E80083FD37C08091E80082FDA7
:103850002DC08EB3882391F18EB3853089F180918C
:10386000E80080FF17C08091F20006C0919190930C
:10387000F100615071098F5F6115710511F080329F
:10388000A8F391E0803209F090E08091E8008E7F0B
:103890008093E80061157105A1F69111D2CF06C0A1
:1038A0008EB3882359F08EB3853051F08091E800B3
:1038B00082FFF6CF80E0089581E0089582E00895C8
:1038C00083E0089554D056D01EBA1092650184E06A
:1038D00089BD89B5826089BD09B400FEFDCF8091A4
:1038E000D800982F9F779093D80080688093D80055
:1038F000809163008E7F809363008091D8008F7DDC
:103900008093D8008091E0008E7F8093E0008091CA
:10391000E1008E7F8093E1008091E20081608093DE
:10392000E2008091E100877F8093E1008091E200D6
:1039300088608093E2000895C5DFE0EEF0E08081CA
:1039400081608083E8EDF0E080818F7780830FD005
:1039500011D019BCE3E6F0E0808181608083109291
:1039600066010895AFDF81E08093660108951092AB
:10397000E20008951092E10008951F920F920FB691
:103980000F9211242F933F934F935F936F937F93E5
:103990008F939F93AF93BF93EF93FF938091E10039
:1039A00080FF1BC08091E20080FF17C08091E10082
:1039B0008E7F8093E1008091E2008E7F8093E20011
:1039C0008091E20080618093E2008091D800806263
:1039D0008093D80019BC1EBA2AD18091E10084FFDF
:1039E00029C08091E20084FF25C084E089BD89B5AB
:1039F000826089BD09B400FEFDCF8091D8008F7D23
:103A00008093D8008091E1008F7E8093E1008091C7
:103A1000E2008F7E8093E2008091E20081608093DB
:103A2000E20080916501882311F084E001C081E00B
:103A30008EBBFDD08091E10083FF22C08091E20027
:103A400083FF1EC08091E100877F8093E10082E0C8
:103A50008EBB109265018091E1008E7F8093E10022
:103A60008091E2008E7F8093E2008091E20080618D
:103A70008093E200A5DE42E260E080E090DED7D0F5
:103A80008091E10082FF0AC08091E20082FF06C0BF
:103A90008091E1008B7F8093E100C9D0FF91EF918D
:103AA000BF91AF919F918F917F916F915F914F9156
:103AB0003F912F910F900FBE0F901F9018950F936D
:103AC0001F93CF93DF9300D0CDB7DEB7E7E6F1E0E9
:103AD0008091F100819381E0EF36F807C9F780917A
:103AE000670190916801953001F138F49130B1F09F
:103AF00070F0933009F092C011C0983009F456C0AC
:103B0000993009F465C0963009F088C030C080381B
:103B100009F475C0823809F081C071C0882309F4A6
:103B20006EC0823009F07AC06AC0811177C00091FE
:103B3000690110916A018091E800877F8093E80015
:103B40004DDE04C08EB3882309F459C08091E8008B
:103B500080FFF8CFC8018F779927009711F023E0F5
:103B600001C022E02EBB80688093E30048C08058EB
:103B7000823008F053C0AE014F5F5F4F60916B0120
:103B80008091690190916A01DDDD0097C1F120917A
:103B9000E800277F2093E800BC0189819A813DDEFF
:103BA0008091E8008B7F8093E80029C08038B1F5D0
:103BB0008091E800877F8093E80080916501809381
:103BC000F1008091E8008E7F8093E80007DE17C047
:103BD000811124C090916901923088F48091E800AD
:103BE000877F8093E80090936501F8DD80916501FF
:103BF000882311F084E001C083E08EBB18D080914F
:103C0000E80083FF0DC08091EB0080628093EB00A1
:103C10008091E800877F8093E80002C07BDBEFCFD4
:103C20000F900F90DF91CF911F910F9108950895FC
:103C30008EB3882321F08091E80083FD40CF089562
:103C4000F999FECF92BD81BDF89A992780B5089564
:103C5000262FF999FECF1FBA92BD81BD20BD0FB6A8
:103C6000F894FA9AF99A0FBE01960895F894FFCF46
:103C700002011A03500069006E006F0063006300C8
:103C800069006F0020004400460055000000040356
:103C9000090409021B00010100804B090400000017
:103CA000FE0102000921030000000C0001120110B6
:103CB0000100000020EB03EF2F00000001000100D5
:0400000300003000C9
:00000001FF
