:020000023000CC
:10E0000099C00000BDC00000BBC00000B9C0000046
:10E01000B7C00000B5C00000B3C00000B1C0000030
:10E02000AFC00000ADC00000ABC00000A9C0000040
:10E03000A7C00000A5C00000A3C00000A1C0000050
:10E040009FC000009DC000009BC0000099C0000060
:10E0500097C0000095C0000093C0000091C0000070
:10E060008FC000008DC000008BC0000089C0000080
:10E0700087C0000085C0000083C0000081C0000090
:10E080007FC000007DC000007BC0000079C00000A0
:10E0900077C0000075C0000073C0000071C00000B0
:10E0A0006FC000006DC000006BC0000069C00000C0
:10E0B00067C0000065C0000063C0000061C00000D0
:10E0C0005FC000005DC000005BC0000059C00000E0
:10E0D00057C0000055C0000053C0000051C00000F0
:10E0E0004FC000004DC000004BC0000049C0000000
:10E0F00047C0000045C0000043C0000041C0000010
:10E100003FC000003DC000003BC0000039C000001F
:10E1100037C0000035C0000033C0000031C000002F
:10E120002FC000002DC000002BC0000029C000003F
:10E1300027C0000011241FBECFEFD1E8DEBFCDBF46
:10E1400001E00CBF12E0A0E0B2E0E8E5F0EF03E090
:10E150000BBF02C007900D92AC32B107D9F723E094
:10E16000ACE2B2E001C01D92AC3CB207E1F7CED008
:10E1700071C701E80EBF0FEF0DBF11241FBEC6C04F
:10E180003FCF08950895E82FF0E0E05CFE4F6083F4
:10E190000895E82FF0E0E05CFE4F80810895E82FBD
:10E1A000F0E0E05CFE4F80816823862F90E002C0A3
:10E1B000959587954A95E2F70895E82FF0E0E05CA1
:10E1C000FE4F042E01C0220F0A94EAF72623609521
:10E1D00080816823262B2083089587FD8FE7809315
:10E1E0008001482F50E081E891E000C7FF920F9333
:10E1F0001F93CF93DF93EA01F0907B01462FF61631
:10E2000008F44F2D042F10E050E060E871E0EED6E6
:10E21000F801E058FE4F808188838F2DDF91CF91E8
:10E220001F910F91FF900895FF920F931F93CF932B
:10E23000DF938C01F62EEA01209749F047E060E871
:10E2400086E0ADDF91E0813009F090E0988340E016
:10E2500050E06F2DC801DF91CF911F910F91FF907A
:10E26000C5CFDF92EF92FF920F931F93CF93DF936F
:10E270008C01D62E7A01E901209749F047E060E849
:10E2800086E08DDF91E0813009F090E09883A7016E
:10E290006D2DC801DF91CF911F910F91FF90EF90ED
:10E2A000DF90A4CF80917B010895962FBA01282F8B
:10E2B00030E0F901E90FF11DE038F10514F09FE7B6
:10E2C000981B20583E4F492F50E0C9018FC6A42FFC
:10E2D000952F282F30E0F901E60FF11DE038F10508
:10E2E00014F06FE7681B20583E4F462F50E0B901ED
:10E2F0008A2F7CC68093C6008091C00086FFFCCF29
:10E300008091C00080648093C0000895CF93DF9314
:10E31000CDB7DEB7CA52D1400FB6F894DEBF0FBEFC
:10E32000CDBF01E80EBF0FEF0DBF94B7F894A895CD
:10E3300014BE80916000886180936000109260003C
:10E34000789493FF07C058EE852E5DEF952EA12C93
:10E35000B12C06C040E1842E47E2942EA12CB12CB2
:10E3600084B1806784B985B1806785B98091800068
:10E370008168809380008091810089608093810012
:10E38000809180008062809380008091B0008368DB
:10E390008093B0008091B10081608093B1008FEBD9
:10E3A0009FE12DD68093C70380EC9FE128D6809310
:10E3B000C60381EC9FE123D68093C8038091C703F5
:10E3C00081110FC08091C60381110BC08091C803D9
:10E3D000811107C01092C7038FEF8093C60310927C
:10E3E000C8032091C7038FEF90E0AC01421B510995
:10E3F00050938900409388002091C603821B9109A5
:10E4000090938B0080938A008091C80380958093BD
:10E41000B3008091C00082608093C00080E180934F
:10E42000C40088E18093C100000086EF9FE1EFD532
:10E430002C0184EF9FE1EBD53C0183EF9FE1DFD519
:10E44000C12CD12CE12CF12C00E010E020E030E0D8
:10E45000A201B301E4D3412C512C3201EE24EA9401
:10E46000F12CDD24DA9400E010E04DC055E05A951F
:10E47000F1F700008FEF481A580A680A780A8414E6
:10E480009504A604B70410F402E010E0C301B20141
:10E4900027EC3BE140E050E087D5672B682B692BE8
:10E4A00069F590912D0281E0911180E080932D0219
:10E4B00080912D028823C1F08091C703F701E81BEA
:10E4C000F109F0938900E09388008091C6039701D9
:10E4D000281B310930938B0020938A008091C80358
:10E4E00080958093B3000AC0F0928900E092880082
:10E4F000F0928B00E0928A00D092B30009D4882376
:10E5000011F001E010E08091C00087FF07C00F5FAD
:10E510001F4F0130110509F0EDC2D0C201151105E0
:10E5200009F4A4CFF4CF00E010E001301105C1F4EC
:10E530001EC04F5F5F4F6F4F7F4F413032E1530737
:10E540003AE76307710578F0CB5DDE4F488159816A
:10E55000C552D1404F3F5F4F19F0EE27FF27099476
:10E5600040E050E0BA013091C00037FFE2CF309177
:10E57000C6002330E1F020F4213061F098F407C0A8
:10E58000253009F1C0F0263009F060C02CC03B31C5
:10E5900051F6E7C27326C25EDE4F3883CE51D140BA
:10E5A00022E0C1CF932F80E0732623E0BCCF832BE2
:10E5B000732624E0B8CF3E3009F0D9C27326212C4F
:10E5C000312C25E0B0CFE1E0F0E0EC0FFD1FE20DD3
:10E5D000F31D3083FFEF2F1A3F0A732628163906E2
:10E5E00009F0A1CFC2C23711C2C22981233109F477
:10E5F000D8C0B0F4263009F4C1C048F4223049F143
:10E60000233009F470C0213009F0DFC155C0213139
:10E6100009F479C008F0A9C0203109F0D6C119C0A9
:10E62000283109F48CC048F4253109F4BAC008F443
:10E630006EC1263109F0C9C16AC12B3109F467C026
:10E640002D3149F02A3109F0C0C16CC0273069F280
:10E650006ACF612C5AC08D81803339F49F81992310
:10E66000E1F09130E1F498EA1DC0982F9075C9F05F
:10E67000803521F499E0E0E0F0E00BC0883589F4C2
:10E680009E81911103C0E1E0F0E002C0E3E0F0E020
:10E6900099E090935700949105C09EE103C092E0E9
:10E6A00001C090E01A821B828C831D829E831F8290
:10E6B000612C07E010E08EC11A8288E08B8381E430
:10E6C0008C8386E58D8382E58E8389E48F8383E561
:10E6D000888780E589878FE58A8782E38B87612C2D
:10E6E0000BE010E077C1EA81E059E33028F4F0E074
:10E6F000E75DFD4F808101C080E01A828B83612C31
:10E7000003E010E067C1662463941A8261C18D81C1
:10E71000882321F0813021F488EA24C08EE122C0D0
:10E7200082E020C01A82E1E0F0E089E080935700A7
:10E73000E491EB831C82612C04E010E04BC18B81DF
:10E74000803551F48C81883019F4E2E0F0E006C0A5
:10E7500089E0E0E0F0E003C0E3E0F0E089E08093EE
:10E76000570084911A828B83E5CF80EC8A83612CD9
:10E7700002E010E0C12CD12C76012CC18A818B8063
:10E78000912CA12CB12C540199248824B82A8D8174
:10E79000882A8C81982A880C991CAA1CBB1C1A8276
:10E7A00016C1FA81C05EDE4FF883C052D140C15E0F
:10E7B000DE4F1882CF51D1408B81C15EDE4F088180
:10E7C0001981CF51D140082B233109F051C0C11418
:10E7D00020EED20623E0E206F10470F483E0F601B5
:10E7E000E0925B0080935700E89507B600FCFDCFF0
:10E7F0003FEFD31AE30AF30A8B85DE011D96B501BC
:10E80000A40121E0FD0131979081CE5DDE4F988318
:10E81000C252D140CF5DDE4F1882C152D140CF5D90
:10E82000DE4FE881F981C152D140E82BCF010C01C4
:10E83000FA0160935B0020935700E89511244E5F26
:10E840005F4F6F4F7F4F0250110919F08C91129654
:10E85000D9CF85E0F401A0925B0080935700E89542
:10E8600007B600FCFDCF81E180935700E8954BC0CF
:10E8700024013501769467945794479420E030E062
:10E88000AE01455F5F4F31C0FA016191AF01C9012F
:10E89000840D951DC95DDE4F2883C752D140C85DE8
:10E8A000DE4F3883C852D140C75DDE4FE883C9527E
:10E8B000D140C65DDE4F5883CA52D140ADD3C95D49
:10E8C000DE4F2881C752D140C85DDE4F3881C85223
:10E8D000D1402F5F3F4FC65DDE4F5881CA52D140B5
:10E8E000C75DDE4F4881C952D1402017310761F61C
:10E8F000A90160E070E0440F551F661F771F480DA7
:10E90000591D6A1D7B1D1A824A015B0160C0FA8194
:10E91000CC5DDE4FF883C452D140CD5DDE4F18820E
:10E92000C352D1408B81CD5DDE4F48815981C352A6
:10E93000D140482BCA018C010D5F1F4F1A82243130
:10E94000C1F49E012C5F3F4FDE011396ABBEF40174
:10E95000479156914C93F90150831296F2E08F0E35
:10E96000911CA11CB11C02972E5F3F4F009771F7BD
:10E9700029C09C01B501A401FE01339641BD452E7D
:10E98000562E672E772442BC4F5F5F4F6F4F7F4FED
:10E99000F89AA0B5A1932150310981F79C0121502B
:10E9A0003109A90160E070E04F5F5F4F6F4F7F4F0B
:10E9B000840E951EA61EB71EA3E0B0E0AC0FBD1FCF
:10E9C000A80FB91F1C92612C05C080EC8A83612CB2
:10E9D00002E010E08BE18EDCC25EDE4F8881CE511A
:10E9E000D14088DC812F86DC802F84DC8EE082DCC5
:10E9F00035E1732EC25EDE4F2881CE51D1407226A2
:10EA00007026712641E050E04C0F5D1F040F151F6A
:10EA10002A0110C0F20191912F01892FC95DDE4FAB
:10EA20009883C752D14066DCC95DDE4F9881C752DA
:10EA3000D14079264016510669F7872D5BDCC25E0E
:10EA4000DE4F2881CE51D1402F5FC25EDE4F28833A
:10EA5000CE51D14090912D0281E0911180E08093C0
:10EA60002D0280912D028823B9F08091C7032FEFEA
:10EA700030E0A901481B5109509389004093880058
:10EA80008091C603281B310930938B0020938A00A4
:10EA90008091C80380950BC08FEF90E09093890020
:10EAA0008093880090938B0080938A008FEF8093EF
:10EAB000B30000E010E06620C9F02BC0C25EDE4F5C
:10EAC0001882CE51D140712C212C312CC12CD12C4B
:10EAD0007601812C912C5401EBBEF60147915691A1
:10EAE000CB5DDE4F59834883C552D14080E090E032
:10EAF00020E01BCD0230110561F4109280001092CD
:10EB000081001092B0001092B10085B1806785B984
:10EB100005D184B18F7884B985B18F7885B95FEFDD
:10EB200081EE94E0515080409040E1F700C0000039
:10EB300000008091C0008D7F8093C00081E18093B0
:10EB40005700E89510928000109281001092B0005A
:10EB50001092B10085B18F7885B9EE27FF2709940F
:10EB6000FFCF2BE1722E21E0DECC26E0DCCC20E0D2
:10EB7000DACC8F929F92AF92BF92CF92DF92EF92B8
:10EB8000FF920F931F93CF93DF9343E0FB0180939A
:10EB90005B0040935700E89507B600FCFDCFE0917D
:10EBA000C402812C912C540141E0E401CC53DD4F8F
:10EBB00075016401C60ED71EE81EF91E398120E0DA
:10EBC00089010E0F111D0801F601E0925B004093D0
:10EBD0005700E89511245EEF85169104A104B10455
:10EBE00039F0EA8152E0850E911CA11CB11CDDCFE9
:10EBF00025E0FB0180935B0020935700E89507B662
:10EC000000FCFDCFDF91CF911F910F91FF90EF900E
:10EC1000DF90CF90BF90AF909F908F9008958F928C
:10EC20009F92AF92BF92CF92DF92EF92FF920F939B
:10EC30001F93CF93DF9394B1906794B995B1906788
:10EC400095B92E98ECE38E2EE2E09E2EF40180839F
:10EC5000F2E3AF2EF2E0BF2EF50171836083C0E3D3
:10EC6000D2E059834883E4E3F2E0C082D182E282B9
:10EC7000F382048315832683378380E082DAE9E315
:10EC8000F1E080818E7F808380818D7F8083808191
:10EC900081608083EEE4F1E0808180932C02108219
:10ECA00063E082E070DA60E284E06DDAF5016081B1
:10ECB000B180E3E0F2E06083B18288819981909332
:10ECC00008028093070282E25EDA6B2D83E25BDA50
:10ECD0006881D98080E257DA6D2D81E254DAF4013F
:10ECE000608188E050DA68818DE24DDA66E182E089
:10ECF0004ADA68E08FE0DF91CF911F910F91FF908A
:10ED0000EF90DF90CF90BF90AF909F908F903BCAD5
:10ED10008FE03FDA83FB882780F90895EF92FF9216
:10ED20000F931F93CF93DF93FF24F394CBE4D2E0B0
:10ED300004EC12E0EE24EA942E9A8FE02ADA83FFA4
:10ED4000FCCF68E08FE01FDA49EC53E06FE780E426
:10ED500092E04CDA2E9880914902833209F41BC16B
:10ED600068F4803209F480C018F4813029F711C0AA
:10ED7000813209F4E8C08232F9F645C0853209F4DF
:10ED800007C108F43BC0863209F465C08732A1F69A
:10ED9000D9C08091BF028111CFCF8091470290915D
:10EDA00048029093060280930502809102028F5FD1
:10EDB0008093020280912E0290912F0290930E0276
:10EDC00080930D0269E182E0DED980913901826091
:10EDD00080933901809139018D7F8093390160E002
:10EDE00072E08AE2FAD98FE0D4D986FFFCCF60E4E2
:10EDF0008FE0C9D966E182E0C6D99ECF80914A02F0
:10EE00008093280299CF1093CB030093CA0380E02C
:10EE100091E0A0E0B0E0E091CA03F091CB03E19271
:10EE2000F093CB03E093CA030197A109B10999F7C5
:10EE30001092C0021092C1021092C2021092C3023C
:10EE400010922F0210922E021092C5031092C4034A
:10EE50001092BF0271CF80914A0290914B02A09113
:10EE60004C02B0914D0287C080914A028093C90341
:10EE7000D093CB03C093CA03E091CA03F091CB03B4
:10EE8000208180912E0290912F028227082E829558
:10EE9000807F8025092E982F82958F700826869571
:10EEA00098278927880F880F880F802580932E0246
:10EEB00090932F028091C4039091C5032081FC019F
:10EEC000EC53FD4F208301969093C5038093C403B8
:10EED0008F3F910531F128F12E9A809128028634D6
:10EEE00049F46091C0027091C1028091C202909178
:10EEF000C3023FDE8091C0029091C102A091C20284
:10EF0000B091C3029F5FAF4FBF4F8093C0029093F9
:10EF1000C102A093C202B093C3021092C503109223
:10EF2000C4038091CA039091CB0301969093CB03C5
:10EF30008093CA038091C90381508093C9038111D2
:10EF40009BCFFACEDDD680912802863449F46091B9
:10EF5000C0027091C1028091C2029091C30209DE89
:10EF60008091C0029091C102A091C202B091C302EF
:10EF70009F5FAF4FBF4F8093C0029093C102A09399
:10EF8000C202B093C3021092C5031092C403D4CE40
:10EF9000F092BF02D1CE2E9A81E0DF91CF911F91E6
:10EFA0000F91FF90EF900895A1E21A2EAA1BBB1BB0
:10EFB000FD010DC0AA1FBB1FEE1FFF1FA217B30745
:10EFC000E407F50720F0A21BB30BE40BF50B661F5B
:10EFD000771F881F991F1A9469F76095709580951F
:10EFE00090959B01AC01BD01CF010895FB01DC01AF
:10EFF00002C001900D9241505040D8F70895F99900
:10F00000FECF92BD81BDF89A992780B50895A8E1F9
:10F01000B0E042E050E010C0262FF999FECF1FBAB1
:10F0200092BD81BD20BD0FB6F894FA9AF99A0FBE31
:10F0300001960895DC01CB01FC01F999FECF06C0D1
:10F04000F2BDE1BDF89A319600B40D9241505040A6
:08F05000B8F70895F894FFCF12
:10F058004188000000000000000200000500007761
:10F0680069626F00000000000000000000000070EE
:0CF07800696E6F6363696F00460F020A47
:10FD000080E090E0DC0123E0B22EAA24A39435E049
:10FD1000932E8C019D0110522C4F3F4FF8012093E0
:10FD20005B00B0925700E89507B600FCFDCF40E0BD
:10FD300050E0BA01FA01E80FF91FC591D4916801AA
:10FD40007901C40ED51EE61EF71E0E01F601E092E3
:10FD50005B00A0925700E89511244E5F5F4F6F4FF4
:10FD60007F4F4115E1E05E076105710519F7F80164
:10FD700020935B0090925700E89507B600FCFDCFFA
:10FD80009F5FAF4FBF4F8115FCE09F07A105B105F5
:10FD900009F0BFCF81E180935700E895E0E0F0EFF4
:02FDA0001995B3
:040000033000E000E9
:00000001FF
