:020000023000CC
:10E0000099C00000BDC00000BBC00000B9C0000046
:10E01000B7C00000B5C00000B3C00000B1C0000030
:10E02000AFC00000ADC00000ABC00000A9C0000040
:10E03000A7C00000A5C00000A3C00000A1C0000050
:10E040009FC000009DC000009BC0000099C0000060
:10E0500097C0000095C0000093C0000091C0000070
:10E060008FC000008DC000008BC0000089C0000080
:10E0700087C0000085C0000083C0000081C0000090
:10E080007FC000007DC000007BC0000079C00000A0
:10E0900077C0000075C0000073C0000071C00000B0
:10E0A0006FC000006DC000006BC0000069C00000C0
:10E0B00067C0000065C0000063C0000061C00000D0
:10E0C0005FC000005DC000005BC0000059C00000E0
:10E0D00057C0000055C0000053C0000051C00000F0
:10E0E0004FC000004DC000004BC0000049C0000000
:10E0F00047C0000045C0000043C0000041C0000010
:10E100003FC000003DC000003BC0000039C000001F
:10E1100037C0000035C0000033C0000031C000002F
:10E120002FC000002DC000002BC0000029C000003F
:10E1300027C0000011241FBECFEFD1E8DEBFCDBF46
:10E1400001E00CBF12E0A0E0B2E0E0E8FEEE03E088
:10E150000BBF02C007900D92AC32B107D9F723E094
:10E16000ACE2B2E001C01D92A83CB207E1F7CED00C
:10E1700085C601E80EBF0FEF0DBF11241FBEC6C03C
:10E180003FCF08950895E82FF0E0E05CFE4F6083F4
:10E190000895E82FF0E0E05CFE4F80810895E82FBD
:10E1A000F0E0E05CFE4F80816823862F90E002C0A3
:10E1B000959587954A95E2F70895E82FF0E0E05CA1
:10E1C000FE4F042E01C0220F0A94EAF72623609521
:10E1D00080816823262B2083089587FD8FE7809315
:10E1E0008001482F50E081E891E014C6FF920F9320
:10E1F0001F93CF93DF93EA01F0907B01462FF61631
:10E2000008F44F2D042F10E050E060E871E002D6D2
:10E21000F801E058FE4F808188838F2DDF91CF91E8
:10E220001F910F91FF900895FF920F931F93CF932B
:10E23000DF938C01F62EEA01209749F047E060E871
:10E2400086E0ADDF91E0813009F090E0988340E016
:10E2500050E06F2DC801DF91CF911F910F91FF907A
:10E26000C5CFDF92EF92FF920F931F93CF93DF936F
:10E270008C01D62E7A01E901209749F047E060E849
:10E2800086E08DDF91E0813009F090E09883A7016E
:10E290006D2DC801DF91CF911F910F91FF90EF90ED
:10E2A000DF90A4CF80917B010895962FBA01282F8B
:10E2B00030E0F901E90FF11DE038F10514F09FE7B6
:10E2C000981B20583E4F492F50E0C901A3C5A42FE9
:10E2D000952F282F30E0F901E60FF11DE038F10508
:10E2E00014F06FE7681B20583E4F462F50E0B901ED
:10E2F0008A2F90C58093C6008091C00086FFFCCF16
:10E300008091C00080648093C0000895CF93DF9314
:10E31000CDB7DEB7CA52D1400FB6F894DEBF0FBEFC
:10E32000CDBF01E80EBF0FEF0DBF269A2E9A809148
:10E33000C00082608093C00080E18093C40088E1C7
:10E340008093C100000086EF9FE175D54C0184EFFA
:10E350009FE171D55C0183EF9FE165D5C12CD12C84
:10E36000E12CF12C00E010E020E030E0A401B50148
:10E370006AD3C12CD12C760197EC892E9BE1992E82
:10E38000A12CB12C20E4722E00E010E024C025E086
:10E390002A95F1F700003FEFC31AD30AE30AF30A04
:10E3A00041EAC41646E8D40641E0E406F10410F060
:10E3B00002E010E0C701B601A501940109D5672B61
:10E3C000682B692B19F485B1872585B9B5D38823C6
:10E3D00011F001E010E08091C00087FF09C09801B2
:10E3E0002F5F3F4F2E9A2130310509F0B1C290C204
:10E3F0000115110561F2F3CF20E030E02130310545
:10E40000C1F41EC00F5F1F4F2F4F3F4F013092E1ED
:10E4100019079AE72907310578F0C95DDE4F288191
:10E420003981C752D1402F3F3F4F19F0EE27FF27C8
:10E43000099400E010E098019091C00097FFE2CFAE
:10E440009091C6008330E1F020F4813061F098F4BF
:10E4500007C0853029F1C0F0863009F06FC03BC09D
:10E460009B3151F692C29926C25EDE4F9883CE51FF
:10E47000D14082E0C1CF592F40E0992683E0BCCF44
:10E48000492B992684E0B8CF9E3009F084C29926A2
:10E49000C15EDE4F19821882CF51D14085E0ACCFEA
:10E4A000E1E0F0E0EC0FFD1FC15EDE4F2881398115
:10E4B000CF51D140E20FF31F90832F5F3F4FC15EDA
:10E4C000DE4F39832883CF51D14099262417350751
:10E4D00009F092CF5EC299115EC24981433109F4BD
:10E4E000D2C0B0F4463009F4BBC048F4423049F120
:10E4F000433009F46AC0413009F0C6C14FC0413110
:10E5000009F473C008F0A3C0403109F0BDC119C0BF
:10E51000483109F486C048F4453109F4B4C008F420
:10E5200055C1463109F0B0C151C14B3109F461C048
:10E530004D3149F04A3109F0A7C166C0873069F210
:10E540005BCF812C54C08D81803339F49F81992316
:10E55000B1F09130B1F498EA17C0982F907599F006
:10E56000803521F499E0E0E0F0E005C0883559F409
:10E57000E3E0F0E099E090935700949105C09EE1AC
:10E5800003C092E001C090E01A821B828C831D823E
:10E590009E831F82812C07E010E07BC11A8288E0F5
:10E5A0008B8381E48C8386E58D8382E58E8389E489
:10E5B0008F8383E5888780E589878FE58A8782E373
:10E5C0008B87812C0BE010E064C1EA81E059E330D5
:10E5D00028F4F0E0E75DFD4F808101C080E01A8201
:10E5E0008B83812C03E010E054C1882483941A8229
:10E5F0004EC18D81882321F0813021F488EA24C026
:10E600008EE122C082E020C01A82E1E0F0E089E0E1
:10E6100080935700E491EB831C82812C04E010E08E
:10E6200038C18B81803551F48C81883019F4E2E057
:10E63000F0E006C089E0E0E0F0E003C0E3E0F0E0F5
:10E6400089E08093570084911A828B83E5CF80EC18
:10E650008A83812C02E010E0212C312C210119C188
:10E660008A81CB80D12CE12CF12C7601DD24CC24C5
:10E67000F82A8D81C82A8C81D82ACC0CDD1CEE1C8E
:10E68000FF1C1A8203C1FA81CE5DDE4FF883C252AD
:10E69000D140CF5DDE4F1882C152D1408B81CF5D1A
:10E6A000DE4F28813981C152D140282B433109F0F6
:10E6B00051C0211440EC340643E04406510470F488
:10E6C00083E0F10140925B0080935700E89507B624
:10E6D00000FCFDCF8FEF381A480A580A8B85DE01FF
:10E6E0001D96B701A60111E0FD0131979081CC5D27
:10E6F000DE4F9883C452D140CD5DDE4F1882C352A5
:10E70000D140CD5DDE4FE881F981C352D140E82B85
:10E71000CF010C01FA0160935B0010935700E8955C
:10E7200011244E5F5F4F6F4F7F4F2250310919F018
:10E730008C911296D9CF85E0F601E0925B00809330
:10E740005700E89507B600FCFDCF81E180935700A4
:10E75000E89538C046015701B694A79497948794DA
:10E76000612C712C8E01055F1F4F1EC0F801619155
:10E770008F01C301880D991DC75DDE4F2883C952E3
:10E78000D140C65DDE4F3883CA52D14059D3FFEF26
:10E790006F1A7F0AC65DDE4F3881CA52D140C75D0D
:10E7A000DE4F2881C952D14062167306F9F6A301E3
:10E7B00060E070E0440F551F661F771F4C0D5D1D14
:10E7C0006E1D7F1D1A826A017B0160C02A81CA5DAD
:10E7D000DE4F2883C652D140CB5DDE4F1882C55232
:10E7E000D1408B81CB5DDE4FE881F981C552D140AC
:10E7F000E82BCF018C010D5F1F4F1A824431C1F409
:10E800009E012C5F3F4FDE011396EBBEF601479150
:10E8100056914C93F90150831296F2E0CF0ED11C21
:10E82000E11CF11C02972E5F3F4F009771F729C042
:10E830009C01B701A601FE01339641BD852E962E9F
:10E84000A72EBB2482BC4F5F5F4F6F4F7F4FF89A5C
:10E85000A0B5A1932150310981F79C0121503109C4
:10E86000A90160E070E04F5F5F4F6F4F7F4FC40EB4
:10E87000D51EE61EF71EA3E0B0E0AC0FBD1FA80F2B
:10E88000B91F1C92812C05C080EC8A83812C02E088
:10E8900010E08BE12FDDC25EDE4F8881CE51D1408A
:10E8A00029DD812F27DD802F25DD8EE023DD95E119
:10E8B000992EC25EDE4F2881CE51D14092269026FD
:10E8C000912681E090E08C0F9D1F080F191F5C01BD
:10E8D00006C0F50171905F01872D0CDD9724A0160D
:10E8E000B106B9F7892D06DDC25EDE4F2881CE5113
:10E8F000D1402F5FC25EDE4F2883CE51D14085B11B
:10E9000090E4892785B920E030E08820E9F024C030
:10E91000C25EDE4F1882CE51D140912CC15EDE4FD7
:10E9200019821882CF51D140212C312C2101C12CC8
:10E93000D12C76014BBEF10187919691C95DDE4FD6
:10E9400099838883C752D14040E050E080E056CDA3
:10E950002230310509F4F6D026982E989FEFE1EE8B
:10E96000F4E09150E040F040E1F700C0000000000A
:10E970008091C0008D7F8093C00081E1809357001B
:10E98000E895EE27FF270994FFCF8BE1982E81E0D1
:10E9900033CD86E031CD80E02FCD8F929F92AF9224
:10E9A000BF92CF92DF92EF92FF920F931F93CF937C
:10E9B000DF9343E0FB0180935B0040935700E895B1
:10E9C00007B600FCFDCFE091C302812C912C5401CD
:10E9D00041E0E401CD53DD4F75016401C60ED71E41
:10E9E000E81EF91E398120E089010E0F111D080172
:10E9F000F601E0925B0040935700E89511245EEF2A
:10EA000085169104A104B10439F0EA8152E0850E23
:10EA1000911CA11CB11CDDCF25E0FB0180935B00A4
:10EA200020935700E89507B600FCFDCFDF91CF910A
:10EA30001F910F91FF90EF90DF90CF90BF90AF901C
:10EA40009F908F9008958F929F92AF92BF92CF9296
:10EA5000DF92EF92FF920F931F93CF93DF9394B1C6
:10EA6000906794B995B1906795B92E98EBE38E2E87
:10EA7000E2E09E2EF4018083F1E3AF2EF2E0BF2EA0
:10EA8000F50171836083CFE2D2E059834883E3E3E9
:10EA9000F2E0C082D182E282F3820483158326836E
:10EAA000378380E06EDBE9E3F1E080818E7F808355
:10EAB00080818D7F8083808181608083EEE4F1E0BE
:10EAC000808180932C02108263E082E05CDB60E254
:10EAD00084E059DBF5016081B180E3E0F2E060831E
:10EAE000B18288819981909308028093070282E223
:10EAF0004ADB6B2D83E247DB6881D98080E243DB10
:10EB00006D2D81E240DBF401608188E03CDB6881AF
:10EB10008DE239DB66E182E036DB68E08FE0DF9191
:10EB2000CF911F910F91FF90EF90DF90CF90BF900A
:10EB3000AF909F908F9027CB8FE02BDB83FB8827B4
:10EB400080F90895EF92FF920F931F93CF93DF9375
:10EB5000FF24F394CAE4D2E003EC12E0EE24EA943A
:10EB60002E9A8FE016DB83FFFCCF68E08FE00BDB93
:10EB700045EC53E06FE78FE392E038DB2E9880910D
:10EB80004802833209F41BC168F4803209F480C062
:10EB900018F4813029F711C0813209F4E8C08232BB
:10EBA000F9F645C0853209F407C108F43BC0863246
:10EBB00009F465C08732A1F6D9C08091BE028111E7
:10EBC000CFCF8091460290914702909306028093A6
:10EBD0000502809102028F5F8093020280912D02D4
:10EBE00090912E0290930E0280930D0269E182E0D3
:10EBF000CADA8091390182608093390180913901AC
:10EC00008D7F8093390160E072E08AE2E6DA8FE07E
:10EC1000C0DA86FFFCCF60E48FE0B5DA66E182E01F
:10EC2000B2DA9ECF809149028093280299CF109347
:10EC3000C7030093C60380E091E0A0E0B0E0E0915C
:10EC4000C603F091C703E192F093C703E093C603B4
:10EC50000197A109B10999F71092BF021092C00261
:10EC60001092C1021092C20210922E0210922D0236
:10EC70001092C4031092C3031092BE0271CF809110
:10EC8000490290914A02A0914B02B0914C0287C078
:10EC9000809149028093C503D093C703C093C603F4
:10ECA000E091C603F091C703208180912D029091DD
:10ECB0002E028227082E8295807F8025092E982F8C
:10ECC00082958F700826869598278927880F880F48
:10ECD000880F802580932D0290932E028091C3038C
:10ECE0009091C4032081FC01ED53FD4F20830196D8
:10ECF0009093C4038093C3038F3F910531F128F1B2
:10ED00002E9A80912802863449F46091BF02709156
:10ED1000C0028091C1029091C2023FDE8091BF0289
:10ED20009091C002A091C102B091C2029F5FAF4F0B
:10ED3000BF4F8093BF029093C002A093C102B093D3
:10ED4000C2021092C4031092C3038091C603909133
:10ED5000C70301969093C7038093C6038091C503B0
:10ED600081508093C50381119BCFFACEC9D7809182
:10ED70002802863449F46091BF027091C0028091EC
:10ED8000C1029091C20209DE8091BF029091C0023F
:10ED9000A091C102B091C2029F5FAF4FBF4F80935D
:10EDA000BF029093C002A093C102B093C20210921E
:10EDB000C4031092C303D4CEF092BE02D1CE2E9AD9
:10EDC00081E0DF91CF911F910F91FF90EF90089517
:10EDD000A1E21A2EAA1BBB1BFD010DC0AA1FBB1F5F
:10EDE000EE1FFF1FA217B307E407F50720F0A21BD1
:10EDF000B30BE40BF50B661F771F881F991F1A943E
:10EE000069F760957095809590959B01AC01BD0167
:10EE1000CF010895FB01DC0102C001900D92415029
:10EE20005040D8F70895F999FECF92BD81BDF89A68
:10EE3000992780B50895A8E1B0E042E050E010C005
:10EE4000262FF999FECF1FBA92BD81BD20BD0FB606
:10EE5000F894FA9AF99A0FBE01960895DC01CB0155
:10EE6000FC01F999FECF06C0F2BDE1BDF89A3196DA
:10EE700000B40D9241505040B8F70895F894FFCF78
:10EE8000418800000000000000020000050000773B
:10EE900069626F00000000000000000000000070C8
:0CEEA000696E6F6363696F00460F020A21
:10FD000080E090E0DC0123E0B22EAA24A39435E049
:10FD1000932E8C019D0110522C4F3F4FF8012093E0
:10FD20005B00B0925700E89507B600FCFDCF40E0BD
:10FD300050E0BA01FA01E80FF91FC591D4916801AA
:10FD40007901C40ED51EE61EF71E0E01F601E092E3
:10FD50005B00A0925700E89511244E5F5F4F6F4FF4
:10FD60007F4F4115E1E05E076105710519F7F80164
:10FD700020935B0090925700E89507B600FCFDCFFA
:10FD80009F5FAF4FBF4F8115FCE09F07A105B105F5
:10FD900009F0BFCF81E180935700E895E0E0F0EFF4
:02FDA0001995B3
:040000033000E000E9
:00000001FF
