:100000000C94AC000C94CD000C94CD000C94CD005D
:100010000C94CD000C94CD000C94CD000C94CD002C
:100020000C94CD000C94CD000C94CD000C94CD001C
:100030000C94CD000C94CD000C94CD000C94CD000C
:100040000C94CD000C94CD000C94CD000C94CD00FC
:100050000C941F070C94CD000C94CD000C94CD0093
:100060000C94CD000C94CF050C94FE050C94CD009F
:100070000C94CD000C94CD000C94CD000C94CD00CC
:100080000C94CD000C94CD000C94CD000C94CD00BC
:100090000C94CD000C94CD000C94CD000C94CD00AC
:1000A0000C94CD000C94CD000C94CD000C94CD009C
:1000B0000C94CD000C94CD000C94CD000C94CD008C
:1000C0000C94CD000C94CD000C94CD000C94CD007C
:1000D0000C94CD000C94CD000C94CD000C94CD006C
:1000E0000C94CD000C94CD000C94CD000C94AC017C
:1000F0000C9484010C94CD000C94CD000C948602D9
:100100000C94CD000C94CD000C94CD000C94CD003B
:100110000C94CD000C94CD000C94CD000C94CD002B
:100120000C94CD000C94CD000C94CD000C94CD001B
:100130000C94CD00786D706C5F7769626F5F25738A
:100140002E686578206368616E6E656C3A20256460
:100150000A0D00000C94CF0011241FBECFEFD1E890
:10016000DEBFCDBF00E00CBF12E0A0E0B2E0EAEAE3
:10017000F7E100E00BBF02C007900D92AE34B1076B
:10018000D9F724E0AEE4B2E001C01D92A433B20777
:10019000E1F70E941A080C94D30B0C94000085B16F
:1001A00090E1892785B96FE77EE380E090E00895CC
:1001B00008950895CF93DF93EB018985833031F063
:1001C000803379F0813009F03FC02BC02C9A2D9AF2
:1001D00080914E0290914F020E94E407E0E0F0EF20
:1001E00019958B852A8545B130E02C5F3F4F8823D8
:1001F00061F081E090E002C0880F991F2A95E2F734
:1002000080779927809584231EC081E090E002C00A
:10021000880F991F2A95E2F780779927482B45B9CF
:1002200013C08F819885909306028093050283E026
:100230000E940A0241E060E072E08AE20E9440030C
:1002400085B190E2892785B9CE01DF91CF910895DC
:100250000895CF93DF931F92CDB7DEB7682F82E268
:1002600099830E9497039981692F83E20F90DF9110
:10027000CF910C949703CF93DF931F92CDB7DEB746
:10028000682F80E299830E9497039981692F81E208
:100290000F90DF91CF910C9497030C94D8000F939B
:1002A0001F93CF93DF931F921F92CDB7DEB787E0E6
:1002B0000E949D03282F47E060E886E02A830E9481
:1002C000A303182FAE014F5F5F4F6091E902809149
:1002D000E7029091E8020E94CB0301E02A8111110C
:1002E00000E06091E7027091E80249818F770E94F7
:1002F000DA009093E8028093E7020F900F90DF916D
:10030000CF911F910F9108951F920F920FB60F92E8
:1003100011240BB60F922F933F934F935F936F93DC
:100320007F938F939F93AF93BF93EF93FF930E941D
:100330004F01FF91EF91BF91AF919F918F917F916D
:100340006F915F914F913F912F910F900BBE0F9046
:100350000FBE0F901F9018951F920F920FB60F921D
:1003600011248F939F938091E0029091E102019676
:100370009093E1028093E0029F918F910F900FBEC6
:100380000F901F9018959093E8028093E702609376
:10039000E90280E00E949503809139018E7F80936D
:1003A0003901809139018D7F8093390180E28A95EE
:1003B000F1F78091390181608093390160E08EE02E
:1003C0000E9497038FE00E949D0328E040E06FE1C8
:1003D00082E00E94B10387EF97E00197F1F700C038
:1003E000000040E06FE181E00E94A303883019F033
:1003F00081E00E944D0121E045E060E284E00E943E
:10040000B10368E48EE00E9497031092E502109217
:10041000E6020895FF920F931F93CF93DF9300D0CE
:10042000CDB7DEB7182F823061F028F48823D1F0E1
:100430008130A9F408C0843041F048F0853079F467
:1004400008C086E010C089E00EC086E10CC089E1DA
:100450000AC088E08A8383E08B8301E007C084E0E0
:100460000E944D0188E08A838B8300E08091E50241
:10047000853069F4011135C0809139018D7F8093F9
:1004800039018FEC97E00197F1F700C000002B8154
:1004900040E06FE182E00E94B1038CE8F82E40E07A
:1004A0006FE181E00E94A30389839A818981981377
:1004B00005C09A818981981308C00AC09AEA9A9562
:1004C000F1F700C0FA9459F7F4CF81E00E944D0192
:1004D000002329F0809139018260809339011093C3
:1004E000E5020F900F900F90DF91CF911F910F9128
:1004F000FF900895CF93C82F23E040E06FE182E0A2
:100500000E94B1038C2FCF910C940A021F920F927C
:100510000FB60F9211240BB60F922F933F934F9368
:100520005F936F937F938F939F93AF93BF93EF935B
:10053000FF938091E502813011F480E010C0833098
:10054000A1F445E060EE82E00E94A303863030F41F
:10055000E82FF0E0E65DFD4F808101C083E00E945E
:1005600028018091E6020E940A02FF91EF91BF915B
:10057000AF919F918F917F916F915F914F913F913B
:100580002F910F900BBE0F900FBE0F901F901895DC
:100590001F93CF93DF93162F972F8430A9F150F438
:1005A000813009F469C088F08230E9F0833009F0C5
:1005B0005DC037C0863009F442C0D8F1873009F4F5
:1005C00044C0883009F052C04BC0862F8B50803118
:1005D00008F04CC0262F40E06FE188E00E94B10394
:1005E0001093E20249C0E62FEF5EE53108F03EC00D
:1005F0006093E302F0E0E05DFD4FE081F0E02491E4
:1006000040E06FE085E008C0643080F56093E4026C
:10061000262F45E060E688E0DF91CF911F910C9492
:10062000B1036093E602862FDF91CF911F910C9466
:100630000A02862FDF91CF911F910C942901862FFA
:10064000DF91CF911F910C943B01C62FD72F14E25D
:100650006991812F0E9497031F5F1C32C9F70CC05C
:10066000862FDF91CF911F910C948F0382E0DF9151
:10067000CF911F910C944D01DF91CF911F9108955F
:100680000E94C103E9E3F1E0808182608083808180
:100690008D7F80830895CF93DF9382E00E949D0336
:1006A000D82F66E082E00E949703C2E840E06FE145
:1006B00081E00E94A3038630D1F469E082E00E94C9
:1006C000970366E082E00E94970321E047E060E83C
:1006D00088E00E94B1038FE292E00197F1F700C039
:1006E000000081E00E949D0387FF10C009C0813097
:1006F00021F39AEA9A95F1F700C0C150B9F6DDCF1F
:1007000086FBCC27C0F981E0C82701C0C2E06D2F6D
:1007100082E00E9497038C2FDF91CF91089583335D
:1007200009F08FEF089583E3089508950895E82F61
:10073000F0E0E05CFE4F60830895E82FF0E0E05CBD
:10074000FE4F80810895E82FF0E0E05CFE4F80814D
:100750006823862F90E002C0959587954A95E2F729
:100760000895E82FF0E0E05CFE4F042E01C0220F58
:100770000A94EAF72623609580816823262B20833C
:10078000089587FD8FE780938001482F50E081E82E
:1007900091E00C94CE08FF920F931F93CF93DF93B9
:1007A000EA01F0907B01462FF61608F44F2D042F36
:1007B00010E050E060E871E00E94CE08F801E058D7
:1007C000FE4F808188838F2DDF91CF911F910F91F4
:1007D000FF900895FF920F931F93CF93DF938C01A7
:1007E000F62EEA01209751F047E060E886E00E948B
:1007F000A30391E0813009F090E0988340E050E05D
:100800006F2DC801DF91CF911F910F91FF900C9434
:10081000CB03DF92EF92FF920F931F93CF93DF935F
:100820008C01D62E7A01E901209751F047E060E86B
:1008300086E00E94A30391E0813009F090E0988364
:10084000A7016D2DC801DF91CF911F910F91FF90EE
:10085000EF90DF900C94CB0380917B010895962F4D
:10086000BA01282F30E0F901E90FF11DE038F10558
:1008700014F09FE7981B20583E4F492F50E0C901C4
:100880000C94CE08A42F952F282F30E0F901E60F05
:10089000F11DE038F10514F06FE7681B20583E4F5A
:1008A000462F50E0B9018A2F0C94CE080C944005D5
:1008B000CF93DF93CDB7DEB7C058D1090FB6F89408
:1008C000DEBF0FBECDBFFE01EA57FF4F41915191F0
:1008D0009F016FE770E0CE0101960E94D708CE011C
:1008E00001960E942B05C058DF4F0FB6F894DEBF6B
:1008F0000FBECDBFDF91CF9108959B01AC0183E086
:10090000220F331F441F551F8A95D1F760E074E210
:1009100084EF90E00E94AC082150310982E080937E
:10092000C0003093C5002093C400E1ECF0E088E9FA
:10093000808386E08093C20080818F7D80831092C7
:100940006F0310926E031092F1031092F00308955A
:10095000AF92BF92CF92DF92EF92FF920F931F93CD
:10096000CF93DF93EC01F62EAFB6F89480916F032E
:10097000D0906E0381508F778D1571F08D1528F40E
:100980004D2D41954F77C82E09C0D81628F4482F11
:100990004D194F77C12C02C0C12C40E0BC2CB40EC5
:1009A000FB1408F4BF2CE42EF41608F4EF2CEE2010
:1009B000B1F00E2D10E02D2D30E022513D4F4E2D87
:1009C00050E0BE01C9010E94CE08C00FD11F8E2D7C
:1009D0008D0D8F7780936E03FE188FE7F822CF146A
:1009E00008F4FC2CFF2051F02EEE32E04F2D50E0A9
:1009F000BE01C9010E94CE08F0926E038091C10031
:100A000080628093C100AFBE8B2DDF91CF911F918B
:100A10000F91FF90EF90DF90CF90BF90AF9008952F
:100A20009C0180916E038F5F8F7790916F03891780
:100A300071F0E0916E03F0E0E251FD4F208380936E
:100A40006E038091C10080628093C10002C02FEFCD
:100A50003FEFC90108950F931F93CF93DF93EC01EC
:100A600007C010E0C8010E94100580179107D1F758
:100A700009910111F6CFDF91CF911F910F91089548
:100A80000F931F93CF93DF93EC0107C010E0C801D1
:100A90000E94100580179107D1F7FE01219604915D
:100AA0000111F4CFDF91CF911F910F910895909193
:100AB000F1038091F003981771F0E091F103F0E0F9
:100AC000E059FC4F208130E08091F1038F5F8F77F8
:100AD0008093F10302C02FEF3FEFC9010895AF9259
:100AE000BF92CF92DF92EF92FF920F931F93CF931B
:100AF000DF93EC01F62EAFB6F894D090F103C090DE
:100B0000F003DC1469F0CD1420F44D2D41954F779E
:100B100009C0DC1428F44C2D4D194F77C12C02C0AC
:100B2000C12C40E0BC2CB40EFB1408F4BF2CE42E06
:100B3000F41608F4EF2CEE20B1F00E2D10E02D2D60
:100B400030E020593C4F4E2D50E0B901CE010E94BB
:100B5000CE08C00FD11F8E2D8D0D8F778093F1039E
:100B6000FE188FE7F822CF1408F4FC2CFF2051F078
:100B700020E733E04F2D50E0B901CE010E94CE08AE
:100B8000F092F103AFBE8B2DDF91CF911F910F91AA
:100B9000FF90EF90DF90CF90BF90AF9008951F929D
:100BA0000F920FB60F9211240BB60F928F939F9353
:100BB000EF93FF939091F0038091F103981305C098
:100BC0008091ED028F5F8093ED02E091F003F0E001
:100BD0008091C600E059FC4F80838091F0038F5FC5
:100BE0008F778093F003FF91EF919F918F910F90FA
:100BF0000BBE0F900FBE0F901F9018951F920F9273
:100C00000FB60F9211240BB60F928F939F93EF9311
:100C1000FF93E0916F03F0E0E251FD4F80818093FC
:100C2000C600E0916F03F0E0E251FD4F83E2808364
:100C300080916F038F5F8F7780936F0390916E0326
:100C400080916F03981305C08091C1008F7D8093C0
:100C5000C100FF91EF919F918F910F900BBE0F906C
:100C60000FBE0F901F901895E8EFF3E020E030E002
:100C7000A081B181AB2B79F4AEE0A29FF001A39FDC
:100C8000F00D1124EE50FC4F57834683628373832B
:100C90008483958308C02F5F3F4F3E9624303105F3
:100CA00039F7E0E0F0E0CF0108950F931F93CF9361
:100CB000DF93DC011D961C921E921C97E0912E047E
:100CC000F0912F04309709F41CC012964D915D915C
:100CD0006D917C911597C0E0D0E001C0FC010281CC
:100CE000138124813581401751076207730770F41F
:100CF0001D96FC93EE931C97209719F0BD87AC8747
:100D000010C0B0932F04A0932E040BC0848595854A
:100D1000EF01009719F7109721F0309711F0B58780
:100D2000A487DF91CF911F910F91089520912E04F8
:100D300030912F042115310521F1F901A0E0B0E037
:100D400040E050E001C0FB016081718168177907C4
:100D500069F454854585109731F01C965C931C9777
:100D60001D964C9302C0252F342FAF0164857585E5
:100D7000DF016115710539F730932F0420932E049C
:100D800002C040E050E0CA0108950F931F93CF9333
:100D9000DF93C0912E04D0912F04E0E0F0E047C033
:100DA0008091300490913104A0913204B0913304C9
:100DB0004A815B816C817D8184179507A607B707FF
:100DC000C8F18C859D85309719F09587848704C07C
:100DD00090932F0480932E04688579858A859B855E
:100DE000EE81FF8119956115710581059105A1F0CD
:100DF0000091300410913104209132043091330479
:100E0000060F171F281F391F0A831B832C833D835E
:100E1000CE010E94550606C0198218821F821E82CA
:100E20001D861C869C858D85FE01C92FD82F209795
:100E300009F0B6CFDF91CF911F910F9108951F92C6
:100E40000F920FB60F9211240BB60F922F933F9370
:100E50004F935F936F937F938F939F93AF93BF93C2
:100E6000EF93FF938091300490913104A09132046C
:100E7000B09133040196A11DB11D8093300490936D
:100E80003104A0933204B09333040E94C506FF914D
:100E9000EF91BF91AF919F918F917F916F915F91F2
:100EA0004F913F912F910F900BBE0F900FBE0F905F
:100EB0001F901895E1E8F0E0808181608083EFE683
:100EC000F0E080818160808310922F0410922E04C4
:100ED00010923004109231041092320410923304B4
:100EE0000895CF92DF92EF92FF920F931F93FC0130
:100EF000CB01BA01680179010091300410913104ED
:100F00002091320430913304600F711F821F931FB0
:100F1000AF010E9434060097A9F0009128021091B9
:100F20002902FC011183008398012F5F3F4F30930A
:100F3000290220932802C086D186E286F3860E9489
:100F4000550602C000E010E0C8011F910F91FF900C
:100F5000EF90DF90CF9008950F931F93CF93DF937F
:100F600000D01F92CDB7DEB700913004109131044C
:100F70002091320430913304400F511F621F731FC0
:100F800049835A836B837C830E9496068C01498136
:100F90005A816B817C81009759F0FC014283538315
:100FA000648375830E945506F8012081318102C057
:100FB00020E030E0C9010F900F900F900F90DF916B
:100FC000CF911F910F9108950E949606FC01009702
:100FD00039F020813181118210821782168202C07D
:100FE00020E030E0C90108950F931F930091300471
:100FF000109131042091320430913304B801C901B9
:101000001F910F910895F89410928500109284001A
:101010001092300410923104109232041092330472
:1010200060932A0470932B0480932C0490932D04D6
:101030007894089583EF9FE10E94150B80935C02E2
:1010400084EF9FE10E941D0B909353028093520204
:1010500086EF9FE10E941D0B9093510280935002F6
:10106000109254021092550210925602109257029A
:10107000109258021092590210925A0210925B027A
:1010800084B1806784B985B1806785B960E072EC0E
:1010900081E090E00E947D04809152029091530281
:1010A0009093040280930302809150029091510228
:1010B000909308028093070260E880E692E00E9425
:1010C000C30160E070E060915C0280E00E94C802B1
:1010D000609152027091530285E00E94C8026091B3
:1010E00050027091510286E00E94C80264E070E0F4
:1010F00083E00E94C802789480915C021F928F93D3
:1011000085E492E09F938F9384E391E09F938F9384
:101110000E9458040E945A0700E010E098014FE72F
:101120005EE360E070E08FEC90E00E9471079093C6
:101130004F0280934E0283B7817F83BF0F900F9041
:101140000F900F900F900F9083B7816083BF8895A9
:1011500083B78E7F83BFF8CFA1E21A2EAA1BBB1BD9
:10116000FD010DC0AA1FBB1FEE1FFF1FA217B30773
:10117000E407F50720F0A21BB30BE40BF50B661F89
:10118000771F881F991F1A9469F76095709580954D
:1011900090959B01AC01BD01CF010895FB01DC01DD
:1011A00002C001900D9241505040D8F708950F931E
:1011B0001F93CF93DF93CDB7DEB72E970FB6F8947A
:1011C000DEBF0FBECDBF8C01CA014EE04C831A8337
:1011D000098377FF02C060E070E8615071097E8387
:1011E0006D83A901BC01CE0101960E9410094D81B9
:1011F0005E8157FD0AC02F813885421753070CF4D2
:101200009A01F801E20FF31F10822E960FB6F894A0
:10121000DEBF0FBECDBFDF91CF911F910F9108951B
:101220002F923F924F925F926F927F928F929F92F6
:10123000AF92BF92CF92DF92EF92FF920F931F93E4
:10124000CF93DF93CDB7DEB72C970FB6F894DEBF00
:101250000FBECDBF7C016B018A01FC011782168293
:10126000838181FFC6C188248394912C8C0E9D1E9E
:10127000F7019381F60193FD859193FF81916F01B1
:10128000882309F4B2C1853239F493FD859193FF27
:1012900081916F01853229F4B70190E00E94390BEA
:1012A000E7CF512C312C20E02032A8F48B3261F0B2
:1012B00028F4803251F0833271F40BC08D3239F052
:1012C000803349F4216028C02260246025C0286052
:1012D00023C0206121C027FD27C0382F30533A306A
:1012E00078F426FF06C0FAE05F9E300D1124532EDD
:1012F00013C08AE0389E300D1124332E20620CC0BA
:101300008E3221F426FD71C1206406C08C3611F4A2
:10131000206802C0883641F4F60193FD859193FF61
:1013200081916F018111C0CF982F9554933018F09F
:101330009052933028F40C5F1F4FFFE3F9830DC0E8
:10134000833631F0833771F0833509F05EC023C0F6
:10135000F801808189830E5F1F4F44244394512CF0
:10136000540115C03801F2E06F0E711CF801A08025
:10137000B18026FF03C0652D70E002C06FEF7FEFE4
:10138000C5012C870E942E0B2C0183012C856FE751
:10139000262E222218C03801F2E06F0E711CF801CF
:1013A000A080B18026FF03C0652D70E002C06FEF02
:1013B0007FEFC5012C870E94230B2C012C8550E860
:1013C000252E222A830123FC1CC006C0B70180E21F
:1013D00090E00E94390B3A94832D90E0481659060C
:1013E000A8F30FC0F50127FC859127FE81915F01CD
:1013F000B70190E00E94390B31103A94F1E04F1A96
:1014000051084114510471F7EDC0843611F089364A
:1014100041F5F80127FF07C06081718182819381C6
:101420000C5F1F4F08C060817181882777FD809510
:10143000982F0E5F1F4F4FE6B42EB22297FF09C0C0
:1014400090958095709561957F4F8F4F9F4FF0E8F5
:10145000BF2A2AE030E0A4010E94650BA82EA8183C
:1014600043C0853731F43FEEB32EB2222AE030E09C
:1014700024C099EFB92EB2228F36B9F020F4883506
:1014800009F0B3C00DC0803721F0883709F0ADC036
:1014900002C020E1B22AB4FE0BC084E0B82A08C022
:1014A00024FF09C0E6E0BE2A06C028E030E005C0FF
:1014B00020E130E002C020E132E0F801B7FE07C0D1
:1014C00060817181828193810C5F1F4F06C06081B2
:1014D000718180E090E00E5F1F4FA4010E94650BB8
:1014E000A82EA818FFE7BF22B6FE0BC02B2D2E7F1B
:1014F000A51450F4B4FE0AC0B2FC08C02B2D2E7EF9
:1015000005C07A2C2B2D03C07A2C01C0752C24FF2A
:101510000DC0FE01EA0DF11D8081803311F4297E9A
:1015200009C022FF06C07394739404C0822F86788A
:1015300009F0739423FD14C020FF0FC05A2C7314BC
:1015400060F4530C5718732C08C0B70180E290E088
:101550002C870E94390B73942C857314B0F304C04C
:10156000731410F4371801C0312C24FF12C0B701D6
:1015700080E390E02C870E94390B2C8522FF1EC04F
:1015800021FF03C088E590E002C088E790E0B70142
:101590000CC0822F867891F021FD02C080E201C04C
:1015A0008BE227FD8DE2B70190E00E94390B06C067
:1015B000B70180E390E00E94390B5A94A514C0F360
:1015C000AA94F401EA0DF11DB701808190E00E9418
:1015D000390BA110F5CF06C0B70180E290E00E9460
:1015E000390B3A943110F8CF43CEF7012681378179
:1015F00002C02FEF3FEFC9012C960FB6F894DEBF63
:101600000FBECDBFDF91CF911F910F91FF90EF9053
:10161000DF90CF90BF90AF909F908F907F906F9012
:101620005F904F903F902F900895F999FECF92BD13
:1016300081BDF89A992780B50895A8E1B0E042E00D
:1016400050E00C94C50BFC010590615070400110F6
:10165000D8F7809590958E0F9F1F0895FC016150DB
:10166000704001900110D8F7809590958E0F9F1FC4
:1016700008950F931F93CF93DF938C01EB018B8120
:1016800081FD03C00FEF1FEF1AC082FF0DC02E8136
:101690003F818C819D812817390764F4E881F981A5
:1016A0000193F983E88306C0E885F985802F1995B1
:1016B000892B41F78E819F8101969F838E83C8017C
:1016C000DF91CF911F910F910895FA01AA27283039
:1016D00051F1203181F1E8946F936E7F6E5F7F4FFF
:1016E0008F4F9F4FAF4FB1E03ED0B4E03CD0670F7B
:1016F000781F891F9A1FA11D680F791F8A1F911DCE
:10170000A11D6A0F711D811D911DA11D20D009F41D
:1017100068943F912AE0269F11243019305D31935F
:10172000DEF6CF010895462F4770405D4193B3E048
:101730000FD0C9F7F6CF462F4F70405D4A3318F0EF
:10174000495D31FD4052419302D0A9F7EACFB4E0A0
:10175000A6959795879577956795BA95C9F7009758
:101760006105710508959B01AC010A2E06945795F9
:10177000479537952795BA95C9F7620F731F841F50
:10178000951FA01D0895DC01CB01FC01F999FECF46
:1017900006C0F2BDE1BDF89A319600B40D924150F9
:0A17A0005040B8F70895F894FFCF09
:1017AA0041880000000000000002000010000078DC
:1017BA006D706C5F7769626F000000000000007056
:1017CA00696E6F6363696F00010000000001030224
:1017DA000F0F0F0F0F0E0E0E0D0D0C0C0B0A090832
:0E17EA00070604020070696E6F6363696F008A
:00000001FF
