:020000021000EC
:10F000000C9490F80C94AFF80C94AFF80C94AFF803
:10F010000C94AFF80C94AFF80C94AFF80C94AFF8D4
:10F020000C94AFF80C94AFF80C94AFF80C94AFF8C4
:10F030000C94AFF80C94AFF80C94AFF80C94AFF8B4
:10F040000C94AFF80C94AFF80C94AFF80C94AFF8A4
:10F050000C94AFF80C94AFF80C94AFF80C94AFF894
:10F060000C94AFF80C94AFF80C94AFF80C94AFF884
:10F070000C94AFF80C94AFF80C94AFF80C94AFF874
:10F080000C94AFF80C94AFF80C94AFF80C94AFF864
:10F090000C94AFF80C94AFF80C94AFF80C94AFF854
:10F0A0000C94AFF80C94AFF80C94AFF80C94AFF844
:10F0B0000C94AFF80C94AFF80C94AFF80C94AFF834
:10F0C0000C94AFF80C94AFF80C94AFF80C94AFF824
:10F0D0000C94AFF80C94AFF80C94AFF80C94AFF814
:10F0E0000C94AFF80C94AFF80C94AFF80C94AFF804
:10F0F0000C94AFF80C94AFF80C94AFF80C94AFF8F4
:10F100000C94AFF80C94AFF80C94AFF80C94AFF8E3
:10F110000C94AFF80C94AFF80C94AFF80C94AFF8D3
:10F1200011241FBECFEFD1E4DEBFCDBF12E0A0E0BF
:10F13000B2E0E4E6F8EF01E00BBF02C007900D92E9
:10F14000A230B107D9F713E0A2E0B2E001C01D92EE
:10F15000AD30B107E1F70E94C8F90C9430FC0C9473
:10F1600000F890910202913019F0923041F0089528
:10F170009091C00095FFFCCF8093C60008959091B8
:10F18000C80095FFFCCF8093CE000895CF93982FB1
:10F190009595959595959595905DC82FCF70CA30AA
:10F1A0004CF4C05D892F0E94B1F88C2F0E94B1F8F9
:10F1B000CF910895C95A892F0E94B1F88C2F0E94CF
:10F1C000B1F8CF910895EF92FF920F931F93809122
:10F1D0000202813069F1823031F080E01F910F919D
:10F1E000FF90EF900895EE24FF2487018091C800DE
:10F1F00087FD17C00894E11CF11C011D111D81E45D
:10F20000E81682E4F8068FE0080780E0180770F33C
:10F21000E0910402F091050209958091C80087FFF2
:10F22000E9CF8091CE001F910F91FF90EF9008954C
:10F23000EE24FF2487018091C00087FD17C0089449
:10F24000E11CF11C011D111D81E4E81682E4F806A1
:10F250008FE0080780E0180770F3E0910402F09156
:10F26000050209958091C00087FFE9CF8091C60013
:10F270001F910F91FF90EF900895CF930E94E3F8B4
:10F28000C82F0E94B1F8C13634F4C0330CF0C0531B
:10F290008C2FCF910895C7558C2FCF910895CF9380
:10F2A0000E943DF9C82F0E943DF9C295C07F8C0F86
:10F2B000CF91089520910202882339F0213031F056
:10F2C000223061F081508823C9F708959091C000E1
:10F2D00097FFFCCF9091C6008150F5CF9091C80068
:10F2E00097FFFCCF9091CE008150EDCFCF93C82FE8
:10F2F0000E94E3F8803281F0809103028F5F809357
:10F300000302853011F0CF910895E0910402F0914D
:10F3100005020995CF91089584E10E94B1F88C2FE0
:10F320000E94B1F880E10E94B1F8EDCF0E94E3F8AD
:10F33000803271F0809103028F5F809303028530E9
:10F3400009F00895E0910402F091050209950895ED
:10F3500084E10E94B1F880E10E94B1F8089515C0DF
:10F36000299A2FEF31EE44E0215030404040E1F740
:10F3700000C0000029982FEF31EE44E021503040CA
:10F380004040E1F700C000008150882349F708950C
:10F39000EF92FF920F931F93CF93DF93000081E0D2
:10F3A0008093020280E18093C4001092C500109205
:10F3B000C00086E08093C20088E18093C100689815
:10F3C000709A219A86E00E94AFF90E94E3F8803398
:10F3D000B1F18133B9F1803409F454C0813409F4B6
:10F3E0005AC0823409F469C0853409F46CC0803590
:10F3F00031F1823521F1813511F1853509F469C08A
:10F40000863509F471C0843609F47AC0843709F46A
:10F41000E1C0853709F43FC1863709F44AC08091BD
:10F4200003028F5F80930302853079F6E091040236
:10F43000F091050209950E94E3F8803351F60E948D
:10F4400096F9C3CF0E94E3F8803249F784E10E9425
:10F45000B1F881E40E94B1F886E50E94B1F882E536
:10F460000E94B1F880E20E94B1F889E40E94B1F8EC
:10F4700083E50E94B1F880E50E94B1F880E10E9426
:10F48000B1F8A3CF0E94E3F88638C8F20E94E3F8EF
:10F490000E9496F99ACF0E94E3F8803809F424C1BB
:10F4A000813809F41DC1823809F422C1883909F470
:10F4B00007C180E00E9476F988CF84E10E945AF962
:10F4C0000E9496F982CF85E00E945AF90E9496F92F
:10F4D0007CCF0E94E3F8809306020E94E3F88093B9
:10F4E00007020E9496F971CF0E94E3F8803309F475
:10F4F000EBC083E00E945AF980E00E9476F965CF64
:10F500000E94E3F8809309030E94E3F880930803C4
:10F5100080910C038E7F80930C030E94E3F8853466
:10F5200009F4FCC080910803909109030097A1F0B1
:10F5300068E0E62E62E0F62E00E010E00E94E3F8BC
:10F54000F70181937F010F5F1F4F80910803909116
:10F5500009030817190790F30E94E3F8803209F0B5
:10F560005ECF80910C0380FFEBC0809106029091EA
:10F570000702880F991F909307028093060220913B
:10F5800008033091090321153105E9F048E0E42E24
:10F5900042E0F42E00E010E0F70161917F010E944B
:10F5A00022FC809106029091070201969093070237
:10F5B000809306020F5F1F4F2091080330910903CB
:10F5C0000217130748F384E10E94B1F880E10E941A
:10F5D000B1F8FBCE0E94E3F8809309030E94E3F8A0
:10F5E00080930803809106029091070297FDA2C0C4
:10F5F00020910C032D7F20930C03880F991F90936B
:10F600000702809306020E94E3F8853409F48CC057
:10F6100080910C038E7F80930C030E94E3F880326C
:10F6200009F0D3CE84E10E94B1F880910803909153
:10F630000903009709F440C000E010E08091060241
:10F640009091070216C0FC0184910E94B1F880914C
:10F65000060290910702019690930702809306029A
:10F660000F5F1F4F20910803309109030217130702
:10F6700018F520910C0320FD3FC021FFE4CFA0E04E
:10F68000B0E080509040AF4FBF4FABBFFC018791BF
:10F690000E94B1F8DCCF0E94E3F8803209F0BFCEBF
:10F6A00084E10E94B1F88EE10E94B1F887EA0E94DD
:10F6B000B1F881E00E94B1F880E10E94B1F885CEF6
:10F6C00083E00E9476F981CE0E94E3F80E94E3F87D
:10F6D000082F0E94E3F8002309F4A4C00130D1F000
:10F6E00081E00E9476F971CE82E00E9476F96DCEBB
:10F6F00080E10E9476F969CE0E941AFC0E94B1F85E
:10F7000080910602909107020196909307028093E0
:10F710000602A6CF87EA0E9476F957CE80910C03A5
:10F72000816080930C03FECE80910C0381608093F6
:10F730000C0373CF20910C03226020930C035DCF48
:10F740008091070287FD72C010920B0380E08BBF8F
:10F750008091060290910702880F991F90930702EB
:10F76000809306028091080380FF09C080910803FE
:10F770009091090301969093090380930803F894EC
:10F78000F999FECF1127E0910602F0910702C8E037
:10F79000D2E08091080390910903103091F4009118
:10F7A000570001700130D9F303E000935700E8954A
:10F7B0000091570001700130D9F301E10093570027
:10F7C000E895099019900091570001700130D9F324
:10F7D00001E000935700E8951395103898F0112731
:10F7E0000091570001700130D9F305E000935700F4
:10F7F000E8950091570001700130D9F301E10093C1
:10F800005700E8953296029709F0C7CF103011F0F3
:10F810000296E5CF112484E10E94B1F880E10E94B4
:10F82000B1F8D3CD8EE10E9476F9CFCD81E08093FF
:10F830000B038DCFF999FECF92BD81BDF89A992720
:10F8400080B50895262FF999FECF1FBA92BD81BDCC
:10F8500020BD0FB6F894FA9AF99A0FBE0196089552
:04F86000F894FFCF4A
:02F86400800022
:040000031000F000F9
:00000001FF
