:100000000C94FF030C9430040C9430040C943004D2
:100010000C9430040C9430040C9430040C94300490
:100020000C9430040C9430040C9430040C94300480
:100030000C9430040C9487280C9430040C943004F5
:100040000C9430040C9430040C9430040C94300460
:100050000C9430040C9430040C9430040C947742CB
:100060000C9430040C9434460C94C2460C94300426
:100070000C9430040C94AC300C9430040C94300488
:100080000C9430040C9430040C9430040C94300420
:100090000C9473460C9401470C9430040C94B205F4
:1000A0000C9430040C9430040C9449270C945A2777
:1000B0000C9430040C9430040C9430040C943004F0
:1000C0000C9430040C9430040C9430040C943004E0
:1000D0000C9430040C9430040C9430040C943004D0
:1000E0000C9430040C9430040C9430040C943004C0
:1000F0000C94F1250C9430040C9430040C94CE250F
:100100000C9430040C9430040C9430040C9430049F
:100110000C9430040C9430040C9430040C9430048F
:100120000C9430040C9430040C9430040C9430047F
:100130000C9430049B34A334AE349B349B349B34F6
:100140006835EC349B343D35513502359B349B3456
:100150007235EC349B349B349B3461726700626F60
:100160006F7400656C73650066756E6374696F6E9D
:100170000068656C70006966006C7300706565707E
:10018000007072696E740070730072657475726EBF
:1001900000726D0072756E0073746F700073776912
:1001A000746368007768696C650000616273006160
:1001B0007200617700626175640062630062656568
:1001C0007000627200627300627700636F6E737416
:1001D0007261696E0064656C6179006472006477B5
:1001E0000065720065770066726565006765746B0F
:1001F0006579006765746E756D00696E620069737C
:10020000737472006D6178006D696C6C6973006D58
:10021000696E006F7574620070696E6D6F64650061
:100220007072696E74660070756C7365696E0072C9
:10023000616E646F6D007369676E00736E6F6F7AC5
:10024000650000687474703A2F2F6269746C617372
:10025000682E6E65740D0A536565204C4943454E02
:10026000534520666F72206C6963656E73650D0A75
:1002700050696E733A2064302D32322C61302D3249
:100280003220205661726961626C65733A20612D7B
:100290007A2C20333220626974206C6F6E6720697B
:1002A0006E7465676572730D0A4F70657261746F65
:1002B00072733A202B202D202A202F20282029203D
:1002C0003C203C3D203E203E3D203D3D20213D2028
:1002D0003C3C203E3E2021205E2026207C202B2BF3
:1002E000202D2D203A3D0D0A436F6D6D616E6473B4
:1002F0003A200000D30D1B0D070D690F650C810E10
:100300001D0C3F0C8F0C320DA30CF00CDD0CBC153A
:100310006C13A8086D21BD20030ED50B630DC142DF
:10032000890DEF0DCA0CEC12B50C130EAF0D58135E
:1003300062616E6E6572007072696E74202248652B
:100340006C6C6F2066726F6D2050696E6F636369AD
:100350006F21200A20285368656C6C2062617365E8
:1003600064206F6E204269746C6173682076322E4F
:10037000302028632920323031332042696C6C20D0
:10038000526F79290A222C667265652C2262797473
:1003900065732066726565220000000065787065EF
:1003A000637465642000756E657870656374656458
:1003B00020006D697373696E672000737472696ED3
:1003C000670020756E646572666C6F7700206F76CB
:1003D0006572666C6F77005E43005E42005E55009A
:1003E000657870006F70003A7862792B2D2A2F00A3
:1003F000656F6600766172006E756D6265720029C8
:1004000000736176656400656570726F6D003A3DDA
:1004100022003E20006368617200737461636B00A8
:10042000737461727475700069640070726F6D70BE
:1004300074000D0A46756E6374696F6E733A006FCF
:100440006F7073006172670066756E6374696F6EBA
:10045000000034444444400440444444444444443C
:1004600044440877478577787878111111111187FE
:100470008884422222222222222222222222222472
:1004800044724222222222222222222222222227B5
:10049000877426267C7C3D3D213D2B2B2D2D3A3D1E
:1004A0003E3D3E3E3C3D3C3C2F2F00868788898C5C
:1004B0008D93858B848AA6A199A2949B8F9C9A9DEB
:1004C000979F9596989E90ED04F204FB0402050D0B
:1004D0000518051E05280532053C054A0555055E2B
:1004E00005660574057E0588059305960541544506
:1004F000300041542B575750413D0041542B574138
:100500003D0041542B4E444843503D300041542B54
:100510004E444843503D310041542B574400415410
:100520002B4E535443503D0041542B4E43544350A3
:100530003D0041542B4E4D41433D3F0041542B441F
:100540004E534C4F4F4B55503D0041542B4E434C56
:100550004F53453D0041542B4E5345543D004154AB
:100560002B574D3D320041542B4448435053525673
:10057000523D310041542B4E535544503D0041549F
:100580002B4E435544503D0041542B4E535441543F
:100590003D3F0041540041542B5645523D3F000021
:1005A000000108090A00000000000000000000002F
:1005B000000000000603040000000000000000012D
:1005C00002800810200440200104080204080102EF
:1005D0001080408010204001020408102040800557
:1005E00005020505050505040202020204040404CF
:1005F00004050404020202060606060606060600B4
:100600000000002300000029002C002F0032000011
:1006100000000000000000000000000000250000B5
:10062000002B002E0031003400000000000000000C
:1006300000000000000000240000002A002D00300F
:1006400000330000000000000000000000000C94D7
:10065000650C0C94A4080C94BD200C94B50C0C945F
:10066000813D0C94AE340C94144B0C94690F0C9493
:10067000A8040C94D30D0C9412070C9412150C942E
:10068000C7450C94EC340C9448150C94EB450C9431
:10069000C93E0C946D210C94C12A0C948D070C94C6
:1006A0001F3F0C9455040C9487100C94CA0C0C94A6
:1006B00014050C9442320C943E070C9489070C9458
:1006C00098400C948B140C9483270C94C1470C9481
:1006D0006C150C94D63E0C94343F0C9469040C9425
:1006E0009B340C94993E0C94432D0C9471400C94C3
:1006F000033F0C94A73E0C94630D0C94312D0C9485
:10070000DA3E0C94070D0C948F0C0C9484170C9407
:10071000C1420C94890D0C94130E0C94A8080C94EF
:100720003D350C94EF0D0C94AB450C9458130C9480
:1007300068350C94650A0C941D0C0C940E150C94E1
:10074000D50B0C94BC150C9402350C94C13E0C9442
:10075000A30C0C94F6450C946C130C94DD0C0C94C7
:100760006F3F0C94AF0D0C9498450C94810E0C9433
:10077000C2080C945B0B0C94030E0C94C3080C94ED
:10078000B1460C94183F0C944C040C9479040C94CE
:10079000F00C0C9472350C94A3400C941B0D0C942B
:1007A000320D0C94F02A0C94633F0C947A040C9450
:1007B000654B0C947A440C94AA3E0C945C340C94D3
:1007C000A43E0C941C230C9451350C94D8400C94EA
:1007D000EC120C9458340C943F0C0C94A334140574
:1007E00012078907A40842325834813D993E984047
:1007F000A340D840C147654B3E078D075C341124A8
:100800001FBECFEFD1E8DEBFCDBF00E00CBF13E0CD
:10081000A0E0B2E0ECECFFE900E00BBF02C0079003
:100820000D92A630B107D9F712E1A6E0B3E001C0FE
:100830001D92A537B107E1F717E0C8EFD7E000E058
:1008400006C022970109FE010BBF0E94DF4BCE3D7F
:10085000D10780E00807A9F70E948B450C94D44F7C
:100860000C9400008DEC94E00C9476078DEC94E0F1
:100870000E94870764EF71E085EB90E10E94083DDC
:1008800064EF71E085EB90E10E94CA3C64EF71E097
:1008900085EB90E10C94563D2091380330E0809137
:1008A0003903281B3109C9010895809139039091BA
:1008B0003803891750F4E82FF0E0E65CFC4F208104
:1008C00030E08F5F8093390302C02FEF3FEFC90103
:1008D0000895E091390380913803E81730F4F0E08F
:1008E000E65CFC4F208130E002C02FEF3FEFC901F2
:1008F00008950895CF92DF92EF92FF920F931F9386
:10090000CF93DF937C01CB018A0120911403222332
:1009100091F0EB016B01C40ED51E09C06991D7019E
:10092000ED91FC910190F081E02DC7011995CC1556
:10093000DD05A1F703C0642F0E948905C801DF917E
:10094000CF911F910F91FF90EF90DF90CF9008957E
:10095000CF93DF931F92CDB7DEB769832091140345
:100960002223D1F020911503203240F021E030E025
:10097000FC013383228320E030E015C08091160310
:10098000E82FF0E0E95EFC4F998190838F5F8093C0
:1009900016038093150305C061E0CE0101960E9405
:1009A000890521E030E0C9010F90DF91CF910895D2
:1009B000FC011382128248EE53E060E070E0448351
:1009C0005583668377838FE292E0918380830895D5
:1009D00010923903109238031092160310921503E7
:1009E0000C94180581E080931403609337031092F0
:1009F00016031092150308950C94F2040F93062F1A
:100A000021E04091150367E173E0809137030E9474
:100A100036051092160310921503109214030F91CD
:100A2000089561E00C94FE0488E093E00C94D804EF
:100A30001092630381E0809361031092600361E090
:100A400080E10E941A4461E08FE00E941A44E9EBC1
:100A5000F0E080818E7F808380818D7F808388E439
:100A60008093B80085E48093BC0008950F934132D1
:100A700008F046C0909163039111FCCF92E09093EF
:100A80006303009361039FEF90935A0310925F03F7
:100A900040935E03FB0164E673E0DB0102C09191C9
:100AA0009D939A2F961B9417D0F310926203909106
:100AB0006203880F892B80936203809160038130E9
:100AC00041F410926003809162038093BB0085EC37
:100AD00001C085EE8093BC00222321F08091630346
:100AE0008230E1F380915A038F3F61F080915A0385
:100AF000803251F080915A03803341F483E007C083
:100B000081E005C080E003C082E001C084E00F9175
:100B10000895613298F420916303243089F460933E
:100B20005C03FC0184E893E0DC0102C021912D9379
:100B30002A2F281B2617D0F380E0089581E008951E
:100B400082E0089585ED8093BC008091BC0084FD17
:100B5000FCCF10926303089585EC8093BC00109243
:100B6000630308951F920F920FB60F9211240BB6D4
:100B70000F922F933F934F935F936F937F938F9336
:100B80009F93AF93BF93EF93FF938091B900887FBA
:100B9000803609F49FC058F5883209F45BC090F4A0
:100BA000803109F452C038F4882309F4F8C0883041
:100BB00009F0F9C04AC0883109F44CC0803209F00C
:100BC000F2C05CC0803409F46BC038F4803309F49F
:100BD00055C0883309F0E7C054C0803509F454C0CB
:100BE000883509F462C0883409F0DDC0DAC088397C
:100BF00009F4CBC0A8F4883709F46CC038F48836FF
:100C000009F468C0803709F0CEC064C0883809F4A0
:100C1000BCC0803909F464C0803809F0C4C060C029
:100C2000803B09F48AC038F4803A09F46BC0883AF2
:100C300009F0B9C082C0803C09F4ABC0883C09F41B
:100C4000A8C0883B09F0AFC08DC08091620380933B
:100C5000BB0012C090915F0380915E03981788F5E6
:100C600080915F03E82FF0E0EC59FC4F9081909366
:100C7000BB008F5F80935F0385EC88C080935A032D
:100C800090C080935A0356C080915F039091BB003F
:100C9000E82FF0E0EC59FC4F90838F5F80935F0367
:100CA00090915F0380915E036DC080915F0390918E
:100CB000BB00E82FF0E0EC59FC4F90838F5F8093EE
:100CC0005F038091610381116CC081E080936003B8
:100CD00084EA60C083E08093630310925B03CCCF0F
:100CE00080915B03803208F050C080915B0390914B
:100CF000BB00E82FF0E0E855FC4F90838F5F8093B6
:100D00005B03BACF80915B03803230F4E0915B03E8
:100D1000F0E0E855FC4F10820E94A20560915B0351
:100D2000E091A403F091A50370E088EA93E019959F
:100D300010925B030E94AC0536C084E0809363038D
:100D400010925D0310925C03E091A603F091A7035B
:100D5000199580915C03811105C081E080935C034B
:100D60001092840380915D03E82FF0E0EC57FC4F74
:100D700090819093BB008F5F80935D0390915D03A2
:100D800080915C03981708F477CF85E88093BC00C6
:100D90000AC085EC8093BC001092630304C01092DB
:100DA0005A030E94A205FF91EF91BF91AF919F91CD
:100DB0008F917F916F915F914F913F912F910F9004
:100DC0000BBE0F900FBE0F901F90189588EC93E00C
:100DD0000E94740780EC94E00E94614889EB94E0E3
:100DE0000E94614882EB94E00E9461488BEA94E0A3
:100DF0000E94614884EA94E00C946148CF93DF93A9
:100E0000EC010E944007CE0145960E94453FCE016D
:100E100083960E94AE40C853DF4F19821882DF913B
:100E2000CF9108950F9300E020E040E060E087EC70
:100E300094E00E94594B6CEC72E084EA94E00E94CA
:100E4000D2486CEC72E08BEA94E00E94D2486CECE1
:100E500072E082EB94E00E94D2486CEC72E089EB85
:100E600094E00E94D2486CEC72E080EC94E00E9426
:100E7000D24888EC93E00F910C94FE060C94E606A1
:100E8000CF93DF93EC010E94910785EB90E10E94E4
:100E9000A43C61E084E10E941A4460E084E10E9485
:100EA000FB4361E082E10E941A4460E082E10E941B
:100EB000FB4361E081E10E94FB4361E081E10E942C
:100EC0001A4461E089E00E941A4461E089E00E94CE
:100ED000FB4360E083E10E94FB431A861986188A6F
:100EE0001F86DF91CF9108950C9495070E948D087D
:100EF00088E093E00E94E80464E670E080E090E01F
:100F00000E94FD4284E10E94AB3D0C94A63D0C94EE
:100F100096078DEC94E00C9440078DEC94E00C94D3
:100F2000950721E0FC01228308950895CF93DF9374
:100F3000EC010E94FC268A81882321F0DF91CF9169
:100F40000C942922DF91CF9108950F931F93CF9393
:100F5000DF931F92CDB7DEB78C01862F69830E9485
:100F600072256981F801608782EF9FE10F90DF9120
:100F7000CF911F910F910C94864FDF92EF92FF92C9
:100F80000F931F93CF93DF93EC017B018A01D22E45
:100F9000CB010E944F30FC82EB82C8010E94553089
:100FA0001E830D838D2D0E945625DF8281E00E94D5
:100FB0004E256B817C8186EF9FE10E94984F6D8169
:100FC0007E8184EF9FE10E94984F6F8183EF9FE1C4
:100FD0000E94864F60E0CE01DF91CF911F910F916B
:100FE000FF90EF90DF900C94A507EF92FF920F9384
:100FF0001F93CF93DF931F921F92CDB7DEB7CB0124
:1010000069837A830E947E296981E62E7A81F72E90
:1010100002EE1FE1F70161917F01C8010E94864F36
:101020000F5F1F4F023FFFE11F07A1F70F900F90C7
:10103000DF91CF911F910F91FF90EF900895CF9284
:10104000DF92EF92FF920F931F93CF93DF93CDB771
:10105000DEB761970FB6F894DEBF0FBECDBF7C013F
:10106000CC24C394D12CCC0EDD1E02EE1FE1C801AE
:101070000E94784FF60181936F010F5F1F4F023F6F
:10108000FFE11F07A1F78E010F5F1F4FB801C701D6
:101090000E94F50780E1F80111928A95E9F786EF41
:1010A0009FE10E94804F8C018F3FFFEF9F0761F40B
:1010B00084EF9FE10E94804F019631F483EF9FE11E
:1010C0000E94784F8F3F81F083EF9FE10E94784F1D
:1010D000282F84EF9FE1298B0E94804FAC01298942
:1010E000B801C7010E94BD0782EF9FE10E94784FBF
:1010F0008F3F21F0682FC7010E94A50761960FB6A8
:10110000F894DEBF0FBECDBFDF91CF911F910F913D
:10111000FF90EF90DF90CF900895CF93DF93EC0195
:101120008A81882331F060E072EC81E090E00E94D7
:10113000AA210E94F4260E9483300E94BA25CE0183
:10114000DF91CF910C941F0881E08093E40408950F
:101150000F931F93CF93DF9300D01F92CDB7DEB7CD
:101160008E0104571241222717FD2095322FB80116
:10117000C9010F900F900F900F90DF91CF911F91A9
:101180000F91089508951EBA08958F929F92AF927D
:10119000BF92CF92DF92EF92FF92CF93DF93EC0159
:1011A0001092320A1092330A1092340A1092350AC1
:1011B00080903B0B912CA12CB12C27C0F601EE0F97
:1011C000FF1FEE0FFF1FE55CF54F60817181CE01BF
:1011D0000E94FF4E009761F46894C7F8C092320AEB
:1011E000D092330AE092340AF092350A81E01BC0B3
:1011F0008FEFC81AD80AE80AF80AC092320AD092C9
:10120000330AE092340AF092350AC090320AD09044
:10121000330AE090340AF090350AC814D904EA047D
:10122000FB0464F280E0DF91CF91FF90EF90DF90BC
:10123000CF90BF90AF909F908F900895CF92DF9204
:10124000EF92FF920F931F93CF93DF937C01C0E344
:10125000D3E027C0BE01C7010E94C34E6C01CE017E
:101260000E94D34E8C010F5F1F4F0C0F1D1FCD2806
:1012700089F484EA8EBBC801AA2797FDA095BA2FEE
:101280008093320A9093330AA093340AB093350ABC
:1012900081E00BC0C8010E94D34EEC012196C00F23
:1012A000D11FFE0184918111D5CFDF91CF911F9184
:1012B0000F91FF90EF90DF90CF900895E0E0F0E085
:1012C00019944091360A5091370A6091380A70910A
:1012D000390AFC01408351836283738320913A0A67
:1012E000248308951F93CF93DF93182FCCE9D3E085
:1012F00007C0CE010E94D34E0196C80FD91F1150CE
:101300001111F7CFCE01DF91CF911F91089587FD85
:101310000EC0E82FE695F0E0EE5AFB4FE49180FF17
:1013200002C08E2F02C08E2F82958F70089584E0A8
:1013300008958EB38C3391F08EB3843879F08EB3E8
:10134000883861F08EB3893849F08EB38E3331F02E
:101350009EB381E0953819F080E0089581E008950A
:10136000982F90539A3048F09153963030F0905E19
:1013700081E0963018F080E0089581E00895982F7C
:1013800080538A3038F0892F992787FD90950E94E5
:10139000BB4E875508958AB50E948709E82FF0E073
:1013A000EE0FFF1FE25FFD4F0190F081E02D1994D9
:1013B000DF92EF92FF920F931F93CF93DF937C0105
:1013C000EB01D42E1092320A1092330A1092340A92
:1013D0001092350A24C0BE01C7010E94C34E009777
:1013E00019F1DD2011F097FD21C00091320A109112
:1013F000330A2091340A3091350A0F5F1F4F2F4F67
:101400003F4F0093320A1093330A2093340A3093EB
:10141000350ACE010E94D34E0196C80FD91FFE0196
:1014200084918111D8CF03C081E001C080E0DF91B9
:10143000CF911F910F91FF90EF90DF900895FC01E5
:10144000218120538281811102C0822F089580530F
:10145000FAE02F9F800D11240895EF92FF920F93D1
:101460001F93CF93DF93082F8091AC05E82FF0E016
:10147000EE0FFF1FE459FA4FC081D18160E00E9456
:101480001A44FC2EED2ECE010E94234319E00BC01E
:10149000602F61708091AC050E941A448F2D9E2DA3
:1014A0000E9423430695115099F761E08091AC05A5
:1014B0000E941A44CE01880F991FDF91CF911F918E
:1014C0000F91FF90EF900C9423439091AC059111F4
:1014D00012C0E0916A05F0916B05309709F01994FC
:1014E000E0910111F09102110190F081E02D682F3F
:1014F00081E091E119940C942D0ACF93DF930E941F
:101500007209EC01FE0121968491882319F00E9452
:10151000650AF8CFDF91CF910895E091B40BF09177
:10152000B50B9BE0E23BF90748F48193F093B50BD0
:10153000E093B40B0E94650A81E0089587E00E9461
:10154000650A80E00895CF93DF93EC01FE012196B8
:1015500084918F3F69F0811106C0FE018491882338
:1015600039F080E202C0803689F30E94650AEECF2E
:10157000DF91CF910895CF93DF93EC0102C00E94D9
:10158000650A89918111FBCFDF91CF9108958DE09C
:101590000E94650A8AE00C94650A0E947D0A0C94F8
:1015A000C70ACF93C0E00EC084E0C89FF0011124A9
:1015B000E55CF54F808191810E94BB0A80E20E9428
:1015C000650ACF5F80913B0BC81770F3CF910C94E5
:1015D000C70ACF93DF9380913A0A8130D9F4C09142
:1015E000360AD091370ACC53DB40C837D10590F486
:1015F0000E94C70A03C08DE20E94650A2197CE3F70
:101600008FEFD807C1F78EE50E94650ADF91CF9171
:101610000C94C70ADF91CF910895CF93DF931F9267
:101620001F92CDB7DEB71092AC056A8389830E9402
:10163000E90A89810E947D0A6A81662319F0862F52
:101640000E94CD0A61E070E08BEE94E00E94824E31
:1016500065E00E940D0B4091190A24E0429FF001C1
:101660001124E95EF94F2091150630911606E21714
:10167000F30718F489E00E94280B6083718382834A
:10168000938341504093190A08958DEF8093190A6E
:101690008BE09AE09093180A8093170A60E070E05C
:1016A000CB010E942B0BE7E1F6E0F0931606E093E6
:1016B000150610820895E0911506F0911606209106
:1016C000190A94E0299F90011124295E394FE217ED
:1016D000F30718F083E00E94280B8193F09316061D
:1016E000E09315060895CF93DF93EC0102C00E94AA
:1016F0005B0B89918111FBCFDF91CF910C945B0B38
:1017000064E00E940D0BE091190AEF3F19F489E0A3
:101710000E94800BEF5FE093190A84E0E89FF001DC
:101720001124E95EF94F608171818281938108956E
:101730008091190A8F5FE091170AF091180A908141
:10174000890F8093190A0E94830B70931606609389
:1017500015060E94830B0E94830B7093180A6093F6
:10176000170A0895682F82E00E940D0B0F931F93B4
:10177000E091170AF091180A0081118122813381CA
:1017800006171707280739071CF48BE10E94B20BD4
:10179000660F771F660F771FE61BF70B608171815D
:1017A000828193811F910F9108950F931F9361E0A0
:1017B00070E080E090E00E94B60B6150710981E01A
:1017C00090E002C0880F991F6A95E2F7AA2797FD5B
:1017D000A095BA2FE091170AF091180A0484F585B4
:1017E000E02D408551856285738584239523A6234A
:1017F000B72301E010E020E030E0892B8A2B8B2B0F
:1018000019F400E010E09801B801C9011F910F918F
:101810000895E091170AF091180A90E0A0E0B0E076
:101820004081518162817381481759076A077B079C
:101830001CF48BE10E94B20B08950F931F9382E07A
:101840000E94090C8091170A9091180AFC013497A4
:10185000DC01189700811181228133810C9004C032
:1018600035952795179507950A94D2F7017011279A
:1018700022273327B801C9011F910F9108950F93B3
:101880001F9382E00E94090C8091170A9091180A18
:10189000FC01389701E010E020E030E0008004C057
:1018A000000F111F221F331F0A94D2F7FC01349737
:1018B00080819181A281B381082B192B2A2B3B2B8C
:1018C000B801C9011F910F9108950F931F9382E0F2
:1018D0000E94090C8091170A9091180AFC01389710
:1018E00001E010E020E030E0008004C0000F111F94
:1018F000221F331F0A94D2F700951095209530953A
:10190000FC01349780819181A281B381082319233E
:101910002A233B23B801C9011F910F91089583E049
:101920000E94090CE091170AF091180A3C978081F7
:101930009181A281B381892B8A2B8B2B11F00C947E
:101940003F0C0C94650C81E00E94090CE091170A91
:10195000F091180A349760817181828193810E948D
:10196000FD4260E070E0CB01089583E00E94090C25
:101970008091170A9091180AFC013C9720813181CF
:1019800042815381FC013897DC01149760818C916E
:101990000C94E34182E00E94090C8091170A909117
:1019A000180AFC013897DC01149760818C910E9421
:1019B000FB4360E070E0CB01089582E00E94090CD7
:1019C0008091170A9091180AFC013897DC0114974E
:1019D00060818C910E941A4460E070E0CB01089510
:1019E0000F931F9381E00E94090CE091170AF09178
:1019F000180A349780810E9451448C01222717FDD8
:101A00002095322FB801C9011F910F91089582E0EE
:101A10000E94090C8091170A9091180AFC013897CE
:101A200060817181FC01349780810E940C4160E0EB
:101A300070E0CB0108950F931F9381E00E94090C81
:101A4000E091170AF091180A349780810E94E340D0
:101A50008C01222717FD2095322FB801C9011F9153
:101A60000F910895CF93DF9383E00E94090C20919A
:101A7000170A3091180AF901B291A29192918291BC
:101A8000E9012897488159816A817B8184179507EC
:101A9000A607B7070CF40BC0E9012C9748815981C0
:101AA0006A817B81481759076A077B072CF4688194
:101AB00079818A819B8104C0608171818281938157
:101AC000DF91CF910895CF93DF9382E00E94090CBC
:101AD0009091170A8091180AE92FF82FEF012897A3
:101AE000729162915291429188819981AA81BB81C0
:101AF00084179507A607B7072CF46081718182814E
:101B0000938104C0688179818A819B81DF91CF9123
:101B10000895CF93DF9382E00E94090C9091170AF9
:101B20008091180AE92FF82FEF012897729162919E
:101B30005291429188819981AA81BB8148175907A6
:101B40006A077B072CF4608171818281938104C0D4
:101B5000688179818A819B81DF91CF9108950F936C
:101B60001F9381E00E94090CE091170AF091180A76
:101B7000349780819181A281B381B7FD0CC001E0CF
:101B800010E020E030E0892B8A2B8B2B39F400E029
:101B900010E0980103C00FEF1FEF9801B801C901D1
:101BA0001F910F9108950F931F9381E00E94090CDC
:101BB000E091170AF091180A34970081118122816F
:101BC000338137FF07C030952095109501951F4F41
:101BD0002F4F3F4FB801C9011F910F91089582E027
:101BE0000E94090C8091170A9091180AFC01349701
:101BF0000190F081E02DDC0118978C91808360E0EA
:101C000070E0CB01089581E00E94090CE091170A71
:101C1000F091180A34970190F081E02D608170E016
:101C200080E090E00895CF92DF92EF92FF9281E002
:101C30000E94090C409120025091210260912202E1
:101C400070912302C0902402D0902502E0902602D9
:101C5000F0902702DB01CA01E9E1B695A7959795B7
:101C60008795EA95D1F78C0D9D1DAE1DBF1DF7E040
:101C7000440F551F661F771FFA95D1F784279527C4
:101C8000A627B7278093200290932102A0932202D7
:101C9000B0932302BC01CD019F77E091170AF09128
:101CA000180A349720813181428153810E94B14BBF
:101CB000362F272FB701A601A9E17695679557958D
:101CC0004795AA95D1F74151514462457142B7E019
:101CD000CC0CDD1CEE1CFF1CBA95D1F74C255D2504
:101CE0006E257F254093240250932502609326029F
:101CF00070932702632F722FFF90EF90DF90CF90A9
:101D000008958F929F92AF92BF92CF92DF92EF92FF
:101D1000FF920F931F93CF93DF9300D01F92CDB705
:101D2000DEB783E00E94090C0091170A1091180A8F
:101D3000F801389780809180A280B380F8013C97A9
:101D40006081718182819381A50194010E947F4B02
:101D500028EE33E040E050E00E948F4B69017A01A9
:101D600060E271EA87E090E0A50194010E948F4B48
:101D70002750310941095109F801349761E0808108
:101D800029833A834B835C830E94FB4329813A81F8
:101D90008901580181E0A81AB1081DC0E091170A15
:101DA000F091180A349761E080810E941A44C801BA
:101DB0000E942343E091170AF091180A349760E0DB
:101DC00080810E941A44C5010E942343E1E0CE1A9B
:101DD000D108E108F108C114D104E104F104F1F6DD
:101DE00060E070E0CB010F900F900F900F90DF91AB
:101DF000CF911F910F91FF90EF90DF90CF90BF9008
:101E0000AF909F908F900895682F81E00E940D0BF6
:101E1000803218F08EE00E94040F0895CF92DF9276
:101E2000EF92FF920F931F93CF93DF9300D01F92F7
:101E3000CDB7DEB76B017C01862F29833A834B83B4
:101E40005C830E94080F29813A814B815C81C11417
:101E5000D104E104F10451F4BA01A90181E091E156
:101E60000E944047C12CD12C760124C08601000F6E
:101E7000111F04591A4F60E472E48FE090E00E9451
:101E80008F4B23503109F8013183208361E08C2D81
:101E90000E94FB4361E08C2D0E941A44F80180816E
:101EA00091810E942343F801C080D180EE24D7FCA9
:101EB000E094FE2CB601C7010F900F900F900F9089
:101EC000DF91CF911F910F91FF90EF90DF90CF9016
:101ED000089582E00E94090C8091170A9091180AD7
:101EE000FC0138972081318142815381FC01349774
:101EF00060817181828193810E940E0F60E070E0A9
:101F0000CB010895CF93C82F0E94080FC093AC0552
:101F1000CC23A9F0EC2FF0E0EE0FFF1FE459FA4FAD
:101F200020813181232B59F46C2F70E080E090E008
:101F300020E835E240E050E0CF910C940E0FCF91B5
:101F40000895CF92DF92EF92FF92CF93C82F0E9415
:101F5000830B6B017C010E94830B9B01AC01CE358E
:101F600009F4B7C0C8F4CB32B1F148F4C63209F471
:101F7000ABC0CA32D1F1C53209F0C6C042C0CF32BF
:101F8000C9F120F4CD3209F0BFC02AC0CC33F1F141
:101F9000CE3309F0B9C045C0C73809F475C078F42C
:101FA000C43809F449C020F4CC3709F0ADC087C06B
:101FB000C53809F44CC0C63809F0A6C05EC0C9389F
:101FC00009F450C008F46EC0CA3809F487C0CB3891
:101FD00009F09AC08BC06C0D7D1D8E1D9F1D8DC09C
:101FE0006C197D098E099F0988C0C701B6010E943E
:101FF0007F4B83C0A70196010E94B14BCA01B90172
:102000007CC0A70196010E94B14B77C061E070E0EF
:1020100080E090E02C153D054E055F050CF46DC089
:102020004AC061E070E080E090E0C216D306E406AA
:10203000F5060CF462C03FC061E070E080E090E023
:10204000C216D306E406F5060CF057C034C061E0B2
:1020500070E080E090E02C153D054E055F050CF02A
:102060004CC029C061E070E080E090E02C153D0597
:102070004E055F0509F041C01EC06115710581055F
:10208000910559F061E005C061E0232B242B252B3D
:1020900029F4CD28CE28CF2809F460E070E080E054
:1020A00090E02BC061E070E080E090E02C153D05F1
:1020B0004E055F0511F160E070E0CB011EC06C2998
:1020C0007D298E299F2919C06C217D218E219F2178
:1020D00014C06C257D258E259F250FC004C0660F7A
:1020E000771F881F991FCA94D2F707C004C095951F
:1020F000879577956795CA94D2F7CF91FF90EF9027
:10210000DF90CF900C942B0B8AE00E94040F84E1A7
:102110000E94040F682F80E00E940D0B60E00E9477
:102120000D0B0E94650A80E00E948E105F926F92F4
:102130007F928F929F92AF92BF92CF92DF92EF9257
:10214000FF920F931F93CF93DF93CDB7DEB7A09786
:102150000FB6F894DEBF0FBECDBF480159015E2C0B
:10216000611571058105910531F419823E0122E066
:10217000620E711C16C08E010F5F1F4FC42ED12C32
:10218000E12CF12CA70196010E948F4BF80161937D
:102190008F013F01B901CA016115710581059105E2
:1021A00089F781149104A104B10439F1CE0101969B
:1021B0009301281B390BC901AA2797FDA095BA2FB7
:1021C000881A990AAA0ABB0A08C0852D0E94650AC6
:1021D00031E0831A9108A108B108181419041A04EF
:1021E0001B049CF30AC0F30180818A3014F4805DE3
:1021F00001C0895C0E94650A03C08E010F5F1F4FFA
:10220000F1E06F1A71086016710668F7A0960FB6B4
:10221000F894DEBF0FBECDBFDF91CF911F910F911C
:10222000FF90EF90DF90CF90BF90AF909F908F90F6
:102230007F906F905F9008958F929F92AF92BF9220
:10224000EF920F931F93CF93DF9300D01F92CDB7E0
:10225000DEB74B015C0197FF17C08DE229833A83FB
:102260004B835C830E94650AB094A0949094809400
:10227000811C911CA11CB11C29813A814B815C817C
:102280002150310941095109E02E89019A014AE0A2
:10229000C501B4010E9496100F900F900F900F90FF
:1022A000DF91CF911F910F91EF90BF90AF909F90D2
:1022B0008F900895EF920F931F9320E3E22E00E09A
:1022C00010E0980140E10E9496101F910F91EF904D
:1022D0000895EF920F931F9330E3E32E00E010E098
:1022E000980142E00E9496101F910F91EF9008957F
:1022F0008F929F92AF92BF92CF92DF92EF92FF9216
:102300000F931F93CF93DF9300D01F92CDB7DEB70B
:10231000E82EF62E60E070E0CB010E94B60B8B0138
:102320009C016E2D70E080E090E0061717072807EB
:10233000390734F40E94C70A00E010E0980139C15F
:102340000E94B60B6B012BC1853209F01EC1D6016C
:1023500011968C91803331F0BFEFCB1ADB0A50E23B
:10236000E52E05C0E2E0CE0ED11C40E3E42ED601FE
:102370008C918A3229F0F60120E030E0A9011CC0DE
:102380006F2D70E080E090E0F3940E94B60B9B010B
:10239000AC01BFEFCB1ADB0A19C0AAE0B0E00E9483
:1023A000744B9B01AC01C801AA2797FDA095BA2FD9
:1023B000280F391F4A1F5B1F6F010191112707FD6D
:1023C0001095005311090A30110538F3F601808188
:1023D0008436A9F064F4823609F449C00CF08AC04E
:1023E000833209F4ABC0853209F0C5C0A5C085377A
:1023F00051F18837B1F0833709F0BDC04AC06F2D65
:1024000070E080E090E029833A834B835C830E94F4
:10241000B60B0E2D29813A814B815C810E941C11E3
:10242000B2C06F2D70E080E090E029833A834B8347
:102430005C830E94B60B29813A814B815C818901C2
:102440009A0140E111C06F2D70E080E090E0298397
:102450003A834B835C830E94B60B29813A814B817E
:102460005C8189019A014AE00E9496108CC06F2D10
:1024700070E080E090E029833A834B835C830E9484
:10248000B60B29813A814B815C8189019A0142E036
:10249000EBCF6F2D70E080E090E029833A834B838F
:1024A0005C830E94B60B162F972FFB010190002032
:1024B000E9F73197E61BF70B29813A814B815C8163
:1024C00049015A018E1A9F0AA108B1080AC080E288
:1024D00099830E94650AF1E08F1A9108A108B1085A
:1024E0009981181419041A041B048CF3812F0E947B
:1024F000BB0A49C08F2C912CA12CB12CC501B40171
:1025000029833A834B835C830E94B60B862F0E94FB
:10251000650A29813A814B815C8121503109410949
:102520005109DA01C9010196A11DB11D181619063C
:102530001A061B061CF327C085E222C06F2D70E02F
:1025400080E090E029833A834B835C830E94B60B42
:10255000162F29813A814B815C8121153105410576
:10256000510529F07727882799270E940E0F812F80
:102570000E94820F08C085E20E94650AD6018C91F4
:102580000E94650A0CC0F39407C08A3019F40E94B7
:10259000C70A02C00E94650ABFEFCB1ADB0AF60128
:1025A00080818111D1CE1092AC050F2D10E020E07A
:1025B00030E0B801C9010F900F900F900F90DF919C
:1025C000CF911F910F91FF90EF90DF90CF90BF9030
:1025D000AF909F908F90089562E081E00C94781105
:1025E00044E150E06FEF70E083E595E00C94F84E25
:1025F0008A3050F4E82FF0E0EE0FFF1FED5AFA4F4B
:102600008FEF9FEF918380830895CF92DF92EF92B7
:10261000FF92CF93DF936A017B01E3E5F5E020E0D1
:1026200030E0419151914F3F5F4F01F5F901EE0FBD
:10263000FF1FED5AFA4F91838083E901CC0FDD1F14
:10264000CC0FDD1FFE01E55DFA4FC082D182E28230
:10265000F3820E94C142CD5FDA4F6C0D7D1D8E1D4D
:102660009F1D688379838A839B8308C02F5F3F4FB8
:102670002A303105B1F687E10E94280BDF91CF9116
:10268000FF90EF90DF90CF9008952091690522236D
:1026900069F0E091670524E0E29FF0011124E55D17
:1026A000FA4F608371838283938308950C94FD4273
:1026B00081E00E94090CE091170AF091180A349702
:1026C00060817181828193810E94451360E070E096
:1026D000CB0108950C949E4F82E00E94090C8091DA
:1026E000170A9091180AFC013897DC011497608151
:1026F0008D919C910E946A1360E070E0CB01089577
:102700000F931F93CF93DF93C62FD72F8C010C1BF2
:102710001D0B02C00E946A1398012C0F3D1F699186
:10272000C9016111F7CFDF91CF911F910F910C94E7
:102730006A130C94784F20913A0A8091360A90914E
:10274000370A223039F0233041F0213051F4FC01B6
:10275000808105C0FC01849102C00E9499138ABD4A
:1027600008958AE10E94040F8091360A9091370AF9
:10277000A091380AB091390A0196A11DB11D80932C
:10278000360A9093370AA093380AB093390A0C940A
:102790009B13EF92FF920F931F93CF93DF93EC0164
:1027A0001DE009E0FAE0FF2E8AB5823241F4DF91A4
:1027B000CF911F910F91FF90EF900C94B4138AB5B5
:1027C0008C3589F50E94B4138AB5823769F018F404
:1027D0008E3649F505C0843729F0883721F506C0C3
:1027E000FABC21C00ABD1FC01ABD1DC00E94B4138F
:1027F0008AB50E94B0098823A1F08AB50E94BF095A
:10280000E82E0E94B4138AB50E94B009882349F0CB
:102810008AB50E94BF0990E1E99E800D11248ABD0E
:1028200002C084E109C08AB5FE0119950E94B41363
:102830008AB58111B9CF8CE00E94040FCF938EB37B
:102840008B3701F50E94CB09C0E018C08EB38B37DF
:1028500011F4CF5F11C08EB38D3739F4C11103C0AD
:10286000CF910C94CB09C15007C08EB3823221F4B2
:1028700082EC98E00E94C9130E94CB098EB38111AB
:10288000E5CF47C08EB38F3819F08EB38E39A9F5D6
:102890008EB38823B9F18EB38B33A1F18EB38B370E
:1028A000A9F530C08EB38B3719F40E941E1402C0F4
:1028B0000E94CB098EB3823A61F50E94CB09BFCF4B
:1028C0008EB3883211F4CF5F15C08EB3893221F4F4
:1028D000CC2331F2C1500EC08EB3823229F482EC87
:1028E00098E00E94C91306C0C11104C08EB38B3397
:1028F00009F4B6CF0E94CB0901C0C0E08EB38111AC
:10290000DFCF07C08EB38111CDCF03C00E94CB09AA
:10291000BFCFCF910895CF938AB590E0C097AA27F3
:1029200097FDA095BA2F8093320A9093330AA09313
:10293000340AB093350ACAE003C0C0E101C0C2E066
:102940000E94B4138AB590E00E94BB4E8ABDCA3083
:1029500091F48091320A9091330AA091340AB09197
:10296000350A892B8A2B8B2B31F48AB5883729F3CA
:102970008AB5823621F38AB590E0C0970A9718F598
:102980008AB580538ABD8AB58C1718F081E88EBB52
:1029900043C0EAB52091320A3091330A4091340A9B
:1029A0005091350AAC2FB0E00E94744B6E0F711D30
:1029B000811D911D6093320A7093330A8093340A0B
:1029C0009093350ABDCFC03109F78AB58136F0F250
:1029D0008AB58736D8F62AB58091320A9091330AA3
:1029E000A091340AB091350A34E0880F991FAA1FCC
:1029F000BB1F3A95D1F7820F911DA11DB11D8755BF
:102A00009109A109B1098093320A9093330AA093E6
:102A1000340AB093350A94CFCF9108958AB58EBB0E
:102A20000C94B4130E94B4138AB590E0A0E0B0E017
:102A30008093320A9093330AA093340AB093350AF4
:102A400081E88EBB0E94B4138AB5873219F087E201
:102A50000E9491100C94B41310C08AB5882389F099
:102A60008AB58A3071F08AB58D3079F40AC01EBA01
:102A700008950E94B4130E94CB098EB3863A69F37D
:102A800008958AB58111F5CFF2CF0E94B413E5CF36
:102A90008AB58EBB0E94B41340E082E994E0FC0149
:102AA00054915523C1F00296319624913EB33513CB
:102AB00010C03AB532130DC0E42FF0E0E555FB4FDE
:102AC000E491EEBB0E94B4138EB3863A21F40C94C9
:102AD0002C154F5FE4CF089502C00E94B4138AB54D
:102AE0000E9487098823C9F30C94CB0980933A0A82
:102AF0004093360A5093370A6093380A7093390A24
:102B000081110C949B130895E091170AF091180A13
:102B1000662371F0408551856285738541155105A5
:102B20006105710541F0FA0134962081318105C0BB
:102B30002481358102C020E030E0FC0140815181D8
:102B40006281738184810C947615CF93DF930E9408
:102B5000F012C0E0D0E0CE010E9499138F3F21F027
:102B60006FEFCE010E946A132196C03C8FE1D80717
:102B700091F7DF91CF91089581E00E94090CE091D7
:102B8000170AF091180A3497808191810E94991355
:102B9000682F70E080E090E00895CF93DF93C0E06D
:102BA000D0E0CE018F739927892B59F40E94C70A70
:102BB000BE01705280E090E00E945A118AE30E94A8
:102BC000650ACE0187709927892B19F480E20E944B
:102BD000650ACE0183709927892B19F480E20E943F
:102BE000650ACE010E949913811102C08CE507C0CD
:102BF0008F3F11F48EE203C0803208F48EE50E940C
:102C0000650A2196C11580E2D80759F6DF91CF9168
:102C10000C94C70ACF93DF93EC0121960E9499137D
:102C2000982F91509E3F20F40E94650ACE01F4CF68
:102C3000DF91CF910895CF92DF92EF92FF920F93A1
:102C4000CF93DF93C3E5D5E0C12CD12C76018881E9
:102C500099810196A1F000E220E030E0A901C701CE
:102C6000B6010E941C118AE30E94650A80E20E945C
:102C7000650A888199810E940A160E94C70A2296D5
:102C80008FEFC81AD80AE80AF80A2AE0C216D10457
:102C9000E104F104E1F6DF91CF910F91FF90EF9005
:102CA000DF90CF900895FF920F931F93CF93DF9300
:102CB000EC01CE010E949913F82E8FEFF81651F017
:102CC0008E010F5F1F4F6FEFCE010E946A13E80164
:102CD000F110EFCFCE01DF91CF911F910F91FF90B7
:102CE0000895FF920F931F93CF93DF93C62FD72F93
:102CF0008C010C1B1D0B0AC00E94991390E02F2D14
:102D0000332727FD30958217930759F498012C0F2C
:102D10003D1FF990C901F110EFCF0E94991391E086
:102D2000811190E0892FDF91CF911F910F91FF903A
:102D300008950F931F93CF93DF938C010BC0CE01A7
:102D40000E9499138F3F71F0811103C0E801229610
:102D500009C08E01E8012196CF3B8FE1D8077CF3B3
:102D6000CFEBDFE1CE01DF91CF911F910F9108955D
:102D7000CF93DF93EC0106C0CE010E9499138F3FE1
:102D800039F02196CF3B8FE1D807B4F3CFEFDFEFD7
:102D9000CE01DF91CF910895CF93DF93EC0106C070
:102DA000CE010E9499138F3F39F42196CF3B8FE1DA
:102DB000D807B4F3CFEFDFEFCE01DF91CF910895C5
:102DC000CF93DF9380E090E00E94CC16EC01CF3FE0
:102DD0008FEFD80709F18CE10E947D0A80E20E9402
:102DE000650ACE010E940A1680E20E94650A8BE7FE
:102DF0000E94650ACE010E949916EC010E940A16F3
:102E00008DE70E94650A8BE30E94650A0E94C70A4B
:102E1000CE010E949916D8CFDF91CF9108950F93DC
:102E20001F93CF93DF938C0180E090E09C01200FF3
:102E3000311F203C3F41BCF40E94B816EC01CF3F4B
:102E40008FEFD80781F0CE010E94CC168F3F2FEF75
:102E5000920711F480EC9FE19C012C1B3D0B201785
:102E6000310724F303C081E10E94280BCE01DF91DA
:102E7000CF911F910F9108950F931F93CF93DF93DD
:102E80008C0180E090E00E94CC16EC018F3F2FEF88
:102E9000920781F0B8010E94711681110BC0CE011A
:102EA0000E9499160E9499168B3B2FE192075CF3C2
:102EB000CFEFDFEFCE01DF91CF911F910F910895FA
:102EC000CF93DF93EC010E943C17AC01662757FDBE
:102ED0006095762F4093320A5093330A6093340AF8
:102EE0007093350A77FD03C083EA8EBB09C0CE011B
:102EF0000E941E09811104C080E88EBB80E001C0E1
:102F00008EB3DF91CF9108950F931F93CF93DF93EB
:102F10008AB590E00E94BB4E082F80931A0A0E9447
:102F2000B413CBE1DAE011E00BC087E10E94280B7B
:102F30008AB590E00E94BB4E89931F5F0E94B41334
:102F40008AB590E00E94A74E892B09F081C08AB50E
:102F50008E3209F47DC08AB58F3509F479C0E12F2E
:102F6000F0E0E65EF54F1082113099F4C02FDD27B6
:102F7000C7FDD095CE010E94B44E892B61F083E845
:102F80008EBBCE0181569109AA2797FDA095BA2F35
:102F90002AC0143088F5013611F0043669F5209105
:102FA0001B0A332727FD3095205331092A3031057C
:102FB00018F580911C0A282F332727FD30952053C0
:102FC00031092A30310510F0811116C0013611F493
:102FD00081E901C082E98EBB8AE19AE00E941F0A62
:102FE00090E0A0E0B0E08093320A9093330AA0937F
:102FF000340AB093350A30C041E06AE571E08AE1F5
:103000009AE00E94D809882349F0E091320AF091B1
:10301000330AE954FB4FE491EEBB1EC041E06BEA7A
:1030200071E08AE19AE00E94D809811106C08AE124
:103030009AE00E94C508882319F08EE88EBB0CC068
:103040008AE19AE0DF91CF911F910F910C94601764
:10305000123109F06DCF69CFDF91CF911F910F91A0
:1030600008950E943C1797FD04C00E9453160C94CB
:10307000531608956F927F928F929F92AF92BF9254
:10308000CF92DF92EF92FF920F931F93CF93DF9334
:10309000CDB7DEB763970FB6F894DEBF0FBECDBFD6
:1030A0000E94CB098EB3803809F467C08EB3833A8F
:1030B00009F463C08EB3843A09F45FC08EB3853AD5
:1030C00009F058C05AC08BE70E948A10C090360A97
:1030D000D090370AE090380AF090390A460156013C
:1030E0000E941E14E091360AF091370A31978F0141
:1030F000AE16BF06D8F066246394712C6C0E7D1E4C
:10310000F30101900020E9F75F0181E0A81AB108FE
:10311000A618B708C801881999098A0D9B1D02963F
:103120000E940F174C0197FF06C020C03197818184
:103130008D37E9F6E0CFB3010E948013C5010196F7
:10314000880D991DC81AD90A08C07C012FEFE21A10
:10315000F20A60810E946A13C701F601E80FF91FA5
:10316000E017F10790F360E00E946A1380E10E948B
:10317000CD0A16C087E10E94040F43E150E06AE1E6
:103180007AE0CE0101960E941D4FCE0101960E9469
:1031900031180E94CB098EB38B3709F497CF93CFA8
:1031A00063960FB6F894DEBF0FBECDBFDF91CF910F
:1031B0001F910F91FF90EF90DF90CF90BF90AF9055
:1031C0009F908F907F906F900895CF93DF9300D062
:1031D0001F92CDB7DEB781E091E10E949845892B1F
:1031E00079F081E091E10E94C745039749F486E0B8
:1031F0000E94CD0A61E070E08BEE94E00E94824E66
:10320000CE0184579241C2971CF485E10E94280B9D
:103210000F900F900F900F90DF91CF910895CF9264
:10322000DF92EF92FF920F931F93CF93DF9300D023
:103230001F921F92CDB7DEB70E94E5188EB380397A
:10324000E9F48E010F5F1F4FC8010E946109C12C74
:10325000D12C760160E0C8010E9484150E94CB0940
:103260000E944E1E672B682B692BE9F00E940F19F4
:103270006B017C018EB3803A69F703C18EB38F383E
:1032800001F50E94CB090E944E1E672B682B692B0B
:1032900069F00E940F196B017C018EB3823A09F02C
:1032A000F0C00E94CB090E941E14EBC00E941E14A5
:1032B0008EB3823A09F0E2C00E94CB090E940F1936
:1032C00032C08EB38B37C1F40E94CB09C12CD12CF4
:1032D00076018EB3811105C08EB38D3709F0D1C050
:1032E00008C08EB3803AC1F38EB38D3709F0CFC0DA
:1032F000F3CF0E94CB09C5C08EB38F3979F40E94F9
:10330000CB098EB3882321F08EB38B3309F0C4C070
:10331000C12CD12C760180EA8EBBB3C08EB38E391E
:1033200029F40E9421206B017C01ABC08EB384394B
:1033300019F40E943A18A2C08EB38639B1F50E94E2
:10334000CB098EB3833A09F4ACC08EB3843A09F446
:10335000A8C08EB3853A09F0ABC0A3C06091320A11
:103360007091330A8091340A9091350A0E942B0B98
:103370000E94CB090E944E1EC0902D0AD0902E0AAA
:10338000E0902F0AF090300A0E94830BDC01CB0101
:10339000B701A60107C040E050E0BA018091320AAF
:1033A0009091330A0E94051369C08EB38839B9F42D
:1033B0000E94CB098EB38A3219F40E94F01228C001
:1033C0008EB38B3309F477C08EB3882309F473C0AE
:1033D00077C08091670577C00E94F0124FC08EB30E
:1033E0008539C9F40E94CB098EB3833A29F48AE166
:1033F0009AE00E9431180CC08EB38A3219F40E94F0
:10340000A51506C08EB3803819F087E10E948A1096
:103410000E94CB0933C08EB38C3929F40E94CB09AA
:103420000E94E0162BC08EB3893919F40E945E0900
:1034300025C08EB3873929F40E94CB090E941B1640
:103440001DC08EB38A3929F40E94CB090E94CD1584
:1034500015C08EB38B3929F40E94CB090E94082035
:103460000DC08EB38D3929F40E94CB090E94321F02
:1034700005C08EB38B3311F00E94251EC12CD12CB8
:1034800076018EB38B3311F50E94CB091FC00E94C9
:103490000F196B017C011DCF0E944E1E6B017C0138
:1034A0003ACF0E94CB098EB38C3209F074CF56CF3D
:1034B00087E10E94040F8091690581118ACF8CCF2A
:1034C0000E944E1E862F0E94F812D8CFB601C70167
:1034D0000F900F900F900F900F90DF91CF911F9151
:1034E0000F91FF90EF90DF90CF9008950F931F936F
:1034F00000E010E098018EB3882341F08EB3803A4B
:1035000029F00E940F198B019C01F5CFB801C90168
:103510001F910F910895CF92DF92EF92FF92CF9378
:10352000DF93CDB7DEB72D970FB6F894DEBF0FBE91
:10353000CDBF8F83488759876A877B873D872C87D4
:10354000CE0101960E9461098EB38E836091320A8A
:103550007091330A8091340A9091350A0E942B0BA6
:1035600080913A0A81111BC08BEE94E00E94604E5C
:103570000197A9F40E94F0121092AC050E94450B2D
:1035800010923A0A1092360A1092370A1092380AAC
:103590001092390ACC24CA94DC2C760120C02C85E8
:1035A0003D85488559856A857B858F810E94761582
:1035B0000E94CB090E94761A6B017C0161E0CE016A
:1035C00001960E9484158E818EBB0E94830B6093AE
:1035D000320A7093330A8093340A9093350AB60105
:1035E000C7012D960FB6F894DEBF0FBECDBFDF9199
:1035F000CF91FF90EF90DF90CF900895AC016627B8
:1036000057FD6095762F20E030E081E00C948B1A16
:10361000CF93DF93CDB7DEB763970FB6F894DEBFD5
:103620000FBECDBF88E10E94720942E150E0BC01AB
:10363000CE0101960E94DC4ECE0101960E946017D9
:10364000882329F0CE0101960E94FE1A03C083E16F
:103650000E947D0A63960FB6F894DEBF0FBECDBF01
:10366000DF91CF9108950F931F93CF93CAE080917C
:1036700067058F5F8A3018F48093670502C0109247
:103680006705E0916705F0E0EE0FFF1FED5AFA4F76
:1036900080819181019609F448C00E94C142E09165
:1036A0006705F0E0DF01AA0FBB1FAA0FBB1FAD5FCC
:1036B000BA4F0D911D912D913C91601B710B820BA6
:1036C000930B97FD32C081E080936905EE0FFF1FD9
:1036D000ED5AFA4F808191810E949916AC016627BC
:1036E00057FD6095762F20E030E083E00E948B1A32
:1036F0000E94C1422091670544E0249F900111245B
:10370000F901ED5FFA4FD901A55DBA4F0D911D91F9
:103710002D913C91600F711F821F931F60837183F5
:10372000828393831092690503C0C15009F09FCF33
:10373000CF911F910F910895CF93DF9300D01F92E7
:103740001F92CDB7DEB749835A836C837D838B8309
:103750000E94601EE091170AF091180A24813581B9
:1037600049815A816C817D818B810E948B1A6C8387
:103770007D838B8399830E94980B6C817D818B81E3
:1037800099810F900F900F900F900F90DF91CF9134
:103790000C942B0BEF92FF920F931F93CF93DF9319
:1037A00000D0CDB7DEB71091320A5091330A809124
:1037B000340A9091350A0EB359838A839B830E9401
:1037C000CB0959818A819B81033809F443C0E8F40D
:1037D0000A3209F498C150F4063209F475C108326E
:1037E00009F431C1013209F0A2C15CC10D3209F402
:1037F00044C120F40B3209F09AC1D5CF0E3709F439
:1038000048C1013809F093C122C0023909F4BDC092
:1038100078F40D3809F4EBC020F40C3809F087C1B6
:10382000D0C00E3809F478C0013909F080C19EC0BB
:10383000033A09F47DC020F4013A09F078C1EFC0E1
:10384000043A09F480C0053A09F071C18AC0612FB9
:10385000752F62C18EB3E12EF12C8D3381F40E945D
:10386000CB090E944E1EF701EE0FFF1FEE0FFF1F48
:10387000E355FA4F608371838283938342C08EB392
:103880008C38B9F48701000F111F000F111F035569
:103890001A4FF80160817181828193810E942B0B04
:1038A000F80180819181A281B3810196A11DB11D92
:1038B00019C08EB38D3829F58701000F111F000F35
:1038C000111F03551A4FF801608171818281938124
:1038D0000E942B0BF80180819181A281B381019715
:1038E000A109B10980839183A283B3830F900F90C4
:1038F0000F90DF91CF911F910F91FF90EF900C945B
:10390000CB0984E0189FF0011124E355FA4F608140
:1039100071818281938100C1812F0F900F900F9050
:10392000DF91CF911F910F91FF90EF900C94FD1EAE
:10393000812F952F0E949916AC01662757FD60953F
:10394000762F83E003C0412FBC0182E00F900F90DF
:103950000F90DF91CF911F910F91FF90EF900C94FA
:103960009C1B40E050E0BA0184E0F0CF8EB38D3371
:1039700041F40E94CB090E944E1E812F0E940C41EF
:103980000EC0812F0E94E34016C08EB38D3381F4A8
:103990000E94CB090E944E1E812F0E941A44609102
:1039A0002D0A70912E0A80912F0A9091300AB4C08E
:1039B000812F0E945144BC01882777FD8095982F64
:1039C000ABC08EB3833811F08DE044C0E091320A71
:1039D00084E0E89FF0011124E355FA4F6081718182
:1039E000828193816F5F7F4F8F4F9F4F13C08EB344
:1039F000833851F7E091320A84E0E89FF001112406
:103A0000E355FA4F60817181828193816150710920
:103A10008109910960837183828393832BC08EB364
:103A2000883211F088E20DC00E94CB090E944E1E20
:103A30000E94B60B0E942B0B8EB3893209F456CF2D
:103A400089E20E9491100E94251E8091310A8138DE
:103A500019F08EE00E948A108EB3893219F08FE03F
:103A60000E94B20B60912D0A70912E0A80912F0A4C
:103A70009091300A0E942B0B39CF0E94CA1B0E94E2
:103A8000830B90958095709561957F4F8F4F9F4FD9
:103A900043C00E94CA1B0E94830B6095709580955D
:103AA00090953AC00E94CA1B0E94830B8B019C0117
:103AB00061E070E080E090E0012B022B032B61F1CC
:103AC00060E070E0CB0128C08EB3833879F4609158
:103AD000320A7091330A660F771F660F771F63559E
:103AE0007A4F882777FD8095982FC4CF8EB3833A7D
:103AF00009F06ACF6091320A7091330A8091340ADA
:103B00009091350AB7CF0E94CA1B0E94830BFB011C
:103B1000608170E080E090E00F900F900F90DF9157
:103B2000CF911F910F91FF90EF900C942B0B8EE093
:103B30000E94040FCF93DF931F92CDB7DEB70E9490
:103B4000CA1B8EB38A3231F08EB38F3219F08EB326
:103B5000853251F48EB389830E94CB090E94CA1B1F
:103B600089810E94A10FEDCF0F90DF91CF91089531
:103B7000CF93DF931F92CDB7DEB70E949A1D8EB30D
:103B80008B3219F08EB38D3251F48EB389830E943B
:103B9000CB090E949A1D89810E94A10FF0CF0F903E
:103BA000DF91CF910895CF93DF931F92CDB7DEB70A
:103BB0000E94B81D8EB38B3819F08EB38A3851F439
:103BC0008EB389830E94CB090E94B81D89810E940F
:103BD000A10FF0CF0F90DF91CF910895CF93DF9396
:103BE0001F92CDB7DEB70E94D31D09C08EB3898363
:103BF0000E94CB090E94D31D89810E94A10F0E94BF
:103C000099098111F3CF0F90DF91CF910895CF9350
:103C1000DF931F92CDB7DEB70E94EE1D8EB38632C2
:103C200031F08EB38C3719F08EB38E3551F48EB3DC
:103C300089830E94CB090E94EE1D89810E94A10FF9
:103C4000EDCF0F90DF91CF910895CF93DF931F9227
:103C5000CDB7DEB70E94071E8EB3863889F08EB3CB
:103C6000873871F081E88093310A0E94830B60935A
:103C70002D0A70932E0A80932F0A9093300A0AC05F
:103C80008EB389830E94CB090E94071E89810E94FE
:103C9000A10FE2CF0F90DF91CF9108950E94251ED2
:103CA0008091310A813819F08EE00E948A1060916B
:103CB0002D0A70912E0A80912F0A9091300A089552
:103CC000EF92FF920F931F93CF93DF936091170AA8
:103CD0007091180A882777FD8095982F0E942B0BEA
:103CE00060E070E0CB010E942B0B60911506709193
:103CF0001606882777FD8095982F0E942B0B8AE166
:103D00009AE00E94730BC091190A84E0C89FE001F9
:103D10001124C95ED94F60E070E0CB010E942B0BEB
:103D20008EB3883209F059C08E01EE24E394F12C51
:103D30000E94CB098EB3893209F045C040C0609122
:103D4000150670911606882777FD8095982F0E949A
:103D50002B0B8BE59BE00E94C91380E00E945B0B5C
:103D60000E94CB09A701F801008002C0440F551F33
:103D70000A94E2F7662757FD6095762F8885998526
:103D8000AA85BB85842B952BA62BB72B8887998773
:103D9000AA87BB8704C00E944E1E0E942B0BF8010D
:103DA00080819181A281B3810196A11DB11D808383
:103DB0009183A283B3838EB38C3209F4B9CF8EB3CF
:103DC000893229F007C08EB381110CC0F8CF0E9450
:103DD000CB0903C08FE00E948A10D093180AC093C9
:103DE000170A04C08EB38232B1F6A9CFDF91CF910A
:103DF0001F910F91FF90EF9008950F931F93CF9312
:103E0000DF9300D01F92CDB7DEB787FF0AC08F7750
:103E100024E0829FF0011124E55CF54F02811381BB
:103E200009C0E82FF0E0EE0FFF1FEC50FD4F859129
:103E300094918C010E94601EF801199569837A8320
:103E40008B839C830E94980B69817A818B819C81F2
:103E50000F900F900F900F90DF91CF911F910F91C6
:103E60000C942B0B0F93CF93DF931F92CDB7DEB73C
:103E70008EB3833281F40E94CB090E944E1E9EB302
:103E80009A3319F08AE30E94911069830E94CB094A
:103E900089810E94820F8EB3823229F485E69AE0EE
:103EA0000E94C91370C08EB38B3309F47DC08EB3EA
:103EB00081118CC079C00E94CB098EB38338E9F59B
:103EC0008091320A9091330AA091340AB091350A58
:103ED00087319105A105B10559F460912D0A7091C2
:103EE0002E0A80912F0A9091300A0E945A114BC0DD
:103EF00081309105A105B10559F460912D0A7091A9
:103F00002E0A80912F0A9091300A0E9469113BC0BD
:103F100088319105A105B10529F480912D0A0E94EF
:103F2000650A31C04297A105B10569F580912D0A56
:103F300090912E0A0E94BB0A26C08EB3813220F4D3
:103F40001FC08EB30E94650A80912D0A90912E0A9F
:103F5000A0912F0AB091300AAC01BD014150510926
:103F60006109710940932D0A50932E0A60932F0A1C
:103F70007093300A181619061A061B0614F303C0AC
:103F80008BE00E948A100E94CB090EC060912D0A1E
:103F900070912E0A80912F0A9091300A00E020E063
:103FA00030E0A9010E941C118EB38B33A9F08EB3AF
:103FB000882391F014C00E94CB098EB38B3319F083
:103FC0008EB3811111C01092AC0512C00E94251E43
:103FD0008EB38A33D9F66FCF0E94C70AF4CF8EB35F
:103FE0008C3209F045CFE7CF80E20E94650A40CFCE
:103FF0000F90DF91CF910F91089520E030E047E3DB
:1040000053E0662757FD6095762F82E00C948B1A5B
:104010000E94FD1F83E492E00E94A30A8AE591E0DA
:104020000E94A30A89E10E947D0A8BEA91E00E9426
:10403000A30A0E94C70A0E94D10A0E94C70A0C94D0
:10404000E016CF92DF92EF92FF920F931F93CF93E0
:10405000DF93CDB7DEB729970FB6F894DEBF0FBE5A
:10406000CDBFC090320AD090330AE090340AF0906D
:10407000350A0EB30E94CB090E944E1E80912D0A74
:1040800090912E0AA0912F0AB091300AB7FF08C074
:1040900010922D0A10922E0A10922F0A1092300AB6
:1040A00010912D0A8EB38B3719F08BE70E94911077
:1040B0000E94CB0903C08EB38D37E9F4112339F088
:1040C0008EB38823E1F18EB38D37B9F438C00E94E6
:1040D0000F192EB3222379F12EB32D3709F52BC0FA
:1040E0006E837F83888799870E94CB096E817F8149
:1040F0008885998533C01150E1CFCE0101960E9489
:1041000061090EB3C090320AD090330AE090340AAD
:10411000F090350A0E941E148EB38111CCCFCECF01
:104120006E837F83888799870E941E146E817F81AA
:1041300088859985CECF2EB32D3781F4D1CF60E01D
:10414000CE0101960E9484150EBBC092320AD09215
:10415000330AE092340AF092350AB9CF29960FB6A5
:10416000F894DEBF0FBECDBFDF91CF911F910F91AD
:10417000FF90EF90DF90CF900895CF92DF92EF9273
:10418000FF920F931F93CF93DF9300D01F92CDB771
:10419000DEB760E070E0CB010E94B60B1616170682
:1041A000180619064CF461E070E080E090E00E948F
:1041B000B60BCB010E94BB0A20E030E0A9016AE007
:1041C000C62ED12CE12CF12C81E091E129833A8398
:1041D0004B835C830E94984529813A814B815C81A5
:1041E000892B91F381E091E10E94C7458C012981DF
:1041F0003A814B815C818D30910509F455C08A303C
:10420000910509F451C0FC01F097EA30F10580F402
:10421000AAE0B0E00E94744B9B01AC01CF01AA2739
:1042200097FDA095BA2F280F391F4A1F5B1F30C07A
:104230008D32910541F450954095309521953F4F31
:104240004F4F5F4F25C08830910519F08F3791058A
:10425000E9F42115310541055105D1F0CA01B90133
:10426000A70196010E94B14B88E029833A834B83D2
:104270005C830E94650A80E20E94650A88E00E94D1
:10428000650A29813A814B815C8102C087E001C0C7
:10429000802F29833A834B835C830E94650A29819E
:1042A0003A814B815C8190CF29833A834B835C8335
:1042B0000E94C70A29813A814B815C81B901CA01F8
:1042C0000F900F900F900F90DF91CF911F910F9152
:1042D000FF90EF90DF90CF9008950F931F9360E0D1
:1042E00070E0CB010E94B60B1616170618061906C9
:1042F0004CF461E070E080E090E00E94B60BCB01EE
:104300000E94BB0A81E091E10E949845892BD1F37C
:1043100081E091E10E94C7458C01222717FD20957D
:10432000322FB801C9011F910F9108958CE39BE0D2
:104330009093B50B8093B40B0E94081B04C081E0DE
:1043400091E10E94C74581E091E10E949845892B47
:10435000B1F70895AB01BC0181E091E10E944047B3
:104360000E94F0120E94450B0E94FD1F86E10E94F0
:10437000720947E750E0BC018CE39BE00E94DC4EF1
:104380008CE39BE00E946017882321F08CE39BE084
:104390000E94FE1A0C9496218D3011F08A3061F43F
:1043A0000E94C70AE091B40BF091B50B10828CE328
:1043B0009BE00E94FE1A07C0833039F486E00E9419
:1043C000CD0A0E94F0120C949621823041F481E0D3
:1043D00090916805911180E0809368050895883078
:1043E00011F08F37F1F48091B40B9091B50B8C5391
:1043F0009B4019F487E00C94650A88E00E94650AE6
:1044000080E20E94650A88E00E94650AE091B40B90
:10441000F091B50B3197F093B50BE093B40B10828C
:1044200008958531A1F488E00E94CD0A0E94081BFE
:104430008CE39BE00E94BB0AECE3FBE001900020D0
:10444000E9F73197F093B50BE093B40B08950C9412
:104450008D0A81E091E10E949845892B31F081E03D
:1044600091E10E94C7450E94CC210C94331BCF934D
:10447000DF93E6EBFBE0CAEBDBE0A0E0B0E02185F8
:104480003285232BB1F0208131812817390789F437
:10449000228133812617370761F42881241309C04C
:1044A0008BE08A9F90018B9F300D11242A54344F4A
:1044B00008C011963B962B96A530B10501F720E078
:1044C00030E0C901DF91CF910895EF92FF920F93F1
:1044D0001F93CF93DF938C01E62EF42E0E94D92CEC
:1044E000EC010097B9F10E941B2D8981885F8983B7
:1044F000FE01E957FF4F11821082FE01EA57FF4F7C
:1045000084E08083D80115968D919C911697988BA5
:104510008F87FE01EF57FF4F0190F081E02D83E080
:1045200080838D919C9111979283818312968D91B6
:104530009C9113979483838314968C918583E68250
:10454000F782CE01DF91CF911F910F91FF90EF90F5
:104550000C94592BDF91CF911F910F91FF90EF9009
:104560000895FF920F931F93CF93DF938C01F62E44
:104570000E94D92CEC01009771F10E941B2D8981BA
:10458000895F8983FE01E957FF4F118210828B8575
:1045900084608B878FEF9FEF988B8F87FE01EF579B
:1045A000FF4F0190F081E02D82E08083D8018D9152
:1045B0009C9111979283818312968D919C91139770
:1045C0009483838314968C918583F682CE010E9416
:1045D000592B81E001C080E0DF91CF911F910F91B5
:1045E000FF900895CF93DF93EFEBFBE080E090E046
:1045F00020813181232B51F42BE0289FE001299F5A
:10460000D00D1124CA54D44F49F412C001963B96E0
:104610008530910569F7C0E0D0E00AC01F82188696
:1046200088EE93E09A8789878DEE9BE00E94182997
:10463000CE01DF91CF9108959F92AF92BF92CF921A
:10464000DF92EF92FF920F931F93CF93DF936C0152
:10465000E12CF12CB12C8BE0A82EAE9CE001AF9C9C
:10466000D00D1124CA54D44F29853A8525363105F9
:1046700038F0245631093A872987BB24B39431C0D6
:104680001A8619862881398180913B1290913C12BB
:104690002817390731F5988400E010E01CC0F801B4
:1046A00080818034C1F42A813B81878590892817D5
:1046B000390789F4838583FB882780F99C819813C7
:1046C0000AC0992021F0C8010E94592B04C061E161
:1046D000C8010E941E2CC8010E94042D8C01009765
:1046E000F1F6FFEFEF1AFF0A85E0E816F10409F092
:1046F000B4CFBB2071F0C601DF91CF911F910F9114
:10470000FF90EF90DF90CF90BF90AF909F900C9470
:104710001829DF91CF911F910F91FF90EF90DF90BB
:10472000CF90BF90AF909F9008951092C00B1092C1
:10473000BF0B1092CB0B1092CA0B1092D60B10929B
:10474000D50B1092E10B1092E00B1092EC0B109233
:10475000EB0B84E690E0A0E0B0E08093F30B909345
:10476000F40BA093F50BB093F60B1092F80B10928C
:10477000F70B8CE193E29093FA0B8093F90B089579
:10478000CF93DF93EC014B8543FB442740F96F85C2
:10479000788980913B1290913C120E943722892B9C
:1047A00009F01DC00E94F2220097E1F020913B1217
:1047B00030913C12FC01318320832F85388933836B
:1047C00022832B8523FB222720F924832FEF3FEF21
:1047D000368325836FEF0E94B122882319F080E48D
:1047E000888306C061E1CE01DF91CF910C941E2C2D
:1047F000DF91CF910895CF92DF92EF92FF920F93C6
:104800001F93CF93DF937C01FC01C781D0858D81FD
:10481000813031F48B819C810E947427C82E01C0A5
:10482000C12C4D8120913B1230913C12411107C0A7
:104830008B819C818217930711F4CC24C3948981C6
:104840009A818217930709F443C0C11002C037FD53
:104850003FC0F70132852E81329F90011124D32E63
:104860006B817C810E9437228C01009729F0FC012A
:1048700087818D1530F02CC00E94F2228C010097A8
:1048800039F149815A81F801518340834B815C8120
:10489000538342838D818483F70140815181F801E4
:1048A00056834583D782CC2079F0F701408151812E
:1048B0002D2D60E089819A810E9438314FEF6D2D56
:1048C000C8010E94652204C06D2DC8010E94B1225A
:1048D00081E0DF91CF911F910F91FF90EF90DF90DA
:1048E000CF900895EF92FF920F931F93CF93DF9392
:1048F0007C01DC011796CD91DC9118976B817C814E
:104900004D8189819A810E9437228C01D7011A96A4
:10491000FC91EF81009789F18E81D80118969C91C6
:104920001897981750F518968C9369817A81209181
:104930003B1230913C128B819C81D7014D915C914F
:104940006217730729F42E816D810E94383115C0DA
:10495000FE9F700111242F2D6D810E943831F801C6
:1049600045815681278160E089819A810E94383192
:104970004F2D6E81C8010E94652281E0DF91CF91A9
:104980001F910F91FF90EF90089593E09093420153
:10499000909141019F719830D9F780934201909195
:1049A00041019F718913FBCF08958091080C8823E2
:1049B00011F086E101C088E00C94C5240F931F9389
:1049C000CF93DF938091390181608093390188E032
:1049D0000E94C5248FEF8093560190916E019062E2
:1049E00090936E0190916E019F7E90936E018093E3
:1049F0004F0180914E01886080934E0180914E015D
:104A0000806480934E0180914C01806880934C01BA
:104A100010924E011092560186E00E94C524C0E01B
:104A2000D0E000E010E081E00E94A72880914601DC
:104A300082958695837090E00C2E02C0880F991F96
:104A40000A94E2F7082B192B2296C031D10559F7A9
:104A500088E00E94C5248BEE809356018FEF8093EF
:104A60004F0180914E01886080934E0180914E01EC
:104A7000806480934E0100936D011092000C10929F
:104A8000080C1092020C81E090E09093FF0B809351
:104A9000FE0BDF91CF911F910F910895E0E0FCE0B4
:104AA0009081906190838093080C0895E0E0FCE091
:104AB0009081916090838093010C0895E0E0FCE088
:104AC0002081226020839093040C8093030C08952E
:104AD000E0E0FCE02081246020839093060C80932A
:104AE000050C0895E0E0FCE090819860908380934D
:104AF000070C08958091FE0B9091FF0B019749F4EC
:104B000081E090E02091000C211105C080E090E050
:104B100002C081E090E0817008951F93CF93DF93EE
:104B20001F921F92CDB7DEB7182F89E169839A8350
:104B30000E94C5246981862F8E5F80938001E12FBA
:104B40009A81F92FA1E8B1E002C081918D938E2F57
:104B5000811B8617D0F382E08093420183E090E0CE
:104B60009093FF0B8093FE0B0F900F90DF91CF91EE
:104B70001F910895E0E0FCE08081806280830895C9
:104B8000E0E0FCE020812064208390930A0C809375
:104B9000090C70930C0C60930B0C08951F920F92EC
:104BA0000FB60F9211248F939F93809141018F71C3
:104BB000893181F480914201829586958770809336
:104BC000FD0B89E08093420184E090E09093FF0B1D
:104BD0008093FE0B9F918F910F900FBE0F901F90AF
:104BE00018951F920F920FB60F9211248F939F93D7
:104BF00089E080934201809147018093FC0B809172
:104C00007B018093FB0B85E090E09093FF0B8093FA
:104C1000FE0B9F918F910F900FBE0F901F901895D4
:104C20001F93CF93DF9300D01F921F92CDB7DEB7B3
:104C30008091FE0B9091FF0B8430910509F48AC09E
:104C40008530910509F49AC0019709F0C4C010910C
:104C5000000C112309F4BFC088E00E94C52410FF96
:104C600019C09091020C292F2F7080915401807FE0
:104C7000822B809354018091010C911109C0982FCF
:104C80009F7180914801807E892B8093480102C0EA
:104C9000809353018091000C81FF08C08091030C28
:104CA000809362018091040C809363018091000CD9
:104CB00082FF08C08091050C809360018091060CF2
:104CC000809361018091000C83FF09C09091070CD3
:104CD0009F7080914501807F892B80934501809151
:104CE000000C86FF32C080E090E0E0910B0CF09168
:104CF0000C0CE80FF91F208120933F0101968031B1
:104D0000910599F710923C0180E090E0E091090C48
:104D1000F0910A0CDF01A80FB91F2C9120933E01DE
:104D200001968031910591F780913C0180688093D4
:104D30003C0180913D0180FFFCCF80E190913E01DC
:104D400091938150D9F70E942F2D0E94D524109263
:104D5000000C41C08091FD0B0E94292C80914101E3
:104D60008F718930D9F72FC0FC01E058FE4F2081A8
:104D7000FC01E35FF34F20834F5F01C040E02091CF
:104D8000FB0B842F90E030E0281739076CF78DE09B
:104D90009CE09A8389838091FB0B82508B83E09106
:104DA000FB0BF0E0E35FF34F80818C838091FC0B81
:104DB0008A558D83CE0101960E94832D80914101F9
:104DC0008F718930D9F781E090E09093FF0B809349
:104DD000FE0B0E94D5240F900F900F900F900F9014
:104DE000DF91CF911F9108950E9496280E94022979
:104DF0000E94DE240C942F300E9410260E94643002
:104E00000C94272910923A1280E88093A0008DE03C
:104E10008093A1001092A9008CE78093A800E2E79C
:104E2000F0E080818260808308952091A400309119
:104E3000A500280F391F3093AB002093AA002091C2
:104E4000AA003091AB008091A8009091A900821730
:104E5000930770F48091AA009091AB002091A80074
:104E60003091A900821B930B9093AB008093AA0012
:104E700010928D0C809172008460809372008091FA
:104E80008D0C8823E1F3809172008B7F80937200F8
:104E900008951F920F920FB60F9211248F93809155
:104EA0003A128F5F80933A128F910F900FBE0F903E
:104EB0001F9018951F920F920FB60F9211248F9387
:104EC00081E080938D0C8F910F900FBE0F901F90FB
:104ED0001895EEE8FCE08FEF9FEF819391932CE023
:104EE000E23AF207D1F70895EEE8FCE02191319122
:104EF0008217930731F02CE0E23AF207B9F780E02D
:104F0000089581E00895E091A20CF091A30C15C0E2
:104F1000228133812817390769F4DC01AD57BF4F6F
:104F20002C91218BDC01AA57BF4F2C91228B22E0C0
:104F3000248305C00190F081E02D309749F70C944F
:104F4000012D1092A30C1092A20C08950F931F93A1
:104F5000CF93DF93E091A20CF091A30CEF01CFC0AF
:104F60008C81882321F0823009F0C6C0A9C00E943C
:104F7000D92C8C01009721F482E08C83898BC2C0EC
:104F80009B838A8381E08C83F801E957FF4F83E894
:104F900097E291838083F801EA57FF4F898582FB6E
:104FA000882780F980839985D8011B968C911B975F
:104FB00090FB80F91B968C931B97998593FB9927FF
:104FC00090F990FB82F91B968C931B979985969587
:104FD000917090FB81F91B968C931B979985929504
:104FE000917090FB83F91B968C9383FF2AC09801E4
:104FF0002F573F4FD901ED91FC918460D8011B964A
:105000008C939A859F708181807F892B81839A857B
:105010009295907F8F70892B81839B859F70808173
:10502000807F892B80839B859295907F8F70892BC1
:1050300080833296D901ED93FC93F80181818E5FD4
:10504000818380913F128F5F80933F12D8011C961D
:105050008C931C9780913B1290913C121E969C93CE
:105060008E931D978D819E8150969C938E931F9752
:1050700098859F7051968C915197807F892B51967E
:105080008C9351979F819295907F8F70892B519629
:105090008C93F801EF57FF4F4E856C857D8550E06E
:1050A000808191810E94EF4EF80181819E85890F58
:1050B0008183C801DF91CF911F910F910C94592BDF
:1050C000EC17FD0741F4888199819093A30C80939C
:1050D000A20C0AC0FC01808191818C179D07D1F739
:1050E0008881998191838083EF85F889CE01DF9152
:1050F000CF911F910F9119940990D881C02D2097BD
:1051000009F02ECFDF91CF911F910F9108951F923B
:105110000F920FB60F9211248F9381E08093A40C0D
:105120008F910F900FBE0F901F90189514BE88E1BD
:105130000FB6F89480936000109260000FBEE1E615
:10514000F0E080E88083108278940C94022790E04D
:105150000C9415270F931F93CF93DF93FC0180913D
:10516000A50C9091A60CB681A7813085218500976A
:10517000D1F14B2F5A2F632F722FDC01C0E0D0E00A
:1051800001C0D90112960D911D912D913C91159759
:10519000401751076207730758F4041B150B260BC1
:1051A000370B12960D931D932D933C9315970BC0BF
:1051B000401B510B620B730B2D913C911197ED012C
:1051C00021153105F1F6428353836483758320975B
:1051D00039F08881998191838083F983E8830DC0B8
:1051E0009183808306C011821082B283A3833483AB
:1051F0002583F093A60CE093A50CDF91CF911F912E
:105200000F9108951092A60C1092A50C0895E091AC
:10521000A50CF091A60C06C0E817F90739F001902B
:10522000F081E02D3097C1F780E0089581E0089586
:10523000CF93DF93EC010E940729811105C0CE01B5
:10524000DF91CF910C94AA28DF91CF910895CF924E
:10525000DF92EF92FF92CF93DF9380913A128823EF
:1052600009F43EC08FB7F894C0903A1210923A12E7
:105270008FBFD12CE12CF12C83E0CC0CDD1CEE1C7B
:10528000FF1C8A95D1F715C0C41AD50AE60AF70A99
:10529000888199819093A60C8093A50C8A859B8523
:1052A000019719F4CE010E94AA28EC85FD85CE0154
:1052B0001995C091A50CD091A60C209789F04A8130
:1052C0005B816C817D81C416D506E606F706E0F6A3
:1052D0004C195D096E097F094A835B836C837D836A
:1052E000DF91CF91FF90EF90DF90CF9008951092D3
:1052F000A70C1092A90C1092A80C089520E1FC01B3
:10530000A1E6B2E101900D922A95E1F70895662396
:1053100011F020E301C021E3FC0120838091A70C60
:105320008F5F8093A70C0895CF93DF93C091A80C53
:10533000D091A90C6091AA0C4091AB0C342F413153
:1053400008F030E17091BC0C8CEA9CE0FE01EF5754
:10535000FF4FA081B181A60FB11DFC010CC02081BF
:105360005C9125272D93772311F0208303C0508172
:105370005227508331962E2F281B231780F3630F5B
:105380006093AA0C431B4093AB0C442311F082E3BF
:1053900001C084E38883DF91CF9108950F931F9319
:1053A0008091A70C882309F4E9C08091A80C909102
:1053B000A90C009709F4D9C0FC012081243309F01D
:1053C0005CC0EF57FF4F2091AA0C0190F081E02DB7
:1053D000E20FF11D4091B00C5091B10C6091B20CF4
:1053E0007091B30C0091AC0C1091AD0C2091AE0CEF
:1053F0003091AF0C40275127622773270091B40CDE
:105400001091B50C2091B60C3091B70C4027512764
:10541000622773270091B80C1091B90C2091BA0C37
:105420003091BB0C40275127622773272091BC0C79
:10543000222359F04083518362837383FC012181CD
:105440002C5F21830E94252C0EC0A1E000811181D8
:1054500022813381401751076207730709F0A0E0EA
:105460006A2F0E94B42D1092A90C1092A80C809162
:10547000A70C81508093A70C81C0223309F07EC015
:1054800023E3FC01208361E672E18CEA9CE01F913A
:105490000F910C942D2D8081982F9053923008F00D
:1054A00066C0F093A90CE093A80C448550E060E03E
:1054B00070E04093AC0C5093AD0C6093AE0C7093C5
:1054C000AF0C4785508960E070E0BA01552744274A
:1054D000918992959F70492B4093B00C5093B10CD9
:1054E0006093B20C7093B30C4585568560E070E014
:1054F000BA015527442791899F70492B4093B40CDA
:105500005093B50C6093B60C7093B70C938545819E
:10551000568160E070E0BA0155274427492B40933B
:10552000B80C5093B90C6093BA0C7093BB0C8133D8
:1055300019F49181945091839F012E5F3F4FDF01B9
:10554000AF57BF4F4D915C91241B350B9181920F4A
:105550009093AB0C1092AA0C91E0803309F090E08C
:105560009093BC0C82E3808309C0E0E0F0E0CF01BF
:105570000E94042DFC01009709F08DCF1F910F911F
:1055800008950F931F93CF93DF93EC0110E0E0E0B9
:10559000F0E003E111C08081813171F4DF01AC578B
:1055A000BF4F2D913C911197215031092D933C9380
:1055B000232B09F4008311E0CF010E94042DFC018C
:1055C000009749F7112339F0CE01DF91CF911F9158
:1055D0000F910C941829DF91CF911F910F9108958D
:1055E000FF920F931F93CF93DF93EC0110E0E0E065
:1055F000F0E007E180E1F82E15C08081863191F45A
:10560000DF01AC57BF4F2D913C91119721503109CB
:105610002D933C93232B29F40083DF01AD57BF4F1B
:10562000FC9211E0CF010E94042DFC01009729F7A4
:10563000112341F0CE01DF91CF911F910F91FF9087
:105640000C941829DF91CF911F910F91FF9008952D
:105650001092BE0C1092BD0C82E390E0A0E0B0E08E
:105660008093C50C9093C60CA093C70CB093C80C44
:105670001092CA0C1092C90C80EF9AE29093CC0C55
:105680008093CB0C8AE090E0A0E0B0E08093D30C54
:105690009093D40CA093D50CB093D60C1092D80C48
:1056A0001092D70C81EC9AE29093DA0C8093D90C8B
:1056B00008950F931F93CF93DF93EC01FC01EA57FA
:1056C000FF4F208121FD05C08B8581FF02C080E155
:1056D00001C082E18883FE01ED57FF4F1082322F17
:1056E000317020FF03C08FEF9FEF04C080913D1207
:1056F00090913E129E838D8322FD06C0311104C01D
:10570000CE010E94A93104C08F85988998878F8324
:1057100080913B1290913C129A8789878091401228
:105720008F5F809340128C838F8198858E010C57F8
:105730001F4F019669F481E498E89B838A830E9455
:105740006D4D877099270196F8019183808307C07A
:1057500081E698E89B838A83F80111821082DF91A9
:10576000CF911F910F9108950F931F93CF93DF93C4
:105770008C010E94D92CEC010097E9F182E1888329
:10578000F80181818983FE01ED57FF4F10820E944D
:105790006D4DFE01EC57FF4F87709927019691835D
:1057A0008083FE01E957FF4F118210829E012E5F18
:1057B0003F4FF8014181C801029650E0BC01C90188
:1057C0000E94EF4E81E498E89B838A838FEF9FEFDE
:1057D00098878F83F801858196819E838D83809140
:1057E0003B1290913C129A878987809140128F5F7B
:1057F000809340128C83DF91CF911F910F91089578
:10580000CF93DF93FC01C781D08580E090E00FC08B
:10581000FC012081263159F434852981321307C0D7
:1058200027E120832A81EA57FF4F208304C00E948A
:10583000042D009769F7DF91CF91089527E1FC01CE
:105840002083ED57FF4F6083089522E1FC01208300
:105850000895E091BD0CF091BE0C833030F08330A0
:1058600031F0853031F481E205C080E003C080E290
:1058700001C081E0DF01AD57BF4F8C9385E180838C
:105880001092BE0C1092BD0C0895BF92CF92DF9281
:10589000EF92FF920F931F93CF93DF93C0E0D0E07E
:1058A00094E1E92E27E1F22E36E1D32E05E110E056
:1058B00043E1C42E51E1B52E60C088818331F9F0F7
:1058C00030F4803151F0823109F057C00BC085317E
:1058D00029F1873109F051C040C061E0CE010E943A
:1058E00087294BC0FE01EC57FF4F80819181892BA6
:1058F00021F0B8828DEC9CE02BC0C8823EC00E9493
:105900007A2581113AC0D093BE0CC093BD0CE882B9
:105910006981CE0102960E948D252FC0FE01ED57B0
:10592000FF4F8081811117C02D853E8580913B12EC
:1059300090913C122817390771F48B8580FF0BC0BA
:10594000D882FE01EC57FF4F118300838FEB9CE060
:105950000E94182912C0F88210C0CE010E94663140
:10596000FE01E957FF4F0190F081E02DCE01309705
:1059700019F40E94012D01C01995CE010E94042D39
:10598000EC01009709F099CFDF91CF911F910F9112
:10599000FF90EF90DF90CF90BF9008951092DB0CB6
:1059A0001092640D1092ED0D1092760E1092FF0E73
:1059B0000895EBEDFCE080E090E02081211117C01C
:1059C00049E8489F9001499F300D1124F901E552A3
:1059D000F34FDF011D924A95E9F780E18183DF01F2
:1059E000AF57BF4F2351334F2D933C9308C00196BF
:1059F000E757FF4F8530910501F7E0E0F0E0CF0178
:105A00000895FC0110820895009759F0FC01E757B2
:105A1000FF4F09C0E757FF4F8FE0E838F80719F448
:105A200006C0EBEDFCE080818823A1F302C0E0E03A
:105A3000F0E0CF010895FC01ED57FF4F1082EFE336
:105A4000F2E120812F5F2083FC01248720913B120B
:105A500030913C123687258708950C94C0250C940C
:105A60009429ECE8FFE020E03081332319F0315035
:105A7000308321E035963FE0EE3BF307A9F7211193
:105A80000C9418290895DC011796ED91FC91189754
:105A90002081213049F028F0223049F0233071F480
:105AA00009C00E94002C08C00E94383205C00E9424
:105AB000FB2302C00E94722481E0089580E00895D3
:105AC000ECE8FFE0108235968FE0EE3BF807D1F767
:105AD00084E690E0A0E0B0E08093C00F9093C10F07
