:100000000C94FF030C9430040C9430040C943004D2
:100010000C9430040C9430040C9430040C94300490
:100020000C9430040C9430040C9430040C94300480
:100030000C9430040C9475280C9430040C94300407
:100040000C9430040C9430040C9430040C94300460
:100050000C9430040C9430040C9430040C94EA4159
:100060000C9430040C94C0450C9440460C9430041D
:100070000C9430040C949A300C9430040C9430049A
:100080000C9430040C9430040C9430040C94300420
:100090000C94F8450C947F460C9430040C94A605FF
:1000A0000C9430040C9430040C9437270C9448279B
:1000B0000C9430040C9430040C9430040C943004F0
:1000C0000C9430040C9430040C9430040C943004E0
:1000D0000C9430040C9430040C9430040C943004D0
:1000E0000C9430040C9430040C9430040C943004C0
:1000F0000C94DF250C9430040C9430040C94BC2533
:100100000C9430040C9430040C9430040C9430049F
:100110000C9430040C9430040C9430040C9430048F
:100120000C9430040C9430040C9430040C9430047F
:100130000C943004893491349C3489348934893462
:100140005635DA3489342B353F35F03489348934E7
:100150006035DA3489348934893461726700626FBA
:100160006F7400656C73650066756E6374696F6E9D
:100170000068656C70006966006C7300706565707E
:10018000007072696E740070730072657475726EBF
:1001900000726D0072756E0073746F700073776912
:1001A000746368007768696C650000616273006160
:1001B0007200617700626175640062630062656568
:1001C0007000627200627300627700636F6E737416
:1001D0007261696E0064656C6179006472006477B5
:1001E0000065720065770066726565006765746B0F
:1001F0006579006765746E756D00696E620069737C
:10020000737472006D6178006D696C6C6973006D58
:10021000696E006F7574620070696E6D6F64650061
:100220007072696E74660070756C7365696E0072C9
:10023000616E646F6D007369676E00736E6F6F7AC5
:10024000650000687474703A2F2F6269746C617372
:10025000682E6E65740D0A536565204C4943454E02
:10026000534520666F72206C6963656E73650D0A75
:1002700050696E733A2064302D32322C61302D3249
:100280003220205661726961626C65733A20612D7B
:100290007A2C20333220626974206C6F6E6720697B
:1002A0006E7465676572730D0A4F70657261746F65
:1002B00072733A202B202D202A202F20282029203D
:1002C0003C203C3D203E203E3D203D3D20213D2028
:1002D0003C3C203E3E2021205E2026207C202B2BF3
:1002E000202D2D203A3D0D0A436F6D6D616E6473B4
:1002F0003A2000005B11A3108F10F112B60F091203
:100300006E0F900FE00FBA10F40F781065105410B4
:1003100040109C08310F61178B11FD0EEB10344219
:10032000111177112D10851918109B113711061016
:1003300062616E6E6572007072696E74202248652B
:100340006C6C6F2066726F6D2050696E6F636369AD
:100350006F21200A20285368656C6C2062617365E8
:1003600064206F6E204269746C6173682076322E4F
:10037000302028632920323031332042696C6C20D0
:10038000526F79290A222C667265652C2262797473
:1003900065732066726565220000000065787065EF
:1003A000637465642000756E657870656374656458
:1003B00020006D697373696E672000737472696ED3
:1003C000670020756E646572666C6F7700206F76CB
:1003D0006572666C6F77005E43005E42005E55009A
:1003E000657870006F70003A7862792B2D2A2F00A3
:1003F000656F6600766172006E756D6265720029C8
:1004000000736176656400656570726F6D003A3DDA
:1004100022003E20006368617200737461636B00A8
:10042000737461727475700069640070726F6D70BE
:1004300074000D0A46756E6374696F6E733A006FCF
:100440006F7073006172670066756E6374696F6EBA
:10045000000034444444400440444444444444443C
:1004600044440877478577787878111111111187FE
:100470008884422222222222222222222222222472
:1004800044724222222222222222222222222227B5
:10049000877426267C7C3D3D213D2B2B2D2D3A3D1E
:1004A0003E3D3E3E3C3D3C3C2F2F00868788898C5C
:1004B0008D93858B848AA6A199A2949B8F9C9A9DEB
:1004C000979F9596989E90ED04F204FB0402050D0B
:1004D0000518051E05280532053C054A0555055E2B
:1004E00005660574057E0588059305960541544506
:1004F000300041542B575750413D0041542B574138
:100500003D0041542B4E444843503D300041542B54
:100510004E444843503D310041542B574400415410
:100520002B4E535443503D0041542B4E43544350A3
:100530003D0041542B4E4D41433D3F0041542B441F
:100540004E534C4F4F4B55503D0041542B4E434C56
:100550004F53453D0041542B4E5345543D004154AB
:100560002B574D3D320041542B4448435053525673
:10057000523D310041542B4E535544503D0041549F
:100580002B4E435544503D0041542B4E535441543F
:100590003D3F0041540041542B5645523D3F000021
:1005A000000108090A00000000000000000000002F
:1005B000000000000F10110000000000000000010A
:1005C00002800810200440200104080204080102EF
:1005D0001080408010204001020408102040800557
:1005E00005020505050505040202020204040404CF
:1005F00004050404020202060606060606060600B4
:100600000000002300000029002C002F0032000011
:1006100000000000000000000000000000250000B5
:10062000002B002E0031003400000000000000000C
:1006300000000000000000240000002A002D00300F
:1006400000330000000000000000000000000C94D7
:1006500098080C942D100C9478100C94F33C0C9486
:100660009C340C9485190C9429130C94B60F0C949B
:100670009C040C94B4150C948B110C94F40F0C94F2
:100680008E190C9406070C9453450C94DA340C9490
:10069000EB100C943E470C9477450C9411110C947C
:1006A0003B3E0C94AF2A0C9481070C94913E0C9421
:1006B000310F0C9440100C9408050C9430320C94BB
:1006C00032070C947D070C940A400C9471270C940B
:1006D0006E0F0C94854A0C94483E0C94A63E0C94E4
:1006E00089340C9418100C940B3E0C94312D0C94FE
:1006F000E33F0C94753E0C94193E0C941F2D0C9402
:1007000040140C944C3E0C94FD0E0C9461170C9408
:1007100034420C949C080C9490150C942B350C943A
:10072000ED140C94560E0C9437450C94BA100C949E
:10073000900F0C9456350C9465100C945B110C942E
:10074000F1120C9477110C9470150C945D040C94B8
:10075000F0340C94333E0C94D64A0C9489450C9496
:1007600037110C9406100C94E13E0C949B110C94E0
:1007700024450C94A3100C94B6080C946D040C94AE
:100780008F100C94B7080C942F460C9409120C94FB
:100790008A3E0C9460350C9415400C94DE2A0C941F
:1007A0006E040C94D53E0C9406440C941C3E0C94A0
:1007B00049040C944A340C94163E0C940A230C946D
:1007C0003F350C944A400C9454100C9446340C94CD
:1007D000930B0C94E00F0C9440040C949134080596
:1007E00006077D07980830324634F33C0B3E0A403A
:1007F00015404A403E47D64A320781074A34112401
:100800001FBECFEFD1E8DEBFCDBF00E00CBF13E0CD
:10081000A0E0B2E0EEEAFEE900E00BBF02C0079004
:100820000D92A630B107D9F712E1A6E0B3E001C0FE
:100830001D92AF36B107E1F717E0C8EFD7E000E04F
:1008400006C022970109FE010BBF0E94504BCE3D0E
:10085000D10780E00807A9F70E9417450C94454F7F
:100860000C9400008DEC94E00C946A078DEC94E0FD
:100870000E947B0764EF71E085EB90E10C94B83C3B
:100880002091380330E080913903281B3109C901D8
:1008900008958091390390913803891750F4E82F17
:1008A000F0E0E65CFC4F208130E08F5F80933903FD
:1008B00002C02FEF3FEFC9010895E0913903809105
:1008C0003803E81730F4F0E0E65CFC4F208130E0BC
:1008D00002C02FEF3FEFC90108950895CF92DF9234
:1008E000EF92FF920F931F93CF93DF937C01CB0185
:1008F0008A0120911403222391F0EB016B01C40EB5
:10090000D51E09C06991D701ED91FC910190F0814C
:10091000E02DC7011995CC15DD05A1F703C0642FA3
:100920000E947D05C801DF91CF911F910F91FF902B
:10093000EF90DF90CF900895CF93DF931F92CDB7C4
:10094000DEB76983209114032223D1F0209115038F
:10095000203240F021E030E0FC013383228320E0AC
:1009600030E015C080911603E82FF0E0E95EFC4FFF
:10097000998190838F5F809316038093150305C040
:1009800061E0CE0101960E947D0521E030E0C901C1
:100990000F90DF91CF910895FC011382128248EEEF
:1009A00053E060E070E044835583668377838FE291
:1009B00092E0918380830895109239031092380356
:1009C00010921603109215030C940C0581E080938D
:1009D00014036093370310921603109215030895C1
:1009E0000C94E6040F93062F21E04091150367E174
:1009F00073E0809137030E942A051092160310922B
:100A00001503109214030F91089561E00C94F20401
:100A100088E093E00C94CC041092630381E080930F
:100A200061031092600361E080E10E94A64361E0EF
:100A30008FE00E94A643E9EBF0E080818E7F808307
:100A400080818D7F808388E48093B80085E48093E3
:100A5000BC0008950F93413208F046C090916303A3
:100A60009111FCCF92E090936303009361039FEF99
:100A700090935A0310925F0340935E03FB0164E678
:100A800073E0DB0102C091919D939A2F961B9417FE
:100A9000D0F31092620390916203880F892B8093A8
:100AA000620380916003813041F410926003809171
:100AB00062038093BB0085EC01C085EE8093BC008F
:100AC000222321F0809163038230E1F380915A0365
:100AD0008F3F61F080915A03803251F080915A0328
:100AE000803341F483E007C081E005C080E003C0AB
:100AF00082E001C084E00F910895613298F4209162
:100B00006303243089F460935C03FC0184E893E080
:100B1000DC0102C021912D932A2F281B2617D0F328
:100B200080E0089581E0089582E0089585ED809346
:100B3000BC008091BC0084FDFCCF1092630308953B
:100B400085EC8093BC001092630308951F920F926E
:100B50000FB60F9211240BB60F922F933F934F9322
:100B60005F936F937F938F939F93AF93BF93EF9315
:100B7000FF938091B900887F803609F49FC058F5B3
:100B8000883209F45BC090F4803109F452C038F423
:100B9000882309F4F8C0883009F0F9C04AC08831C8
:100BA00009F44CC0803209F0F2C05CC0803409F412
:100BB0006BC038F4803309F455C0883309F0E7C0BE
:100BC00054C0803509F454C0883509F462C08834B3
:100BD00009F0DDC0DAC0883909F4CBC0A8F4883741
:100BE00009F46CC038F4883609F468C0803709F01D
:100BF000CEC064C0883809F4BCC0803909F464C030
:100C0000803809F0C4C060C0803B09F48AC038F461
:100C1000803A09F46BC0883A09F0B9C082C0803CC0
:100C200009F4ABC0883C09F4A8C0883B09F0AFC008
:100C30008DC0809162038093BB0012C090915F03CE
:100C400080915E03981788F580915F03E82FF0E0AC
:100C5000EC59FC4F90819093BB008F5F80935F03B2
:100C600085EC88C080935A0390C080935A0356C085
:100C700080915F039091BB00E82FF0E0EC59FC4FAE
:100C800090838F5F80935F0390915F0380915E03F9
:100C90006DC080915F039091BB00E82FF0E0EC59AC
:100CA000FC4F90838F5F80935F038091610381117C
:100CB0006CC081E08093600384EA60C083E080932D
:100CC000630310925B03CCCF80915B03803208F00A
:100CD00050C080915B039091BB00E82FF0E0E85595
:100CE000FC4F90838F5F80935B03BACF80915B034F
:100CF000803230F4E0915B03F0E0E855FC4F108265
:100D00000E94960560915B03E091A403F091A50316
:100D100070E088EA93E0199510925B030E94A005A9
:100D200036C084E08093630310925D0310925C03ED
:100D3000E091A603F091A703199580915C038111BE
:100D400005C081E080935C031092840380915D0371
:100D5000E82FF0E0EC57FC4F90819093BB008F5F41
:100D600080935D0390915D0380915C03981708F474
:100D700077CF85E88093BC000AC085EC8093BC00E7
:100D80001092630304C010925A030E949605FF91CB
:100D9000EF91BF91AF919F918F917F916F915F91F3
:100DA0004F913F912F910F900BBE0F900FBE0F9060
:100DB0001F90189588EC93E00E94680780EC94E0FF
:100DC0000E94D24789EB94E00E94D24782EB94E0E4
:100DD0000E94D2478BEA94E00E94D24784EA94E0D2
:100DE0000C94D247CF93DF93EC010E943407CE01DD
:100DF00045960E94B73ECE0183960E942040C8537C
:100E0000DF4F19821882DF91CF9108950F9300E090
:100E100020E040E060E087EC94E00E94CA4A6CEC7D
:100E200072E084EA94E00E9443486CEC72E08BEA42
:100E300094E00E9443486CEC72E082EB94E00E94E4
:100E400043486CEC72E089EB94E00E9443486CEC00
:100E500072E080EC94E00E94434888EC93E00F91AC
:100E60000C94F2060C94DA06CF93DF93EC010E9407
:100E7000850785EB90E10E94923C61E084E10E944D
:100E8000A64360E084E10E946E4361E082E10E943B
:100E9000A64360E082E10E946E4361E081E10E942E
:100EA0006E4361E081E10E94A64361E089E00E9417
:100EB000A64361E089E00E946E4360E083E10E9406
:100EC0006E431A861986188A1F86DF91CF9108957E
:100ED0000C9489070E94810888E093E00E94DC045A
:100EE00064E670E080E090E00E94704284E10E943D
:100EF0001D3D0C94183D0C948A078DEC94E00C94E5
:100F000034078DEC94E00C94890721E0FC012283E6
:100F100008950895CF93DF93EC010E94EA268A8119
:100F2000882321F0DF91CF910C949F1DDF91CF9109
:100F300008950F931F93CF93DF931F92CDB7DEB722
:100F40008C01862F69830E9460256981F801608782
:100F500082EF9FE10F90DF91CF911F910F910C9441
:100F6000F74EDF92EF92FF920F931F93CF93DF9391
:100F7000EC017B018A01D22ECB010E943D30FC8224
:100F8000EB82C8010E9443301E830D838D2D0E9489
:100F90004425DF8281E00E943C256B817C8186EFC5
:100FA0009FE10E94094F6D817E8184EF9FE10E9445
:100FB000094F6F8183EF9FE10E94F74E60E0CE0101
:100FC000DF91CF911F910F91FF90EF90DF900C94E4
:100FD0009907EF92FF920F931F93CF93DF931F9286
:100FE0001F92CDB7DEB7CB0169837A830E946C294B
:100FF0006981E62E7A81F72E02EE1FE1F7016191F9
:101000007F01C8010E94F74E0F5F1F4F023FFFE1B3
:101010001F07A1F70F900F90DF91CF911F910F91B4
:10102000FF90EF900895CF92DF92EF92FF920F938F
:101030001F93CF93DF93CDB7DEB761970FB6F894C8
:10104000DEBF0FBECDBF7C01CC24C394D12CCC0E0F
:10105000DD1E02EE1FE1C8010E94E94EF6018193F8
:101060006F010F5F1F4F023FFFE11F07A1F78E01C6
:101070000F5F1F4FB801C7010E94E90780E1F80127
:1010800011928A95E9F786EF9FE10E94F14E8C015B
:101090008F3FFFEF9F0761F484EF9FE10E94F14EC5
:1010A000019631F483EF9FE10E94E94E8F3F81F07A
:1010B00083EF9FE10E94E94E282F84EF9FE1298B67
:1010C0000E94F14EAC012989B801C7010E94B10705
:1010D00082EF9FE10E94E94E8F3F21F0682FC70108
:1010E0000E94990761960FB6F894DEBF0FBECDBF80
:1010F000DF91CF911F910F91FF90EF90DF90CF90F4
:101100000895CF93DF93EC018A81882331F060E06A
:1011100072EC81E090E00E9467210E94E2260E942A
:1011200071300E94A825CE01DF91CF910C94130855
:1011300081E08093E40408950F931F93CF93DF938E
:1011400000D01F92CDB7DEB78E010E561241222776
:1011500017FD2095322FB801C9010F900F900F9005
:101160000F90DF91CF911F910F91089508951EBAAE
:1011700008958F929F92AF92BF92CF92DF92EF929B
:10118000FF92CF93DF93EC011092320A1092330A50
:101190001092340A1092350A80903B0B912CA12CAE
:1011A000B12C27C0F601EE0FFF1FEE0FFF1FE55C0D
:1011B000F54F60817181CE010E94704E009761F4FD
:1011C0006894C7F8C092320AD092330AE092340A87
:1011D000F092350A81E01BC08FEFC81AD80AE80ADE
:1011E000F80AC092320AD092330AE092340AF0929E
:1011F000350AC090320AD090330AE090340AF09059
:10120000350AC814D904EA04FB0464F280E0DF91D3
:10121000CF91FF90EF90DF90CF90BF90AF909F90D5
:101220008F900895CF92DF92EF92FF920F931F93CA
:10123000CF93DF937C01C0E3D3E027C0BE01C70199
:101240000E94344E6C01CE010E94444E8C010F5F0F
:101250001F4F0C0F1D1FCD2889F484EA8EBBC801D7
:10126000AA2797FDA095BA2F8093320A9093330A4C
:10127000A093340AB093350A81E00BC0C8010E94E4
:10128000444EEC012196C00FD11FFE0184918111C3
:10129000D5CFDF91CF911F910F91FF90EF90DF900D
:1012A000CF900895E0E0F0E019944091360A509113
:1012B000370A6091380A7091390AFC0140835183E2
:1012C0006283738320913A0A248308951F93CF93F6
:1012D000DF93182FCCE9D3E007C0CE010E94444E23
:1012E0000196C80FD91F11501111F7CFCE01DF9110
:1012F000CF911F91089587FD0EC0E82FE695F0E08D
:10130000EE5AFB4FE49180FF02C08E2F02C08E2F59
:1013100082958F70089584E008958EB38C3391F098
:101320008EB3843879F08EB3883861F08EB3893803
:1013300049F08EB38E3331F09EB381E0953819F0C9
:1013400080E0089581E00895982F90539A3048F0F6
:101350009153963030F0905E81E0963018F080E046
:10136000089581E00895982F80538A3038F0892FAE
:10137000992787FD90950E942C4E875508958AB530
:101380000E947B09E82FF0E0EE0FFF1FE25FFD4FA8
:101390000190F081E02D1994DF92EF92FF920F936C
:1013A0001F93CF93DF937C01EB01D42E1092320A6E
:1013B0001092330A1092340A1092350A24C0BE01EA
:1013C000C7010E94344E009719F1DD2011F097FDFE
:1013D00021C00091320A1091330A2091340A3091D1
:1013E000350A0F5F1F4F2F4F3F4F0093320A109364
:1013F000330A2093340A3093350ACE010E94444EBA
:101400000196C80FD91FFE0184918111D8CF03C066
:1014100081E001C080E0DF91CF911F910F91FF909B
:10142000EF90DF900895FC0121812053828181118A
:1014300002C0822F08958053FAE02F9F800D11245F
:101440000895EF92FF920F931F93CF93DF93082F8E
:101450008091AC05E82FF0E0EE0FFF1FE459FA4F42
:10146000C081D18160E00E94A643FC2EED2ECE010A
:101470000E94964219E00BC0602F61708091AC050C
:101480000E94A6438F2D9E2D0E94964206951150D4
:1014900099F761E08091AC050E94A643CE01880FC8
:1014A000991FDF91CF911F910F91FF90EF900C94B6
:1014B000964244E150E06FEF70E083E595E00C94D4
:1014C000694E8A3050F4E82FF0E0EE0FFF1FED5A1E
:1014D000FA4F8FEF9FEF91838083089520916905E4
:1014E000222369F0E091670524E0E29FF0011124D6
:1014F000E55DFA4F608371838283938308950C9432
:1015000070420C940F4F0F931F93CF93DF93C62F0E
:10151000D72F8C010C1B1D0B02C00E94810A980161
:101520002C0F3D1F6991C9016111F7CFDF91CF9158
:101530001F910F910C94810A0C94E94ECF93DF9385
:101540000E94590AC0E0D0E0CE010E949C0A8F3F61
:1015500021F06FEFCE010E94810A2196C03C8FE1FD
:10156000D80791F7DF91CF910895FF920F931F93C2
:10157000CF93DF93EC01CE010E949C0AF82E8FEFEF
:10158000F81651F08E010F5F1F4F6FEFCE010E94D2
:10159000810AE801F110EFCFCE01DF91CF911F91C9
:1015A0000F91FF900895FF920F931F93CF93DF93B6
:1015B000C62FD72F8C010C1B1D0B0AC00E949C0A42
:1015C00090E02F2D332727FD30958217930759F48C
:1015D00098012C0F3D1FF990C901F110EFCF0E9427
:1015E0009C0A91E0811190E0892FDF91CF911F91AA
:1015F0000F91FF9008950F931F93CF93DF938C016A
:101600000BC0CE010E949C0A8F3F71F0811103C074
:10161000E801229609C08E01E8012196CF3B8FE1B7
:10162000D8077CF3CFEBDFE1CE01DF91CF911F91A3
:101630000F910895CF93DF93EC0106C0CE010E9475
:101640009C0A8F3F39F02196CF3B8FE1D807B4F346
:10165000CFEFDFEFCE01DF91CF910895CF93DF93EE
:10166000EC0106C0CE010E949C0A8F3F39F42196FE
:10167000CF3B8FE1D807B4F3CFEFDFEFCE01DF919F
:10168000CF9108950F931F93CF93DF938C0180E048
:1016900090E00E942E0BEC018F3F2FEF920781F01C
:1016A000B8010E94D30A81110BC0CE010E94FB0A2F
:1016B0000E94FB0A8B3B2FE192075CF3CFEFDFEF39
:1016C000CE01DF91CF911F910F910895CF93DF93BA
:1016D000EC010E94420BAC01662757FD6095762F06
:1016E0004093320A5093330A6093340A7093350A58
:1016F00077FD03C083EA8EBB09C0CE010E941209A8
:10170000811104C080E88EBB80E001C08EB3DF9100
:10171000CF9108950E94420B97FD04C00E94B50A24
:101720000C94B50A08959091AC0591110CC0E0910C
:101730006A05F0916B05309709F01994682F8EEFC8
:1017400090E10C9489450C94210A5F926F927F92EC
:101750008F929F92AF92BF92CF92DF92EF92FF92C1
:101760000F931F93CF93DF93CDB7DEB7A0970FB63C
:10177000F894DEBF0FBECDBF480159015E2C611544
:1017800071058105910531F419823E0122E0620E56
:10179000711C16C08E010F5F1F4FC42ED12CE12C7F
:1017A000F12CA70196010E94004BF80161938F0173
:1017B0003F01B901CA01611571058105910589F7DC
:1017C00081149104A104B10439F1CE010196930171
:1017D000281B390BC901AA2797FDA095BA2F881A93
:1017E000990AAA0ABB0A08C0852D0E94930B31E012
:1017F000831A9108A108B108181419041A041B04CB
:101800009CF30AC0F30180818A3014F4805D01C02A
:10181000895C0E94930B03C08E010F5F1F4FF1E0A4
:101820006F1A71086016710668F7A0960FB6F894E3
:10183000DEBF0FBECDBFDF91CF911F910F91FF9003
:10184000EF90DF90CF90BF90AF909F908F907F9060
:101850006F905F900895EF920F931F9350E3E52EE2
:1018600000E010E0980142E00E94A50B1F910F914B
:10187000EF900895EF920F931F93E0E3EE2E00E0B8
:1018800010E0980140E10E94A50B1F910F91EF908D
:1018900008958F929F92AF92BF92EF920F931F93F2
:1018A000CF93DF9300D01F92CDB7DEB74B015C0121
:1018B00097FF17C08DE229833A834B835C830E9494
:1018C000930BB094A09490948094811C911CA11CC3
:1018D000B11C29813A814B815C8121503109410938
:1018E0005109E02E89019A014AE0C501B4010E9424
:1018F000A50B0F900F900F900F90DF91CF911F913C
:101900000F91EF90BF90AF909F908F9008958DE0D2
:101910000E94930B8AE00C94930BCF93DF93EC011E
:1019200002C00E94930B89918111FBCFDF91CF916F
:101930000895CF93DF930E946609EC01FE01219682
:101940008491882319F00E94930BF8CFDF91CF91F7
:1019500008950E94990C0C94870CCF93C0E00EC0A0
:1019600084E0C89FF0011124E55CF54F80819181EE
:101970000E948D0C80E20E94930BCF5F80913B0B05
:10198000C81770F3CF910C94870CCF93DF93C0E00E
:10199000D0E0CE018F739927892B59F40E94870CD0
:1019A000BE01705280E090E00E943A0C8AE30E94EF
:1019B000930BCE0187709927892B19F480E20E943E
:1019C000930BCE0183709927892B19F480E20E9432
:1019D000930BCE010E949C0A811102C08CE507C0C6
:1019E0008F3F11F48EE203C0803208F48EE50E942E
:1019F000930B2196C11580E2D80759F6DF91CF915C
:101A00000C94870CCF93DF93EC0121960E949C0AE3
:101A1000982F91509E3F20F40E94930BCE01F4CF5B
:101A2000DF91CF910895CF92DF92EF92FF920F93C3
:101A3000CF93DF93C3E5D5E0C12CD12C760188810B
:101A400099810196A1F000E220E030E0A901C701F0
:101A5000B6010E94490C8AE30E94930B80E20E9427
:101A6000930B888199810E94020D0E94870C229617
:101A70008FEFC81AD80AE80AF80A2AE0C216D10479
:101A8000E104F104E1F6DF91CF910F91FF90EF9027
:101A9000DF90CF900895CF93DF9380E090E00E9495
:101AA0002E0BEC01CF3F8FEFD80709F18CE10E949C
:101AB000990C80E20E94930BCE010E94020D80E2FD
:101AC0000E94930B8BE70E94930BCE010E94FB0AAE
:101AD000EC010E94020D8DE70E94930B8BE30E94A4
:101AE000930B0E94870CCE010E94FB0AD8CFDF9196
:101AF000CF910895CF93DF9380913A0A8130D9F442
:101B0000C091360AD091370ACC53DB40C837D10593
:101B100090F40E94870C03C08DE20E94930B2197E2
:101B2000CE3F8FEFD807C1F78EE50E94930BDF9170
:101B3000CF910C94870CDF91CF910895CF93DF93D1
:101B40001F921F92CDB7DEB71092AC056A838983CE
:101B50000E947A0D89810E94990C6A81662319F08E
:101B6000862F0E94A90C61E070E08BEE94E00E9449
:101B7000F34D65E00E949E0DCF92DF92EF92FF92AF
:101B8000CF93DF936A017B01E3E5F5E020E030E0ED
:101B9000419151914F3F5F4F01F5F901EE0FFF1F4A
:101BA000ED5AFA4F91838083E901CC0FDD1FCC0FF2
:101BB000DD1FFE01E55DFA4FC082D182E282F38231
:101BC0000E943442CD5FDA4F6C0D7D1D8E1D9F1D2E
:101BD000688379838A839B8308C02F5F3F4F2A30B5
:101BE0003105B1F687E10E94B90DDF91CF91FF90E9
:101BF000EF90DF90CF900895CF93DF9300D01F92A6
:101C0000CDB7DEB78EEF90E10E942445892B79F0A5
:101C10008EEF90E10E945345039749F486E00E94BD
:101C2000A90C61E070E08BEE94E00E94F34DCE01D0
:101C30008E569241C2971CF485E10E94B90D0F9017
:101C40000F900F900F90DF91CF9108954091190A56
:101C500024E0429FF0011124E95EF94F209115061E
:101C600030911606E217F30718F489E00E94B90DC7
:101C7000608371838283938341504093190A08954E
:101C80008DEF8093190A8BE09AE09093180A809365
:101C9000170A60E070E0CB010E94260EE7E1F6E053
:101CA000F0931606E093150610820895E09115064C
:101CB000F09116062091190A94E0299F90011124B1
:101CC000295E394FE217F30718F083E00E94B90D3F
:101CD0008193F0931606E09315060895CF93DF9352
:101CE000EC0102C00E94560E89918111FBCFDF9159
:101CF000CF910C94560E0F931F93CF93DF938C01CB
:101D000080E090E09C01200F311F203C3F41BCF45B
:101D10000E941A0BEC01CF3F8FEFD80781F0CE0164
:101D20000E942E0B8F3F2FEF920711F480EC9FE162
:101D30009C012C1B3D0B2017310724F303C081E1CC
:101D40000E94B90DCE01DF91CF911F910F9108959F
:101D500064E00E949E0DE091190AEF3F19F489E0BA
:101D60000E94A80EEF5FE093190A84E0E89FF0015B
:101D70001124E95EF94F6081718182819381089518
:101D80008091190A8F5FE091170AF091180A9081EB
:101D9000890F8093190A0E94AB0E70931606609308
:101DA00015060E94AB0E0E94AB0E7093180A60934A
:101DB000170A0895682F82E00E949E0D0F931F93CB
:101DC000E091170AF091180A008111812281338174
:101DD00006171707280739071CF48BE10E94DA0E53
:101DE000660F771F660F771FE61BF70B6081718107
:101DF000828193811F910F9108950F931F9361E04A
:101E000070E080E090E00E94DE0E6150710981E098
:101E100090E002C0880F991F6A95E2F7AA2797FD04
:101E2000A095BA2FE091170AF091180A0484F5855D
:101E3000E02D408551856285738584239523A623F3
:101E4000B72301E010E020E030E0892B8A2B8B2BB8
:101E500019F400E010E09801B801C9011F910F9139
:101E600008950F931F9360E070E0CB010E94DE0E97
:101E700016161706180619064CF461E070E080E0AB
:101E800090E00E94DE0ECB010E948D0C8EEF90E15F
:101E90000E942445892BD1F38EEF90E10E94534597
:101EA0008C01222717FD2095322FB801C9011F91FF
:101EB0000F910895E091170AF091180A90E0A0E0C0
:101EC000B0E04081518162817381481759076A07E8
:101ED0007B071CF48BE10E94DA0E08950F931F9389
:101EE00082E00E945A0F8091170A9091180AFC0113
:101EF0003497DC01189700811181228133810C9085
:101F000004C035952795179507950A94D2F7017067
:101F1000112722273327B801C9011F910F91089576
:101F20000F931F9382E00E945A0F8091170A90919D
:101F3000180AFC01389701E010E020E030E0008052
:101F400004C0000F111F221F331F0A94D2F7FC0197
:101F5000349780819181A281B381082B192B2A2B80
:101F60003B2BB801C9011F910F9108950F931F9347
:101F700082E00E945A0F8091170A9091180AFC0182
:101F8000389701E010E020E030E0008004C0000F4E
:101F9000111F221F331F0A94D2F700951095209528
:101FA0003095FC01349780819181A281B38108230F
:101FB00019232A233B23B801C9011F910F910895CA
:101FC00083E00E945A0FE091170AF091180A3C979B
:101FD00080819181A281B381892B8A2B8B2B11F077
:101FE0000C94900F0C94B60F81E00E945A0FE09170
:101FF000170AF091180A3497608171818281938168
:102000000E94704260E070E0CB01089581E00E9480
:102010005A0FE091170AF091180A34976081718184
:10202000828193810E946E0A60E070E0CB01089586
:1020300083E00E945A0F8091170A9091180AFC01C0
:102040003C972081318142815381FC013897DC012A
:10205000149760818C910C945A4182E00E945A0F2F
:102060008091170A9091180AFC013897DC011497A7
:1020700060818C910E946E4360E070E0CB01089516
:1020800082E00E945A0F8091170A9091180AFC0171
:102090003897DC01149760818D919C910E94810A90
:1020A00060E070E0CB01089581E00E945A0FE0915A
:1020B000170AF091180A3497808191810E949C0A36
:1020C000682F70E080E090E0089582E00E945A0F4F
:1020D0008091170A9091180AFC013897DC01149737
:1020E00060818C910E94A64360E070E0CB0108956E
:1020F0000F931F9381E00E945A0FE091170AF0910D
:10210000180A349780810E94DD438C01222717FD35
:102110002095322FB801C9011F910F91089582E0D7
:102120000E945A0F8091170A9091180AFC01389763
:1021300060817181FC01349780810E947E4060E063
:1021400070E0CB0108950F931F9381E00E945A0F16
:10215000E091170AF091180A349780810E94554047
:102160008C01222717FD2095322FB801C9011F913C
:102170000F910895CF93DF9383E00E945A0F20912F
:10218000170A3091180AF901B291A29192918291A5
:10219000E9012897488159816A817B8184179507D5
:1021A000A607B7070CF40BC0E9012C9748815981A9
:1021B0006A817B81481759076A077B072CF468817D
:1021C00079818A819B8104C0608171818281938140
:1021D000DF91CF910895CF93DF9382E00E945A0F51
:1021E0009091170A8091180AE92FF82FEF0128978C
:1021F000729162915291429188819981AA81BB81A9
:1022000084179507A607B7072CF460817181828136
:10221000938104C0688179818A819B81DF91CF910C
:102220000895CF93DF9382E00E945A0F9091170A8E
:102230008091180AE92FF82FEF0128977291629187
:102240005291429188819981AA81BB81481759078F
:102250006A077B072CF4608171818281938104C0BD
:10226000688179818A819B81DF91CF9108950F9355
:102270001F9381E00E945A0FE091170AF091180A0B
:10228000349780819181A281B381B7FD0CC001E0B8
:1022900010E020E030E0892B8A2B8B2B39F400E012
:1022A00010E0980103C00FEF1FEF9801B801C901BA
:1022B0001F910F9108950F931F9381E00E945A0F71
:1022C000E091170AF091180A349700811181228158
:1022D000338137FF07C030952095109501951F4F2A
:1022E0002F4F3F4FB801C9011F910F91089582E010
:1022F0000E945A0F8091170A9091180AFC01349796
:102300000190F081E02DDC0118978C91808360E0D2
:1023100070E0CB01089581E00E945A0FE091170A06
:10232000F091180A34970190F081E02D608170E0FF
:1023300080E090E00895CF92DF92EF92FF9281E0EB
:102340000E945A0F40912002509121026091220276
:1023500070912302C0902402D0902502E0902602C2
:10236000F0902702DB01CA0129E1B695A795979560
:1023700087952A95D1F78C0D9D1DAE1DBF1D37E0A9
:10238000440F551F661F771F3A95D1F7842795276D
:10239000A627B7278093200290932102A0932202C0
:1023A000B0932302BC01CD019F77E091170AF09111
:1023B000180A349720813181428153810E94224B37
:1023C000362F272FB701A601E9E176956795579536
:1023D0004795EA95D1F74151514462457142F7E082
:1023E000CC0CDD1CEE1CFF1CFA95D1F74C255D25AD
:1023F0006E257F2540932402509325026093260288
:1024000070932702632F722FFF90EF90DF90CF9091
:1024100008958F929F92AF92BF92CF92DF92EF92E8
:10242000FF920F931F93CF93DF9300D01F92CDB7EE
:10243000DEB783E00E945A0F0091170A1091180A24
:10244000F801389780809180A280B380F8013C9792
:102450006081718182819381A50194010E94F04A7B
:1024600028EE33E040E050E00E94004B69017A0121
:1024700060E271EA87E090E0A50194010E94004BC0
:102480002750310941095109F801349761E08081F1
:1024900029833A834B835C830E946E4329813A816E
:1024A0008901580181E0A81AB1081DC0E091170AFE
:1024B000F091180A349761E080810E94A643C80118
:1024C0000E949642E091170AF091180A349760E052
:1024D00080810E94A643C5010E949642E1E0CE1A87
:1024E000D108E108F108C114D104E104F104F1F6C6
:1024F00060E070E0CB010F900F900F900F90DF9194
:10250000CF911F910F91FF90EF90DF90CF90BF90F0
:10251000AF909F908F900895682F81E00E949E0D4C
:10252000803218F08EE00E948C120895CF92DF92D4
:10253000EF92FF920F931F93CF93DF9300D01F92E0
:10254000CDB7DEB76B017C01862F29833A834B839D
:102550005C830E94901229813A814B815C81C11475
:10256000D104E104F10451F4BA01A9018EEF90E124
:102570000E94BE46C12CD12C760124C08601000FDA
:10258000111F04591A4F60E472E48FE090E00E943A
:10259000004B23503109F8013183208361E08C2DF9
:1025A0000E946E4361E08C2D0E94A643F801808159
:1025B00091810E949642F801C080D180EE24D7FC20
:1025C000E094FE2CB601C7010F900F900F900F9072
:1025D000DF91CF911F910F91FF90EF90DF90CF90FF
:1025E000089582E00E945A0F8091170A9091180A6C
:1025F000FC0138972081318142815381FC0134975D
:1026000060817181828193810E94961260E070E006
:10261000CB010895CF93C82F0E949012C093AC05B0
:10262000CC23A9F0EC2FF0E0EE0FFF1FE459FA4F96
:1026300020813181232B59F46C2F70E080E090E0F1
:1026400020E835E240E050E0CF910C949612CF9113
:10265000089584E10E948C12CF92DF92EF92FF9254
:10266000CF93C82F0E94AB0E6B017C010E94AB0E72
:102670009B01AC01CE3509F4B7C0C8F4CB32B1F13F
:1026800048F4C63209F4ABC0CA32D1F1C53209F000
:10269000C6C042C0CF32C9F120F4CD3209F0BFC06C
:1026A0002AC0CC33F1F1CE3309F0B9C045C0C738E8
:1026B00009F475C078F4C43809F449C020F4CC3763
:1026C00009F0ADC087C0C53809F44CC0C63809F060
:1026D000A6C05EC0C93809F450C008F46EC0CA383C
:1026E00009F487C0CB3809F09AC08BC06C0D7D1DF2
:1026F0008E1D9F1D8DC06C197D098E099F0988C094
:10270000C701B6010E94F04A83C0A70196010E944A
:10271000224BCA01B9017CC0A70196010E94224B3D
:1027200077C061E070E080E090E02C153D054E053B
:102730005F050CF46DC04AC061E070E080E090E09D
:10274000C216D306E406F5060CF462C03FC061E091
:1027500070E080E090E0C216D306E406F5060CF0C7
:1027600057C034C061E070E080E090E02C153D057A
:102770004E055F050CF04CC029C061E070E080E0C0
:1027800090E02C153D054E055F0509F041C01EC0C7
:10279000611571058105910559F061E005C061E0A1
:1027A000232B242B252B29F4CD28CE28CF2809F440
:1027B00060E070E080E090E02BC061E070E080E0DD
:1027C00090E02C153D054E055F0511F160E070E0CD
:1027D000CB011EC06C297D298E299F2919C06C212F
:1027E0007D218E219F2114C06C257D258E259F255E
:1027F0000FC004C0660F771F881F991FCA94D2F7B5
:1028000007C004C09595879577956795CA94D2F7C8
:10281000CF91FF90EF90DF90CF900C94260E8AE03E
:102820000E948C1220913A0A8091360A9091370AC0
:10283000223039F0233041F0213051F4FC01808105
:1028400005C0FC01849102C00E949C0A8ABD0895C3
:102850008AE10E948C128091360A9091370AA091E9
:10286000380AB091390A0196A11DB11D8093360A2C
:102870009093370AA093380AB093390A0C94121433
:102880000F931F93CF93DF938AB590E00E942C4E55
:10289000082F80931A0A0E942B14CBE1DAE011E092
:1028A0000BC087E10E94B90D8AB590E00E942C4EC2
:1028B00089931F5F0E942B148AB590E00E94184EE6
:1028C000892B09F081C08AB58E3209F47DC08AB5A2
:1028D0008F3509F479C0E12FF0E0E65EF54F108204
:1028E000113099F4C02FDD27C7FDD095CE010E948D
:1028F000254E892B61F083E88EBBCE01815691096C
:10290000AA2797FDA095BA2F2AC0143088F5013662
:1029100011F0043669F520911B0A332727FD309505
:10292000205331092A30310518F580911C0A282FCF
:10293000332727FD3095205331092A30310510F017
:10294000811116C0013611F481E901C082E98EBB04
:102950008AE19AE00E94130A90E0A0E0B0E0809340
:10296000320A9093330AA093340AB093350A30C0E8
:1029700041E06AE571E08AE19AE00E94CC0988238F
:1029800049F0E091320AF091330AE954FB4FE491A7
:10299000EEBB1EC041E06BEA71E08AE19AE00E9462
:1029A000CC09811106C08AE19AE00E94B908882307
:1029B00019F08EE88EBB0CC08AE19AE0DF91CF91CE
:1029C0001F910F910C94660B123109F06DCF69CFF6
:1029D000DF91CF911F910F910895CF938AB590E029
:1029E000C097AA2797FDA095BA2F8093320A90939B
:1029F000330AA093340AB093350ACAE003C0C0E199
:102A000001C0C2E00E942B148AB590E00E942C4EB7
:102A10008ABDCA3091F48091320A9091330AA09114
:102A2000340AB091350A892B8A2B8B2B31F48AB565
:102A3000883729F38AB5823621F38AB590E0C097AA
:102A40000A9718F58AB580538ABD8AB58C1718F095
:102A500081E88EBB43C0EAB52091320A3091330A37
:102A60004091340A5091350AAC2FB0E00E94E54AFB
:102A70006E0F711D811D911D6093320A7093330A90
:102A80008093340A9093350ABDCFC03109F78AB5D7
:102A90008136F0F28AB58736D8F62AB58091320AA7
:102AA0009091330AA091340AB091350A34E0880F2E
:102AB000991FAA1FBB1F3A95D1F7820F911DA11D27
:102AC000B11D87559109A109B1098093320A9093EC
:102AD000330AA093340AB093350A94CFCF91089566
:102AE0008AB58EBB0C942B1410C08AB5882389F04C
:102AF0008AB58A3071F08AB58D3079F40AC01EBA71
:102B000008950E942B140E94BF098EB3863A69F380
:102B100008958AB58111F5CFF2CF0E942B14E5CF2D
:102B20008AB58EBB0E942B1440E082E994E0FC0140
:102B300054915523C1F00296319624913EB335133A
:102B400010C03AB532130DC0E42FF0E0E555FB4F4D
:102B5000E491EEBB0E942B148EB3863A21F40C94C0
:102B600074154F5FE4CF089502C00E942B148AB5FC
:102B70000E947B098823C9F30C94BF0980933A0A09
:102B80004093360A5093370A6093380A7093390A93
:102B900081110C9412140895E091170AF091180A0B
:102BA000662371F040855185628573854115510515
:102BB0006105710541F0FA0134962081318105C02B
:102BC0002481358102C020E030E0FC014081518148
:102BD0006281738184810C94BE15EF92FF920F93F2
:102BE0001F93CF93DF93EC011DE009E04AE0F42E40
:102BF0008AB5823241F4DF91CF911F910F91FF90FE
:102C0000EF900C942B148AB58C3589F50E942B1407
:102C10008AB5823769F018F48E3649F505C08437D5
:102C200029F0883721F506C0FABC21C00ABD1FC0B3
:102C30001ABD1DC00E942B148AB50E94A4098823C6
:102C4000A1F08AB50E94B309E82E0E942B148AB520
:102C50000E94A409882349F08AB50E94B30990E133
:102C6000E99E800D11248ABD02C084E109C08AB5A5
:102C7000FE0119950E942B148AB58111B9CF8CE001
:102C80000E948C12CF938EB38B3701F50E94BF093F
:102C9000C0E018C08EB38B3711F4CF5F11C08EB374
:102CA0008D3739F4C11103C0CF910C94BF09C150C5
:102CB00007C08EB3823221F486EB98E00E94ED15B6
:102CC0000E94BF098EB38111E5CF47C08EB38F3804
:102CD00019F08EB38E39A9F58EB38823B9F18EB36E
:102CE0008B33A1F18EB38B37A9F530C08EB38B3700
:102CF00019F40E94421602C00E94BF098EB3823AA4
:102D000061F50E94BF09BFCF8EB3883211F4CF5F47
:102D100015C08EB3893221F4CC2331F2C1500EC0DC
:102D20008EB3823229F486EB98E00E94ED1506C03E
:102D3000C11104C08EB38B3309F4B6CF0E94BF0912
:102D400001C0C0E08EB38111DFCF07C08EB3811107
:102D5000CDCF03C00E94BF09BFCFCF910895682F88
:102D600080E00E949E0D6F927F928F929F92AF9211
:102D7000BF92CF92DF92EF92FF920F931F93CF9368
:102D8000DF93CDB7DEB763970FB6F894DEBF0FBE03
:102D9000CDBF0E94BF098EB3803809F467C08EB3DF
:102DA000833A09F463C08EB3843A09F45FC08EB3EA
:102DB000853A09F058C05AC08BE70E94AF16C09000
:102DC000360AD090370AE090380AF090390A460166
:102DD00056010E944216E091360AF091370A319767
:102DE0008F01AE16BF06D8F066246394712C6C0E6A
:102DF0007D1EF30101900020E9F75F0181E0A81A30
:102E0000B108A618B708C801881999098A0D9B1D31
:102E100002960E947B0E4C0197FF06C020C031979E
:102E200081818D37E9F6E0CFB3010E94830AC501A5
:102E30000196880D991DC81AD90A08C07C012FEF88
:102E4000E21AF20A60810E94810AC701F601E80FC6
:102E5000F91FE017F10790F360E00E94810A80E11A
:102E60000E94A90C16C087E10E948C1243E150E039
:102E70006AE17AE0CE0101960E948E4ECE01019663
:102E80000E948A0B0E94BF098EB38B3709F497CF3B
:102E900093CF63960FB6F894DEBF0FBECDBFDF9120
:102EA000CF911F910F91FF90EF90DF90CF90BF9047
:102EB000AF909F908F907F906F90089560E00E94F8
:102EC0009E0DCF92DF92EF92FF920F931F93CF93BD
:102ED000DF9300D01F92CDB7DEB760E070E0CB018A
:102EE0000E94DE0E16161706180619064CF461E04D
:102EF00070E080E090E00E94DE0ECB010E948D0C1D
:102F000020E030E0A9016AE0C62ED12CE12CF12CA2
:102F10008EEF90E129833A834B835C830E942445A2
:102F200029813A814B815C81892B91F38EEF90E16D
:102F30000E9453458C0129813A814B815C818D30FF
:102F4000910509F455C08A30910509F451C0FC017E
:102F5000F097EA30F10580F4AAE0B0E00E94E54A7B
:102F60009B01AC01CF01AA2797FDA095BA2F280F8E
:102F7000391F4A1F5B1F30C08D32910541F45095B7
:102F80004095309521953F4F4F4F5F4F25C088307A
:102F9000910519F08F379105E9F4211531054105A7
:102FA0005105D1F0CA01B901A70196010E94224B37
:102FB00088E029833A834B835C830E94930B80E2F1
:102FC0000E94930B88E00E94930B29813A814B81E8
:102FD0005C8102C087E001C0802F29833A834B8344
:102FE0005C830E94930B29813A814B815C8190CF55
:102FF00029833A834B835C830E94870C29813A8121
:103000004B815C81B901CA010F900F900F900F9016
:10301000DF91CF911F910F91FF90EF90DF90CF90B4
:1030200008958F929F92AF92BF92CF92DF92EF92CC
:10303000FF920F931F93CF93DF9300D01F92CDB7D2
:10304000DEB7E82EF62E60E070E0CB010E94DE0EC7
:103050008B019C016E2D70E080E090E00617170751
:103060002807390734F40E94870C00E010E098012B
:1030700039C10E94DE0E6B012BC1853209F01EC1E1
:10308000D60111968C91803331F0BFEFCB1ADB0A59
:10309000E0E2EE2E05C0E2E0CE0ED11C70E3E72E9A
:1030A000D6018C918A3229F0F60120E030E0A901A6
:1030B0001CC06F2D70E080E090E0F3940E94DE0E63
:1030C0009B01AC01BFEFCB1ADB0A19C0AAE0B0E04C
:1030D0000E94E54A9B01AC01C801AA2797FDA09573
:1030E000BA2F280F391F4A1F5B1F6F01019111274B
:1030F00007FD1095005311090A30110538F3F60148
:1031000080818436A9F064F4823609F449C00CF059
:103110008AC0833209F4ABC0853209F0C5C0A5C0AE
:10312000853751F18837B1F0833709F0BDC04AC007
:103130006F2D70E080E090E029833A834B835C83BD
:103140000E94DE0E0E2D29813A814B815C810E9406
:10315000490CB2C06F2D70E080E090E029833A8383
:103160004B835C830E94DE0E29813A814B815C8116
:1031700089019A0140E111C06F2D70E080E090E07C
:1031800029833A834B835C830E94DE0E29813A8136
:103190004B815C8189019A014AE00E94A50B8CC099
:1031A0006F2D70E080E090E029833A834B835C834D
:1031B0000E94DE0E29813A814B815C8189019A014E
:1031C00042E0EBCF6F2D70E080E090E029833A83FE
:1031D0004B835C830E94DE0E162F972FFB0101901C
:1031E0000020E9F73197E61BF70B29813A814B81E3
:1031F0005C8149015A018E1A9F0AA108B1080AC0D0
:1032000080E299830E94930BF1E08F1A9108A10844
:10321000B1089981181419041A041B048CF3812F26
:103220000E948D0C49C08F2C912CA12CB12CC50172
:10323000B40129833A834B835C830E94DE0E862F80
:103240000E94930B29813A814B815C812150310985
:1032500041095109DA01C9010196A11DB11D1816D4
:1032600019061A061B061CF327C085E222C06F2D23
:1032700070E080E090E029833A834B835C830E9476
:10328000DE0E162F29813A814B815C812115310593
:103290004105510529F07727882799270E94961222
:1032A000812F0E940A1308C085E20E94930BD60169
:1032B0008C910E94930B0CC0F39407C08A3019F4D0
:1032C0000E94870C02C00E94930BBFEFCB1ADB0A4F
:1032D000F60180818111D1CE1092AC050F2D10E046
:1032E00020E030E0B801C9010F900F900F900F90CF
:1032F000DF91CF911F910F91FF90EF90DF90CF90D2
:10330000BF90AF909F908F90089562E081E00C9401
:1033100011180E94930B80E00E945E170E942B14EC
:103320008AB590E0A0E0B0E08093320A9093330A2F
:10333000A093340AB093350A81E88EBB0E942B1407
:103340008AB5873219F087E20E9489190C942B14F0
:10335000E091B40BF091B50B9BE0E23BF90748F428
:103360008193F093B50BE093B40B0E94930B81E033
:10337000089587E00E94930B80E00895CF93DF9338
:10338000EC01FE01219684918F3F69F0811106C006
:10339000FE018491882339F080E202C0803689F3EF
:1033A0000E94930BEECFDF91CF9108950F93CF93AF
:1033B000DF931F92CDB7DEB78EB3833281F40E94C4
:1033C000BF090E945F209EB39A3319F08AE30E94DE
:1033D000891969830E94BF0989810E940A138EB3EB
:1033E000823229F483E99BE00E94ED1570C08EB310
:1033F0008B3309F47DC08EB381118CC079C00E94DB
:10340000BF098EB38338E9F58091320A9091330A6F
:10341000A091340AB091350A87319105A105B10513
:1034200059F460912D0A70912E0A80912F0A909183
:10343000300A0E943A0C4BC081309105A105B105BC
:1034400059F460912D0A70912E0A80912F0A909163
:10345000300A0E942B0C3BC088319105A105B105B3
:1034600029F480912D0A0E94930B31C04297A10547
:10347000B10569F580912D0A90912E0A0E948D0C5C
:1034800026C08EB3813220F41FC08EB30E94930BEE
:1034900080912D0A90912E0AA0912F0AB091300AA6
:1034A000AC01BD01415051096109710940932D0AD8
:1034B00050932E0A60932F0A7093300A181619063B
:1034C0001A061B0614F303C08BE00E94AF160E947D
:1034D000BF090EC060912D0A70912E0A80912F0AAB
:1034E0009091300A00E020E030E0A9010E94490CF0
:1034F0008EB38B33A9F08EB3882391F014C00E9451
:10350000BF098EB38B3319F08EB3811111C01092A5
:10351000AC0512C00E9436208EB38A33D9F66FCF25
:103520000E94870CF4CF8EB38C3209F045CFE7CFE1
:1035300080E20E94930B40CF0F90DF91CF910F91CB
:103540000895CF92DF92EF92FF920F931F93CF9344
:10355000DF9300D01F921F92CDB7DEB70E94FC0D03
:103560008EB38039E9F48E010F5F1F4FC8010E94AE
:103570005509C12CD12C760160E0C8010E94CC1500
:103580000E94BF090E945F20672B682B692BE9F01E
:103590000E94A11A6B017C018EB3803A69F703C1C6
:1035A0008EB38F3801F50E94BF090E945F20672B00
:1035B000682B692B69F00E94A11A6B017C018EB304
:1035C000823A09F0F0C00E94BF090E944216EBC087
:1035D0000E9442168EB3823A09F0E2C00E94BF09EF
:1035E0000E94A11A32C08EB38B37C1F40E94BF096A
:1035F000C12CD12C76018EB3811105C08EB38D37CD
:1036000009F0D1C008C08EB3803AC1F38EB38D37B4
:1036100009F0CFC0F3CF0E94BF09C5C08EB38F3968
:1036200079F40E94BF098EB3882321F08EB38B33C7
:1036300009F0C4C0C12CD12C760180EA8EBBB3C086
:103640008EB38E3929F40E9489216B017C01ABC0B5
:103650008EB3843919F40E94B316A2C08EB3863992
:10366000B1F50E94BF098EB3833A09F4ACC08EB3A2
:10367000843A09F4A8C08EB3853A09F0ABC0A3C060
:103680006091320A7091330A8091340A9091350A20
:103690000E94260E0E94BF090E945F20C0902D0A42
:1036A000D0902E0AE0902F0AF090300A0E94AB0EC4
:1036B000DC01CB01B701A60107C040E050E0BA0130
:1036C0008091320A9091330A0E94BC0D69C08EB37A
:1036D0008839B9F40E94BF098EB38A3219F40E9466
:1036E000590A28C08EB38B3309F477C08EB3882370
:1036F00009F473C077C08091670577C00E94590AAA
:103700004FC08EB38539C9F40E94BF098EB3833A86
:1037100029F48AE19AE00E948A0B0CC08EB38A32A7
:1037200019F40E949E0A06C08EB3803819F087E112
:103730000E94AF160E94BF0933C08EB38C3929F4A2
:103740000E94BF090E944B0D2BC08EB3893919F41A
:103750000E94520925C08EB3873929F40E94BF09FF
:103760000E94130D1DC08EB38A3929F40E94BF092F
:103770000E94C50C15C08EB38B3929F40E94BF0975
:103780000E944E210DC08EB38D3929F40E94BF09CD
:103790000E94D61905C08EB38B3311F00E943620DB
:1037A000C12CD12C76018EB38B3311F50E94BF0949
:1037B0001FC00E94A11A6B017C011DCF0E945F20D7
:1037C0006B017C013ACF0E94BF098EB38C3209F0A5
:1037D00074CF56CF87E10E948C12809169058111C8
:1037E0008ACF8CCF0E945F20862F0E94610AD8CF9B
:1037F000B601C7010F900F900F900F900F90DF91BF
:10380000CF911F910F91FF90EF90DF90CF9008958F
:103810000F931F9300E010E098018EB3882341F0CE
:103820008EB3803A29F00E94A11A8B019C01F5CF3A
:10383000B801C9011F910F910895CF92DF92EF92C5
:10384000FF92CF93DF93CDB7DEB72D970FB6F894E5
:10385000DEBF0FBECDBF8F83488759876A877B87BE
:103860003D872C87CE0101960E9455098EB38E8329
:103870006091320A7091330A8091340A9091350A2E
:103880000E94260E80913A0A81111BC08BEE94E0B3
:103890000E94D14D0197A9F40E94590A1092AC05DB
:1038A0000E94400E10923A0A1092360A1092370A7D
:1038B0001092380A1092390ACC24CA94DC2C760172
:1038C00020C02C853D85488559856A857B858F81FB
:1038D0000E94BE150E94BF090E94081C6B017C015A
:1038E00061E0CE0101960E94CC158E818EBB0E94B4
:1038F000AB0E6093320A7093330A8093340A90932C
:10390000350AB601C7012D960FB6F894DEBF0FBE7B
:10391000CDBFDF91CF91FF90EF90DF90CF900895D2
:10392000AC01662757FD6095762F20E030E081E0FE
:103930000C941D1CCF93DF93CDB7DEB763970FB602
:10394000F894DEBF0FBECDBF88E10E94660942E158
:1039500050E0BC01CE0101960E944D4ECE01019671
:103960000E94660B882329F0CE0101960E94901CCC
:1039700003C083E10E94990C63960FB6F894DEBFF2
:103980000FBECDBFDF91CF9108958CE39BE0909364
:10399000B50B8093B40B0E949A1C04C08EEF90E18B
:1039A0000E9453458EEF90E10E942445892BB1F788
:1039B00008958D3011F08A3061F40E94870CE091F7
:1039C000B40BF091B50B10828CE39BE00E94901C2D
:1039D00007C0833039F486E00E94A90C0E94590A7E
:1039E0000C94C51C823041F481E0909168059111DE
:1039F00080E0809368050895883011F08F37F1F4E6
:103A00008091B40B9091B50B8C539B4019F487E0D7
:103A10000C94930B88E00E94930B80E20E94930B1E
:103A200088E00E94930BE091B40BF091B50B3197B5
:103A3000F093B50BE093B40B108208958531A1F497
:103A400088E00E94A90C0E949A1C8CE39BE00E94D3
:103A50008D0CECE3FBE001900020E9F73197F09347
:103A6000B50BE093B40B08950C94A8190F931F9312
:103A7000CF93CAE0809167058F5F8A3018F48093F6
:103A8000670502C010926705E0916705F0E0EE0F50
:103A9000FF1FED5AFA4F80819181019609F448C0C9
:103AA0000E943442E0916705F0E0DF01AA0FBB1FDE
:103AB000AA0FBB1FAD5FBA4F0D911D912D913C9187
:103AC000601B710B820B930B97FD32C081E08093DA
:103AD0006905EE0FFF1FED5AFA4F808191810E9418
:103AE000FB0AAC01662757FD6095762F20E030E099
:103AF00083E00E941D1C0E9434422091670544E02F
:103B0000249F90011124F901ED5FFA4FD901A55DC1
:103B1000BA4F0D911D912D913C91600F711F821F25
:103B2000931F60837183828393831092690503C01E
:103B3000C15009F09FCFCF911F910F9108958EEF43
:103B400090E10E942445892B31F08EEF90E10E9494
:103B500053450E94D91C0C94361DCF93DF9300D09F
:103B60001F921F92CDB7DEB749835A836C837D8342
:103B70008B830E947120E091170AF091180A24812A
:103B8000358149815A816C817D818B810E941D1C08
:103B90006C837D838B8399830E94C00E6C817D81B1
:103BA0008B8199810F900F900F900F900F90DF9164
:103BB000CF910C94260EEF92FF920F931F93CF9309
:103BC000DF9300D0CDB7DEB71091320A5091330A9F
:103BD0008091340A9091350A0EB359838A839B836E
:103BE0000E94BF0959818A819B81033809F443C02F
:103BF000E8F40A3209F498C150F4063209F475C1A8
:103C0000083209F431C1013209F0A2C15CC10D32A0
:103C100009F444C120F40B3209F09AC1D5CF0E3714
:103C200009F448C1013809F093C122C0023909F4EE
:103C3000BDC078F40D3809F4EBC020F40C3809F05D
:103C400087C1D0C00E3809F478C0013909F080C1AD
:103C50009EC0033A09F47DC020F4013A09F078C10E
:103C6000EFC0043A09F480C0053A09F071C18AC076
:103C7000612F752F62C18EB3E12EF12C8D3381F44B
:103C80000E94BF090E945F20F701EE0FFF1FEE0F99
:103C9000FF1FE355FA4F608371838283938342C091
:103CA0008EB38C38B9F48701000F111F000F111F5C
:103CB00003551A4FF80160817181828193810E94BE
:103CC000260EF80180819181A281B3810196A11D08
:103CD000B11D19C08EB38D3829F58701000F111F52
:103CE000000F111F03551A4FF80160817181828105
:103CF00093810E94260EF80180819181A281B38177
:103D00000197A109B10980839183A283B3830F90A6
:103D10000F900F90DF91CF911F910F91FF90EF9037
:103D20000C94BF0984E0189FF0011124E355FA4F69
:103D3000608171818281938100C1812F0F900F90EA
:103D40000F90DF91CF911F910F91FF90EF900C9406
:103D50000E21812F952F0E94FB0AAC01662757FD8B
:103D60006095762F83E003C0412FBC0182E00F9065
:103D70000F900F90DF91CF911F910F91FF90EF90D7
:103D80000C94AD1D40E050E0BA0184E0F0CF8EB35A
:103D90008D3341F40E94BF090E945F20812F0E9451
:103DA0007E400EC0812F0E94554016C08EB38D33C9
:103DB00081F40E94BF090E945F20812F0E94A643C8
:103DC00060912D0A70912E0A80912F0A9091300AED
:103DD000B4C0812F0E94DD43BC01882777FD809508
:103DE000982FABC08EB3833811F08DE044C0E091C2
:103DF000320A84E0E89FF0011124E355FA4F608114
:103E00007181828193816F5F7F4F8F4F9F4F13C06E
:103E10008EB3833851F7E091320A84E0E89FF001D5
:103E20001124E355FA4F6081718182819381615041
:103E300071098109910960837183828393832BC007
:103E40008EB3883211F088E20DC00E94BF090E9433
:103E50005F200E94DE0E0E94260E8EB3893209F486
:103E600056CF89E20E9489190E9436208091310A3A
:103E7000813819F08EE00E94AF168EB3893219F0A6
:103E80008FE00E94DA0E60912D0A70912E0A8091C7
:103E90002F0A9091300A0E94260E39CF0E94DB1D16
:103EA0000E94AB0E90958095709561957F4F8F4FD6
:103EB0009F4F43C00E94DB1D0E94AB0E6095709522
:103EC000809590953AC00E94DB1D0E94AB0E8B013D
:103ED0009C0161E070E080E090E0012B022B032B5D
:103EE00061F160E070E0CB0128C08EB3833879F4D3
:103EF0006091320A7091330A660F771F660F771F41
:103F000063557A4F882777FD8095982FC4CF8EB35D
:103F1000833A09F06ACF6091320A7091330A809136
:103F2000340A9091350AB7CF0E94DB1D0E94AB0E78
:103F3000FB01608170E080E090E00F900F900F90A7
:103F4000DF91CF911F910F91FF90EF900C94260E6F
:103F50008EE00E948C12CF93DF931F92CDB7DEB715
:103F60000E94DB1D8EB38A3231F08EB38F3219F08E
:103F70008EB3853251F48EB389830E94BF090E94AB
:103F8000DB1D89810E942C13EDCF0F90DF91CF9123
:103F90000895CF93DF931F92CDB7DEB70E94AB1F7A
:103FA0008EB38B3219F08EB38D3251F48EB3898378
:103FB0000E94BF090E94AB1F89810E942C13F0CF81
:103FC0000F90DF91CF910895CF93DF931F92CDB7DC
:103FD000DEB70E94C91F8EB38B3819F08EB38A38B2
:103FE00051F48EB389830E94BF090E94C91F898141
:103FF0000E942C13F0CF0F90DF91CF910895CF93B3
:10400000DF931F92CDB7DEB70E94E41F09C08EB3C5
:1040100089830E94BF090E94E41F89810E942C139A
:104020000E948D098111F3CF0F90DF91CF910895F8
:10403000CF93DF931F92CDB7DEB70E94FF1F8EB3E1
:10404000863231F08EB38C3719F08EB38E3551F441
:104050008EB389830E94BF090E94FF1F89810E943D
:104060002C13EDCF0F90DF91CF910895CF93DF9375
:104070001F92CDB7DEB70E9418208EB3863889F024
:104080008EB3873871F081E88093310A0E94AB0EBD
:1040900060932D0A70932E0A80932F0A9093300A12
:1040A0000AC08EB389830E94BF090E9418208981AB
:1040B0000E942C13E2CF0F90DF91CF9108950E94C0
:1040C00036208091310A813819F08EE00E94AF16B7
:1040D00060912D0A70912E0A80912F0A9091300ADA
:1040E0000895EF92FF920F931F93CF93DF93609108
:1040F000170A7091180A882777FD8095982F0E94DB
:10410000260E60E070E0CB010E94260E609115063D
:1041100070911606882777FD8095982F0E94260EAD
:104120008AE19AE00E946E0EC091190A84E0C89F4D
:10413000E0011124C95ED94F60E070E0CB010E941C
:10414000260E8EB3883209F059C08E01EE24E39416
:10415000F12C0E94BF098EB3893209F045C040C0DE
:104160006091150670911606882777FD8095982F27
:104170000E94260E86E59EE00E94ED1580E00E94DA
:10418000560E0E94BF09A701F801008002C0440F2B
:10419000551F0A94E2F7662757FD6095762F8885AC
:1041A0009985AA85BB85842B952BA62BB72B888751
:1041B0009987AA87BB8704C00E945F200E94260EB1
:1041C000F80180819181A281B3810196A11DB11D69
:1041D00080839183A283B3838EB38C3209F4B9CFE9
:1041E0008EB3893229F007C08EB381110CC0F8CF8D
:1041F0000E94BF0903C08FE00E94AF16D093180A37
:10420000C093170A04C08EB38232B1F6A9CFDF91F2
:10421000CF911F910F91FF90EF9008950F931F93EF
:10422000CF93DF9300D01F92CDB7DEB787FF0AC0D0
:104230008F7724E0829FF0011124E55CF54F028125
:10424000138109C0E82FF0E0EE0FFF1FEC50FD4F87
:10425000859194918C010E947120F80119956983D0
:104260007A838B839C830E94C00E69817A818B81C3
:104270009C810F900F900F900F90DF91CF911F9125
:104280000F910C94260E20E030E047E353E06627C0
:1042900057FD6095762F82E00C941D1C0E944321EF
:1042A00083E492E00E94BE198AE591E00E94BE1963
:1042B00089E10E94990C8BEA91E00E94BE190E944C
:1042C000870C0E94AD0C0E94870C0C944B0DAB0127
:1042D000BC018EEF90E10E94BE460E94590A0E94E6
:1042E000400E0E94432186E10E94660947E750E0A4
:1042F000BC018CE39BE00E944D4E8CE39BE00E944E
:10430000660B882321F08CE39BE00E94901C0C94A8
:10431000C51CCF92DF92EF92FF920F931F93CF9322
:10432000DF93CDB7DEB729970FB6F894DEBF0FBE87
:10433000CDBFC090320AD090330AE090340AF0909A
:10434000350A0EB30E94BF090E945F2080912D0A9A
:1043500090912E0AA0912F0AB091300AB7FF08C0A1
:1043600010922D0A10922E0A10922F0A1092300AE3
:1043700010912D0A8EB38B3719F08BE70E948919A3
:104380000E94BF0903C08EB38D37E9F4112339F0C1
:104390008EB38823E1F18EB38D37B9F438C00E9413
:1043A000A11A2EB3222379F12EB32D3709F52BC094
:1043B0006E837F83888799870E94BF096E817F8182
:1043C0008885998533C01150E1CFCE0101960E94B6
:1043D00055090EB3C090320AD090330AE090340AE7
:1043E000F090350A0E9442168EB38111CCCFCECF09
:1043F0006E837F83888799870E9442166E817F81B2
:1044000088859985CECF2EB32D3781F4D1CF60E04A
:10441000CE0101960E94CC150EBBC092320AD092FA
:10442000330AE092340AF092350AB9CF29960FB6D2
:10443000F894DEBF0FBECDBFDF91CF911F910F91DA
:10444000FF90EF90DF90CF900895CF93DF93E6EB4E
:10445000FBE0CAEBDBE0A0E0B0E021853285232B56
:10446000B1F0208131812817390789F42281338105
:104470002617370761F42881241309C08BE08A9F2F
:1044800090018B9F300D11242A54344F08C011968F
:104490003B962B96A530B10501F720E030E0C9012D
:1044A000DF91CF910895EF92FF920F931F93CF93D7
:1044B000DF938C01E62EF42E0E94C72CEC010097AE
:1044C000B9F10E94092D8981885F8983FE01E9572E
:1044D000FF4F11821082FE01EA57FF4F84E0808374
:1044E000D80115968D919C911697988B8F87FE0118
:1044F000EF57FF4F0190F081E02D83E080838D9195
:104500009C9111979283818312968D919C91139720
:104510009483838314968C918583E682F782CE01FF
:10452000DF91CF911F910F91FF90EF900C94472B4B
:10453000DF91CF911F910F91FF90EF900895FF921F
:104540000F931F93CF93DF938C01F62E0E94C72CFD
:10455000EC01009771F10E94092D8981895F89839F
:10456000FE01E957FF4F118210828B8584608B8793
:104570008FEF9FEF988B8F87FE01EF57FF4F0190D2
:10458000F081E02D82E08083D8018D919C9111977C
:104590009283818312968D919C9113979483838348
:1045A00014968C918583F682CE010E94472B81E080
:1045B00001C080E0DF91CF911F910F91FF9008958E
:1045C000CF93DF93EFEBFBE080E090E0208131813F
:1045D000232B51F42BE0289FE001299FD00D1124BB
:1045E000CA54D44F49F412C001963B9685309105C8
:1045F00069F7C0E0D0E00AC01F82188688EE93E019
:104600009A8789878DEE9BE00E940629CE01DF9173
:10461000CF9108959F92AF92BF92CF92DF92EF9287
:10462000FF920F931F93CF93DF936C01E12CF12C3A
:10463000B12C8BE0A82EAE9CE001AF9CD00D1124D4
:10464000CA54D44F29853A852536310538F0245689
:1046500031093A872987BB24B39431C01A86198659
:1046600028813981809135129091361228173907A7
:1046700031F5988400E010E01CC0F801808180349E
:10468000C1F42A813B81878590892817390789F4ED
:10469000838583FB882780F99C8198130AC0992021
:1046A00021F0C8010E94472B04C061E1C8010E94AB
:1046B0000C2CC8010E94F22C8C010097F1F6FFEF40
:1046C000EF1AFF0A85E0E816F10409F0B4CFBB2029
:1046D00071F0C601DF91CF911F910F91FF90EF9084
:1046E000DF90CF90BF90AF909F900C940629DF9100
:1046F000CF911F910F91FF90EF90DF90CF90BF90DF
:10470000AF909F9008951092C00B1092BF0B109223
:10471000CB0B1092CA0B1092D60B1092D50B1092A5
:10472000E10B1092E00B1092EC0B1092EB0B84E675
:1047300090E0A0E0B0E08093F30B9093F40BA09393
:10474000F50BB093F60B1092F80B1092F70B8AE072
:1047500093E29093FA0B8093F90B0895CF93DF9334
:10476000EC014B8543FB442740F96F8578898091A4
:104770003512909136120E942522892B09F01DC016
:104780000E94E0220097E1F020913512309136121C
:10479000FC01318320832F853889338322832B8545
:1047A00023FB222720F924832FEF3FEF3683258335
:1047B0006FEF0E949F22882319F080E4888306C04F
:1047C00061E1CE01DF91CF910C940C2CDF91CF9160
:1047D0000895CF92DF92EF92FF920F931F93CF93A2
:1047E000DF937C01FC01C781D0858D81813031F45C
:1047F0008B819C810E946227C82E01C0C12C4D81F3
:104800002091351230913612411107C08B819C8165
:104810008217930711F4CC24C39489819A8182175B
:10482000930709F443C0C11002C037FD3FC0F70130
:1048300032852E81329F90011124D32E6B817C8191
:104840000E9425228C01009729F0FC0187818D159B
:1048500030F02CC00E94E0228C01009739F1498190
:104860005A81F801518340834B815C815383428399
:104870008D818483F70140815181F80156834583FE
:10488000D782CC2079F0F701408151812D2D60E055
:1048900089819A810E9426314FEF6D2DC8010E94B7
:1048A000532204C06D2DC8010E949F2281E0DF9138
:1048B000CF911F910F91FF90EF90DF90CF900895CF
:1048C000EF92FF920F931F93CF93DF937C01DC0154
:1048D0001796CD91DC9118976B817C814D818981F0
:1048E0009A810E9425228C01D7011A96FC91EF81B2
:1048F000009789F18E81D80118969C911897981786
:1049000050F518968C9369817A81209135123091F7
:1049100036128B819C81D7014D915C916217730790
:1049200029F42E816D810E94263115C0FE9F7001F1
:1049300011242F2D6D810E942631F8014581568169
:10494000278160E089819A810E9426314F2D6E81F6
:10495000C8010E94532281E0DF91CF911F910F91F6
:10496000FF90EF90089593E0909342019091410160
:104970009F719830D9F780934201909141019F71C6
:104980008913FBCF08958091080C882311F086E1EC
:1049900001C088E00C94B3240F931F93CF93DF934F
:1049A0008091390181608093390188E00E94B324AD
:1049B0008FEF8093560190916E01906290936E01FB
:1049C00090916E019F7E90936E0180934F01809134
:1049D0004E01886080934E0180914E0180648093E7
:1049E0004E0180914C01806880934C0110924E01E1
:1049F0001092560186E00E94B324C0E0D0E000E0AF
:104A000010E081E00E94952880914601829586956C
:104A1000837090E00C2E02C0880F991F0A94E2F771
:104A2000082B192B2296C031D10559F788E00E9436
:104A3000B3248BEE809356018FEF80934F018091CA
:104A40004E01886080934E0180914E018064809376
:104A50004E0100936D011092000C1092080C109200
:104A6000020C81E090E09093FF0B8093FE0BDF91AE
:104A7000CF911F910F910895E0E0FCE0908190614B
:104A800090838093080C0895E0E0FCE090819160B1
:104A900090838093010C0895E0E0FCE02081226087
:104AA00020839093040C8093030C0895E0E0FCE0D5
:104AB0002081246020839093060C8093050C089538
:104AC000E0E0FCE09081986090838093070C08956B
:104AD0008091FE0B9091FF0B019749F481E090E0EB
:104AE0002091000C211105C080E090E002C081E01F
:104AF00090E0817008951F93CF93DF931F921F92D0
:104B0000CDB7DEB7182F89E169839A830E94B32459
:104B10006981862F8E5F80938001E12F9A81F92F22
:104B2000A1E8B1E002C081918D938E2F811B861781
:104B3000D0F382E08093420183E090E09093FF0BFA
:104B40008093FE0B0F900F90DF91CF911F910895EE
:104B5000E0E0FCE08081806280830895E0E0FCE09A
:104B600020812064208390930A0C8093090C709319
:104B70000C0C60930B0C08951F920F920FB60F92BE
:104B800011248F939F93809141018F71893181F41A
:104B9000809142018295869587708093FD0B89E014
:104BA0008093420184E090E09093FF0B8093FE0B92
:104BB0009F918F910F900FBE0F901F9018951F928D
:104BC0000F920FB60F9211248F939F9389E08093D9
:104BD0004201809147018093FC0B80917B0180937F
:104BE000FB0B85E090E09093FF0B8093FE0B9F9171
:104BF0008F910F900FBE0F901F9018951F93CF931A
:104C0000DF9300D01F921F92CDB7DEB78091FE0BCD
:104C10009091FF0B8430910509F48AC0853091058D
:104C200009F49AC0019709F0C4C01091000C112337
:104C300009F4BFC088E00E94B32410FF19C090910E
:104C4000020C292F2F7080915401807F822B80933A
:104C500054018091010C911109C0982F9F7180918E
:104C60004801807E892B8093480102C080935301C4
:104C70008091000C81FF08C08091030C8093620139
:104C80008091040C809363018091000C82FF08C026
:104C90008091050C809360018091060C80936101E6
:104CA0008091000C83FF09C09091070C9F70809148
:104CB0004501807F892B809345018091000C86FF00
:104CC00032C080E090E0E0910B0CF0910C0CE80F0A
:104CD000F91F208120933F0101968031910599F7BA
:104CE00010923C0180E090E0E091090CF0910A0CF8
:104CF000DF01A80FB91F2C9120933E01019680314E
:104D0000910591F780913C01806880933C018091EE
:104D10003D0180FFFCCF80E190913E019193815055
:104D2000D9F70E941D2D0E94C3241092000C41C08F
:104D30008091FD0B0E94172C809141018F71893069
:104D4000D9F72FC0FC01E058FE4F2081FC01E35F42
:104D5000F34F20834F5F01C040E02091FB0B842F75
:104D600090E030E0281739076CF78DE09CE09A83DB
:104D700089838091FB0B82508B83E091FB0BF0E0E9
:104D8000E35FF34F80818C838091FC0B8A558D8388
:104D9000CE0101960E94712D809141018F71893061
:104DA000D9F781E090E09093FF0B8093FE0B0E9477
:104DB000C3240F900F900F900F900F90DF91CF9121
:104DC0001F9108950E9484280E94F0280E94CC24FC
:104DD0000C941D300E94FE250E9452300C9415291F
:104DE0001092341280E88093A0008DE08093A1009F
:104DF0001092A9008CE78093A800E2E7F0E08081A0
:104E00008260808308952091A4003091A500280F2E
:104E1000391F3093AB002093AA002091AA00309153
:104E2000AB008091A8009091A9008217930770F4BD
:104E30008091AA009091AB002091A8003091A90028
:104E4000821B930B9093AB008093AA0010928D0C61
:104E50008091720084608093720080918D0C882311
:104E6000E1F3809172008B7F8093720008951F920E
:104E70000F920FB60F9211248F93809134128F5F8F
:104E8000809334128F910F900FBE0F901F90189542
:104E90001F920F920FB60F9211248F9381E080938F
:104EA0008D0C8F910F900FBE0F901F901895EEE80C
:104EB000FCE08FEF9FEF819391932CE0E23AF207B1
:104EC000D1F70895EEE8FCE0219131918217930724
:104ED00031F02CE0E23AF207B9F780E0089581E082
:104EE0000895E091A20CF091A30C15C022813381AA
:104EF0002817390769F4DC01AD57BF4F2C91218B7E
:104F0000DC01AA57BF4F2C91228B22E0248305C0DD
:104F10000190F081E02D309749F70C94EF2C10921E
:104F2000A30C1092A20C08950F931F93CF93DF93BD
:104F3000E091A20CF091A30CEF01CFC08C818823EB
:104F400021F0823009F0C6C0A9C00E94C72C8C0194
:104F5000009721F482E08C83898BC2C09B838A8373
:104F600081E08C83F801E957FF4F81E797E2918355
:104F70008083F801EA57FF4F898582FB882780F9F3
:104F800080839985D8011B968C911B9790FB80F9A3
:104F90001B968C931B97998593FB992790F990FB0F
:104FA00082F91B968C931B9799859695917090FB2F
:104FB00081F91B968C931B9799859295917090FB24
:104FC00083F91B968C9383FF2AC098012F573F4F7C
:104FD000D901ED91FC918460D8011B968C939A8540
:104FE0009F708181807F892B81839A859295907FA4
:104FF0008F70892B81839B859F708081807F892B17
:1050000080839B859295907F8F70892B80833296C9
:10501000D901ED93FC93F80181818E5F81838091AA
:1050200039128F5F80933912D8011C968C931C978C
:1050300080913512909136121E969C938E931D97F7
:105040008D819E8150969C938E931F9798859F701B
:1050500051968C915197807F892B51968C935197C3
:105060009F819295907F8F70892B51968C93F80138
:10507000EF57FF4F4E856C857D8550E08081918193
:105080000E94604EF80181819E85890F8183C8014D
:10509000DF91CF911F910F910C94472BEC17FD07D7
:1050A00041F4888199819093A30C8093A20C0AC04B
:1050B000FC01808191818C179D07D1F788819981AE
:1050C00091838083EF85F889CE01DF91CF911F9185
:1050D0000F9119940990D881C02D209709F02ECFF7
:1050E000DF91CF911F910F9108951F920F920FB6EC
:1050F0000F9211248F9381E08093A40C8F910F90D5
:105100000FBE0F901F90189514BE88E10FB6F8944B
:1051100080936000109260000FBEE1E6F0E080E84E
:105120008083108278940C94F02690E00C940327EE
:105130000F931F93CF93DF93FC018091A50C909167
:10514000A60CB681A781308521850097D1F14B2F20
:105150005A2F632F722FDC01C0E0D0E001C0D901CB
:1051600012960D911D912D913C9115974017510765
:105170006207730758F4041B150B260B370B1296A6
:105180000D931D932D933C9315970BC0401B510B12
:10519000620B730B2D913C911197ED012115310597
:1051A000F1F64283538364837583209739F08881B5
:1051B000998191838083F983E8830DC091838083F3
:1051C00006C011821082B283A38334832583F093B7
:1051D000A60CE093A50CDF91CF911F910F9108953C
:1051E0001092A60C1092A50C0895E091A50CF091D8
:1051F000A60C06C0E817F90739F00190F081E02D00
:105200003097C1F780E0089581E00895CF93DF9350
:10521000EC010E94F528811105C0CE01DF91CF91EC
:105220000C949828DF91CF910895CF92DF92EF925E
:10523000FF92CF93DF9380913412882309F43EC00C
:105240008FB7F894C0903412109234128FBFD12CC3
:10525000E12CF12C83E0CC0CDD1CEE1CFF1C8A95AC
:10526000D1F715C0C41AD50AE60AF70A88819981D0
:105270009093A60C8093A50C8A859B85019719F4C1
:10528000CE010E949828EC85FD85CE011995C0912C
:10529000A50CD091A60C209789F04A815B816C8186
:1052A0007D81C416D506E606F706E0F64C195D09C1
:1052B0006E097F094A835B836C837D83DF91CF9185
:1052C000FF90EF90DF90CF9008951092A70C10926E
:1052D000A90C1092A80C089520E1FC01ABE5B2E105
:1052E00001900D922A95E1F70895662311F020E3CD
:1052F00001C021E3FC0120838091A70C8F5F809384
:10530000A70C0895CF93DF93C091A80CD091A90C5E
:105310006091AA0C4091AB0C342F413108F030E180
:105320007091BC0C8CEA9CE0FE01EF57FF4FA0810E
:10533000B181A60FB11DFC010CC020815C91252715
:105340002D93772311F0208303C05081522750837F
:1053500031962E2F281B231780F3630F6093AA0C1E
:10536000431B4093AB0C442311F082E301C084E360
:105370008883DF91CF9108950F931F938091A70C9D
:10538000882309F4E9C08091A80C9091A90C00979A
:1053900009F4D9C0FC012081243309F05CC0EF5727
:1053A000FF4F2091AA0C0190F081E02DE20FF11D3A
:1053B0004091B00C5091B10C6091B20C7091B30C53
:1053C0000091AC0C1091AD0C2091AE0C3091AF0C53
:1053D00040275127622773270091B40C1091B50C18
:1053E0002091B60C3091B70C4027512762277327C4
:1053F0000091B80C1091B90C2091BA0C3091BB0CF3
:1054000040275127622773272091BC0C222359F093
:105410004083518362837383FC0121812C5F21834C
:105420000E94132C0EC0A1E00081118122813381E2
:10543000401751076207730709F0A0E06A2F0E9426
:10544000A22D1092A90C1092A80C8091A70C81504B
:105450008093A70C81C0223309F07EC023E3FC01B6
:1054600020836BE572E18CEA9CE01F910F910C9414
:105470001B2D8081982F9053923008F066C0F093D6
:10548000A90CE093A80C448550E060E070E04093E4
:10549000AC0C5093AD0C6093AE0C7093AF0C478581
:1054A000508960E070E0BA015527442791899295B0
:1054B0009F70492B4093B00C5093B10C6093B20C89
:1054C0007093B30C4585568560E070E0BA015527AE
:1054D000442791899F70492B4093B40C5093B50C8D
:1054E0006093B60C7093B70C93854581568160E04C
:1054F00070E0BA0155274427492B4093B80C5093CC
:10550000B90C6093BA0C7093BB0C813319F4918180
:10551000945091839F012E5F3F4FDF01AF57BF4FE4
:105520004D915C91241B350B9181920F9093AB0CA4
:105530001092AA0C91E0803309F090E09093BC0C9B
:1055400082E3808309C0E0E0F0E0CF010E94F22C0A
:10555000FC01009709F08DCF1F910F9108950F93D3
:105560001F93CF93DF93EC0110E0E0E0F0E003E164
:1055700011C08081813171F4DF01AC57BF4F2D9193
:105580003C911197215031092D933C93232B09F421
:10559000008311E0CF010E94F22CFC01009749F733
:1055A000112339F0CE01DF91CF911F910F910C940F
:1055B0000629DF91CF911F910F910895FF920F93CC
:1055C0001F93CF93DF93EC0110E0E0E0F0E007E100
:1055D00080E1F82E15C08081863191F4DF01AC574F
:1055E000BF4F2D913C911197215031092D933C9340
:1055F000232B29F40083DF01AD57BF4FFC9211E04C
:10560000CF010E94F22CFC01009729F7112341F0F1
:10561000CE01DF91CF911F910F91FF900C9406293D
:10562000DF91CF911F910F91FF9008951092BE0CC2
:105630001092BD0C82E390E0A0E0B0E08093C50C36
:105640009093C60CA093C70CB093C80C1092CA0CD0
:105650001092C90C8EED9AE29093CC0C8093CB0CF7
:105660008AE090E0A0E0B0E08093D30C9093D40C5B
:10567000A093D50CB093D60C1092D80C1092D70CE6
:105680008FEA9AE29093DA0C8093D90C08950F93E5
:105690001F93CF93DF93EC01FC01EA57FF4F20816A
:1056A00021FD05C08B8581FF02C080E101C082E140
:1056B0008883FE01ED57FF4F1082322F317020FF9B
:1056C00003C08FEF9FEF04C0809137129091381282
:1056D0009E838D8322FD06C0311104C0CE010E943D
:1056E000973104C08F85988998878F838091351270
:1056F000909136129A87898780913A128F5F8093B2
:105700003A128C838F8198858E010C571F4F01961A
:1057100069F481E498E89B838A830E94DE4C877059
:1057200099270196F8019183808307C081E698E864
:105730009B838A83F80111821082DF91CF911F91A0
:105740000F9108950F931F93CF93DF938C010E94C5
:10575000C72CEC010097E9F182E18883F80181818F
:105760008983FE01ED57FF4F10820E94DE4CFE013F
:10577000EC57FF4F87709927019691838083FE0134
:10578000E957FF4F118210829E012E5F3F4FF801B3
:105790004181C801029650E0BC01C9010E94604EDF
:1057A00081E498E89B838A838FEF9FEF98878F83AC
:1057B000F801858196819E838D8380913512909129
:1057C00036129A87898780913A128F5F80933A12B6
:1057D0008C83DF91CF911F910F910895CF93DF9329
:1057E000FC01C781D08580E090E00FC0FC012081E2
:1057F000263159F434852981321307C027E12083EB
:105800002A81EA57FF4F208304C00E94F22C0097A0
:1058100069F7DF91CF91089527E1FC012083ED57CF
:10582000FF4F6083089522E1FC0120830895E091F9
:10583000BD0CF091BE0C833030F0833031F08530F8
:1058400031F481E205C080E003C080E201C081E064
:10585000DF01AD57BF4F8C9385E180831092BE0C62
:105860001092BD0C0895BF92CF92DF92EF92FF92FB
:105870000F931F93CF93DF93C0E0D0E094E1E92E24
:1058800027E1F22E36E1D32E05E110E043E1C42EEC
:1058900051E1B52E60C088818331F9F030F4803158
:1058A00051F0823109F057C00BC0853129F18731A1
:1058B00009F051C040C061E0CE010E9475294BC083
:1058C000FE01EC57FF4F80819181892B21F0B88236
:1058D0008DEC9CE02BC0C8823EC00E9468258111DF
:1058E0003AC0D093BE0CC093BD0CE8826981CE0152
:1058F00002960E947B252FC0FE01ED57FF4F80814D
:10590000811117C02D853E858091351290913612F8
:105910002817390771F48B8580FF0BC0D882FE01F0
:10592000EC57FF4F118300838FEB9CE00E94062908
:1059300012C0F88210C0CE010E945431FE01E95716
:10594000FF4F0190F081E02DCE01309719F40E94B5
:10595000EF2C01C01995CE010E94F22CEC010097AA
:1059600009F099CFDF91CF911F910F91FF90EF90A8
:10597000DF90CF90BF9008951092DB0C1092640DD1
:105980001092ED0D1092760E1092FF0E0895EBED31
:10599000FCE080E090E02081211117C049E8489F99
:1059A0009001499F300D1124F901E552F34FDF01B9
:1059B0001D924A95E9F780E18183DF01AF57BF4F20
:1059C0002351334F2D933C9308C00196E757FF4F67
:1059D0008530910501F7E0E0F0E0CF010895FC018A
:1059E00010820895009759F0FC01E757FF4F09C056
:1059F000E757FF4F8FE0E838F80719F406C0EBEDE2
:105A0000FCE080818823A1F302C0E0E0F0E0CF0158
:105A10000895FC01ED57FF4F1082E9E3F2E1208188
:105A20002F5F2083FC01248720913512309136129C
:105A30003687258708950C94AE250C948229ECE8CE
:105A4000FFE020E03081332319F03150308321E032
:105A500035963FE0EE3BF307A9F721110C94062998
:105A60000895DC011796ED91FC9118972081213063
:105A700049F028F0223049F0233071F409C00E9427
:105A8000EE2B08C00E94263205C00E94E92302C006
:105A90000E94602481E0089580E00895ECE8FFE032
:105AA000108235968FE0EE3BF807D1F784E690E060
:105AB000A0E0B0E08093C00F9093C10FA093C20FFD
:105AC000B093C30F1092C50F1092C40F8FE19DE2E7
:105AD0009093C70F8093C60F61E37DE280E00C9442
